:020000040800F2
:10000000E8070020CD0100089F1F0008971F000887
:100010009B1F000887020008F12300080000000071
:10002000000000000000000000000000DF010008E8
:100030009D02000800000000E3010008D91F00082D
:10004000E7010008E7010008E7010008E7010008F0
:10005000E7010008E7010008A1020008E701000825
:10006000E7010008E7010008E70100088D02000829
:10007000E7010008E7010008E7010008E7010008C0
:10008000E7010008E7010008E7010008E7010008B0
:10009000E7010008E7010008E7010008E7010008A0
:1000A000E7010008E7010008E7010008E701000890
:1000B0009D200008E7010008E7010008E7010008AB
:1000C000E7010008E7010008E7010008E701000870
:1000D000E7010008BD220008E922000815230008F6
:1000E000E7010008E7010008E7010008E701000850
:1000F000E7010008E7010008E7010008E701000840
:10010000E7010008E7010008E7010008E70100082F
:10011000E7010008E7010008E7010008E70100081F
:10012000E7010008E7010008E7010008E70100080F
:1001300000F002F800F03AF80AA090E8000C8244BF
:100140008344AAF10107DA4501D100F02FF8AFF29C
:10015000090EBAE80F0013F0010F18BFFB1A43F0A5
:1001600001031847DC220000FC220000103A24BFE3
:1001700078C878C1FAD8520724BF30C830C144BF0C
:1001800004680C607047000000230024002500264E
:10019000103A28BF78C1FBD8520728BF30C148BFEA
:1001A0000B6070471FB51FBD10B510BD00F031F8D2
:1001B0001146FFF7F7FF02F01DF900F04FF803B406
:1001C000FFF7F2FF03BC00F057F800000948804732
:1001D00009480047FEE7FEE7FEE7FEE7FEE7FEE729
:1001E000FEE7FEE7FEE7FEE704480549054A064B41
:1001F000704700004520000831010008E801002098
:10020000E8070020E8030020E8030020704770475B
:100210007047754600F02CF8AE4605006946534617
:1002200020F00700854618B020B5FFF7DDFFBDE8D8
:1002300020404FF000064FF000074FF000084FF04D
:10024000000B21F00701AC46ACE8C009ACE8C009DE
:10025000ACE8C009ACE8C0098D46704710B504464B
:10026000AFF300802046BDE81040FFF7A8BF0000B4
:10027000004870478401002001491820ABBEFEE70A
:1002800026000200704700BFFEE7000010B50248DC
:1002900000F088F810BD00001001002000BFFEE74C
:1002A00010B50B48006800F0010078B10120084942
:1002B000086000F00CFA0121064800F097FB0446A4
:1002C00022464FF40051044800F098FB10BD000096
:1002D0001404014000080140001001402DE9F041E4
:1002E00086B004460D4616461F46DDF83080284885
:1002F00084420DD100BF2748806940F004002549A1
:1003000088610846806900F00400019000BF32E077
:10031000214884420DD100BF1E48806940F008008A
:100320001C4988610846806900F00800019000BF00
:1003300021E01A4884420DD100BF1648806940F080
:100340001000144988610846806900F0100001908F
:1003500000BF10E0124884420DD100BF0D488069F3
:1003600040F020000B4988610846806900F02000B9
:10037000019000BF00BF02950396CDF8148004974A
:1003800002A9204600F0A4F906B0BDE8F081000003
:100390000008014000100240000C01400010014024
:1003A0000014014010B50446C1480068C04A083234
:1003B0002168914201D1082127E0BD4A1C32216801
:1003C000914201D1802120E0B94A30322168914226
:1003D00001D1C91419E0B64A44322168914202D1D0
:1003E0004FF4004111E0B24A58322168914202D1E3
:1003F0004FF4002109E0AE4A6C322168914202D1EB
:100400004FF4000101E04FF00061084000284DD09A
:1004100020680068C0F3C00090B32068006820F036
:10042000080021680860A24908312068884201D18B
:10043000082028E09E491C312068884201D1802094
:1004400021E09B4930312068884201D1C0141AE074
:10045000974944312068884202D14FF4004012E0AD
:10046000934958312068884202D14FF400200AE0B5
:100470008F496C312068884203D14FF4000002E0BC
:1004800014E04FF000608A494860606B40F0010062
:100490006063042084F8210000BF002084F820005D
:1004A00000BF206B10B12046216B88478048006850
:1004B0007F4A08322168914201D1042127E07C4A19
:1004C0001C322168914201D1402120E0784A30322B
:1004D0002168914201D1091519E0754A4432216819
:1004E000914202D14FF4804111E0714A58322168A3
:1004F000914202D14FF4802109E06D4A6C322168AB
:10050000914202D14FF4800101E04FF08061084038
:10051000A0B320680068C0F3800078B3206800684A
:1005200000F0200028B92068006820F0040021684D
:1005300008605F4908312068884201D1042028E022
:100540005B491C312068884201D1402021E0584994
:1005500030312068884201D100151AE054494431F5
:100560002068884202D14FF4804012E0504958314F
:100570002068884203D14FF480200AE013E04C4900
:100580006C312068884202D14FF4800001E04FF0C6
:10059000806047494860112084F82100E06A10B16A
:1005A0002046E16A884742480068414A083221688B
:1005B000914201D1022127E03D4A1C32216891423B
:1005C00001D1202120E03A4A30322168914201D104
:1005D000491519E0364A44322168914202D14FF45C
:1005E000005111E0324A58322168914202D14FF451
:1005F000003109E02E4A6C322168914202D14FF459
:10060000001101E04FF000710840A0B320680068BD
:10061000C0F3400078B32068006800F0200028B9DB
:100620002068006820F00200216808602049083135
:100630002068884201D1022028E01D491C31206831
:10064000884201D1202021E01949303120688842B8
:1006500001D140151AE0164944312068884202D180
:100660004FF4005012E0124958312068884203D1FB
:100670004FF400300AE01AE00D496C3120688842DE
:1006800002D14FF4001001E04FF0007008494860BB
:10069000606B6063012084F8210000BF002084F8B3
:1006A000200000BFA06A10B12046A16A884710BD93
:1006B0000000024031B5002400F0A6F9044600BF56
:1006C00000F0A2F9001B00998842F9D338BD7047A9
:1006D0002DE9F84703460024002000258446002722
:1006E00000226EE14FF0010808FA02F4D1F8008010
:1006F00008EA0400A0427DD1DFF8D0A2D1F804803E
:10070000A8EB0A09D0453AD014DCB8F1030F50D059
:1007100009DCB8F1000F31D0B8F1010F1CD0B8F1ED
:10072000020F49D120E0B8F1110F18D0B8F1120F23
:1007300042D11EE0B9F5881F25D006DCB9F5803F0F
:1007400020D0B9F5801F37D11AE0B9F5001F18D0B5
:10075000B9F5041F30D117E0D1F80CC02DE0D1F865
:100760000C8008F1040C28E0D1F80C8008F1080C8A
:1007700023E0D1F80C8008F10C0C1EE000BF00BF94
:1007800000BF00BF00BF00BFD1F80880B8F1000F64
:1007900002D14FF0040C0BE0D1F80880B8F1010F42
:1007A00003D14FF0080C1C6102E04FF0080C5C61B3
:1007B00003E04FF0000C00E000BF00BFFF2801D8AD
:1007C000984601E003F104084646FF2802D84FEAA4
:1007D000820803E0A2F108084FEA88084746D6F8E5
:1007E00000804FF00F0909FA07F928EA09080CFA06
:1007F00007F900E088E048EA0908C6F80080D1F867
:10080000048008F08058B8F1805F7DD100BFDFF828
:10081000C081D8F8188048F00108DFF8B491C9F811
:100820001880C846D8F8188008F00108CDF8008074
:1008300000BF00BF4FEAB9384FEA920958F8295073
:100840004FEA82784FEA18794FF00F0808FA09F852
:1008500025EA0805DFF87C81434502D14FF0000806
:1008600016E0DFF87481434502D14FF001080FE034
:10087000DFF86881434502D14FF0020808E0DFF855
:100880006081434502D14FF0030801E04FF00408B6
:100890004FEA82794FEA197908FA09F848EA05051A
:1008A000DFF840814FEA920948F82950D1F80480D6
:1008B00008F48038B8F5803F0AD1DFF82C81D8F8E9
:1008C000008048EA0008DFF82091C9F8008009E0BC
:1008D000DFF81481D8F8008028EA0008DFF80891D2
:1008E000C9F80080D1F8048008F40038B8F5003F5A
:1008F00010D1DFF8F48008F10408D8F8008048EA45
:100900000008DFF8E49000E05AE009F10409C9F8B2
:1009100000800DE0DFF8D08008F10408D8F80080EE
:1009200028EA0008DFF8C09009F10409C9F800803E
:10093000D1F8048008F48018B8F5801F0ED1DFF8D4
:10094000A88008F10808D8F8008048EA0008DFF815
:10095000989009F10809C9F800800DE0DFF8888057
:1009600008F10808D8F8008028EA0008DFF8789035
:1009700009F10809C9F80080D1F8048008F40018CA
:10098000B8F5001F0ED1DFF8608008F10C08D8F828
:10099000008048EA0008DFF8509009F10C09C9F816
:1009A00000800DE0DFF8408008F10C08D8F80080E6
:1009B00028EA0008DFF8309009F10C09C9F8008036
:1009C000521C102AFFF48EAEBDE8F887000011100B
:1009D0000010024000080140000C014000100140DE
:1009E00000140140080001400004014002469368E1
:1009F0000B400BB1012000E0002070470AB10161FB
:100A000001E00B0403617047014800687047000073
:100A10000000002002480068401C0149086070473F
:100A20000000002010B50848006840F0100006499A
:100A30000860032000F0A8F8002000F007F800F09C
:100A400017F8002010BD00000020024070B50446D9
:100A500000F082FB4FF47A71B0FBF1F5284601F00B
:100A6000B6F800222146501E00F04FF8002070BD5D
:100A700008B500BF1648806940F00100144988613C
:100A80000846806900F00100009000BF00BF03200D
:100A900000F07AF8002211466FF00B0000F035F8F4
:100AA000002211466FF00A0000F02FF800221146D4
:100AB0006FF0090000F029F800221146101F00F025
:100AC00024F800221146501E00F01FF808BD000057
:100AD0000010024000BF00F01F0201219140034AB4
:100AE000430942F8231000BF7047000080E200E095
:100AF00000BF00F01F02012191404209920002F163
:100B0000E022C2F8001100BF70472DE9F05F804677
:100B10000D461646002701F043FA074639462A4695
:100B2000334601F00700C0F1070ABAF1040F02D9F9
:100B30004FF0040A01E0C0F1070AD14600F1040AAF
:100B4000BAF1070F02D24FF0000A01E0A0F1030A48
:100B5000D4464FF0010A0AFA09FAAAF1010A0AEA90
:100B6000020A0AFA0CFA4FF0010B0BFA0CFBABF17C
:100B7000010B0BEA030B4AEA0B042146404601F045
:100B800017FABDE8F09F000000BF00F00702064B17
:100B900019684FF6FF031940044B0B4343EA022147
:100BA000014B196000BF70470CED00E00000FA0532
:100BB000F8B5044600250026207800F00100002842
:100BC00074D000BF5448C06940F080505249C86199
:100BD0000846C06900F08050009000BF00BF4F4839
:100BE000006840F480704D490860FFF70DFF05462E
:100BF00006E0FFF709FF401B642801D90320F8BD78
:100C00004648006800F480700028F2D04248006A2C
:100C100000F44070A18801F44071884260D03E48E1
:100C2000006A20F440760121080490FAA0F0B0FA9E
:100C300080F03B4A02EB8000C0F800140020090459
:100C400091FAA1F1B1FA81F102EB8101C1F800043E
:100C50003148066206F0020048B3FFF7D5FE0546AC
:100C600008E0FFF7D1FE401B41F28831884201D9EC
:100C70000320C4E74020022191FAA1F1B1FA81F1E9
:100C800008430121B1EB601F02D12348006811E045
:100C90004020022191FAA1F1B1FA81F10843022129
:100CA000B1EB601F04D11C48006A03E018E00FE0BC
:100CB0001948406A4021022292FAA2F2B2FA82F264
:100CC000114301F01F020121914008400028C8D0C3
:100CD0001148006A20F44070616808430E490862B8
:100CE000207800F00200022807D10B48406820F469
:100CF0004040A168084308494860207800F010008F
:100D0000102807D10448406820F48000E1680843B7
:100D100001494860002072E7001002400070004066
:100D20000000424270B504460D460026F7480068B0
:100D300000F00700A84270D2F448006820F00700D5
:100D40002843F24908600846006800F00700A842FE
:100D500001D0012070BD207800F00200022807D1E8
:100D6000EB48406820F0F000A1680843E84948607B
:100D7000207800F0010000286FD0606801282DD194
:100D80002020010391FAA1F1B1FA81F10843012178
:100D9000B1EB601F02D1DE4800680FE020200103A4
:100DA00091FAA1F1B1FA81F108430221B1EB601F80
:100DB00002D1D748006A01E0D548406A20210A03E1
:100DC00092FAA2F2B2FA82F2114301F01F0201215B
:100DD00091400840002861D10120BBE760680228EB
:100DE0002DD12020010591FAA1F1B1FA81F108433A
:100DF0000121B1EB601F02D1C548006810E020203E
:100E0000010591FAA1F1B1FA81F108430221B1EB98
:100E1000601F03D1BE48006A02E083E0BC48406A1C
:100E200020210A0592FAA2F2B2FA82F2114301F0ED
:100E30001F0201219140084078BB01208AE7202051
:100E4000022191FAA1F1B1FA81F108430121B1EB3C
:100E5000601F03D1AE48006810E05BE12020022152
:100E600091FAA1F1B1FA81F108430221B1EB601FBF
:100E700002D1A748006A01E0A548406A2021022269
:100E800092FAA2F2B2FA82F2114301F01F0201219A
:100E90009140084008B901205CE7FFE79C484068A2
:100EA00020F003006168084399494860FFF7ACFDF2
:100EB00006466068012810D108E0FFF7A5FD801BF9
:100EC00041F28831884201D9032043E790484068C5
:100ED00000F00C000428F0D11CE16068022810D159
:100EE00008E0FFF791FD801B41F28831884201D96B
:100EF00003202FE78648406800F00C000828F0D156
:100F000008E108E0FFF780FD801B41F2883188424C
:100F100001D903201EE77E48406800F00C0000283D
:100F2000F0D1F7E0207800F00200022807D17848DD
:100F3000406820F0F000A1680843754948602078B7
:100F400000F0010000286ED0606801282CD120201C
:100F5000010391FAA1F1B1FA81F108430121B1EB4A
:100F6000601F02D16A4800680FE02020010391FA57
:100F7000A1F1B1FA81F108430221B1EB601F02D166
:100F80006348006A01E06248406A20210A0392FA3D
:100F9000A2F2B2FA82F2114301F01F020121914044
:100FA000084088BB0120D5E6606802282DD12020AA
:100FB000010591FAA1F1B1FA81F108430121B1EBE8
:100FC000601F02D1524800680FE02020010591FA0D
:100FD000A1F1B1FA81F108430221B1EB601F02D106
:100FE0004B48006A01E04A48406A20210A0592FA0B
:100FF000A2F2B2FA82F2114301F01F0201219140E4
:10100000084008B90120A5E62DE02020022191FA30
:10101000A1F1B1FA81F108430121B1EB601F03D1C5
:101020003B48006810E061E02020022191FAA1F124
:10103000B1FA81F108430221B1EB601F02D13448BB
:10104000006A01E03248406A2021022292FAA2F2AC
:10105000B2FA82F2114301F01F02012191400840CF
:1010600008B9012076E62A48406820F0030061684C
:10107000084327494860FFF7C7FC06466068012817
:1010800010D108E0FFF7C0FC801B41F28831884294
:1010900001D903205EE61E48406800F00C000428D9
:1010A000F0D123E06068022810D108E0FFF7ACFC23
:1010B000801B41F28831884201D903204AE6144856
:1010C000406800F00C000828F0D10FE008E0FFF7BE
:1010D0009BFC801B41F28831884201D9032039E60C
:1010E0000B48406800F00C000028F0D10748006869
:1010F00020F007002843054908600846006800F012
:101100000700A84206D0012024E60000002002408B
:1011100000100240207800F00400042807D10D4898
:10112000406820F4E060E16808430A49486020789C
:1011300000F00800082808D10648406820F46050F4
:10114000216940EAC100034948600020FFF77EFCA6
:101150000020FFE50010024000B500F019F8094931
:10116000496801F0F001F02292FAA2F2B2FA82F29A
:10117000D140054A515CC8400449086008460068EF
:1011800000BD000000100240302400082C000020A8
:10119000F0B585B00FF28C0C9CE8E01001A8A0E837
:1011A000E01024A52D6800950021002400220023D2
:1011B0000020214D696801F00C056DB3042D02D0AB
:1011C000082D28D101E01D4828E001F470154FF4E6
:1011D000701696FAA6F6B6FA86F6F54001AE735D7D
:1011E00001F4803595B1144D6D6805F400354FF468
:1011F000003696FAA6F6B6FA86F6F5401DF80540D2
:101200000E4DB5FBF4F505FB03F202E00C4D03FBBC
:1012100005F2104602E000BF084800BF00BF05B05D
:10122000F0BD000002030405060708090A0B0C0DB7
:101230000E0F1010010200000010024000127A0090
:1012400000093D0038B504460025207800F0010073
:10125000002877D0FC48406800F00C0004280CD02F
:10126000F948406800F00C00082837D1F64840687B
:1012700000F48030B0F5803F30D12020010391FA96
:10128000A1F1B1FA81F108430121B1EB601F02D154
:10129000ED4800680FE02020010391FAA1F1B1FAB6
:1012A00081F108430221B1EB601F02D1E648006AD8
:1012B00001E0E548406A20210A0392FAA2F2B2FA5C
:1012C00082F2114301F01F020121914008400028E1
:1012D000BFD06068002835D1012038BD00BFDA4892
:1012E000006820F48030D84908600846006820F47F
:1012F0008020086000BFFFF787FB054606E0FFF788
:1013000083FB401B642801D90320E6E7202001036A
:1013100091FAA1F1B1FA81F108430121B1EB601F0B
:1013200002D1C948006810E02020010391FAA1F120
:10133000B1FA81F108430221B1EB601F03D1C24829
:10134000006A02E0B7E0C048406A20210A0392FA2E
:10135000A2F2B2FA82F2114301F01F020121914080
:1013600008400028CBD100BF6068B0F5803F06D1AF
:10137000B548006840F48030B349086028E06068F0
:1013800058B9B148006820F48030AF490860084679
:10139000006820F4802008601AE06068B0F5A02F93
:1013A0000BD1A948006840F48020A749086008468E
:1013B000006840F4803008600AE0A348006820F428
:1013C0008030A14908600846006820F48020086049
:1013D00000BF6068B8B3FFF717FB054606E0FFF7EC
:1013E00013FB401B642801D9032076E7202001036A
:1013F00091FAA1F1B1FA81F108430121B1EB601F2B
:1014000002D1914800680FE02020010391FAA1F178
:10141000B1FA81F108430221B1EB601F02D18A4881
:10142000006A01E08848406A20210A0392FAA2F289
:10143000B2FA82F2114301F01F02012191400840EB
:101440000028CCD037E0FFE7FFF7DEFA054606E0DC
:10145000FFF7DAFA401B642801D903203DE720207A
:10146000010391FAA1F1B1FA81F108430121B1EB35
:10147000601F02D1744800680FE02020010391FA38
:10148000A1F1B1FA81F108430221B1EB601F02D151
:101490006D48006A01E06C48406A20210A0392FA14
:1014A000A2F2B2FA82F2114301F01F02012191402F
:1014B00008400028CCD1207800F0020002284ED14C
:1014C0006148406800F00C0050B15F48406800F08F
:1014D0000C00082844D15C48406800F4803078BB98
:1014E0002020022191FAA1F1B1FA81F108430121F2
:1014F000B1EB601F02D1544800680FE020200221A8
:1015000091FAA1F1B1FA81F108430221B1EB601F18
:1015100002D14D48006A01E04B48406A2021022276
:1015200092FAA2F2B2FA82F2114301F01F020121F3
:101530009140084028B12069012802D00120CCE662
:101540000EE04148006820F0F800F82292FAA2F27A
:10155000B2FA82F26169914008433B49086095E024
:10156000206970B3012090FAA0F1B1FA81F1374AF5
:1015700042F82100FFF748FA054606E0FFF744FA73
:10158000401B022801D90320A7E62020022191FA5E
:10159000A1F1B1FA81F108430121B1EB601F02D141
:1015A0002948006810E02020022191FAA1F1B1FA47
:1015B00081F108430221B1EB601F03D12248006A88
:1015C00002E01EE02048406A2021022292FAA2F2A4
:1015D000B2FA82F2114301F01F020121914008404A
:1015E0000028CBD01848006820F0F800F82292FAC2
:1015F000A2F2B2FA82F2616991400843124908608E
:1016000044E00020012191FAA1F1B1FA81F10F4AE1
:1016100042F82100FFF7F8F9054606E0FFF7F4F974
:10162000401B022801D9032057E62020022191FA0D
:10163000A1F1B1FA81F108430121B1EB601F07D19B
:101640000148006814E0000000100240000042421F
:101650002020022191FAA1F1B1FA81F1084302217F
:10166000B1EB601F02D1FC48006A01E0FA48406A11
:101670002021022292FAA2F2B2FA82F2114301F080
:101680001F020121914008400028C7D1207800F0B6
:101690000800082846D1A06980B3012090FAA0F183
:1016A000B1FA81F1ED4A02EB8101C1F88004FFF744
:1016B000ABF9054606E0FFF7A7F9401B022801D960
:1016C00003200AE66020022191FAA1F1B1FA81F12A
:1016D00008430121B1EB601F02D1DF48006810E030
:1016E0006020022191FAA1F1B1FA81F108430221AF
:1016F000B1EB601F03D1D848006A02E013E0D6487E
:10170000406A6021022292FAA2F2B2FA82F21143F6
:1017100001F01F020121914008400028CBD0012098
:10172000FEF7C8FF41E00020012191FAA1F1B1FAD2
:1017300081F1CA4A02EB8101C1F88004FFF764F924
:10174000054606E0FFF760F9401B022801D9032097
:10175000C3E56020022191FAA1F1B1FA81F10843B9
:101760000121B1EB601F02D1BB4800680FE060208F
:10177000022191FAA1F1B1FA81F108430221B1EB02
:10178000601F02D1B448006A01E0B348406A60219A
:10179000022292FAA2F2B2FA82F2114301F01F027F
:1017A0000121914008400028CCD1207800F00400AD
:1017B000042875D100BFA848C06940F08050A649F0
:1017C000C8610846C06900F08050009000BF00BFAB
:1017D000A348006840F48070A1490860FFF714F93D
:1017E000054606E0FFF710F9401B642801D90320E5
:1017F00073E59B48006800F480700028F2D000BFB9
:101800009548006A20F00100934908620846006A82
:1018100020F00400086200BFFFF7F6F8054608E074
:10182000FFF7F2F8401B41F28831884201D90320CA
:1018300053E54020022191FAA1F1B1FA81F1084368
:101840000121B1EB601F02D1834800680FE0402006
:10185000022191FAA1F1B1FA81F108430221B1EB21
:10186000601F02D17C48006A01E07B48406A402149
:10187000022292FAA2F2B2FA82F2114301F01F029E
:101880000121914008400028CAD100BFE06801282A
:1018900007D17148006A40F001006F49086228E0F2
:1018A0009EE0E06858B96C48006A20F001006A497F
:1018B00008620846006A20F00400086219E0E06847
:1018C00005280BD16448006A40F0040062490862B0
:1018D0000846006A40F0010008620AE05E48006ABB
:1018E00020F001005C4908620846006A20F004000C
:1018F000086200BFE068C8B3FFF786F8054608E055
:10190000FFF782F8401B41F28831884201D9032059
:10191000E3E44020022191FAA1F1B1FA81F10843F8
:101920000121B1EB601F02D14B4800680FE040205D
:10193000022191FAA1F1B1FA81F108430221B1EB40
:10194000601F02D14448006A01E04348406A4021D8
:10195000022292FAA2F2B2FA82F2114301F01F02BD
:101960000121914008400028CAD039E0FFE7FFF785
:101970004BF8054608E0FFF747F8401B41F2883175
:10198000884201D90320A8E44020022191FAA1F164
:10199000B1FA81F108430121B1EB601F02D12E4859
:1019A00000680FE04020022191FAA1F1B1FA81F123
:1019B00008430221B1EB601F02D12748006A01E011
:1019C0002548406A4021022292FAA2F2B2FA82F23B
:1019D000114301F01F020121914008400028CAD1A3
:1019E000E069002871D01C48406800F00C0008280D
:1019F0006CD0E06902286AD10021C00590FAA0F0FD
:101A0000B0FA80F0154A42F82010FEF7FDFF0546B7
:101A100006E0FEF7F9FF401B022801D903205CE431
:101A20002020010591FAA1F1B1FA81F108430121C9
:101A3000B1EB601F02D10848006815E020200105C5
:101A400091FAA1F1B1FA81F108430221B1EB601FD3
:101A500008D10148006A07E000100240000042423D
:101A6000007000405748406A20210A0592FAA2F20D
:101A7000B2FA82F2114301F01F02012191400840A5
:101A80000028C6D1206AB0F5803F07D14D48406894
:101A900020F40030A16808434A494860D4E90801AD
:101AA00008434849496821F474110843454948608E
:101AB0000120010691FAA1F1B1FA81F1424A42F8FE
:101AC0002100FEF7A1FF054609E079E076E033E06A
:101AD000FEF79AFF401B022801D9032015E42020BD
:101AE000010591FAA1F1B1FA81F108430121B1EBAD
:101AF000601F02D1334800680FE02020010591FAF1
:101B0000A1F1B1FA81F108430221B1EB601F02D1CA
:101B10002C48006A01E02B48406A20210A0592FA0D
:101B2000A2F2B2FA82F2114301F01F0201219140A8
:101B300008400028CCD043E000214FF0807090FA9C
:101B4000A0F0B0FA80F0204A42F82010FEF75CFFC7
:101B5000054606E0FEF758FF401B022801D9032086
:101B600043E42020010591FAA1F1B1FA81F1084383
:101B70000121B1EB601F02D1124800680FE0202064
:101B8000010591FAA1F1B1FA81F108430221B1EB0B
:101B9000601F02D10B48006A01E00A48406A202118
:101BA0000A0592FAA2F2B2FA82F2114301F01F0280
:101BB0000121914008400028CCD101E0012014E42B
:101BC000002012E40010024000004242704770B54D
:101BD00004462546681EB0F1807F01D301200FE046
:101BE000681E4FF0E02148610F214FF0FF3000F0F8
:101BF000DFF900204FF0E021886107200861002014
:101C000070BD10B5FFF7E2FF10BD70477047024688
:101C100000BF92F83800012801D10220704701204E
:101C200082F8380000BF022082F83900106840684E
:101C300020F0700013685860106840680B68184303
:101C4000136858601068806820F0800013689860FE
:101C5000106880684B68184313689860012082F808
:101C6000390000BF002082F8380000BF00BFD5E770
:101C700010B504460CB9012010BD94F8390028B9FC
:101C8000002084F83800204600F00CF8022084F888
:101C90003900211D206800F013FA012084F8390072
:101CA0000020E9E7704701460868C06840F001007D
:101CB0000A68D0600868006840F001000A68106097
:101CC000002070472DE9F04104460D46002600BF74
:101CD00094F83800012802D10220BDE8F0810120EB
:101CE00084F8380000BF022084F839002068866834
:101CF00026F0770626F47F462068866028685028FC
:101D00003BD00CDC202860D004DC002853D0102805
:101D100065D155E030285DD0402860D141E0602891
:101D200035D070280DD0B0F5805F03D0B0F5005FDE
:101D300055D115E02068806820F007002168886090
:101D40004EE0D5E902136A68206800F0EFF92068D8
:101D5000866826F0770646F07706206886603FE0C2
:101D6000D5E902136A68206800F0E0F9206880680D
:101D700040F480402168886032E0EA686968206841
:101D800000F0EAF95021206800F0DCF928E0EA6868
:101D90006968206800F0F5F96021206800F0D2F948
:101DA0001EE0EA686968206800F0D6F940212068E2
:101DB00000F0C8F914E00021206800F0C3F90FE03A
:101DC0001021206800F0BEF90AE02021206800F010
:101DD000B9F905E03021206800F0B4F900E000BF57
:101DE00000BF012084F8390000BF002084F83800CB
:101DF00000BF00BF71E7704710B504462068006956
:101E0000C0F34000D8B12068C068C0F34000B0B152
:101E10006FF0020021680861012020762068806947
:101E200000F0030018B12046FFF7E5FF05E020466B
:101E300000F0ADF8204600F0ABF8002020762068D6
:101E40000069C0F38000D8B12068C068C0F380008A
:101E5000B0B16FF00400216808610220207620688C
:101E6000806900F4407018B12046FFF7C4FF05E018
:101E7000204600F08CF8204600F08AF800202076FA
:101E800020680069C0F3C000D8B12068C068C0F302
:101E9000C000B0B16FF0080021680861042020760E
:101EA0002068C06900F0030018B12046FFF7A3FFC7
:101EB00005E0204600F06BF8204600F069F80020AD
:101EC000207620680069C0F30010D8B12068C0688F
:101ED000C0F30010B0B16FF0100021680861082055
:101EE00020762068C06900F4407018B12046FFF7E2
:101EF00082FF05E0204600F04AF8204600F048F84E
:101F0000002020762068006900F0010058B12068A8
:101F1000C06800F0010030B16FF001002168086175
:101F2000204600F036F820680069C0F3C01058B1B0
:101F30002068C068C0F3C01030B16FF08000216825
:101F400008612046FFF761FE20680069C0F3801039
:101F500058B12068C068C0F3801030B16FF0400005
:101F600021680861204600F015F820680069C0F378
:101F7000401058B12068C068C0F3401030B16FF015
:101F80002000216808612046FFF740FE10BD704721
:101F900070477047704700BFFEE700BFFEE770471D
:101FA00002480068C0F30220704700000CED00E01A
:101FB00010B5002807DA0A07140E054A00F00F03CF
:101FC0001B1FD45403E00A07130E024A135410BD1A
:101FD00018ED00E000E400E010B5FEF71BFDFFF790
:101FE00010FE10BD00B593B00120099000040A90C6
:101FF00000200B9001200D9002201090C103119140
:102000004FF4E011129109A8FFF71CF90F2004907A
:1020100002200590002006904FF480600790002079
:102020000890022104A8FEF77DFE122000904FF4D4
:1020300000400290002003906846FEF7B9FD13B0FF
:1020400000BD00001148006840F001000F49086021
:10205000084640680E4908400C4948600846006838
:102060000C490840094908600846006820F48020AF
:1020700008600846406820F4FE0048604FF41F00E6
:102080008860C803044908607047000000100240DF
:102090000000FFF8FFFFF6FE08ED00E010B506486F
:1020A000FFF7AAFE0548006808B9012000E00020FB
:1020B0000249086010BD000048010020B0812142A3
:1020C00000220268164B984208D0B0F1804F05D02C
:1020D000144B984202D0144B984203D122F0700264
:1020E0004B681A430E4B984208D0B0F1804F05D090
:1020F0000C4B984202D00C4B984203D122F4407210
:10210000CB681A4302608B68C3620B688362044B1E
:10211000984201D10B6903630123436170470000BA
:10212000002C0140000400400008004030B50C467F
:102130000021816821F47F4142EA03252543294398
:10214000816030BD0A460021816821F0700142F0B3
:10215000070319438160704730B50B4614460021D0
:102160000022026A056A25F001050562816921F0F5
:10217000F00141EA041122F00A021A43816102626D
:1021800030BD30B50B46144600210022056A25F00B
:10219000100505628169026A21F4704141EA043147
:1021A00022F0A00242EA03128161026230BD000007
:1021B000F0B587B005460C4616461F460020039032
:1021C00004900590069001900290B4F1804F0DD1DB
:1021D00000BF3748C06940F001003549C861084672
:1021E000C06900F00100009000BF21E03148844246
:1021F0000DD100BF2E48C06940F002002C49C861D3
:102200000846C06900F00200009000BF10E02948B5
:1022100084420DD100BF2648C06940F00400244923
:10222000C8610846C06900F00400009000BF00BF0C
:102230002C60701EE860781E686000212961A9602A
:1022400069612846FFF714FD4FF48050039003A9FD
:102250002846FFF737FD01A92846FFF7D8FC0020E4
:1022600001900290B4F1804F08D1002211461C2049
:10227000FEF74BFC1C20FEF73BFC16E00D488442A9
:1022800008D1002211461D20FEF73FFC1D20FEF75D
:102290002FFC0AE00848844207D1002211461E2084
:1022A000FEF733FC1E20FEF723FC07B0F0BD000054
:1022B00000100240000400400008004010B508482B
:1022C000006800F0200030B10548001D0068C1B270
:1022D000044800F077F82521014800F031F810BDDE
:1022E000003801400400002010B50848006800F0E4
:1022F000200030B10548001D0068C1B2044800F05C
:1023000061F82621014800F01BF810BD0044004090
:102310001000002010B50848006800F0200030B11F
:102320000548001D0068C1B2044800F04BF82721A1
:10233000014800F005F810BD004800401C000020D6
:1023400038B505460C461E48056000BF00680068A9
:1023500000901B4800684068009000BF00BF00BFAD
:1023600017480068006800901548006840680090B1
:1023700000BF00BF00BF124800680068009010480E
:1023800000684068009000BF00BF00BF0C480068B4
:10239000006800900A4800684068009000BF00BFD5
:1023A00000BF074800680068009005480068406862
:1023B000009000BF00BF2046FEF78CFB38BD000038
:1023C0009000002010B5C28883889A420FDA0289F3
:1023D00083889A4201D1002202814AB204890368AB
:1023E0001A550289521C0281C288521CC28010BD3B
:1023F00000BFFEE708B5FEF715FBFFF7F3FD42F25D
:1024000010734FF4E15251060748FFF7D1FE06481A
:10241000FFF749FC032001231A46190300900348E3
:10242000FDF75CFF00BFFEE748010020000C014003
:10243000000000000102030401020304060708096A
:102440006024000800000020300000006C0100083B
:102450009024000830000020B80700008801000820
:1024600000000000300000202000000000000000FC
:10247000500000202000000000000000700000203C
:1024800020000000000000000000000000A24A043C
:0400000508000131BD
:00000001FF
