:020000040800F2
:10000000A8070020DD010008D1210008C92100084F
:10001000CD210008DF0400082135000800000000A1
:10002000000000000000000000000000EF010008D8
:10003000F504000800000000F3010008092B000887
:10004000F7010008F7010008F7010008F7010008B0
:10005000F7010008F7010008F9040008F70100089B
:10006000F7010008F7010008F7010008E50400089F
:10007000F7010008F7010008F7010008F701000880
:10008000F7010008F7010008F7010008F701000870
:10009000F7010008F7010008F7010008F701000860
:1000A000F7010008F7010008F7010008F701000850
:1000B000F7010008F7010008F7010008F701000840
:1000C000F7010008F7010008F7010008F701000830
:1000D000F7010008113000087D300008D930000811
:1000E000F7010008F7010008F7010008F701000810
:1000F000F7010008F7010008F7010008F701000800
:10010000F7010008F7010008F7010008F7010008EF
:10011000F7010008F7010008F7010008F7010008DF
:10012000F7010008F7010008F7010008F7010008CF
:1001300000F002F800F043F80AA090E8000C8244B6
:100140008344AAF10107DA4501D100F038F8AFF293
:10015000090EBAE80F0013F0010F18BFFB1A43F0A5
:1001600001031847703D0000903D0000103A24BF85
:1001700078C878C1FAD8520724BF30C830C144BF0C
:1001800004680C607047000000230024002500264E
:10019000103A28BF78C1FBD8520728BF30C148BFEA
:1001A0000B6070471FB500F037F9040000200021F4
:1001B00003F0B2FA401C60601FBD10B510BD00F026
:1001C00006F91146FFF7EEFF03F0ACF900F036F93F
:1001D00003B4FFF7F2FF03BC00F07AF90948804747
:1001E00009480047FEE7FEE7FEE7FEE7FEE7FEE719
:1001F000FEE7FEE7FEE7FEE704480549054A064B31
:1002000070470000752B000831010008A80100208C
:10021000A8070020A8030020A803002070B5064608
:1002200000F03EF80468054630460A22002100F03E
:100230003BF82C6070BD10B5203AC0F00B80B1E8DF
:100240001850203AA0E81850B1E81850A0E818500B
:10025000BFF4F5AF5FEA027C24BFB1E81850A0E814
:10026000185044BF18C918C0BDE810405FEA827C2E
:1002700024BF51F8043B40F8043B08BF7047D20745
:1002800028BF31F8023B48BF11F8012B28BF20F8E6
:10029000023B48BF00F8012B70477047704770471A
:1002A00000487047480100202DE9F04791460F466D
:1002B00080460446002614F8015B2DB100F030F8AA
:1002C0000068405DC007F6D12B2D02D02D2D18D02F
:1002D000641E4A463946204600F02AF827B139689C
:1002E000A14201D1C7F800804FF0020471050BD57F
:1002F0004042002803DDFFF7D3FF0460A007BDE8FC
:10030000F08746F48066E4E70028F8DAFFF7C8FFD4
:1003100004606FF00040F2E7004870474801002099
:1003200010B500F079F8001D10BD00BFED330000DE
:100330002DE9F05F824615468B4600270AF101043D
:10034000B9460078302801D09DB113E014F8010BB4
:100350000127782803D0582801D045B10AE00DB113
:10036000102D07D1002714F8010B102502E00825F5
:1003700000E00A250026B0460EE005FB080005FB5C
:1003800006F101271FFA80F801EB1046B6F5803F11
:1003900000D3B94614F8010B294600F041F80028B3
:1003A000EBDABBF1000F05D00FB1641E00E054463C
:1003B000CBF80040B9F1000F06D0FFF771FF022122
:1003C0000160C81EBDE8F09F48EA0640FAE775469E
:1003D000FFF7A2FFAE4605006946534620F007002E
:1003E000854618B020B5FFF707FFBDE820404FF065
:1003F00000064FF000074FF000084FF0000B21F00F
:100400000701AC46ACE8C009ACE8C009ACE8C009DB
:10041000ACE8C0098D46704700487047680100206D
:100420003A2800D2303820F02002412A01D3A2F12C
:100430003700884201D34FF0FF30704710B50446B3
:10044000AFF300802046BDE81040FFF7C1BE0000BA
:100450004FF0013C50F8042B51F8043B9A4221D153
:10046000A2EB0C03934313EACC1317D150F8042BDF
:1004700051F8043B9A4215D1A2EB0C03934313EAC3
:10048000CC130BD150F8042B51F8043B9A4209D1FC
:10049000A2EB0C03934313EACC13DBD04FF0000024
:1004A000704700BFD01A01BAB1FA81F101F018010A
:1004B00022FA01F0CB40C1F12001DBB2C0B2C01A78
:1004C0002CFA01F3D11A914311EAC311E6D1704716
:1004D00001491820ABBEFEE726000200704700BFAE
:1004E000FEE7000010B5024800F024F810BD00003F
:1004F0001001002000BFFEE710B50B48006800F0B7
:10050000010078B101200849086000F0A8F9012134
:10051000064800F033FB044622464FF400510448DD
:1005200000F034FB10BD000014040140000801403D
:100530000010014010B50446C1480068C04A0832A6
:100540002168914201D1082127E0BD4A1C3221686F
:10055000914201D1802120E0B94A30322168914294
:1005600001D1C91419E0B64A44322168914202D13E
:100570004FF4004111E0B24A58322168914202D151
:100580004FF4002109E0AE4A6C322168914202D159
:100590004FF4000101E04FF00061084000284DD009
:1005A00020680068C0F3C00090B32068006820F0A5
:1005B000080021680860A24908312068884201D1FA
:1005C000082028E09E491C312068884201D1802003
:1005D00021E09B4930312068884201D1C0141AE0E3
:1005E000974944312068884202D14FF4004012E01C
:1005F000934958312068884202D14FF400200AE024
:100600008F496C312068884203D14FF4000002E02A
:1006100014E04FF000608A494860606B40F00100D0
:100620006063042084F8210000BF002084F82000CB
:1006300000BF206B10B12046216B884780480068BE
:100640007F4A08322168914201D1042127E07C4A87
:100650001C322168914201D1402120E0784A303299
:100660002168914201D1091519E0754A4432216887
:10067000914202D14FF4804111E0714A5832216811
:10068000914202D14FF4802109E06D4A6C32216819
:10069000914202D14FF4800101E04FF080610840A7
:1006A000A0B320680068C0F3800078B320680068B9
:1006B00000F0200028B92068006820F004002168BC
:1006C00008605F4908312068884201D1042028E091
:1006D0005B491C312068884201D1402021E0584903
:1006E00030312068884201D100151AE05449443164
:1006F0002068884202D14FF4804012E050495831BE
:100700002068884203D14FF480200AE013E04C496E
:100710006C312068884202D14FF4800001E04FF034
:10072000806047494860112084F82100E06A10B1D8
:100730002046E16A884742480068414A08322168F9
:10074000914201D1022127E03D4A1C3221689142A9
:1007500001D1202120E03A4A30322168914201D172
:10076000491519E0364A44322168914202D14FF4CA
:10077000005111E0324A58322168914202D14FF4BF
:10078000003109E02E4A6C322168914202D14FF4C7
:10079000001101E04FF000710840A0B3206800682C
:1007A000C0F3400078B32068006800F0200028B94A
:1007B0002068006820F002002168086020490831A4
:1007C0002068884201D1022028E01D491C312068A0
:1007D000884201D1202021E0194930312068884227
:1007E00001D140151AE0164944312068884202D1EF
:1007F0004FF4005012E0124958312068884203D16A
:100800004FF400300AE01AE00D496C31206888424C
:1008100002D14FF4001001E04FF000700849486029
:10082000606B6063012084F8210000BF002084F821
:10083000200000BFA06A10B12046A16A884710BD01
:100840000000024031B5002400F0A6F9044600BFC4
:1008500000F0A2F9001B00998842F9D338BD704717
:100860002DE9F84703460024002000258446002790
:1008700000226EE14FF0010808FA02F4D1F800807E
:1008800008EA0400A0427DD1DFF8D0A2D1F80480AC
:10089000A8EB0A09D0453AD014DCB8F1030F50D0C8
:1008A00009DCB8F1000F31D0B8F1010F1CD0B8F15C
:1008B000020F49D120E0B8F1110F18D0B8F1120F92
:1008C00042D11EE0B9F5881F25D006DCB9F5803F7E
:1008D00020D0B9F5801F37D11AE0B9F5001F18D024
:1008E000B9F5041F30D117E0D1F80CC02DE0D1F8D4
:1008F0000C8008F1040C28E0D1F80C8008F1080CF9
:1009000023E0D1F80C8008F10C0C1EE000BF00BF02
:1009100000BF00BF00BF00BFD1F80880B8F1000FD2
:1009200002D14FF0040C0BE0D1F80880B8F1010FB0
:1009300003D14FF0080C1C6102E04FF0080C5C6121
:1009400003E04FF0000C00E000BF00BFFF2801D81B
:10095000984601E003F104084646FF2802D84FEA12
:10096000820803E0A2F108084FEA88084746D6F853
:1009700000804FF00F0909FA07F928EA09080CFA74
:1009800007F900E088E048EA0908C6F80080D1F8D5
:10099000048008F08058B8F1805F7DD100BFDFF897
:1009A000C081D8F8188048F00108DFF8B491C9F880
:1009B0001880C846D8F8188008F00108CDF80080E3
:1009C00000BF00BF4FEAB9384FEA920958F82950E2
:1009D0004FEA82784FEA18794FF00F0808FA09F8C1
:1009E00025EA0805DFF87C81434502D14FF0000875
:1009F00016E0DFF87481434502D14FF001080FE0A3
:100A0000DFF86881434502D14FF0020808E0DFF8C3
:100A10006081434502D14FF0030801E04FF0040824
:100A20004FEA82794FEA197908FA09F848EA050588
:100A3000DFF840814FEA920948F82950D1F8048044
:100A400008F48038B8F5803F0AD1DFF82C81D8F857
:100A5000008048EA0008DFF82091C9F8008009E02A
:100A6000DFF81481D8F8008028EA0008DFF8089140
:100A7000C9F80080D1F8048008F40038B8F5003FC8
:100A800010D1DFF8F48008F10408D8F8008048EAB3
:100A90000008DFF8E49000E05AE009F10409C9F821
:100AA00000800DE0DFF8D08008F10408D8F800805D
:100AB00028EA0008DFF8C09009F10409C9F80080AD
:100AC000D1F8048008F48018B8F5801F0ED1DFF843
:100AD000A88008F10808D8F8008048EA0008DFF884
:100AE000989009F10809C9F800800DE0DFF88880C6
:100AF00008F10808D8F8008028EA0008DFF87890A4
:100B000009F10809C9F80080D1F8048008F4001838
:100B1000B8F5001F0ED1DFF8608008F10C08D8F896
:100B2000008048EA0008DFF8509009F10C09C9F884
:100B300000800DE0DFF8408008F10C08D8F8008054
:100B400028EA0008DFF8309009F10C09C9F80080A4
:100B5000521C102AFFF48EAEBDE8F8870000111079
:100B60000010024000080140000C0140001001404C
:100B7000001401400800014000040140024693684F
:100B80000B400BB1012000E0002070470AB1016169
:100B900001E00B04036170470148006870470000E2
:100BA0000000002002480068401C014908607047AE
:100BB0000000002010B50848006840F01000064909
:100BC0000860032000F0B6F8002000F007F800F0FD
:100BD00017F8002010BD00000020024070B5044648
:100BE00000F090FB4FF47A71B0FBF1F5284601F06C
:100BF000F0F800222146501E00F05DF8002070BD84
:100C000008B500BF1648806940F0010014498861AA
:100C10000846806900F00100009000BF00BF03207B
:100C200000F088F8002211466FF00B0000F043F846
:100C3000002211466FF00A0000F03DF80022114634
:100C40006FF0090000F037F800221146101F00F085
:100C500032F800221146501E00F02DF808BD0000A9
:100C60000010024000BF00F01F0201219140034A22
:100C7000430942F8231000BF7047000080E200E003
:100C800000BF00F01F0201219140034A430942F8CE
:100C9000231000BF7047000080E100E000BF00F0BB
:100CA0001F02012191404209920002F1E022C2F8A4
:100CB000001100BF70472DE9F05F80460D461646D3
:100CC000002701F087FA074639462A46334601F0E5
:100CD0000700C0F1070ABAF1040F02D94FF0040A65
:100CE00001E0C0F1070AD14600F1040ABAF1070F8A
:100CF00002D24FF0000A01E0A0F1030AD4464FF0FF
:100D0000010A0AFA09FAAAF1010A0AEA020A0AFA27
:100D10000CFA4FF0010B0BFA0CFBABF1010B0BEAD9
:100D2000030B4AEA0B042146404601F05BFABDE89A
:100D3000F09F000000BF00F00702064B19684FF655
:100D4000FF031940044B0B4343EA0221014B196096
:100D500000BF70470CED00E00000FA05F8B504464E
:100D600000250026207800F00100002874D000BF84
:100D70005448C06940F080505249C8610846C06973
:100D800000F08050009000BF00BF4F48006840F462
:100D900080704D490860FFF7FFFE054606E0FFF74B
:100DA000FBFE401B642801D90320F8BD46480068BB
:100DB00000F480700028F2D04248006A00F44070CD
:100DC000A18801F44071884260D03E48006A20F456
:100DD00040760121080490FAA0F0B0FA80F03B4A76
:100DE00002EB8000C0F800140020090491FAA1F180
:100DF000B1FA81F102EB8101C1F8000431480662C9
:100E000006F0020048B3FFF7C7FE054608E0FFF70B
:100E1000C3FE401B41F28831884201D90320C4E758
:100E20004020022191FAA1F1B1FA81F10843012198
:100E3000B1EB601F02D12348006811E0402002217D
:100E400091FAA1F1B1FA81F108430221B1EB601FDF
:100E500004D11C48006A03E018E00FE01948406A1A
:100E60004021022292FAA2F2B2FA82F2114301F078
:100E70001F020121914008400028C8D01148006A93
:100E800020F44070616808430E490862207800F041
:100E90000200022807D10B48406820F44040A168B6
:100EA000084308494860207800F01000102807D156
:100EB0000448406820F48000E16808430149486024
:100EC000002072E700100240007000400000424223
:100ED00070B504460D460026F748006800F007008C
:100EE000A84270D2F448006820F007002843F24975
:100EF00008600846006800F00700A84201D0012001
:100F000070BD207800F00200022807D1EB4840684D
:100F100020F0F000A1680843E8494860207800F01C
:100F2000010000286FD0606801282DD12020010326
:100F300091FAA1F1B1FA81F108430121B1EB601FEF
:100F400002D1DE4800680FE02020010391FAA1F1F0
:100F5000B1FA81F108430221B1EB601F02D1D748F9
:100F6000006A01E0D548406A20210A0392FAA2F201
:100F7000B2FA82F2114301F01F02012191400840B0
:100F8000002861D10120BBE7606802282DD1202014
:100F9000010591FAA1F1B1FA81F108430121B1EB08
:100FA000601F02D1C548006810E02020010591FAB9
:100FB000A1F1B1FA81F108430221B1EB601F03D125
:100FC000BE48006A02E083E0BC48406A20210A056E
:100FD00092FAA2F2B2FA82F2114301F01F02012149
:100FE0009140084078BB01208AE72020022191FA35
:100FF000A1F1B1FA81F108430121B1EB601F03D1E6
:10100000AE48006810E05BE12020022191FAA1F1D6
:10101000B1FA81F108430221B1EB601F02D1A74868
:10102000006A01E0A548406A2021022292FAA2F259
:10103000B2FA82F2114301F01F02012191400840EF
:1010400008B901205CE7FFE79C48406820F00300F6
:101050006168084399494860FFF79EFD064660684D
:10106000012810D108E0FFF797FD801B41F288317D
:10107000884201D9032043E79048406800F00C0003
:101080000428F0D11CE16068022810D108E0FFF7C5
:1010900083FD801B41F28831884201D903202FE76C
:1010A0008648406800F00C000828F0D108E108E00C
:1010B000FFF772FD801B41F28831884201D903207D
:1010C0001EE77E48406800F00C000028F0D1F7E0F1
:1010D000207800F00200022807D17848406820F00C
:1010E000F000A168084375494860207800F00100CD
:1010F00000286ED0606801282CD12020010391FACD
:10110000A1F1B1FA81F108430121B1EB601F02D1D5
:101110006A4800680FE02020010391FAA1F1B1FABA
:1011200081F108430221B1EB601F02D16348006ADC
:1011300001E06248406A20210A0392FAA2F2B2FA60
:1011400082F2114301F01F0201219140084088BB47
:101150000120D5E6606802282DD12020010591FAF2
:10116000A1F1B1FA81F108430121B1EB601F02D175
:10117000524800680FE02020010591FAA1F1B1FA70
:1011800081F108430221B1EB601F02D14B48006A94
:1011900001E04A48406A20210A0592FAA2F2B2FA16
:1011A00082F2114301F01F0201219140084008B969
:1011B0000120A5E62DE02020022191FAA1F1B1FA4B
:1011C00081F108430121B1EB601F03D13B48006866
:1011D00010E061E02020022191FAA1F1B1FA81F141
:1011E00008430221B1EB601F02D13448006A01E0DC
:1011F0003248406A2021022292FAA2F2B2FA82F226
:10120000114301F01F0201219140084008B901205B
:1012100076E62A48406820F00300616808432749C1
:101220004860FFF7B9FC06466068012810D108E065
:10123000FFF7B2FC801B41F28831884201D90320BC
:101240005EE61E48406800F00C000428F0D123E060
:101250006068022810D108E0FFF79EFC801B41F275
:101260008831884201D903204AE61448406800F0DA
:101270000C000828F0D10FE008E0FFF78DFC801B80
:1012800041F28831884201D9032039E60B48406891
:1012900000F00C000028F0D10748006820F007009B
:1012A0002843054908600846006800F00700A84286
:1012B00006D0012024E60000002002400010024079
:1012C000207800F00400042807D10D48406820F47D
:1012D000E060E16808430A494860207800F00800AF
:1012E000082808D10648406820F46050216940EA87
:1012F000C100034948600020FFF770FC0020FFE5B3
:101300000010024000B500F045F80949496801F0B5
:10131000F001F02292FAA2F2B2FA82F2D140054A2A
:10132000515CC840044908600846006800BD0000E0
:1013300000100240443700082C00002000B5FFF7E1
:10134000E1FF0749496801F4E0614FF4E06292FA75
:10135000A2F2B2FA82F2D140024A515CC84000BD0A
:10136000001002404437000800B5FFF7CBFF0749E3
:10137000496801F460514FF4605292FAA2F2B2FA55
:1013800082F2D140024A515CC84000BD00100240C8
:1013900044370008F0B585B00FF28C0C9CE8E010E3
:1013A00001A8A0E8E01024A52D68009500210024E4
:1013B000002200230020214D696801F00C056DB367
:1013C000042D02D0082D28D101E01D4828E001F4A9
:1013D00070154FF4701696FAA6F6B6FA86F6F54032
:1013E00001AE735D01F4803595B1144D6D6805F45F
:1013F00000354FF4003696FAA6F6B6FA86F6F540B2
:101400001DF805400E4DB5FBF4F505FB03F202E0B7
:101410000C4D03FB05F2104602E000BF084800BF78
:1014200000BF05B0F0BD000002030405060708096F
:101430000A0B0C0D0E0F10100102000000100240EC
:1014400000127A0000093D0038B5044600252078D6
:1014500000F00100002877D0FC48406800F00C0044
:1014600004280CD0F948406800F00C00082837D157
:10147000F648406800F48030B0F5803F30D120203D
:10148000010391FAA1F1B1FA81F108430121B1EB15
:10149000601F02D1ED4800680FE02020010391FA9F
:1014A000A1F1B1FA81F108430221B1EB601F02D131
:1014B000E648006A01E0E548406A20210A0392FA02
:1014C000A2F2B2FA82F2114301F01F02012191400F
:1014D00008400028BFD06068002835D1012038BD01
:1014E00000BFDA48006820F48030D8490860084618
:1014F000006820F48020086000BFFFF74DFB054620
:1015000006E0FFF749FB401B642801D90320E6E70A
:101510002020010391FAA1F1B1FA81F108430121E0
:10152000B1EB601F02D1C948006810E02020010320
:1015300091FAA1F1B1FA81F108430221B1EB601FE8
:1015400003D1C248006A02E0B7E0C048406A2021E7
:101550000A0392FAA2F2B2FA82F2114301F01F02D8
:101560000121914008400028CBD100BF6068B0F550
:10157000803F06D1B548006840F48030B349086028
:1015800028E0606858B9B148006820F48030AF495D
:1015900008600846006820F4802008601AE060684F
:1015A000B0F5A02F0BD1A948006840F48020A749CE
:1015B00008600846006840F4803008600AE0A348EC
:1015C000006820F48030A14908600846006820F4D3
:1015D0008020086000BF6068B8B3FFF7DDFA0546F9
:1015E00006E0FFF7D9FA401B642801D9032076E70B
:1015F0002020010391FAA1F1B1FA81F10843012100
:10160000B1EB601F02D1914800680FE02020010378
:1016100091FAA1F1B1FA81F108430221B1EB601F07
:1016200002D18A48006A01E08848406A20210A0302
:1016300092FAA2F2B2FA82F2114301F01F020121E2
:10164000914008400028CCD037E0FFE7FFF7A4FA2C
:10165000054606E0FFF7A0FA401B642801D90320E5
:101660003DE72020010391FAA1F1B1FA81F108438D
:101670000121B1EB601F02D1744800680FE0202007
:10168000010391FAA1F1B1FA81F108430221B1EB12
:10169000601F02D16D48006A01E06C48406A202159
:1016A0000A0392FAA2F2B2FA82F2114301F01F0287
:1016B0000121914008400028CCD1207800F00200A0
:1016C00002284ED16148406800F00C0050B15F48DC
:1016D000406800F00C00082844D15C48406800F4E1
:1016E000803078BB2020022191FAA1F1B1FA81F17A
:1016F00008430121B1EB601F02D1544800680FE09C
:101700002020022191FAA1F1B1FA81F108430221CE
:10171000B1EB601F02D14D48006A01E04B48406ABE
:101720002021022292FAA2F2B2FA82F2114301F0CF
:101730001F0201219140084028B12069012802D0F0
:101740000120CCE60EE04148006820F0F800F822C5
:1017500092FAA2F2B2FA82F26169914008433B49DF
:10176000086095E0206970B3012090FAA0F1B1FA09
:1017700081F1374A42F82100FFF70EFA054606E0EC
:10178000FFF70AFA401B022801D90320A7E6202010
:10179000022191FAA1F1B1FA81F108430121B1EBE3
:1017A000601F02D12948006810E02020022191FA30
:1017B000A1F1B1FA81F108430221B1EB601F03D11D
:1017C0002248006A02E01EE02048406A20210222EE
:1017D00092FAA2F2B2FA82F2114301F01F02012141
:1017E000914008400028CBD01848006820F0F8004D
:1017F000F82292FAA2F2B2FA82F2616991400843A9
:101800001249086044E00020012191FAA1F1B1FAE7
:1018100081F10F4A42F82100FFF7BEF9054606E0C4
:10182000FFF7BAF9401B022801D9032057E6202010
:10183000022191FAA1F1B1FA81F108430121B1EB42
:10184000601F07D10148006814E00000001002404A
:10185000000042422020022191FAA1F1B1FA81F167
:1018600008430221B1EB601F02D1FC48006A01E08D
:10187000FA48406A2021022292FAA2F2B2FA82F2D7
:10188000114301F01F020121914008400028C7D1F7
:10189000207800F00800082846D1A06980B3012014
:1018A00090FAA0F1B1FA81F1ED4A02EB8101C1F8A1
:1018B0008004FFF771F9054606E0FFF76DF9401B5C
:1018C000022801D903200AE66020022191FAA1F141
:1018D000B1FA81F108430121B1EB601F02D1DF4869
:1018E000006810E06020022191FAA1F1B1FA81F1C3
:1018F00008430221B1EB601F03D1D848006A02E01F
:1019000013E0D648406A6021022292FAA2F2B2FAAB
:1019100082F2114301F01F0201219140084000288A
:10192000CBD00120FEF78EFF41E00020012191FA8B
:10193000A1F1B1FA81F1CA4A02EB8101C1F8800438
:10194000FFF72AF9054606E0FFF726F9401B0228B3
:1019500001D90320C3E56020022191FAA1F1B1FA77
:1019600081F108430121B1EB601F02D1BB4800683F
:101970000FE06020022191FAA1F1B1FA81F1084350
:101980000221B1EB601F02D1B448006A01E0B34804
:10199000406A6021022292FAA2F2B2FA82F2114364
:1019A00001F01F020121914008400028CCD120788D
:1019B00000F00400042875D100BFA848C06940F0B9
:1019C0008050A649C8610846C06900F08050009068
:1019D00000BF00BFA348006840F48070A1490860C0
:1019E000FFF7DAF8054606E0FFF7D6F8401B642853
:1019F00001D9032073E59B48006800F4807000283B
:101A0000F2D000BF9548006A20F0010093490862B7
:101A10000846006A20F00400086200BFFFF7BCF827
:101A2000054608E0FFF7B8F8401B41F288318842CC
:101A300001D9032053E54020022191FAA1F1B1FA26
:101A400081F108430121B1EB601F02D18348006896
:101A50000FE04020022191FAA1F1B1FA81F108438F
:101A60000221B1EB601F02D17C48006A01E07B4893
:101A7000406A4021022292FAA2F2B2FA82F21143A3
:101A800001F01F020121914008400028CAD100BF87
:101A9000E068012807D17148006A40F001006F49F1
:101AA000086228E09EE0E06858B96C48006A20F0BF
:101AB00001006A4908620846006A20F004000862D2
:101AC00019E0E06805280BD16448006A40F0040082
:101AD000624908620846006A40F0010008620AE0B4
:101AE0005E48006A20F001005C4908620846006A0E
:101AF00020F00400086200BFE068C8B3FFF74CF8AC
:101B0000054608E0FFF748F8401B41F2883188425B
:101B100001D90320E3E44020022191FAA1F1B1FAB6
:101B200081F108430121B1EB601F02D14B480068ED
:101B30000FE04020022191FAA1F1B1FA81F10843AE
:101B40000221B1EB601F02D14448006A01E0434822
:101B5000406A4021022292FAA2F2B2FA82F21143C2
:101B600001F01F020121914008400028CAD039E04D
:101B7000FFE7FFF711F8054608E0FFF70DF8401BF7
:101B800041F28831884201D90320A8E44020022193
:101B900091FAA1F1B1FA81F108430121B1EB601F83
:101BA00002D12E4800680FE04020022191FAA1F1F5
:101BB000B1FA81F108430221B1EB601F02D127483D
:101BC000006A01E02548406A4021022292FAA2F20E
:101BD000B2FA82F2114301F01F0201219140084044
:101BE0000028CAD1E069002871D01C48406800F084
:101BF0000C0008286CD0E06902286AD10021C005D9
:101C000090FAA0F0B0FA80F0154A42F82010FEF7E2
:101C1000C3FF054606E0FEF7BFFF401B022801D9BF
:101C200003205CE42020010591FAA1F1B1FA81F1D1
:101C300008430121B1EB601F02D10848006815E09C
:101C40002020010591FAA1F1B1FA81F108430221A6
:101C5000B1EB601F08D10148006A07E000100240A4
:101C600000004242007000405748406A20210A05A7
:101C700092FAA2F2B2FA82F2114301F01F0201219C
:101C8000914008400028C6D1206AB0F5803F07D1B6
:101C90004D48406820F40030A16808434A49486034
:101CA000D4E9080108434849496821F474110843FC
:101CB000454948600120010691FAA1F1B1FA81F18C
:101CC000424A42F82100FEF767FF054609E079E045
:101CD00076E033E0FEF760FF401B022801D90320C5
:101CE00015E42020010591FAA1F1B1FA81F1084330
:101CF0000121B1EB601F02D1334800680FE02020C2
:101D0000010591FAA1F1B1FA81F108430221B1EB89
:101D1000601F02D12C48006A01E02B48406A202154
:101D20000A0592FAA2F2B2FA82F2114301F01F02FE
:101D30000121914008400028CCD043E000214FF021
:101D4000807090FAA0F0B0FA80F0204A42F820109B
:101D5000FEF722FF054606E0FEF71EFF401B0228A5
:101D600001D9032043E42020010591FAA1F1B1FA41
:101D700081F108430121B1EB601F02D112480068D4
:101D80000FE02020010591FAA1F1B1FA81F1084399
:101D90000221B1EB601F02D10B48006A01E00A4842
:101DA000406A20210A0592FAA2F2B2FA82F21143A5
:101DB00001F01F020121914008400028CCD101E030
:101DC000012014E4002012E400100240000042420E
:101DD000704770B504462546681EB0F1807F01D378
:101DE00001200FE0681E4FF0E02148610F214FF005
:101DF000FF3000F0F7F900204FF0E0218861072064
:101E00000861002070BD10B5FFF7E2FF10BD02466B
:101E100000BF92F83800012801D10220704701204C
:101E200082F8380000BF022082F83900106840684C
:101E300020F0700013685860106840680B68184301
:101E4000136858601068806820F0800013689860FC
:101E5000106880684B68184313689860012082F806
:101E6000390000BF002082F8380000BF00BFD5E76E
:101E700010B504460CB9012010BD94F8390028B9FA
:101E8000002084F83800204600F00CF8022084F886
:101E90003900211D206800F099FE012084F83900E6
:101EA0000020E9E770472DE9F04104460D46002681
:101EB00000BF94F83800012802D10220BDE8F0816B
:101EC000012084F8380000BF022084F8390020681F
:101ED000866826F0770626F47F46206886602868A4
:101EE00050283BD00CDC202860D004DC002853D0E4
:101EF000102865D155E030285DD0402860D141E000
:101F0000602835D070280DD0B0F5805F03D0B0F5D3
:101F1000005F55D115E02068806820F00700216837
:101F200088604EE0D5E902136A68206800F092FEEE
:101F30002068866826F0770646F077062068866077
:101F40003FE0D5E902136A68206800F083FE20684C
:101F5000806840F480402168886032E0EA686968FF
:101F6000206800F095FF5021206800F07FFE28E0F7
:101F7000EA686968206800F0A0FF6021206800F02E
:101F800075FE1EE0EA686968206800F081FF402164
:101F9000206800F06BFE14E00021206800F066FE6F
:101FA0000FE01021206800F061FE0AE02021206887
:101FB00000F05CFE05E03021206800F057FE00E0F4
:101FC00000BF00BF012084F8390000BF002084F862
:101FD000380000BF00BF71E770B504460D461646D5
:101FE00000BF94F83800012801D1022070BD012003
:101FF00084F8380000BF022084F8390036B1042E7E
:102000001BD0082E31D00C2E5ED145E02946206829
:1020100000F076FE2068806940F008002168886141
:102020002068806920F00400216888612068806948
:10203000296908432168886147E02946206800F043
:1020400091FE2068806940F4006021688861206802
:10205000806920F48060216888612068806929692E
:1020600040EA0120216888612FE02946206800F0BD
:10207000B1FE2068C06940F008002168C86120688E
:10208000C06920F004002168C8612068C06929691E
:1020900008432168C86118E02946206800F0D0FE96
:1020A0002068C06940F400602168C8612068C06988
:1020B00020F480602168C8612068C069296940EA0D
:1020C00001202168C86100E000BF00BF012084F842
:1020D000390000BF002084F8380000BF00BF85E74A
:1020E00010B504460CB9012010BD94F8390028B988
:1020F000002084F83800204600F00CF8022084F814
:102100003900211D206800F061FD012084F83900AC
:102110000020E9E77047000030B504460D46012273
:102120002946206800F088FD0A492068884201D1CC
:10213000012000E0002028B12068406C40F40040FD
:10214000216848642068006840F001002168086048
:10215000002030BD002C014010B504460CB9012010
:1021600010BDA06900B100E000BF94F8390028B9A3
:10217000002084F83800204600F025F8022084F87A
:1021800039002068C06820F400502168C8602046EB
:1021900000F0AAFE2068006920F4904021680861E0
:1021A0002068406920F02A00216848612068C068E2
:1021B00040F400502168C8600020E063012084F8EA
:1021C00039000020CCE7704700BFFEE700BFFEE704
:1021D0007047000002480068C0F30220704700000A
:1021E0000CED00E010B5002807DA0A07140E054AC6
:1021F00000F00F031B1FD45403E00A07130E024A1A
:10220000135410BD18ED00E000E400E030B585B0D7
:1022100005460C46022002900320049035B1012DA2
:1022200035D0022D64D0032D7BD194E014B1012C64
:102230002AD114E000BF6348806940F0040061497E
:1022400088610846806900F00400009000BF00BF6C
:102250008815019001A95C48FEF702FB15E000BF5C
:102260005848806940F040005649886108468069B6
:1022700000F04000009000BF00BF4815019001A988
:102280005248FEF7EDFA00E000BF00BF96E014B13F
:10229000012C2AD114E000BF4A48806940F00400B4
:1022A000484988610846806900F00400009000BF3A
:1022B00000BF4815019001A94348FEF7D1FA15E087
:1022C00000BF4048806940F040003E4988610846B0
:1022D000806900F04000009000BF00BF0815019029
:1022E00001A93A48FEF7BCFA00E000BF00BF65E074
:1022F00014B1012C2CD115E000BF3248806940F0A8
:102300000400304988610846806900F004000090AC
:1023100000BF00BF0815019001A92B48FEF7A0FAE5
:1023200017E04AE000BF2748806940F04000254997
:1023300088610846806900F04000009000BF00BF3F
:102340004FF40050019001A92048FEF789FA00E0FF
:1023500000BF00BF32E014B1012C2BD114E000BF4C
:102360001848806940F00400164988610846806971
:1023700000F00400009000BF00BFC814019001A944
:102380001148FEF76DFA16E000BF0E48806940F074
:1023900040000C4988610846806900F040000090C8
:1023A00000BF00BF4FF48040019001A90748FEF72D
:1023B00057FA00E000BF00BF00E000BF00BF05B05B
:1023C00030BD00000010024000080140001801402C
:1023D00030B585B005460C460220029003200490DB
:1023E00035B1012D4DD0022D7ED0032D78D1ACE03A
:1023F00024B1012C17D0022C40D129E000BF6D4838
:10240000806940F004006B4988610846806900F0EB
:102410000400009000BF00BF0120019001A96648A0
:10242000FEF71EFA2BE000BF6248806940F004000E
:10243000604988610846806900F00400009000BF90
:1024400000BF2020019001A95B48FEF709FA16E0C1
:1024500000BF5848806940F004005649886108462A
:10246000806900F00400009000BF00BF4FF40040FE
:10247000019001A95048FEF7F3F900E000BF00BF4A
:1024800095E014B1012C2CD114E000BF49488069BB
:1024900040F00400474988610846806900F0040064
:1024A000009000BF00BF0220019001A94248FEF742
:1024B000D7F917E000BF3F48806940F008003D4968
:1024C00088610846806900F00800009000BF00BFE6
:1024D0000820019001A93948FEF7C2F902E003E0A3
:1024E00064E000BF00BF62E014B1012C2AD114E007
:1024F00000BF3048806940F004002E4988610846DA
:10250000806900F00400009000BF00BF042001902B
:1025100001A92948FEF7A4F915E000BF2548806904
:1025200040F00800234988610846806900F00800EF
:10253000009000BF00BF0815019001A91F48FEF7D9
:102540008FF900E000BF00BF31E014B1012C2AD1A7
:1025500014E000BF1748806940F004001549886105
:102560000846806900F00400009000BF00BF08200A
:10257000019001A91048FEF773F915E000BF0D485E
:10258000806940F008000B4988610846806900F0C6
:102590000800009000BF00BFC814019001A90748BF
:1025A000FEF75EF900E000BF00BF00E000BF00BF23
:1025B00005B030BD0010024000080140000C014091
:1025C00030B585B005460C460220029003200490E9
:1025D00035B1012D4CD0022D7AD0032D79D1C2E036
:1025E00024B1012C17D0022C3FD129E000BF78483C
:1025F000806940F00400764988610846806900F0EF
:102600000400009000BF00BF4020019001A9714864
:10261000FEF726F92AE000BF6D48806940F0080007
:102620006B4988610846806900F00800009000BF8F
:1026300000BF1020019001A96748FEF711F915E0CD
:1026400000BF6348806940F0100061498861084616
:10265000806900F01000009000BF00BF4020019092
:1026600001A95E48FEF7FCF800E000BF00BFACE047
:1026700024B1012C17D0022C41D12BE000BF5448CB
:10268000806940F00400524988610846806900F082
:102690000400009000BF00BF8020019001A94D48B8
:1026A000FEF7DEF82CE000BF4948806940F00400E6
:1026B000474988610846806900F00400009000BF27
:1026C00000BF2020019001A94348FEF7C9F817E098
:1026D00018E079E000BF3E48806940F010003C49B6
:1026E00088610846806900F01000009000BF00BFBC
:1026F0008020019001A93948FEF7B2F800E000BF40
:1027000000BF62E014B1012C2AD114E000BF3048B0
:10271000806940F008002E4988610846806900F011
:102720000800009000BF00BF0120019001A92A48C5
:10273000FEF796F815E000BF2548806940F01000CC
:10274000234988610846806900F01000009000BFAE
:1027500000BF8815019001A92048FEF781F800E02C
:1027600000BF00BF31E014B1012C2AD114E000BF3A
:102770001748806940F0080015498861084680695B
:1027800000F00800009000BF00BF0220019001A9E6
:102790001148FEF765F815E000BF0D48806940F06C
:1027A00010000B4988610846806900F01000009015
:1027B00000BF00BF4815019001A90848FEF750F876
:1027C00000E000BF00BF00E000BF00BF05B030BDAB
:1027D0000010024000080140000C014000100140C0
:1027E00030B585B005460C460220029003200490C7
:1027F00035B1012D35D0022D65D0032D7CD195E06A
:1028000014B1012C2AD114E000BF6348806940F064
:102810000800614988610846806900F0080000905E
:1028200000BF00BF4020019001A95C48FEF718F8E6
:1028300015E000BF5848806940F020005649886183
:102840000846806900F02000009000BF00BF881497
:10285000019001A95248FEF703F800E000BF00BF55
:1028600097E014B1012C2BD114E000BF4A488069D5
:1028700040F00800484988610846806900F0080077
:10288000009000BF00BF8020019001A94348FDF7E0
:10289000E7FF16E000BF4048806940F020003E4955
:1028A00088610846806900F02000009000BF00BFEA
:1028B0004FF40050019001A93948FDF7D1FF00E025
:1028C00000BF00BF65E014B1012C2CD115E000BFA2
:1028D0003148806940F008002F49886108468069C6
:1028E00000F00800009000BF00BF8815019001A90A
:1028F0002A48FDF7B5FF17E04AE000BF2648806987
:1029000040F02000244988610846806900F02000DA
:10291000009000BF00BF4FF48040019001A9204803
:10292000FDF79EFF00E000BF00BF32E014B1012CB4
:102930002BD114E000BF1848806940F00800164908
:1029400088610846806900F00800009000BF00BF61
:102950004815019001A91148FDF782FF16E000BF5C
:102960000D48806940F020000B4988610846806965
:1029700000F02000009000BF00BF4FF40040019025
:1029800001A90748FDF76CFF00E000BF00BF00E0B1
:1029900000BF00BF05B030BD00100240000C014078
:1029A000001401402DE9F041B0B004460D46174631
:1029B0001E46DDF8D8803A462946204600F032F817
:1029C0001D941DA8C660CDF87880002101611F917B
:1029D000FFF74EFA4FF480502C902CA91DA8FFF75A
:1029E00062FA1DA8FFF77CFB00201B901C901BA91E
:1029F0001DA8FFF70CFA39221DA90CA8FDF71BFC36
:102A00009DF8AD008DF869002C2210A968460B9541
:102A1000FDF711FC0CA80FC800F032F930B0BDE88A
:102A2000F0810000F8B504460D46164600BF324856
:102A3000806940F00100304988610846806900F0F3
:102A40000100009000BF00BF2C48844211D100BF9C
:102A50000846806940F4006088610846806900F497
:102A60000060009000BF00BF31462846FFF7CEFB54
:102A700040E0B4F1804F12D100BF1F48C06940F060
:102A800001001D49C8610846C06900F001000090BE
:102A900000BF00BF31462846FFF79AFC2AE01848DD
:102AA000844212D100BF1448C06940F002001249AC
:102AB000C8610846C06900F00200009000BF00BF76
:102AC00031462846FFF77CFD14E00E48844211D1C0
:102AD00000BF0948C06940F004000749C8610846C2
:102AE000C06900F00400009000BF00BF31462846D6
:102AF000FFF776FEF8BD000000100240002C0140F8
:102B0000000400400008004010B5FEF74BF8FFF746
:102B10007AF910BD00B593B00120099000040A9025
:102B200000200B9001200D9002201090C103119104
:102B30004FF4E011129109A8FEF786FC0F200490D3
:102B400002200590002006904FF48060079000203E
:102B50000890022104A8FEF7BBF9122000904FF460
:102B600000400290002003906846FEF7F7F813B08B
:102B700000BD00001148006840F001000F490860E6
:102B8000084640680E4908400C49486008460068FD
:102B90000C490840094908600846006820F4802074
:102BA00008600846406820F4FE0048604FF41F00AB
:102BB0008860C803044908607047000000100240A4
:102BC0000000FFF8FFFFF6FE08ED00E000220268BB
:102BD000164B984208D0B0F1804F05D0144B984264
:102BE00002D0144B984203D122F070024B681A4372
:102BF0000E4B984208D0B0F1804F05D00C4B984254
:102C000002D00C4B984203D122F44072CB681A4395
:102C100002608B68C3620B688362044B984201D1E7
:102C20000B6903630123436170470000002C0140DE
:102C3000000400400008004030B50023012404FADD
:102C400001F3046A9C430462046A02FA01F52C430E
:102C5000046230BD30B50C460021816821F47F410B
:102C600042EA032525432943816030BD0A460021FD
:102C7000816821F0700142F00703194381607047B9
:102C80000FB410B588B0199C602001900020059009
:102C9000039034B1012C0ED0022C16D0032C28D175
:102CA0001DE0002201A90AA8FFF796F900210AA851
:102CB000FFF732FA1EE0042201A90AA8FFF78CF9F7
:102CC00004210AA8FFF728FA14E0082201A90AA89B
:102CD000FFF782F908210AA8FFF71EFA0AE00C2282
:102CE00001A90AA8FFF778F90C210AA8FFF714FA3E
:102CF00000E000BF00BF08B010BC5DF814FB00008E
:102D000030B5002400220023056A25F00105056284
:102D1000026A4368846924F0700424F003040D6897
:102D20002C4322F002028D682A430D4DA84206D1A1
:102D300000BF22F00802CD682A4322F00402084DA9
:102D4000A84207D123F4807323F400734D692B4309
:102D50008D692B43436084614D684563026230BDD9
:102D6000002C014030B5002400220023056A25F024
:102D700010050562026A4368846924F4E04424F47F
:102D800040740D6844EA052422F020028D6842EA6E
:102D900005120F4DA84207D100BF22F08002CD6876
:102DA00042EA051222F04002094DA84209D123F45B
:102DB000806323F400634D6943EA85038D6943EA28
:102DC0008503436084614D688563026230BD000005
:102DD000002C014030B5002400220023056A25F4B0
:102DE00080750562026A4368C46924F0700424F0A7
:102DF00003040D682C4322F400728D6842EA052218
:102E00000E4DA84207D100BF22F40062CD6842EA0D
:102E1000052222F48062094DA84209D123F480538F
:102E200023F400534D6943EA05138D6943EA051302
:102E30004360C4614D68C563026230BD002C01402F
:102E400030B5002200230024056A25F48055056270
:102E5000036A4468C26922F4E04222F440720D68B9
:102E600042EA052223F400538D6843EA0533074DF7
:102E7000A84204D124F480444D6944EA8514446096
:102E8000C2614D680564036230BD0000002C014042
:102E900030B50B46144600210022026A056A25F06F
:102EA00001050562816921F0F00141EA041122F077
:102EB0000A021A438161026230BD30B50B461446E6
:102EC00000210022056A25F0100505628169026A69
:102ED00021F4704141EA043122F0A00242EA0312D7
:102EE0008161026230BD00002DE9F04104460025F9
:102EF0002068006920F44050E168084321680861B7
:102F00002169A0680843616940EA01052068C0683A
:102F100041F20C61884328432168C86020684069F9
:102F200020F44070A169084321684861374920684E
:102F3000884234D1FEF718FA00EBC00101EB001013
:102F400061688900B0FBF1F06421B0FBF1F6FEF797
:102F50000BFA00EBC00101EB001061688900B0FBC7
:102F6000F1F7FEF701FA00EBC00101EB0010616818
:102F70008900B0FBF1F06421B0FBF1F000EBC0017F
:102F800001EB0010A7EB8000322101EB001064215F
:102F9000B0FBF1F066F31F102168886033E0FEF7A4
:102FA000CDF900EBC00101EB001061688900B0FBB6
:102FB000F1F06421B0FBF1F6FEF7C0F900EBC001BF
:102FC00001EB001061688900B0FBF1F7FEF7B6F97C
:102FD00000EBC00101EB001061688900B0FBF1F06B
:102FE0006421B0FBF1F000EBC00101EB0010A7EB96
:102FF0008000322101EB00106421B0FBF1F066F398
:103000001F1021688860BDE8F08100000038014091
:1030100010B50848006800F0200030B10548001DD8
:103020000068C1B2044800F019FA2521014800F0F7
:1030300009F910BD003801400400002010B5044615
:103040003CB90521092000F0A3FA00210A2000F074
:103050009FFA012C07D10521162000F099FA0021D2
:10306000172000F095FA022C07D10521092000F065
:103070008FFA0021172000F08BFA10BD10B5084818
:10308000006800F0200030B10548001D0068C1B2A2
:10309000044800F0E3F92621014800F0D3F810BD00
:1030A000004400401000002010B50446032C07D156
:1030B0000521022000F06CFA0021032000F068FADC
:1030C000042C07D10521352000F062FA00213620BA
:1030D00000F05EFA10BD000010B50848006800F06E
:1030E000200030B10548001D0068C1B2044800F05E
:1030F000B5F92721014800F0A5F810BD00480040AF
:103100001C00002010B50446052C07D105211A200B
:1031100000F03EFA00211B2000F03AFA062C07D1FD
:1031200005212A2000F034FA00212B2000F030FA8B
:10313000072C07D10521382000F02AFA0021392078
:1031400000F026FA10BD70B50446204600F0D0F815
:103150000546E88808B9012070BD0020FCE770B57D
:103160000546284600F0C4F80446E088A188884255
:1031700001D1012070BD0020FCE72DE9F04180461F
:103180000E46404600F0B4F80446E78865890EE034
:10319000A088A84200D1002520684057B04202D143
:1031A0000120BDE8F081681C85B2781E87B2002F2F
:1031B000EEDC0020F5E770B505460026284600F055
:1031C00097F80446E08800280EDD6089A1888842CF
:1031D00001D1002060816189206846566089401CC9
:1031E0006081E088401EE080F0B270BD2DE9F041C2
:1031F00007460D46164600243846FFF7A4FF40B99F
:103200000A213846FFF7B9FF30B93846FFF7A7FF64
:1032100010B90020BDE8F0810BE03846FFF7CBFF86
:103220002855285D0A2802D1601C84B204E0601C85
:1032300084B2701EA042F0DC00BF0020285520465A
:10324000E8E7000038B505460C461E48056000BF9B
:103250000068006800901B4800684068009000BF4C
:1032600000BF00BF1748006800680090154800685C
:103270004068009000BF00BF00BF124800680068AF
:103280000090104800684068009000BF00BF00BF79
:103290000C480068006800900A4800684068009088
:1032A00000BF00BF00BF07480068006800900548E5
:1032B00000684068009000BF00BF2046FDF7D2FCC8
:1032C00038BD0000900000200146064A914200D11E
:1032D0000020054A914200D10120044A914200D1C8
:1032E0000220704700380140004400400048004080
:1032F0000146064A914200D10548064A914200D152
:103300000548064A914200D10548704700380140FF
:10331000040000200044004010000020004800404D
:103320001C0000202DE9F04F91B004460D461646D2
:103330001F46DDE91BABDDF86890444884421CD190
:1033400000BF4348806940F4804041498861084695
:10335000806900F48040009000BF00BF0846C0684C
:1033600040F48040C8600846C06820F48040C860CF
:103370002846FFF763FE4FF02508364884421CD1EB
:1033800000BF3348C06940F400303149C861084685
:10339000C06900F40030009000BF00BF084600691B
:1033A00040F4003008610846006920F400300861EC
:1033B0002846FFF779FE4FF02608274884421CD1A3
:1033C00000BF2348C06940F480202149C8610846F5
:1033D000C06900F48020009000BF00BF084600696B
:1033E00040F4802008610846006920F480200861CC
:1033F0002846FFF787FE4FF02708019402960797AB
:10340000CDF81890CDF814A0CDF810B01D98039009
:10341000002108914046FDF733FC2046FFF754FF9A
:103420000246062100904046FDF745FC4046FDF768
:1034300035FC4046FDF716FC01A8FEF78DFEE0685E
:1034400040F02000E06011B0BDE8F08F003801408E
:1034500000100240004400400048004010B5C288FF
:1034600083889A420FDA028983889A4201D1002226
:1034700002814AB2048903681A550289521C0281EA
:10348000C288521CC28010BD7FB504460D46164648
:10349000164884420BD100200C23CDE90030029065
:1034A00003463246294603902046FFF73BFF10486B
:1034B00084420BD100200C23CDE90030029003465A
:1034C0003246294603902046FFF72CFF09488442E4
:1034D0000BD100200C23CDE9003002900346324688
:1034E000294603902046FFF71DFF7FBD00380140AD
:1034F00000440040004800400EE000BF026802F0B7
:103500008002002AFAD011F8012B426000BF026845
:1035100002F08002002AFAD00A78002AEDD1704722
:1035200000BFFEE71FB5FDF745FBFFF7F3FA0320E9
:10353000FDF700FC4FF4E13200211048FFF7A4FF33
:103540000FA10E48FFF7D8FF472063230022114642
:1035500000900E48FFF726FA00BF00240CE00A2274
:1035600001A90648FFF742FE30B101A8FCF756FE5C
:103570000446064834300460F1E70000003801409A
:1035800053544D3332564E0A0000000000080040EC
:103590002DE9F04186B006460C4606EB4600594937
:1035A00051F8307006EB460001EBC00080881FFA2E
:1035B00080F806EB460001EBC00085686DB900BFDE
:1035C0005148806940F004004F498861084680698D
:1035D00000F00400019000BF40E0012D0DD100BFBC
:1035E0004948806940F00800474988610846806979
:1035F00000F00800019000BF30E0022D0DD100BFA7
:103600004148806940F010003F4988610846806960
:1036100000F01000019000BF20E0032D0DD100BF8D
:103620003948806940F02000374988610846806940
:1036300000F02000019000BF10E0042D0DD100BF6C
:103640003148806940F040002F4988610846806910
:1036500000F04000019000BF00E000BFCDF80880FE
:103660001CB900200390049044E0022C04D10020F7
:103670000390012004903DE0032C04D1002003902E
:103680000220049036E0012C04D101200390032095
:1036900005902FE0072C04D1112003900320059002
:1036A00028E0042C04D1122003900320059021E08F
:1036B000052C04D102200390032005901AE0062C6B
:1036C00004D1032003900220049013E00C2C04D1B9
:1036D0000E480390002004900CE00D2C04D10C48FF
:1036E00003900120049005E00E2C03D109480390BB
:1036F0000220049002A93846FDF7B2F806B0BDE8F2
:10370000F081000054370008001002400000311022
:10371000000021100000111010B500290AD008780F
:10372000002807D005487844FCF792FE002801D015
:10373000002010BD0248784410BD0000CE070000F4
:10374000C607000000000000010203040102030498
:103750000607080900080140010000000000000001
:103760000000000000000000000000000008014010
:103770000200000000000000010000000000004006
:1037800004000000000801400400000000000000E8
:103790000200000000000040080000000008014096
:1037A00008000000000000000300000000000040CE
:1037B0000C000000000801401000000000000000A4
:1037C00004000000000000000000000000080140AC
:1037D00020000000000000000500000000000000C4
:1037E0000000000000080140400000000000000050
:1037F0000600000000040040000000000008014036
:1038000080000000000000000700000000040040ED
:10381000040000000008014000010000000000005A
:1038200000000000002C01400000000000080140E2
:10383000000200000000000000000000002C014019
:103840000400000000080140000400000000000027
:1038500000000000002C01400800000000080140AA
:10386000000800000000000000000000002C0140E3
:103870000C000000000801400010000000000000E3
:1038800000000000000000000000000000080140EF
:103890000020000000000000000000000000000008
:1038A000000000000008014000400000000000008F
:1038B00000000000000000000000000000080140BF
:1038C0000080000000000000000000000000000078
:1038D00000000000000C0140010000000100000099
:1038E000080000000004004008000000000C014037
:1038F0000200000001000000090000000004004078
:103900000C000000000C0140040000000100000059
:10391000000000000000000000000000000C01405A
:10392000080000000100000000000000000000404E
:1039300004000000000C0140100000000100000025
:10394000000000000004004000000000000C0140E6
:103950002000000001000000000000000004004002
:1039600004000000000C01404000000001000000C5
:10397000000000000008004000000000000C0140B2
:10398000800000000100000000000000000800406E
:1039900004000000000C01400001000001000000D4
:1039A000000000000000000000000000000C0140CA
:1039B0000002000001000000000000000000000004
:1039C00000000000000C01400004000001000000A5
:1039D000000000000000004008000000000C014052
:1039E000000800000100000000000000000000408E
:1039F0000C000000000C014000100000010000005D
:103A0000000000000000000000000000000C014069
:103A10000020000001000000000000000000000085
:103A200000000000000C0140004000000100000008
:103A3000000000000000000000000000000C014039
:103A400000800000010000000000000000000000F5
:103A5000040000000010014001000000020000000E
:103A60000A000000000000000000000000100140FB
:103A700002000000020000000B0000000000000037
:103A800000000000001001400400000002000000DF
:103A90000C000000000000000000000000100140C9
:103AA00008000000020000000D00000000000000FF
:103AB00000000000001001401000000002000000A3
:103AC0000E00000000000000000000000010014097
:103AD00020000000020000000E00000000000000B6
:103AE0000000000000100140400000000200000043
:103AF0000000000000000000000000000010014075
:103B00008000000002000000000000000000000033
:103B1000040000000010014000010000020000004D
:103B2000000000000000000008000000001001403C
:103B30000002000002000000000000000000000081
:103B40000C00000000100140000400000200000012
:103B50000000000000000000000000000010014014
:103B6000000800000200000000000000000000004B
:103B700000000000001001400010000002000000E2
:103B800000000000000000000000000000100140E4
:103B90000020000002000000000000000000000003
:103BA0000000000000100140004000000200000082
:103BB00000000000000000000000000000100140B4
:103BC0000080000002000000000000000000000073
:103BD000000000000014014001000000030000008C
:103BE0000000000000000000000000000014014080
:103BF00002000000030000000000000000000000C0
:103C00000000000000140140040000000300000058
:103C1000000000000000000000000000001401404F
:103C20000800000003000000000000000000000089
:103C3000000000000014014010000000030000001C
:103C4000000000000000000000000000001401401F
:103C50002000000003000000000000000000000041
:103C600000000000001401404000000003000000BC
:103C700000000000000000000000000000140140EF
:103C800080000000030000000000000000000000B1
:103C900000000000001401400001000003000000CB
:103CA00000000000000000000000000000140140BF
:103CB00000020000030000000000000000000000FF
:103CC0000000000000140140000400000300000098
:103CD000000000000000000000000000001401408F
:103CE00000080000030000000000000000000000C9
:103CF000000000000014014000100000030000005C
:103D00000000000000080040000000000014014016
:103D10000020000003000000000000000008004038
:103D200004000000001401400040000003000000F7
:103D300000000000000800400800000000140140DE
:103D400000800000030000000000000000080040A8
:103D50000C000000001801400100000004000000F9
:103D600000000000000000000000000000180140FA
:103D7000020000000400000000000000000000003D
:103D800000000000001801400400000004000000D2
:103D900000000000000000000000000000180140CA
:103DA0000800000004000000000000000000000007
:103DB0000000000000180140100000000400000096
:103DC000000000000000000000000000001801409A
:103DD00020000000040000000000000000000000BF
:103DE0000000000000180140400000000400000036
:103DF0000000000000000000040000000018014066
:103E0000800000000400000000000000000000002E
:103E10000000000000180140000100000400000044
:103E20000000000000000000000000000018014039
:103E3000000200000400000000000000002C01400F
:103E40000000000000180140000400000400000011
:103E50000000000000000000000000000018014009
:103E6000000800000400000000000000002C0140D9
:103E700004000000001801400010000004000000D1
:103E800000000000000000000000000000180140D9
:103E9000002000000400000000000000002C014091
:103EA000080000000018014000400000040000006D
:103EB00000000000002C01400C0000000018014030
:103EC000008000000400000000000000000000006E
:103ED0000000000004400008000000203000000046
:103EE0006C01000834400008300000207807000012
:103EF000880100081001000043000000F8FFFFFFE8
:103F000000404040404040404040414141414140EC
:103F100040404040404040404040404040404040A1
:103F20004005020202020202020202020202020230
:103F30000220202020202020202020020202020235
:103F4000020290909090909010101010101010108D
:103F50001010101010101010101010100202020299
:103F600002028888888888880808080808080808DD
:103F700008080808080808080808080802020202D9
:103F800040000000000000000000000000000000F1
:103F90000000000000000000000000000000000021
:103FA0000000000000000000000000000000000011
:103FB0000000000000000000000000000000000001
:103FC00000000000000000000000000000000000F1
:103FD00000000000000000000000000000000000E1
:103FE00000000000000000000000000000000000D1
:103FF00000000000000000000000000000000000C1
:104000000000000000000000300000202000000040
:104010000000000050000020200000000000000010
:1040200070000020200000000000000000000000E0
:0440300000A24A049C
:0400000508000131BD
:00000001FF
