:020000040800F2
:1000000078080020D5010008952D00087B25000800
:10001000912D000893040008153500080000000029
:10002000000000000000000000000000E7010008E0
:10003000C104000800000000EB0100084D2F00087B
:10004000EF010008EF010008EF010008EF010008D0
:10005000EF010008EF010008C5040008EF010008E7
:10006000EF010008EF010008EF0100089904000803
:10007000EF010008EF010008EF010008EF010008A0
:10008000EF010008EF010008EF010008EF01000890
:10009000EF010008EF010008EF010008EF01000880
:1000A000EF010008EF010008EF010008EF01000870
:1000B00011300008EF010008EF010008EF0100080F
:1000C000EF010008EF010008EF010008EF01000850
:1000D000EF0100085D310008C93100082532000831
:1000E000EF010008EF010008EF010008EF01000830
:1000F000EF010008EF010008EF010008EF01000820
:10010000EF010008EF010008EF010008EF0100080F
:10011000EF010008EF010008EF010008EF010008FF
:10012000EF010008EF010008EF010008EF010008EF
:1001300000F002F800F03FF80AA090E8000C8244BA
:100140008344AAF10107DA4501D100F034F8AFF297
:10015000090EBAE80F0013F0010F18BFFB1A43F0A5
:1001600001031847C03D0000E03D0000103A24BFE5
:1001700078C878C1FAD8520724BF30C830C144BF0C
:1001800004680C607047000000230024002500264E
:10019000103A28BF78C1FBD8520728BF30C148BFEA
:1001A0000B607047642900F07580002070471FB510
:1001B0001FBD10B510BD00F033F91146FFF7F7FF72
:1001C00003F0C8F900F051F903B4FFF7F2FF03BCE4
:1001D00000F058F90948804709480047FEE7FEE764
:1001E000FEE7FEE7FEE7FEE7FEE7FEE7FEE7FEE7E7
:1001F00004480549054A064B70470000B92F00081E
:1002000031010008780200207808002078040020DE
:10021000780400200FB4044910B503AA029800F036
:10022000D1F810BC5DF814FBA40000202DE9F041CA
:100230000E460446002020622046E168884730B31D
:10024000252805D0D4E901219047206A401CF2E717
:10025000E168204600278847050018D0A5F1410035
:10026000192802D820354FF4006732462946204627
:100270002760FFF797FF40B1012804D0F61D26F054
:1002800007060836D8E7361DD6E72846DAE7206A9B
:10029000BDE8F0812DE9F04106460024106875297B
:1002A000314616A510D0AFF30080002802DA404294
:1002B00013A507E031688A0701D512A502E04907B6
:1002C00004D511A5012401E0AFF3008000210A222A
:1002D00006F1240709E0B0FBF2FCB0FBF2F302FBED
:1002E0001C00303078541846491C0028F3D12346AE
:1002F0002A463046BDE8F04100F00BB8000000008F
:100300002D0000002B000000200000007047704707
:1003100070472DE9F0470D4699469246044600F194
:1003200024080168880604D5E06921F010012160E5
:1003300000E00120A84201DD471B00E00027A16981
:100340007A1902EB0900081AA0612078C00602D4CD
:100350002046AFF30080002608E0D4E901211AF816
:1003600006009047206A401C761C20624E45F4DB54
:100370002078C0060AD52046AFF3008006E0D4E915
:10038000012130209047206A401C2062381EA7F1CE
:100390000107F4DC07E0D4E9012118F805009047D3
:1003A000206A401C2062281EA5F10105F3DC2046CE
:1003B000AFF300802078000602D50220BDE8F08768
:1003C0000120FBE7074B70B50D467B4400F011F8A8
:1003D0000446284600F020F810B14FF0FF3070BD01
:1003E000204670BD4B31000001694A1C026108784B
:1003F000704700B58FB0CDE9013100210591054965
:100400007944CDE9031011466846FFF70FFF0FB09E
:1004100000BD0000E5FFFFFF007B00F0800070479B
:10042000754600F02BF8AE4605006946534620F0AD
:100430000700854618B020B5FFF7DAFEBDE820407A
:100440004FF000064FF000074FF000084FF0000B90
:1004500021F00701AC46ACE8C009ACE8C009ACE843
:10046000C009ACE8C0098D46704710B50446AFF32B
:1004700000802046BDE81040FFF7A6BE0048704748
:100480001802002001491820ABBEFEE7260002003A
:10049000704700BFFEE7000010B5024800F030F8DA
:1004A00010BD0000A401002010B5034A012103483B
:1004B00002F0FCFB10BD0000A086010000540040CB
:1004C00000BFFEE710B50B48006800F0010078B1EE
:1004D00001200849086000F0A8F90121064800F051
:1004E00033FB044622464FF40051044800F034FB2D
:1004F00010BD00001404014000080140001001403C
:1005000010B50446C1480068C04A083221689142CB
:1005100001D1082127E0BD4A1C322168914201D156
:10052000802120E0B94A30322168914201D1C914BA
:1005300019E0B64A44322168914202D14FF4004199
:1005400011E0B24A58322168914202D14FF40021A1
:1005500009E0AE4A6C322168914202D14FF40001A9
:1005600001E04FF00061084000284DD0206800688D
:10057000C0F3C00090B32068006820F00800216834
:100580000860A24908312068884201D1082028E08B
:100590009E491C312068884201D1802021E09B497E
:1005A00030312068884201D1C0141AE097494431A3
:1005B0002068884202D14FF4004012E0934958313C
:1005C0002068884202D14FF400200AE08F496C3144
:1005D0002068884203D14FF4000002E014E04FF09D
:1005E00000608A494860606B40F00100606304204D
:1005F00084F8210000BF002084F8200000BF206B99
:1006000010B12046216B8847804800687F4A083235
:100610002168914201D1042127E07C4A1C322168E3
:10062000914201D1402120E0784A30322168914244
:1006300001D1091519E0754A44322168914202D16D
:100640004FF4804111E0714A58322168914202D141
:100650004FF4802109E06D4A6C322168914202D149
:100660004FF4800101E04FF080610840A0B32068A2
:100670000068C0F3800078B32068006800F02000B4
:1006800028B92068006820F00400216808605F49EC
:1006900008312068884201D1042028E05B491C31E0
:1006A0002068884201D1402021E05849303120683B
:1006B000884201D100151AE054494431206888422B
:1006C00002D14FF4804012E05049583120688842EE
:1006D00003D14FF480200AE013E04C496C312068CC
:1006E000884202D14FF4800001E04FF0806047491A
:1006F0004860112084F82100E06A10B12046E16AC8
:10070000884742480068414A08322168914201D135
:10071000022127E03D4A1C322168914201D120216B
:1007200020E03A4A30322168914201D1491519E05E
:10073000364A44322168914202D14FF4005111E00F
:10074000324A58322168914202D14FF4003109E017
:100750002E4A6C322168914202D14FF4001101E01F
:100760004FF000710840A0B320680068C0F340005B
:1007700078B32068006800F0200028B9206800687D
:1007800020F0020021680860204908312068884272
:1007900001D1022028E01D491C312068884201D186
:1007A000202021E0194930312068884201D14015CC
:1007B0001AE0164944312068884202D14FF40050B3
:1007C00012E0124958312068884203D14FF40030BA
:1007D0000AE01AE00D496C312068884202D14FF4DA
:1007E000001001E04FF0007008494860606B6063E2
:1007F000012084F8210000BF002084F8200000BF01
:10080000A06A10B12046A16A884710BD00000240CE
:1008100031B5002400F0A6F9044600BF00F0A2F9AB
:10082000001B00998842F9D338BD70472DE9F8477D
:1008300003460024002000258446002700226EE1A4
:100840004FF0010808FA02F4D1F8008008EA040029
:10085000A0427DD1DFF8D0A2D1F80480A8EB0A092C
:10086000D0453AD014DCB8F1030F50D009DCB8F110
:10087000000F31D0B8F1010F1CD0B8F1020F49D1EF
:1008800020E0B8F1110F18D0B8F1120F42D11EE0DC
:10089000B9F5881F25D006DCB9F5803F20D0B9F521
:1008A000801F37D11AE0B9F5001F18D0B9F5041F21
:1008B00030D117E0D1F80CC02DE0D1F80C8008F150
:1008C000040C28E0D1F80C8008F1080C23E0D1F8E2
:1008D0000C8008F10C0C1EE000BF00BF00BF00BF81
:1008E00000BF00BFD1F80880B8F1000F02D14FF06F
:1008F000040C0BE0D1F80880B8F1010F03D14FF0E0
:10090000080C1C6102E04FF0080C5C6103E04FF042
:10091000000C00E000BF00BFFF2801D8984601E0AE
:1009200003F104084646FF2802D84FEA820803E094
:10093000A2F108084FEA88084746D6F800804FF031
:100940000F0909FA07F928EA09080CFA07F900E083
:1009500088E048EA0908C6F80080D1F8048008F069
:100960008058B8F1805F7DD100BFDFF8C081D8F832
:10097000188048F00108DFF8B491C9F81880C8461B
:10098000D8F8188008F00108CDF8008000BF00BF3B
:100990004FEAB9384FEA920958F829504FEA82785D
:1009A0004FEA18794FF00F0808FA09F825EA080508
:1009B000DFF87C81434502D14FF0000816E0DFF8F4
:1009C0007481434502D14FF001080FE0DFF86881E0
:1009D000434502D14FF0020808E0DFF8608143454B
:1009E00002D14FF0030801E04FF004084FEA82798A
:1009F0004FEA197908FA09F848EA0505DFF8408155
:100A00004FEA920948F82950D1F8048008F4803858
:100A1000B8F5803F0AD1DFF82C81D8F8008048EA89
:100A20000008DFF82091C9F8008009E0DFF81481A0
:100A3000D8F8008028EA0008DFF80891C9F800809B
:100A4000D1F8048008F40038B8F5003F10D1DFF881
:100A5000F48008F10408D8F8008048EA0008DFF8BC
:100A6000E49000E05AE009F10409C9F800800DE0C3
:100A7000DFF8D08008F10408D8F8008028EA0008E0
:100A8000DFF8C09009F10409C9F80080D1F80480AA
:100A900008F48018B8F5801F0ED1DFF8A88008F19F
:100AA0000808D8F8008048EA0008DFF8989009F1B3
:100AB0000809C9F800800DE0DFF8888008F108080F
:100AC000D8F8008028EA0008DFF8789009F10809D2
:100AD000C9F80080D1F8048008F40018B8F5001FA8
:100AE0000ED1DFF8608008F10C08D8F8008048EAE1
:100AF0000008DFF8509009F10C09C9F800800DE0FA
:100B0000DFF8408008F10C08D8F8008028EA0008D7
:100B1000DFF8309009F10C09C9F80080521C102A46
:100B2000FFF48EAEBDE8F8870000111000100240FF
:100B300000080140000C0140001001400014014079
:100B40000800014000040140024693680B400BB1CD
:100B5000012000E0002070470AB1016101E00B04B0
:100B600003617047014800687047000000000020E2
:100B70000146886B7047000070B5044600250026CA
:100B80000CB9012070BD94F8350028B9002084F814
:100B90003400204600F0B0FA242084F835002068A4
:100BA000006820F001002168086000F073FE06462E
:100BB0001C48B6FBF0F5206845601B496068884218
:100BC00001D8681C07E04FF4967068434FF47A71BF
:100BD000B0FBF1F0401C216808623146204601F06C
:100BE0002FFD2168C861D4E9070108432168086026
:100BF000D4E90310084321688860D4E9050108435B
:100C00002168C8602068006840F001002168086021
:100C10000020A063202084F83500002084F83600EE
:100C200000BFAFE740420F00A08601002DE9F84366
:100C30000446884615461E46089F94F8350020282D
:100C400072D105B116B90120BDE8F88342F21073E4
:100C500001228949204601F0D8FE08B10220F3E7BD
:100C600000BF94F83400012801D10220ECE70120F4
:100C700084F8340000BF2068006820F40060216818
:100C80000860222084F83500102084F83600002007
:100C9000A0633A464146204601F034FD80B1A06B86
:100CA000042806D100BF002084F8340000BF0120D2
:100CB000CAE700BF002084F8340000BF0320C3E768
:100CC000012E17D12068006820F480602168086038
:100CD00072B600BF2068406900902068806900906B
:100CE00000BF00BF2068006840F400702168086001
:100CF00062B629E0022E18D12068006840F4006036
:100D00002168086072B600BF2068406900902068C2
:100D10008069009000BF00BF2068006820F48060F8
:100D20002168086062B60FE0A4E02068006840F423
:100D300080602168086000BF2068406900902068DA
:100D40008069009000BF00BF86E0032E67DC012EA3
:100D500012D13946204601F01EFF30B1A06B202889
:100D600001D1032070E701206EE72068006905F8D3
:100D7000010B701E86B26FE0022E1DD13B46002291
:100D80003E49204601F041FE08B103205CE772B6FF
:100D90002068006840F400702168086020680069DD
:100DA00005F8010B701E86B262B62068006905F86E
:100DB000010B701E86B24FE03B4600222F492046B1
:100DC00001F023FE08B103203EE72068006820F40C
:100DD00080602168086072B62068006905F8010B20
:100DE000701E86B23B4600222449204601F00DFECB
:100DF00008B1032028E72068006840F400702168EB
:100E000008602068006905F8010B701E86B262B6A2
:100E10002068006905F8010B701E86B21CE0394697
:100E2000204601F0B8FE30B1A06B202801D103208C
:100E30000AE7012008E72068006905F8010B701E29
:100E400086B220684069C0F3800028B1206800693C
:100E500005F8010B701E86B2002E3FF776AF2020FA
:100E600084F83500002084F8360000BF84F8340090
:100E700000BFE9E60220E7E60200100004000100DE
:100E80002DE9F8430446884615461E46089F94F807
:100E9000350020287ED105B116B90120BDE8F883C0
:100EA00042F2107301224549204601F0AEFD08B11F
:100EB0000220F3E700BF94F83400012801D102209A
:100EC000ECE7012084F8340000BF2068006820F4BB
:100ED000006021680860212084F83500102084F823
:100EE00036000020A0633A464146204601F086FCC9
:100EF00080B1A06B042806D100BF002084F8340024
:100F000000BF0120CAE700BF002084F8340000BF02
:100F10000320C3E700BF2068406900902068806913
:100F2000009000BF00BF23E03946204601F06EFE6E
:100F300060B1A06B042807D12068006840F40070FD
:100F4000216808600120A9E70320A7E715F8010B35
:100F500021680861701E86B220684069C0F3800075
:100F600030B12EB115F8010B21680861701E86B2F0
:100F7000002ED9DC3946204601F01CFD68B1A06B7B
:100F8000042808D12068006840F4007021680860D7
:100F9000012083E710E0032080E72068006840F428
:100FA000007021680860202084F8350000BF002010
:100FB00084F8340000BF71E702206FE702001000E0
:100FC0002DE9F84F0446884691469A460AADE0CD91
:100FD00094F83500202877D105B116B90120BDE875
:100FE000F88F42F2107301224249204601F00DFDB4
:100FF00008B10220F3E700BF94F83400012801D1C2
:101000000220ECE7012084F8340000BF206800686B
:1010100020F4006021680860212084F83500402019
:1010200084F836000020A06353464A4641462046D5
:10103000009701F057FC80B1A06B042806D100BFD7
:10104000002084F8340000BF0120C8E700BF002062
:1010500084F8340000BF0320C1E723E0394620466E
:1010600001F0D4FD60B1A06B042807D120680068AE
:1010700040F40070216808600120B0E70320AEE76B
:1010800015F8010B21680861701E86B2206840695E
:10109000C0F3800030B12EB115F8010B2168086152
:1010A000701E86B2002ED9DC3946204601F0AEFD16
:1010B00068B1A06B042808D12068006840F4007073
:1010C0002168086001208AE712E0032087E7206892
:1010D000006840F4007021680860202084F8350022
:1010E000002084F8360000BF84F8340000BF76E7A3
:1010F000022074E7020010007047000002480068F8
:10110000401C0149086070470000002010B50848E5
:10111000006840F0100006490860032000F0B6F8AF
:10112000002000F007F800F017F8002010BD0000C4
:101130000020024070B5044600F090FB4FF47A7135
:10114000B0FBF1F5284601F0F0F800222146501ED0
:1011500000F05DF8002070BD08B500BF164880693A
:1011600040F00100144988610846806900F00100E0
:10117000009000BF00BF032000F088F80022114655
:101180006FF00B0000F043F8002211466FF00A00E8
:1011900000F03DF8002211466FF0090000F037F82A
:1011A00000221146101F00F032F800221146501E96
:1011B00000F02DF808BD00000010024000BF00F054
:1011C0001F0201219140034A430942F8231000BF46
:1011D0007047000080E200E000BF00F01F02012124
:1011E0009140034A430942F8231000BF70470000B2
:1011F00080E100E000BF00F01F02012191404209A0
:10120000920002F1E022C2F8001100BF70472DE900
:10121000F05F80460D461646002701F0BDFD0746EB
:1012200039462A46334601F00700C0F1070ABAF1F1
:10123000040F02D94FF0040A01E0C0F1070AD146B9
:1012400000F1040ABAF1070F02D24FF0000A01E0E0
:10125000A0F1030AD4464FF0010A0AFA09FAAAF1EA
:10126000010A0AEA020A0AFA0CFA4FF0010B0BFA19
:101270000CFBABF1010B0BEA030B4AEA0B04214612
:10128000404601F091FDBDE8F09F000000BF00F076
:101290000702064B19684FF6FF031940044B0B4336
:1012A00043EA0221014B196000BF70470CED00E0DA
:1012B0000000FA05F8B5044600250026207800F065
:1012C0000100002874D000BF5448C06940F080502D
:1012D0005249C8610846C06900F08050009000BFC4
:1012E00000BF4F48006840F480704D490860FFF728
:1012F00039FC054606E0FFF735FC401B642801D9A0
:101300000320F8BD4648006800F480700028F2D041
:101310004248006A00F44070A18801F4407188429C
:1013200060D03E48006A20F440760121080490FA1B
:10133000A0F0B0FA80F03B4A02EB8000C0F8001445
:101340000020090491FAA1F1B1FA81F102EB8101C7
:10135000C1F800043148066206F0020048B3FFF706
:1013600001FC054608E0FFF7FDFB401B41F2883118
:10137000884201D90320C4E74020022191FAA1F15B
:10138000B1FA81F108430121B1EB601F02D123487A
:10139000006811E04020022191FAA1F1B1FA81F137
:1013A00008430221B1EB601F04D11C48006A03E02E
:1013B00018E00FE01948406A4021022292FAA2F296
:1013C000B2FA82F2114301F01F020121914008405C
:1013D0000028C8D01148006A20F4407061680843B2
:1013E0000E490862207800F00200022807D10B485D
:1013F000406820F44040A1680843084948602078CC
:1014000000F01000102807D10448406820F4800044
:10141000E168084301494860002072E7001002407B
:10142000007000400000424270B504460D460026A0
:10143000F748006800F00700A84270D2F44800683E
:1014400020F007002843F24908600846006800F0D1
:101450000700A84201D0012070BD207800F00200F2
:10146000022807D1EB48406820F0F000A16808434B
:10147000E8494860207800F0010000286FD06068DB
:1014800001282DD12020010391FAA1F1B1FA81F1B7
:1014900008430121B1EB601F02D1DE4800680FE074
:1014A0002020010391FAA1F1B1FA81F10843022150
:1014B000B1EB601F02D1D748006A01E0D548406A0D
:1014C00020210A0392FAA2F2B2FA82F2114301F049
:1014D0001F02012191400840002861D10120BBE793
:1014E000606802282DD12020010591FAA1F1B1FAFE
:1014F00081F108430121B1EB601F02D1C5480068AA
:1015000010E02020010591FAA1F1B1FA81F1084320
:101510000221B1EB601F03D1BE48006A02E083E004
:10152000BC48406A20210A0592FAA2F2B2FA82F27D
:10153000114301F01F0201219140084078BB0120B6
:101540008AE72020022191FAA1F1B1FA81F1084342
:101550000121B1EB601F03D1AE48006810E05BE1F0
:101560002020022191FAA1F1B1FA81F10843022170
:10157000B1EB601F02D1A748006A01E0A548406AAC
:101580002021022292FAA2F2B2FA82F2114301F071
:101590001F0201219140084008B901205CE7FFE7E4
:1015A0009C48406820F003006168084399494860FE
:1015B000FFF7D8FA06466068012810D108E0FFF767
:1015C000D1FA801B41F28831884201D9032043E7D8
:1015D0009048406800F00C000428F0D11CE16068DD
:1015E000022810D108E0FFF7BDFA801B41F28831D4
:1015F000884201D903202FE78648406800F00C009C
:101600000828F0D108E108E0FFF7ACFA801B41F2AE
:101610008831884201D903201EE77E48406800F0E7
:101620000C000028F0D1F7E0207800F0020002283A
:1016300007D17848406820F0F000A1680843754958
:101640004860207800F0010000286ED06068012812
:101650002CD12020010391FAA1F1B1FA81F10843C4
:101660000121B1EB601F02D16A4800680FE0202021
:10167000010391FAA1F1B1FA81F108430221B1EB22
:10168000601F02D16348006A01E06248406A20217D
:101690000A0392FAA2F2B2FA82F2114301F01F0297
:1016A00001219140084088BB0120D5E660680228EE
:1016B0002DD12020010591FAA1F1B1FA81F1084361
:1016C0000121B1EB601F02D1524800680FE02020D9
:1016D000010591FAA1F1B1FA81F108430221B1EBC0
:1016E000601F02D14B48006A01E04A48406A20214D
:1016F0000A0592FAA2F2B2FA82F2114301F01F0235
:1017000001219140084008B90120A5E62DE02020E4
:10171000022191FAA1F1B1FA81F108430121B1EB63
:10172000601F03D13B48006810E061E020200221E7
:1017300091FAA1F1B1FA81F108430221B1EB601FE6
:1017400002D13448006A01E03248406A2021022276
:1017500092FAA2F2B2FA82F2114301F01F020121C1
:101760009140084008B9012076E62A48406820F0F8
:1017700003006168084327494860FFF7F3F906460C
:101780006068012810D108E0FFF7ECF9801B41F2F6
:101790008831884201D903205EE61E48406800F087
:1017A0000C000428F0D123E06068022810D108E082
:1017B000FFF7D8F9801B41F28831884201D9032014
:1017C0004AE61448406800F00C000828F0D10FE009
:1017D00008E0FFF7C7F9801B41F28831884201D940
:1017E000032039E60B48406800F00C000028F0D1D7
:1017F0000748006820F007002843054908600846AC
:10180000006800F00700A84206D0012024E600008E
:101810000020024000100240207800F0040004285C
:1018200007D10D48406820F4E060E16808430A49A8
:101830004860207800F00800082808D10648406871
:1018400020F46050216940EAC1000349486000204B
:10185000FFF770FC0020FFE50010024000B500F02B
:1018600045F80949496801F0F001F02292FAA2F224
:10187000B2FA82F2D140054A515CC840044908607E
:101880000846006800BD00000010024094370008C0
:10189000B000002000B5FFF7E1FF0749496801F4F7
:1018A000E0614FF4E06292FAA2F2B2FA82F2D14021
:1018B000024A515CC84000BD001002409437000845
:1018C00000B5FFF7CBFF0749496801F460514FF4B9
:1018D000605292FAA2F2B2FA82F2D140024A515C0C
:1018E000C84000BD0010024094370008F0B585B034
:1018F0000FF28C0C9CE8E01001A8A0E8E01024A5F1
:101900002D68009500210024002200230020214D95
:10191000696801F00C056DB3042D02D0082D28D1A3
:1019200001E01D4828E001F470154FF4701696FA96
:10193000A6F6B6FA86F6F54001AE735D01F4803581
:1019400095B1144D6D6805F400354FF4003696FAE4
:10195000A6F6B6FA86F6F5401DF805400E4DB5FB25
:10196000F4F505FB03F202E00C4D03FB05F2104613
:1019700002E000BF084800BF00BF05B0F0BD000096
:1019800002030405060708090A0B0C0D0E0F1010C0
:10199000010200000010024000127A0000093D0020
:1019A00038B504460025207800F00100002877D0E3
:1019B000FC48406800F00C0004280CD0F94840684E
:1019C00000F00C00082837D1F648406800F4803059
:1019D000B0F5803F30D12020010391FAA1F1B1FA96
:1019E00081F108430121B1EB601F02D1ED4800688D
:1019F0000FE02020010391FAA1F1B1FA81F108432F
:101A00000221B1EB601F02D1E648006A01E0E5481F
:101A1000406A20210A0392FAA2F2B2FA82F211433A
:101A200001F01F020121914008400028BFD06068EA
:101A3000002835D1012038BD00BFDA48006820F405
:101A40008030D84908600846006820F4802008608B
:101A500000BFFFF787F8054606E0FFF783F8401B55
:101A6000642801D90320E6E72020010391FAA1F1BF
:101A7000B1FA81F108430121B1EB601F02D1C948DD
:101A8000006810E02020010391FAA1F1B1FA81F180
:101A900008430221B1EB601F03D1C248006A02E093
:101AA000B7E0C048406A20210A0392FAA2F2B2FAD3
:101AB00082F2114301F01F020121914008400028E9
:101AC000CBD100BF6068B0F5803F06D1B548006853
:101AD00040F48030B349086028E0606858B9B148E4
:101AE000006820F48030AF4908600846006820F4A0
:101AF000802008601AE06068B0F5A02F0BD1A948DB
:101B0000006840F48020A74908600846006840F457
:101B1000803008600AE0A348006820F48030A149C2
:101B200008600846006820F48020086000BF6068F4
:101B3000B8B3FFF717F8054606E0FFF713F8401BA8
:101B4000642801D9032076E72020010391FAA1F14E
:101B5000B1FA81F108430121B1EB601F02D1914834
:101B600000680FE02020010391FAA1F1B1FA81F1A0
:101B700008430221B1EB601F02D18A48006A01E0EC
:101B80008848406A20210A0392FAA2F2B2FA82F24D
:101B9000114301F01F020121914008400028CCD0E0
:101BA00037E0FFE7FEF7DEFF054606E0FEF7DAFF67
:101BB000401B642801D903203DE72020010391FA4E
:101BC000A1F1B1FA81F108430121B1EB601F02D10B
:101BD000744800680FE02020010391FAA1F1B1FAE6
:101BE00081F108430221B1EB601F02D16D48006A08
:101BF00001E06C48406A20210A0392FAA2F2B2FA8C
:101C000082F2114301F01F02012191400840002897
:101C1000CCD1207800F0020002284ED16148406803
:101C200000F00C0050B15F48406800F00C0008283C
:101C300044D15C48406800F4803078BB2020022109
:101C400091FAA1F1B1FA81F108430121B1EB601FD2
:101C500002D1544800680FE02020022191FAA1F13E
:101C6000B1FA81F108430221B1EB601F02D14D4866
:101C7000006A01E04B48406A2021022292FAA2F257
:101C8000B2FA82F2114301F01F0201219140084093
:101C900028B12069012802D00120CCE60EE041489D
:101CA000006820F0F800F82292FAA2F2B2FA82F26A
:101CB0006169914008433B49086095E0206970B331
:101CC000012090FAA0F1B1FA81F1374A42F82100DF
:101CD000FEF748FF054606E0FEF744FF401B0228DA
:101CE00001D90320A7E62020022191FAA1F1B1FA3F
:101CF00081F108430121B1EB601F02D1294800683E
:101D000010E02020022191FAA1F1B1FA81F10843FB
:101D10000221B1EB601F03D12248006A02E01EE0FD
:101D20002048406A2021022292FAA2F2B2FA82F2FC
:101D3000114301F01F020121914008400028CBD03F
:101D40001848006820F0F800F82292FAA2F2B2FADD
:101D500082F26169914008431249086044E0002022
:101D6000012191FAA1F1B1FA81F10F4A42F8210063
:101D7000FEF7F8FE054606E0FEF7F4FE401B0228DB
:101D800001D9032057E62020022191FAA1F1B1FAEE
:101D900081F108430121B1EB601F07D101480068C0
:101DA00014E0000000100240000042422020022106
:101DB00091FAA1F1B1FA81F108430221B1EB601F60
:101DC00002D1FC48006A01E0FA48406A2021022260
:101DD00092FAA2F2B2FA82F2114301F01F0201213B
:101DE000914008400028C7D1207800F0080008285A
:101DF00046D1A06980B3012090FAA0F1B1FA81F137
:101E0000ED4A02EB8101C1F88004FEF7ABFE054606
:101E100006E0FEF7A7FE401B022801D903200AE6D0
:101E20006020022191FAA1F1B1FA81F10843012168
:101E3000B1EB601F02D1DF48006810E06020022192
:101E400091FAA1F1B1FA81F108430221B1EB601FCF
:101E500003D1D848006A02E013E0D648406A602106
:101E6000022292FAA2F2B2FA82F2114301F01F02A8
:101E70000121914008400028CBD00120FEF7C8FC8A
:101E800041E00020012191FAA1F1B1FA81F1CA4AA1
:101E900002EB8101C1F88004FEF764FE054606E00E
:101EA000FEF760FE401B022801D90320C3E5602035
:101EB000022191FAA1F1B1FA81F108430121B1EBBC
:101EC000601F02D1BB4800680FE06020022191FA38
:101ED000A1F1B1FA81F108430221B1EB601F02D1F7
:101EE000B448006A01E0B348406A6021022292FAD5
:101EF000A2F2B2FA82F2114301F01F0201219140D5
:101F000008400028CCD1207800F00400042875D1C6
:101F100000BFA848C06940F08050A649C861084683
:101F2000C06900F08050009000BF00BFA348006867
:101F300040F48070A1490860FEF714FE054606E0F3
:101F4000FEF710FE401B642801D9032073E59B486F
:101F5000006800F480700028F2D000BF9548006A45
:101F600020F00100934908620846006A20F004004E
:101F7000086200BFFEF7F6FD054608E0FEF7F2FD39
:101F8000401B41F28831884201D9032053E54020AB
:101F9000022191FAA1F1B1FA81F108430121B1EBDB
:101FA000601F02D1834800680FE04020022191FAAF
:101FB000A1F1B1FA81F108430221B1EB601F02D116
:101FC0007C48006A01E07B48406A4021022292FA84
:101FD000A2F2B2FA82F2114301F01F0201219140F4
:101FE00008400028CAD100BFE068012807D1714825
:101FF000006A40F001006F49086228E09EE0E06856
:1020000058B96C48006A20F001006A490862084625
:10201000006A20F00400086219E0E06805280BD18E
:102020006448006A40F00400624908620846006A99
:1020300040F0010008620AE05E48006A20F00100FA
:102040005C4908620846006A20F00400086200BF8C
:10205000E068C8B3FEF786FD054608E0FEF782FD9E
:10206000401B41F28831884201D90320E3E440203B
:10207000022191FAA1F1B1FA81F108430121B1EBFA
:10208000601F02D14B4800680FE04020022191FA06
:10209000A1F1B1FA81F108430221B1EB601F02D135
:1020A0004448006A01E04348406A4021022292FA13
:1020B000A2F2B2FA82F2114301F01F020121914013
:1020C00008400028CAD039E0FFE7FEF74BFD05467F
:1020D00008E0FEF747FD401B41F28831884201D9F4
:1020E0000320A8E44020022191FAA1F1B1FA81F184
:1020F00008430121B1EB601F02D12E4800680FE0B8
:102100004020022191FAA1F1B1FA81F108430221A4
:10211000B1EB601F02D12748006A01E02548406A00
:102120004021022292FAA2F2B2FA82F2114301F0A5
:102130001F020121914008400028CAD1E06900280F
:1021400071D01C48406800F00C0008286CD0E06991
:1021500002286AD10021C00590FAA0F0B0FA80F000
:10216000154A42F82010FEF7FDFC054606E0FEF792
:10217000F9FC401B022801D903205CE42020010562
:1021800091FAA1F1B1FA81F108430121B1EB601F8D
:1021900002D10848006815E02020010591FAA1F15C
:1021A000B1FA81F108430221B1EB601F08D1014867
:1021B000006A07E000100240000042420070004048
:1021C0005748406A20210A0592FAA2F2B2FA82F236
:1021D000114301F01F020121914008400028C6D19F
:1021E000206AB0F5803F07D14D48406820F40030A8
:1021F000A16808434A494860D4E9080108434849AE
:10220000496821F4741108434549486001200106DA
:1022100091FAA1F1B1FA81F1424A42F82100FEF7A8
:10222000A1FC054609E079E076E033E0FEF79AFC90
:10223000401B022801D9032015E42020010591FA52
:10224000A1F1B1FA81F108430121B1EB601F02D184
:10225000334800680FE02020010591FAA1F1B1FA9E
:1022600081F108430221B1EB601F02D12C48006AC2
:1022700001E02B48406A20210A0592FAA2F2B2FA44
:1022800082F2114301F01F02012191400840002811
:10229000CCD043E000214FF0807090FAA0F0B0FA6B
:1022A00080F0204A42F82010FEF75CFC054606E06C
:1022B000FEF758FC401B022801D9032043E42020EC
:1022C000010591FAA1F1B1FA81F108430121B1EBC5
:1022D000601F02D1124800680FE02020010591FA2A
:1022E000A1F1B1FA81F108430221B1EB601F02D1E3
:1022F0000B48006A01E00A48406A20210A0592FA68
:10230000A2F2B2FA82F2114301F01F0201219140C0
:1023100008400028CCD101E0012014E4002012E4A0
:102320000010024000004242704770B50446254646
:10233000681EB0F1807F01D301200FE0681E4FF0CE
:10234000E02148610F214FF0FF3000F02DFD00200B
:102350004FF0E021886107200861002070BD10B5B2
:10236000FFF7E2FF10BD70477047704710B5044695
:1023700020680069C0F34000D8B12068C068C0F38D
:102380004000B0B16FF002002168086101202076A2
:102390002068806900F0030018B12046FFF7E5FFD0
:1023A00005E0204600F0ADF8204600F0ABF8002034
:1023B000207620680069C0F38000D8B12068C0682A
:1023C000C0F38000B0B16FF0040021680861022002
:1023D00020762068806900F4407018B12046FFF72D
:1023E000C4FF05E0204600F08CF8204600F08AF893
:1023F0000020207620680069C0F3C000D8B12068B2
:10240000C068C0F3C000B0B16FF008002168086177
:10241000042020762068C06900F0030018B120462F
:10242000FFF7A3FF05E0204600F06BF8204600F020
:1024300069F80020207620680069C0F30010D8B148
:102440002068C068C0F30010B0B16FF010002168C0
:102450000861082020762068C06900F4407018B137
:102460002046FFF782FF05E0204600F04AF82046AC
:1024700000F048F8002020762068006900F0010094
:1024800058B12068C06800F0010030B16FF0010061
:1024900021680861204600F036F820680069C0F322
:1024A000C01058B12068C068C0F3C01030B16FF0E0
:1024B0008000216808612046FFF755FF2068006909
:1024C000C0F3801058B12068C068C0F3801030B1EC
:1024D0006FF0400021680861204600F015F8206880
:1024E0000069C0F3401058B12068C068C0F34010C4
:1024F00030B16FF02000216808612046FFF734FFFB
:1025000010BD704770477047704710B504460CB94E
:10251000012010BDA06900B100E000BF94F83900AF
:1025200028B9002084F83800204600F025F8022061
:1025300084F839002068C06820F400502168C86021
:10254000204600F077FD2068006920F49040216863
:1025500008612068406920F02A00216848612068ED
:10256000C06840F400502168C8600020E06301208A
:1025700084F839000020CCE7704700BFFEE7000078
:1025800038B5044600BF1A48806940F00800184971
:1025900088610846806900F00800009000BF00BF15
:1025A00034B9C020134908601348FEF73FF91EE014
:1025B000012C0DD14FF440700E4908600E48FEF713
:1025C00035F90E48406840F002000C4948600EE0C2
:1025D000022C0CD14FF41070064908600648FEF733
:1025E00025F90648406840F002000449486038BDBB
:1025F00000100240B4000020000C01400000014027
:1026000038B50446032C13D100BF0A48806940F056
:102610000800084988610846806900F008000090B9
:1026200000BF00BFA002044908600448FEF7FEF89E
:1026300038BD000000100240B4000020000C014032
:1026400010B502460B460021154C5068A0420BD82D
:1026500050684000B3FBF0F1C1F30B00042801D235
:10266000042010BD0846FCE74FF40041906830B9E3
:10267000506800EB4000B3FBF0F0014309E0506804
:1026800000EBC00404EB0010B3FBF0F040F480401A
:102690000143C1F30B0008B90120E2E70846E0E777
:1026A000A086010001460648814201D105487047D5
:1026B0000548814201D10548F9E70020F7E700000D
:1026C0000054004008000020005800404400002052
:1026D000014608684069C0F3802088B108684069F5
:1026E00020F480600A68506104208863202081F80B
:1026F000350000BF002081F8340000BF0120704782
:102700000020FCE7F8B504460D4616462068006830
:1027100040F48060216808602068006840F48070A0
:1027200021680860334600224FF00111204600F076
:102730006CF908B10320F8BD2069B0F5804F05D1D0
:10274000E8B240F001002168086144E005F44070FF
:10275000F02141EAE010216808613246264920460E
:1027600000F0C2F930B1A06B042801D10120E2E7EA
:102770000320E0E7E8B22168086132461E49891F5C
:10278000204600F0B1F930B1A06B042801D101203E
:10279000D1E70320CFE700BF2068406900902068A0
:1027A0008069009000BF00BF2068006840F480701E
:1027B00021680860334600224FF00111204600F0E6
:1027C00024F908B10320B6E705F44070F12141EA8D
:1027D000E0102168086132460749891F204600F051
:1027E00083F930B1A06B042801D10120A3E70320B5
:1027F000A1E700209FE700000800010070B5044633
:102800000D4616462068006840F480702168086014
:10281000334600224FF00111204600F0F6F808B1CF
:10282000032070BD2069B0F5804F04D105F0FE0093
:102830002168086116E005F44070F02141EAE010DB
:102840002168086132460F49204600F04DF930B149
:10285000A06B042801D10120E3E70320E1E7E8B2FF
:102860002168086132460749891F204600F03CF97B
:1028700030B1A06B042801D10120D2E70320D0E7BA
:102880000020CEE7080001002DE9FF4182B0054697
:102890000E461C460C9F2846FFF704FF80464FF467
:1028A0007A70012304AA314600904046FEF7E8FA08
:1028B00030B14046FEF75CF9012006B0BDE8F0817A
:1028C0004FF47A703B462246314600904046FEF770
:1028D000ADF920B14046FEF74BF90120EDE70020AD
:1028E000EBE700002DE9F84304460F4615469846ED
:1028F000089E2068006840F48070216808603346B4
:1029000000224FF00111204600F07FF810B10320A3
:10291000BDE8F88307F0FE002168086132462449CB
:10292000204600F0E1F830B1A06B042801D101206D
:10293000EEE70320ECE700BF2068406900902068C4
:102940008069009000BF00BF3146204600F05EF96C
:1029500060B1A06B042807D12068006840F40070C3
:10296000216808600120D3E70320D1E7B8F1010F07
:1029700003D1E8B22168086118E0C5F30720216897
:1029800008613146204600F041F960B1A06B04288F
:1029900007D12068006840F40070216808600120B9
:1029A000B6E70320B4E7E8B2216808610020AFE78A
:1029B0000200010070B504460D46FEF7D3F8064646
:1029C0001BE02046FFF784FE08B1012070BD681CA3
:1029D00098B125B1FEF7C6F8801BA8420DD9A06BAF
:1029E00040F02000A063202084F8350000BF0020C4
:1029F00084F8340000BF0320E8E720684069C0F392
:102A000080000028DDD00020E0E72DE9F0410546F8
:102A10000C4617461E464FF00008FEF7A3F8804606
:102A200087BB13E0701C88B12EB1FEF79BF8A0EBBA
:102A30000800B0420AD9202085F8350000BF0020E8
:102A400085F8340000BF0320BDE8F081C4F30740DF
:102A500001280AD128684069A1B20840A1B2884281
:102A600001D101200BE0002009E028688069A1B2B3
:102A70000840A1B2884201D1012000E000200028D6
:102A8000D0D02FE0FFE712E0701C80B12EB1FEF72E
:102A900069F8A0EB0800B04209D9202085F835007C
:102AA00000BF002085F8340000BF0320CCE7C4F34A
:102AB000074001280AD128684069A1B20840A1B2A4
:102AC000884201D101200BE0002009E028688069DC
:102AD000A1B20840A1B2884201D1012000E000204B
:102AE0000028D1D10020AFE72DE9F04104460D4682
:102AF00016460027FEF736F807462FE020684069A3
:102B0000C0F38020C0B12068006840F400702168E4
:102B100008602068406920F48060216848610420D2
:102B2000A063202084F8350000BF002084F8340022
:102B300000BF0120BDE8F081701C78B126B1FEF71E
:102B400011F8C01BB04209D9202084F8350000BF1D
:102B5000002084F8340000BF0320EBE7C5F30740F2
:102B600001280AD120684069A9B20840A9B2884268
:102B700001D101200BE0002009E020688069A9B2A2
:102B80000840A9B2884201D1012000E000200028BD
:102B9000B4D00020CEE770B504460D460026FDF700
:102BA000E1FF06462AE020684069C0F3001088B1C2
:102BB0002068406920F01000216848610020A0636F
:102BC000202084F8350000BF002084F8340000BFC6
:102BD000012070BD25B1FDF7C5FF801BA8420DD9AE
:102BE000A06B40F02000A063202084F8350000BFD7
:102BF000002084F8340000BF0320EAE72068406921
:102C0000C0F380100028CED00020E2E770B5044663
:102C10000D46FDF7A7FF06461BE02046FFF758FDCF
:102C200008B1012070BD681C98B125B1FDF79AFF6D
:102C3000801BA8420DD9A06B40F02000A06320208B
:102C400084F8350000BF002084F8340000BF032062
:102C5000E8E720684069C0F3C0100028DDD00020FC
:102C6000E0E72DE9FE4306460F4614461D46DDF813
:102C700028803046FFF716FD81464FF47A70CDE983
:102C800000580290FF2C01DD102000E001200346D7
:102C9000224639464846FEF793F928B14846FDF7E3
:102CA00067FF0120BDE8FE830020FBE7F8B505467D
:102CB0000E4617462846FFF7F5FC044600BF30488D
:102CC000806940F001002E4988610846806900F063
:102CD0000100009000BF00BF12202A494860032075
:102CE000C860294885421BD100BF2548C06940F40F
:102CF00000102349C8610846C06900F40010009024
:102D000000BF00BF0846006940F400100861084693
:102D1000006920F4001008613046FFF731FC1DE027
:102D20001A4885421AD100BF1548C06940F4800096
:102D30001349C8610846C06900F48000009000BFD4
:102D400000BF0846006940F4800008610846006939
:102D500020F4800008613046FFF752FC2560676070
:102D60000021A160A161E1604FF480412161002157
:102D70006161E16121622046FDF7FEFEF8BD0000C1
:102D800000100240B40000200054004000580040F1
:102D900000BFFEE77047000002480068C0F3022051
:102DA000704700000CED00E010B5002807DA0A07B4
:102DB000140E054A00F00F031B1FD45403E00A074A
:102DC000130E024A135410BD18ED00E000E400E0B9
:102DD000014601F00F000A110A2303FB0200C0B2F2
:102DE000704701460A2091FBF0F200FB12100A2204
:102DF00091FBF2F240EA0210C0B2704703468B42E8
:102E000001DA08467047934201DD1046FAE718469A
:102E1000F8E700002DE9FE4F04460D4616461F4612
:102E2000DDE90D9ADDF83080072001AB0022D021CA
:102E300000901748FFF728FD8346BBF1000F25D10E
:102E40009DF80400FFF7C4FF30709DF80500FFF700
:102E5000BFFF28709DF80600FFF7BAFF20709DF8AD
:102E60000700FFF7B5FF38709DF80800FFF7B0FFC7
:102E700088F800009DF80900FFF7AAFF89F8000014
:102E80009DF80A00FFF7A4FF8AF80000BDE8FE8F56
:102E9000005400402DE9FE4F07460C4615461E46DD
:102EA000DDE90D9ADDF830803B2200212846FFF74E
:102EB000A5FF8346FFF795FF8DF804003B22002114
:102EC0002046FFF79BFF8346FFF78BFF8DF8050039
:102ED000172200213846FFF791FF8346FFF781FF55
:102EE0008DF80600072201213046FFF787FF834651
:102EF000FFF777FF8DF807001F2201214046FFF7FB
:102F00007DFF8346FFF76DFF8DF808000C2201213D
:102F10004846FFF773FF8346FFF763FF8DF809000C
:102F2000632200215046FFF769FF8346FFF759FFF0
:102F30008DF80A00072001AB0022D0210090024842
:102F4000FFF78FFEBDE8FE8F0054004010B5FEF77E
:102F5000D5F8FFF704FA10BD00B593B00120099031
:102F600000040A9000200B9001200D900220109088
:102F7000C10311914FF4E011129109A8FEF710FD61
:102F80000F20049002200590002006904FF48060EE
:102F9000079000200890022104A8FEF745FA1220AD
:102FA00000904FF400400290002003906846FEF726
:102FB00081F913B000BD00001148006840F0010025
:102FC0000F490860084640680E4908400C494860AF
:102FD000084600680C49084009490860084600682E
:102FE00020F4802008600846406820F4FE00486015
:102FF0004FF41F008860C803044908607047000050
:10300000001002400000FFF8FFFFF6FE08ED00E0B0
:1030100010B50648FFF7AAF90548006808B901206D
:1030200000E000200249086010BD0000DC01002023
:10303000B08121422DE9F041044600252068006955
:1030400020F44050E1680843216808612169A068C4
:103050000843616940EA01052068C06841F20C61DB
:10306000884328432168C8602068406920F4407084
:10307000A16908432168486137492068884234D1F2
:10308000FEF71EFC00EBC00101EB00106168890037
:10309000B0FBF1F06421B0FBF1F6FEF711FC00EBA0
:1030A000C00101EB001061688900B0FBF1F7FEF789
:1030B00007FC00EBC00101EB001061688900B0FB68
:1030C000F1F06421B0FBF1F000EBC00101EB001066
:1030D000A7EB8000322101EB00106421B0FBF1F07E
:1030E00066F31F102168886033E0FEF7D3FB00EB26
:1030F000C00101EB001061688900B0FBF1F06421B0
:10310000B0FBF1F6FEF7C6FB00EBC00101EB0010CF
:1031100061688900B0FBF1F7FEF7BCFB00EBC00172
:1031200001EB001061688900B0FBF1F06421B0FB95
:10313000F1F000EBC00101EB0010A7EB80003221A1
:1031400001EB00106421B0FBF1F066F31F10216861
:103150008860BDE8F08100000038014010B50848E3
:10316000006800F0200030B10548001D0068C1B2C1
:10317000044800F081F92521014800F08BF810BDCA
:10318000003801408000002010B504463CB90521FC
:10319000092000F03BFA00210A2000F037FA012C48
:1031A00007D10521162000F031FA0021172000F088
:1031B0002DFA022C07D10521092000F027FA002161
:1031C000172000F023FA10BD10B50848006800F081
:1031D000200030B10548001D0068C1B2044800F06D
:1031E0004BF92621014800F055F810BD004400407D
:1031F0008C00002010B50446032C07D105210220C5
:1032000000F004FA0021032000F000FA042C07D19A
:103210000521352000F0FAF90021362000F0F6F9FA
:1032200010BD000010B50848006800F0200030B163
:103230000548001D0068C1B2044800F01DF92721AF
:10324000014800F027F810BD004800409800002019
:1032500010B50446052C07D105211A2000F0D6F937
:1032600000211B2000F0D2F9062C07D105212A20CD
:1032700000F0CCF900212B2000F0C8F9072C07D171
:103280000521382000F0C2F90021392000F0BEF9F4
:1032900010BD000038B505460C461E48056000BF4D
:1032A0000068006800901B4800684068009000BFFC
:1032B00000BF00BF1748006800680090154800680C
:1032C0004068009000BF00BF00BF1248006800685F
:1032D0000090104800684068009000BF00BF00BF29
:1032E0000C480068006800900A4800684068009038
:1032F00000BF00BF00BF0748006800680090054895
:1033000000684068009000BF00BF2046FDF756FFF0
:1033100038BD0000240100200146064A914200D138
:103320000020054A914200D10120044A914200D177
:10333000022070470038014000440040004800402F
:103340002DE9F04F91B004460D4616461F46DDE9C3
:103350001BABDDF86890444884421CD100BF434851
:10336000806940F48040414988610846806900F4E2
:103370008040009000BF00BF0846C06840F4804015
:10338000C8600846C06820F48040C8602846FFF73F
:10339000FBFE4FF02508364884421CD100BF33485D
:1033A000C06940F400303149C8610846C06900F482
:1033B0000030009000BF00BF0846006940F40030B4
:1033C00008610846006920F4003008612846FFF7CC
:1033D00011FF4FF02608274884421CD100BF234824
:1033E000C06940F480202149C8610846C06900F4E2
:1033F0008020009000BF00BF0846006940F4802094
:1034000008610846006920F4802008612846FFF71B
:103410001FFF4FF02708019402960797CDF81890E8
:10342000CDF814A0CDF810B01D980390002108919C
:103430004046FDF7D1FE2046FFF76EFF024606210B
:1034400000904046FDF7E3FE4046FDF7D3FE4046C0
:10345000FDF7B4FE01A8FFF758F8E06840F020003F
:10346000E06011B0BDE8F08F00380140001002406C
:10347000004400400048004010B5C28883889A424A
:103480000FDA028983889A4201D1002202814AB26E
:10349000048903681A550289521C0281C288521C91
:1034A000C28010BD7FB504460D46164616488442BC
:1034B0000BD100200C23CDE90030029003463246A8
:1034C000294603902046FFF73BFF104884420BD16A
:1034D00000200C23CDE900300290034632462946F5
:1034E00003902046FFF72CFF094884420BD10020AF
:1034F0000C23CDE900300290034632462946039062
:103500002046FFF71DFF7FBD00380140004400400A
:103510000048004000BFFEE708B5C2B200920C4A66
:10352000D26802F400528AB100BF094A126802F060
:103530008002002AF9D09DF80020054B5A6000BF98
:10354000034A126802F08002002AF9D000BF08BDC9
:10355000003801401FB5FDF7D9FDFFF7FDFCFCF772
:10356000A3FF4FF4E13200211A48FFF79BFF182018
:10357000032119220223CDE90021029000222A21F1
:103580001420FFF787FC24E013481449144A154B14
:10359000CDE900210290144A14491548FFF73AFC7E
:1035A0000D4800780D4909780D4A12780D4B1B78AB
:1035B000CDE90032CDE902100B4803780B480278C0
:1035C0000B4801780BA0FCF725FE4FF47A70FDF74D
:1035D0001FF9D9E700380140AE000020AD000020FF
:1035E000AC000020AB000020AA000020A9000020B1
:1035F000A800002025642D25642D25642025642D38
:1036000025642D25642D25640A0000002DE9F04174
:1036100086B006460C4606EB4600594951F8307014
:1036200006EB460001EBC00080881FFA80F806EB2D
:10363000460001EBC00085686DB900BF5148806944
:1036400040F004004F4988610846806900F004009A
:10365000019000BF40E0012D0DD100BF49488069B5
:1036600040F00800474988610846806900F008007A
:10367000019000BF30E0022D0DD100BF41488069AC
:1036800040F010003F4988610846806900F0100052
:10369000019000BF20E0032D0DD100BF39488069A3
:1036A00040F02000374988610846806900F020001A
:1036B000019000BF10E0042D0DD100BF314880699A
:1036C00040F040002F4988610846806900F04000C2
:1036D000019000BF00E000BFCDF808801CB90020B9
:1036E0000390049044E0022C04D1002003900120B8
:1036F00004903DE0032C04D10020039002200490AC
:1037000036E0012C04D101200390032005902FE026
:10371000072C04D1112003900320059028E0042CED
:1037200004D1122003900320059021E0052C04D140
:1037300002200390032005901AE0062C04D10320F8
:1037400003900220049013E00C2C04D10E48039047
:10375000002004900CE00D2C04D10C4803900120B3
:10376000049005E00E2C03D1094803900220049038
:1037700002A93846FDF75AF806B0BDE8F08100000E
:10378000A437000800100240000031100000211092
:1037900000001110000000000102030401020304F4
:1037A00006070809000801400100000000000000B1
:1037B00000000000000000000000000000080140C0
:1037C00002000000000000000100000000000040B6
:1037D0000400000000080140040000000000000098
:1037E0000200000000000040080000000008014046
:1037F000080000000000000003000000000000407E
:103800000C00000000080140100000000000000053
:10381000040000000000000000000000000801405B
:103820002000000000000000050000000000000073
:1038300000000000000801404000000000000000FF
:1038400006000000000400400000000000080140E5
:10385000800000000000000007000000000400409D
:10386000040000000008014000010000000000000A
:1038700000000000002C0140000000000008014092
:10388000000200000000000000000000002C0140C9
:1038900004000000000801400004000000000000D7
:1038A00000000000002C014008000000000801405A
:1038B000000800000000000000000000002C014093
:1038C0000C00000000080140001000000000000093
:1038D000000000000000000000000000000801409F
:1038E00000200000000000000000000000000000B8
:1038F000000000000008014000400000000000003F
:10390000000000000000000000000000000801406E
:103910000080000000000000000000000000000027
:1039200000000000000C0140010000000100000048
:10393000080000000004004008000000000C0140E6
:103940000200000001000000090000000004004027
:103950000C000000000C0140040000000100000009
:10396000000000000000000000000000000C01400A
:1039700008000000010000000000000000000040FE
:1039800004000000000C01401000000001000000D5
:10399000000000000004004000000000000C014096
:1039A00020000000010000000000000000040040B2
:1039B00004000000000C0140400000000100000075
:1039C000000000000008004000000000000C014062
:1039D000800000000100000000000000000800401E
:1039E00004000000000C0140000100000100000084
:1039F000000000000000000000000000000C01407A
:103A000000020000010000000000000000000000B3
:103A100000000000000C0140000400000100000054
:103A2000000000000000004008000000000C014001
:103A3000000800000100000000000000000000403D
:103A40000C000000000C014000100000010000000C
:103A5000000000000000000000000000000C014019
:103A60000020000001000000000000000000000035
:103A700000000000000C01400040000001000000B8
:103A8000000000000000000000000000000C0140E9
:103A900000800000010000000000000000000000A5
:103AA00004000000001001400100000002000000BE
:103AB0000A000000000000000000000000100140AB
:103AC00002000000020000000B00000000000000E7
:103AD000000000000010014004000000020000008F
:103AE0000C00000000000000000000000010014079
:103AF00008000000020000000D00000000000000AF
:103B00000000000000100140100000000200000052
:103B10000E00000000000000000000000010014046
:103B200020000000020000000E0000000000000065
:103B300000000000001001404000000002000000F2
:103B40000000000000000000000000000010014024
:103B500080000000020000000000000000000000E3
:103B600004000000001001400001000002000000FD
:103B700000000000000000000800000000100140EC
:103B80000002000002000000000000000000000031
:103B90000C000000001001400004000002000000C2
:103BA00000000000000000000000000000100140C4
:103BB00000080000020000000000000000000000FB
:103BC0000000000000100140001000000200000092
:103BD0000000000000000000000000000010014094
:103BE00000200000020000000000000000000000B3
:103BF0000000000000100140004000000200000032
:103C00000000000000000000000000000010014063
:103C10000080000002000000000000000000000022
:103C2000000000000014014001000000030000003B
:103C3000000000000000000000000000001401402F
:103C4000020000000300000000000000000000006F
:103C50000000000000140140040000000300000008
:103C600000000000000000000000000000140140FF
:103C70000800000003000000000000000000000039
:103C800000000000001401401000000003000000CC
:103C900000000000000000000000000000140140CF
:103CA00020000000030000000000000000000000F1
:103CB000000000000014014040000000030000006C
:103CC000000000000000000000000000001401409F
:103CD0008000000003000000000000000000000061
:103CE000000000000014014000010000030000007B
:103CF000000000000000000000000000001401406F
:103D000000020000030000000000000000000000AE
:103D10000000000000140140000400000300000047
:103D2000000000000000000000000000001401403E
:103D30000008000003000000000000000000000078
:103D4000000000000014014000100000030000000B
:103D500000000000000800400000000000140140C6
:103D600000200000030000000000000000080040E8
:103D700004000000001401400040000003000000A7
:103D8000000000000008004008000000001401408E
:103D90000080000003000000000000000008004058
:103DA0000C000000001801400100000004000000A9
:103DB00000000000000000000000000000180140AA
:103DC00002000000040000000000000000000000ED
:103DD0000000000000180140040000000400000082
:103DE000000000000000000000000000001801407A
:103DF00008000000040000000000000000000000B7
:103E00000000000000180140100000000400000045
:103E10000000000000000000000000000018014049
:103E2000200000000400000000000000000000006E
:103E300000000000001801404000000004000000E5
:103E40000000000000000000040000000018014015
:103E500080000000040000000000000000000000DE
:103E600000000000001801400001000004000000F4
:103E700000000000000000000000000000180140E9
:103E8000000200000400000000000000002C0140BF
:103E900000000000001801400004000004000000C1
:103EA00000000000000000000000000000180140B9
:103EB000000800000400000000000000002C014089
:103EC0000400000000180140001000000400000081
:103ED0000000000000000000000000000018014089
:103EE000002000000400000000000000002C014041
:103EF000080000000018014000400000040000001D
:103F000000000000002C01400C00000000180140DF
:103F1000008000000400000000000000000000001D
:103F200000000000443F000800000020B400000032
:103F30006C010008F83F0008B4000020C40700002E
:103F4000880100080000000000000000005400404C
:103F50000000000000000000000000000000000061
:103F60000000000000000000000000000000000051
:103F70000000000000000000000000000000000041
:103F80000000000000000000005800400000000099
:103F90000000000000000000000000000000000021
:103FA0000000000000000000000000000000000011
:103FB0000000000000000000000000000000000001
:103FC00000000000C40000202000000000000000ED
:103FD000E400002020000000000000000401002098
:103FE00020000000000000000000000000000000B1
:083FF0000000000000A24A04D9
:0400000508000131BD
:00000001FF
