:020000040800F2
:1000000030CA0020A1010008A9010008AB010008C6
:10001000AD010008AF010008B101000800000000B8
:10002000000000000000000000000000B301000814
:10003000B501000800000000B7010008AF1E00086D
:10004000BB010008BB010008BB010008BB010008A0
:10005000BB010008BB01000815050008D905000810
:1000600005060008310600085D060008B503000813
:10007000C9030008DD030008F103000805040008B7
:10008000190400082D040008BB010008BB0100088A
:10009000BB010008BB010008BB010008890600087D
:1000A000D51F000811200008FD1F0008E91F0008E7
:1000B00035200008492000085D200008BB01000829
:1000C000BB010008BB010008BB010008BB01000820
:1000D000BB010008D5220008ED220008F922000823
:1000E00041050008BB010008BB010008AD20000865
:1000F000E9200008D5200008C120000841040008BC
:10010000BB010008BB01000871200008BB0100080A
:10011000BD220008C9220008852000089920000897
:10012000550400086D040008850400089D040008BB
:10013000B5040008BB010008BB010008BB010008B2
:10014000BB010008BB010008BB010008BB0100089F
:10015000CD040008E5040008FD040008052300089C
:10016000BB010008BB010008BB010008BB0100087F
:10017000BB010008BB010008BB0100080000000033
:10018000BB010008BB010008DFF810D000F0C4F884
:1001900000F070F8004800470D85000830CA0020C4
:1001A0000648804706480047FEE7FEE7FEE7FEE711
:1001B000FEE7FEE7FEE7FEE7FEE7FEE7811F000839
:1001C000890100080649074A0868504343F239028A
:1001D00010440860400870470149086070470000FB
:1001E000340100206D4EC64110B5431A934209D226
:1001F0008318881803E010F8011D03F8011D521E32
:10020000F9D210BD40EA01039B0703D009E008C9F9
:10021000121F08C0042AFAD203E011F8013B00F8CB
:10022000013B521EF9D210BDD2B201E000F8012B01
:10023000491EFBD270470022F6E710B513460A4666
:1002400004461946FFF7F0FF204610BD421C10F887
:10025000011B0029FBD1801A704730B504460020ED
:10026000034600E05B1C934203D2E05CCD5C401B84
:10027000F8D030BD70B5054C054D03E02068204432
:100280008047241DAC42F9D170BD000070BB00084E
:100290009CBB000800F00BB8034870470248001DE3
:1002A000011F8860001D704740010020704710B595
:1002B00000F00DF8016919B100220261884701E0E0
:1002C00080688047AFF3008010B5AFF3008070B551
:1002D000FFF7E4FF04680546A4B9202006F002FDFC
:1002E000040011D0094900202C60C4E9000108492C
:1002F000A1602073206160610649A06109B100F02E
:100300001DF8E061204670BDAFF3008000000000E2
:10031000C902000800000000064C074D06E0E06836
:1003200040F0010394E8070098471034AC42F6D33C
:10033000FFF72EFF50BB000870BB000810B58820E7
:1003400006F0D0FC002801D00021017010BD8029EA
:1003500002D808B1017809B100207047012100F8E6
:10036000081B704718B100F10802914201D000202B
:10037000704700210170704730B58C1810F8012BC0
:1003800012F00F0301D110F8013B120906D110F849
:10039000012B03E010F8015B01F8015B5B1EF9D152
:1003A00001E001F8013B521EFBD1A142E6D300203F
:1003B00030BD000003480168890601D52021816015
:1003C000704700000060024003480168090501D53C
:1003D000C11481607047000000600240034801685A
:1003E000890202D54FF4001181607047006002401D
:1003F00003480168090102D54FF000618160704730
:100400000060024003484168890601D52021C1608F
:10041000704700000060024003484168090501D5AB
:10042000C114C16070470000006002400348416889
:10043000890202D54FF40011C1607047006002408C
:1004400003484168090102D54FF00061C16070475F
:100450000060024004480068800603D5024920205D
:1004600008310860704700000064024004480068DA
:10047000000504D502494FF4006008310860704758
:100480000064024004480068000104D502494FF0AE
:10049000006008310860704700640240044800684A
:1004A000000104D502494FF0006008310860704730
:1004B0000064024004480068800603D502492020F9
:1004C0000831086070470000046402400448006876
:1004D000000504D502494FF40060083108607047F8
:1004E0000464024004480068800204D502494FF4C5
:1004F0000010083108607047046402400448006836
:10050000000104D502494FF00060083108607047CF
:1005100004640240084810B50168C9070BD00121E6
:100520000160084600F010FD04480068002802D071
:10053000BDE81040004710BD143C01402CAE002027
:1005400070B5234D2868234C400506D52815286032
:1005500000F0FAFCA06A00B180472868000507D5C2
:100560004FF40060286000F0EFFCE06A00B18047C3
:100570002868C00407D54FF48050286000F0E4FCE0
:10058000206B00B180472868800407D54FF40050E5
:10059000286000F0D9FC606B00B1804728684004F7
:1005A00007D54FF48040286000F0CEFCA06B00B16E
:1005B0008047286800040AD54FF40040286000F006
:1005C000C3FCE06B002802D0BDE87040004770BD5E
:1005D000143C01402CAE0020084810B50168890782
:1005E0000BD502210160084600F0AEFC04484068CB
:1005F000002802D0BDE81040004710BD143C014067
:100600002CAE0020084810B5016849070BD504211D
:100610000160084600F098FC04488068002802D079
:10062000BDE81040004710BD143C01402CAE002036
:10063000084810B5016809070BD508210160084674
:1006400000F082FC0448C068002802D0BDE81040D9
:10065000004710BD143C01402CAE0020084810B5E6
:100660000168C9060BD510210160084600F06CFC3A
:1006700004480069002802D0BDE81040004710BDC2
:10068000143C01402CAE002070B51D4D28681D4C57
:10069000800606D52020286000F056FC606900B175
:1006A00080472868400606D54020286000F04CFCB2
:1006B000A06900B180472868000606D58020286020
:1006C00000F042FCE06900B180472868C00507D50A
:1006D0004FF48070286000F037FC206A00B180473A
:1006E000286880050AD54FF40070286000F02CFCC3
:1006F000606A002802D0BDE87040004770BD00006D
:10070000143C01402CAE0020FEE731B500F004FDA2
:10071000044600F001FD0099001B8842F9D338BD62
:100720002DE9F041054690F845000C46012875D0AA
:10073000012685F84560022085F84400002C70D021
:100740002A68116841480140D4E900031843D4E9FC
:1007500002373B431843AB68184323691843636966
:100760001843EB681843A3691843E3691843236AE5
:100770001843636A1843A36A184308431060286843
:1007800007680120FFF7C1FF28680760D4E90B0163
:100790000843D4E90D1211430843E16B0843216C6F
:1007A0000843616C0843A16C0843296848602868C5
:1007B00047680120FFF7A9FF286847602968E06CB7
:1007C00088602968206DC8602A6891694FF6417079
:1007D0000140D4E916031843B4F85470236E43EA79
:1007E00007431843636E1843A36E18430843906190
:1007F000286887690120FFF788FF28688761D4E9A6
:100800001B0108432968C8612868C4690120FFF7F3
:100810007CFF2868C46114E000E002E00220BDE82B
:10082000F0812968086820F49042D5E90203184352
:1008300010430860286804680120FFF766FF2868F5
:10084000046005F8446F00206870E8E70F8120FF1E
:100850002DE9F04390F845400025012C0DD04FF0D4
:10086000010C80F845C0022480F8444044F2F4575B
:100870004FF000495E1E816217E00220BDE8F08360
:1008800001EB4514C4F80090C5EBC51808EB480807
:1008900002EB8808C4E90178B54204D204F12008CB
:1008A000C4F80C8000E0E1606D1C9D42E8D3026852
:1008B00002F58052D16080F844C0002180F84510D4
:1008C0000846DBE72DE9F043914690F845200024E7
:1008D000012A0AD0012680F84560022280F84420CF
:1008E0004FF4801C5D1EC1621BE00220BDE8F08356
:1008F00001EB4412C2F800C0C4EBC41707EB470871
:1009000009EB88079760C7691FB9176847F4400764
:100910001760AC4203D202F12007D76000E0D1603B
:10092000641C9C42E4D3026802F58052116180F895
:100930004460002180F845100846D7E730B590F8AC
:1009400045100023012908D0012280F8452002210A
:1009500080F844100024816A1AE0022030BD0D683E
:100960005B1CC5F30125022D0AD00D6815F4407FEC
:1009700009D04163836B5B1C8363012B12D012E0AF
:100980008263016302E0856B6D1C8563C9688162C7
:100990000D68002D01DB052BE1D300F8442F4470D6
:1009A000012030BD01630B68C3F30D431B1FC363FC
:1009B000036B9B680364C96840F8281F027744777B
:1009C000002030BD2DE9FC474FF000060400B14681
:1009D000009603D094F8440018B107E00120BDE868
:1009E000FC8784F84560204600F0D0F85D48016837
:1009F00041F480410160006800F4804001905A4851
:100A0000016821F4000101600168226A114301605C
:100A1000206800F58050016841F001010160216803
:100A200001F580500268D207FCD1086920F01C054E
:100A300000F030FD4D494E4A0144914202D245F04A
:100A4000080516E04B494C4A0144914202D245F058
:100A50000C050EE049494A4A0144914209D34949EB
:100A600008444949884202D245F0040501E045F0B6
:100A70001005206805614FF400420021204600F077
:100A800027FA0125A8BBFF20FFF73FFE606888B367
:100A900000F042FB07464FF4FA686A4601212046FF
:100AA00000F0CCF800F038FBC01B404518D8009887
:100AB0004007F2D54FF480520021204600F008FA9A
:100AC000B8B900F029FB07464FF47A786A4601214D
:100AD000204600F0B3F800F01FFBC01B40450AD9C8
:100AE0000121204605F01CFC04F8445F03206670D9
:100AF00075E724E018E000988006E7D56A461F21D4
:100B0000204600F09BF8D0B90098C10603D54FF4F9
:100B10000061E16000E0E660400701D5A66019E0F1
:100B20004FF48040A06015E0E068A168C00840EA8A
:100B3000510082B20021204600F0CAF930B10121F3
:100B4000204605F0EDFB84F8445047E740F6FF707F
:100B5000FFF7DBFD4946204605F0E2FB84F84450F0
:100B600000203CE7443802400438014000D3CEFE68
:100B7000C0E1E40040F1E9FD40787D0100796CFCC2
:100B8000005A6202001F0AFA80F0FA0210B5274CE0
:100B900086B0206840F001002060206800F001006D
:100BA0000590206840F002002060206800F00200FC
:100BB0000590206840F0040020602068694600F03D
:100BC00004000590862000900320039002200190ED
:100BD000002002900B200490154800F0B7F94FF464
:100BE000605000906946134800F0B0F93220009040
:100BF0006946114800F0AAF9206840F000702060B2
:100C0000206800F000700590206840F0806020604F
:100C1000206800F080600590206840F0006020604F
:100C2000206800F00060059006B010BD303802402A
:100C30000000024000040240000802402DE9F04795
:100C4000044690F84400914682281DD0822084F802
:100C50004400226810694FF6FF7500F01C03208ADB
:100C600005EAC02018434FF4F86303EA81110143F9
:100C700021F0020040F00105156100F04DFA064632
:100C800001274FF4803810E00220BDE8F08700BF54
:100C900000F042FA801B404505D304F8447F002051
:100CA00060700320F1E720680569E807F0D120684B
:100CB000406981B2C9F8001084F844700020E4E76C
:100CC000F8B5044690F84500012839D0012584F88C
:100CD0004550022084F8440020680026016841F055
:100CE000080101602068006800902846FFF70DFDAC
:100CF0002168009808602068016841F004010160E3
:100D00002068006800900120FFF7FFFC2168009830
:100D10000860204605F096FB206800F58050816948
:100D200041F400518161206800F58050816941F0F3
:100D30000201816184F8445084F845600020F8BDC8
:100D40000220F8BDF8B5044690F84500012839D0D6
:100D5000012584F84550022084F84400206800F5FD
:100D60008050816921F400518161206800F5805034
:100D7000816921F00201816120680026016821F06B
:100D8000040101602068006800900120FFF7BDFCAD
:100D9000216800980860204605F054FB206801682F
:100DA00021F0080101602068006800900120FFF731
:100DB000ACFC21680098086084F8445084F84560D1
:100DC0000020F8BD0220F8BDF0B590F845200023C2
:100DD000012A11D0012780F84570022280F84420B2
:100DE000002459B1C66A3268002A0ADA122100F8D2
:100DF000441F44700120F0BD0220F0BD00F8447F84
:100E0000F7E740F2F455A9420BD9B1FBF5FCB1FB71
:100E1000F5F205FB1C1CBCF1000F00D0521C012A8E
:100E200043D1326842F040523260C26AC1F30C01D1
:100E30005160C16A0A6842F000420A60C16AC9682A
:100E4000C16234E0D6F800C02CF0405CC6F800C0A7
:100E500033B9C66AD6F800C04CF0805CC6F800C052
:100E6000C66A7560561EB34214D1C66AD6F800C071
:100E70004CF0005CC6F800C0C2F10106C6EBC61615
:100E800006EB4606D0F82CC001EB8606C6F30C062E
:100E9000CCF80460C66AD6F800C04CF0004CC6F826
:100EA00000C0C66A5B1CF668C6629342CAD301687A
:100EB00001F580514A69520705D504224A6101684B
:100EC00001F580514C6000F8447F44700020F0BD73
:100ED0002DE9F041044690F8440042281ED04220FB
:100EE00084F84400236818694FF6FF7600F01C056B
:100EF000208A06EAC02028434FF4F86505EA8111EC
:100F0000014390B241F0030558612068056100F08B
:100F100003F9064601274FF4803810E00220BDE8AF
:100F2000F08100BF00F0F8F8801B404505D304F8BD
:100F3000447F002060700320F1E720680569E8071E
:100F4000F0D184F84470EAE7704700002DE9F84FCB
:100F5000DFF888B100224FF001084FF0030A4FF08C
:100F60000F090BF1040E00BF0B6808FA02F42340CE
:100F7000A3426ED14D68022D01D0122D0ED1D5089D
:100F800000EB850CDCF820505607F70E09FA07F63F
:100F9000B5430E69BE402E43CCF82060066855006C
:100FA0000F790AFA05FC07F0030726EA0C06AF40A2
:100FB000374307604E68012E05D0022E03D0112E54
:100FC00001D0122E0ED18668CF6826EA0C06AF40FB
:100FD000374387604668A6430C79C4F300149440F5
:100FE00034434460C4688E6824EA0C04AE4026434F
:100FF000C6604C68E4006AD5394C256845F48045E4
:101000002560246822F0030504F480440094354CE4
:101010002E19D6F8084895072F0F09FA07F5AC43A3
:10102000314DA84201D1002529E0304DA84201D11F
:10103000012524E02E4DA84201D102251FE02D4DAF
:10104000A84201D103251AE02B4DA84202D1042564
:1010500015E03CE0294DA84201D105250FE0284DBF
:10106000A84201D106250AE0264DA84201D1072554
:1010700005E0254DA84201D1082500E00925BD4025
:101080002543C6F80858DBF800405D464E689C438F
:10109000F60300D51C432C60DEF8004075464E6810
:1010A0009C43B60300D51C432C600C4D08352C68BE
:1010B0004E689C43F60200D51C432C60074D0C354E
:1010C0002C684E689C43B60200D51C432C60521C11
:1010D000102AFFF449AFBDE8F88F0000003C014042
:1010E0004438024000300140000002400004024049
:1010F00000080240000C02400010024000140240B0
:1011000000180240001C0240002002400148006814
:10111000000C7047002004E00148006870470000A0
:101120001401002002480168491C0160704700005A
:10113000140100200B4810B5016841F400710160F2
:10114000016841F480610160016841F480710160CF
:10115000032000F067F8002000F006F800F015F812
:10116000002010BD003C024010B5044600F092F98A
:101170004FF47A71B0FBF1F000F0B5FB002221468C
:10118000501E00F02FF8002010BD10B5032000F015
:1011900049F80022BDE810401146501E00F022B868
:1011A00000F01F02012191404009800000F1E02081
:1011B000C0F88012704700F01F02012191404009E1
:1011C000800000F1E020C0F88011704700F01F029D
:1011D000012191404009800000F1E020C0F8001199
:1011E00070470000F0B40E4B1B680C46C3F302239B
:1011F000C3F10705042D00D90425191D072901D2C3
:10120000002300E0DB1E012606FA05F1491E2140FD
:1012100099409E40761E16403143F0BC01F016BC4A
:101220000CED00E0064900F0070208684FF6FF03E6
:10123000184040EA0220034A10430860704700004B
:101240000CED00E00000FA052DE9F05FDFF8FCA1ED
:1012500004460F46DAF80000DFF8F48100F00F01D1
:101260007B4807F0FF0941F2883508F10808B942C8
:1012700062D28AF80090DAF8001001F00F01B9424A
:101280007ED12178890707D5D8F80020A36822F0FD
:10129000F0021A43C8F800202178C9072ED06168EF
:1012A00001291AD002291BD0032919D00068800710
:1012B000002865DAD8F80000464620F0030008430D
:1012C000C8F80000FFF728FF07466068012810D023
:1012D00002281AD003281ED029E000688003E7E71F
:1012E00000688001E4E700BFFFF716FFC01BA842BB
:1012F00059D83068C0F381000128F5D189E000BFDA
:10130000FFF70AFFC01BA8424DD83068C0F3810028
:101310000228F5D17DE03068FFF7FEFEC01BA84231
:10132000F9D940E0FFF7F8FEC01BA8423BD830686F
:1013300010F00C0FF6D16CE02178890707D5D8F8AA
:101340000020A36822F0F0021A43C8F80020217898
:10135000C9074CD06168012928D0022929D0032966
:1013600027D000688007002849DAD8F8002022F04A
:1013700003020A43C8F80020FFF7CEFE064600E04D
:101380003DE0606801281DD0022829D0032838D00C
:10139000AB464546286810F00C0F28D0FFF7BCFE7E
:1013A000811B5945F6D90320BDE8F09F00688003F2
:1013B000D9E700688001D6E7FFF7AEFE811B5945EB
:1013C00002D9F0E7AB4645462868C0F38100012802
:1013D000F2D10CE0FFF7A0FE811B594502D9E2E7EC
:1013E000AB4645462868C0F381000228F2D18AF84E
:1013F0000090DAF8000000F00F00B84209D0012098
:10140000D2E744462068FFF787FE801BA842F9D93F
:10141000C9E72078400707D5D8F80010E26821F422
:10142000E0511143C8F800102078000708D5D8F81B
:101430000010226921F4604141EAC201C8F800109D
:101440000020FFF791FE0020AEE70000003C0240C4
:10145000003802400F2202600C4A136803F00303B5
:101460004360136803F0F0038360136803F4E053F0
:10147000C36012684FF4E05303EAD20202610448E9
:10148000006800F00F000860704700000838024054
:10149000003C024010B500F043F808490968F0220A
:1014A00092FAA2F201F0F001B2FA82F2D140044ABB
:1014B000515CC8400349086010BD00000838024074
:1014C00082AD00081001002010B5FFF7E3FF0749C7
:1014D00009684FF4E05292FAA2F201F4E051B2FA34
:1014E00082F2D140024A515CC84010BD0838024027
:1014F00082AD000810B5FFF7CDFF074909684FF42A
:10150000604292FAA2F201F46041B2FA82F2D14052
:10151000024A515CC84010BD0838024082AD000844
:1015200030B51948006810F00C01184812D0184C5A
:1015300004290ED008290DD11349091F0A6802F0A9
:101540003F030A68550247F6C07204D5B4FBF3F0B6
:1015500003E0204630BDB0FBF3F00B680968134090
:1015600092FAA2F2B2FA82F2D34058434FF44032D8
:1015700092FAA2F201F44031B2FA82F2D140491C4F
:101580004900B0FBF1F030BD083802400024F400FF
:1015900040787D012DE9F84F04460078DFF8189374
:1015A000C64DC0074FF0000648D0D9F80010484695
:1015B000C1F38101012908D00068C0F3810002282D
:1015C0000AD1281D0068400206D52868800335D559
:1015D000606800286FD031E0DFF8E08208F102088F
:1015E00088F80060FFF798FD074604E0FFF794FDD8
:1015F000C01B64287ED828688003F7D4207988F837
:101600000000606868B1FFF787FD074605E000BF8E
:10161000FFF782FDC01B6428ECD828688003F7D54B
:101620000CE0FFF779FD074605E000BFFFF774FD0A
:10163000C01B6428DED828688003F7D42078A04F28
:1016400080074FF0010B46D5D9F80010484611F03D
:101650000C0F4FF0F80A09D00068C0F3810002288F
:101660000BD19548001F0068400206D42868800707
:1016700015D5E06801281ED111E0E068E0B1C7F897
:1016800000B0FFF749FD804606E000BFFFF744FDCC
:10169000A0EB08006428ADD828688007F6D5286834
:1016A0009AFAAAF22169B2FA82F220F0F800914087
:1016B000084328600FE0FCE03E60FFF72DFD804608
:1016C00006E000BFFFF728FDA0EB0800642811D852
:1016D00028688007F6D42078000729D5DFF8D8A13C
:1016E000784861690AF16C0A99B1C0F800B0FFF757
:1016F00013FD00E086E0804606E000BFFFF70CFD2A
:10170000A0EB080064287DD8DAF800008007F5D542
:101710000EE00660FFF700FD804605E0FFF7FCFCE9
:10172000A0EB080064286DD8DAF800008007F5D433
:10173000207840075AD560483830016841F0805120
:1017400001600068DFF880A100F080500090DAF8B6
:10175000001041F48071CAF80010FFF7DDFC8046EC
:1017600006E000BFFFF7D8FCA0EB0800642849D8CA
:10177000DAF80000C005F5D5DFF83C8108F168080B
:1017800088F80060FFF7C8FC41F2883A009005E055
:10179000FFF7C2FC0099411A514533D8D8F8000030
:1017A0008007F5D4207A88F80000A06878B1FFF7A8
:1017B000B3FC009006E000BFFFF7AEFC0099411AB1
:1017C00051456ED8D8F800008007F5D50EE0FFF738
:1017D000A3FC009006E000BFFFF79EFC0099411AB1
:1017E00051455ED8D8F800008007F5D4A069E8B369
:1017F000D9F80010C1F3810102295AD002283E66AF
:1018000005D000E04DE0FFF787FC04464CE0FFF711
:1018100083FC064605E000BFFFF77EFC801B6428C2
:101820003FD828688001F7D4D4E90701084347F678
:10183000C07292FAA2F2616AB2FA82F29140A26A8E
:101840004FF0FF3303EB52024FF4403393FAA3F30C
:10185000B3FA83F39A40114308434FF0706292FA4F
:10186000A2F2E16AB2FA82F2914000E01FE008437E
:101870001149091F0860C7F860B0FFF74DFC044626
:1018800005E000BFFFF748FC001B642809D8286862
:101890008001F7D50BE000BFFFF73EFC001B64287A
:1018A00002D90320BDE8F88F28688001F4D4002015
:1018B000F8E70120F6E7000008380240003802404F
:1018C00000004742800E4742007000404FF0E02188
:1018D0000428086903D020F004000861704740F034
:1018E0000400FAE7704710B5401EB0F1807F01D3C5
:1018F000012010BD4FF0E02460610F21601701F05E
:10190000A5F80020A06107202061002010BD10B5BF
:10191000FFF7E8FF10BD7047704710B50446006838
:10192000042201F093F92068416C41F400414164C4
:101930002068016841F001010160002010BD10B570
:1019400004460068042201F081F92068416C41F4EA
:10195000004141642068016841F0010101600020FC
:1019600010BD10B5040003D094F8390010B107E0A1
:10197000012010BD002084F83800204600F00CF84B
:10198000022084F83900211D206800F0B7FB0120F7
:1019900084F83900002010BD70B50446051F05F01D
:1019A0001FFD206806F03CF9D5E91012FFF71AFC7C
:1019B000206806F035F9FFF709FC206806F094F876
:1019C0000646206806F02CF986420DD0206806F005
:1019D0008BF8D5E91012FFF705FC206806F084F8B3
:1019E000BDE87040FFF7F2BB70BD022180F83910EE
:1019F00001680A6842F001020A60012180F839108A
:101A00000020704701F0F8BD2DE9F041044690F840
:101A100038000D4601283DD0012684F838600220A8
:101A200084F83900AAB3042A46D02068082A55D081
:101A3000D5E90027E968036A23F480530362D0F8EC
:101A40001CC0036A2CF4407C4CEA07274FF6FF7C4D
:101A500027F470470CEA013139434FF4204723F44F
:101A6000204307EA02321A43C16102622068C16959
:101A700021F44061C1612068C169AA6841EA02217C
:101A8000C0F81C1084F83960002084F83800BDE8E4
:101A9000F08101E00220FAE7D5E90012EB68206846
:101AA00000F0CAFB2068816921F00C018161206887
:101AB0008169AA6811430FE0D5E90012EB6820683C
:101AC00001F062F82068816921F440618161206839
:101AD0008169AA6841EA02218161D3E7D5E9002C36
:101AE0002F7B016A21F480710162C169036A21F0D0
:101AF000030141EA0C0121F0F00C39074FF4206793
:101B00004CEA116123F4206307EA02221A43C161FF
:101B100002622068C16921F00C01C1612068C169BD
:101B2000AA681143ACE710B504460068012200F032
:101B300045FB2068016841F001010160002010BDF3
:101B400070B50446006801694FF00005C943890774
:101B500015D4C168C943890711D4E91E0161012068
:101B60002076206880698007204602D0FFF74AFF70
:101B700004E000F0C3F8204600F046F9257620681E
:101B80000169C943490717D4C168C943490713D438
:101B90006FF004010161022020762068806910F452
:101BA000407F204602D0FFF72DFF04E000F0A6F8AA
:101BB000204600F029F9257620680169C943090704
:101BC00016D4C168C943090712D46FF00801016136
:101BD000042020762068C0698007204602D0FFF7E5
:101BE00011FF04E000F08AF8204600F00DF9257698
:101BF00020680169C943C90617D4C168C943C90629
:101C000013D46FF010010161082020762068C069AC
:101C100010F4407F204602D0FFF7F4FE04E000F00D
:101C20006DF8204600F0F0F8257620680169C94378
:101C3000C90708D1C168C943C90704D1891E016118
:101C4000204600F0FFF820680169C943090609D45D
:101C5000C168C943090605D46FF0800101612046BF
:101C6000FFF759FE20680169C943490609D4C168D4
:101C7000C943490605D46FF040010161204600F0D8
:101C8000E3F820680169C94389060BD4C168C943D8
:101C9000890607D46FF0200101612046BDE870403D
:101CA000FFF73ABE70BD70B5044690F838000128C1
:101CB0000DD0012584F83850022084F8390042B153
:101CC000042A0AD0082A0CD00C2A11D10DE00220D7
:101CD00070BD206800F0D4FE0AE0206800F07AFAB7
:101CE00006E0206800F0F8FE02E0206800F024FF23
:101CF00084F83950002084F8380070BD01F07CBCB5
:101D000010B504460068012200F058FA084920681E
:101D1000884202D00749884203D1416C41F4004116
:101D200041642068016841F001010160002010BD9C
:101D3000000001400004014070B5044690F83800EE
:101D40000D4601280DD0012684F83860022084F861
:101D5000390042B1042A18D0082A2AD00C2A4DD1C1
:101D600039E0022070BD206800F08AFE2068816999
:101D700041F0080181612068816921F004018161DD
:101D8000206881692A69114311E0206800F022FA75
:101D90002068816941F4006181612068816921F4D2
:101DA00080618161206881692A6941EA022181613B
:101DB00024E0206800F090FE2068C16941F008012D
:101DC000C1612068C16921F00401C1612068C16955
:101DD0002A69114311E0206800F0AEFE2068C16955
:101DE00041F40061C1612068C16921F48061C16171
:101DF0002068C1692A6941EA0221C16184F8396019
:101E0000002084F8380070BD7047000010B504460B
:101E10000068012200F0D2F908492068884202D007
:101E20000749884203D1416C41F400414164206874
:101E3000016841F001010160002010BD0000014077
:101E40000004014001F071BB704770B5040004D07C
:101E500094F83900002510B106E0012070BD84F827
:101E60003850204600F022F8242084F839002068F9
:101E7000C16821F40051C160204600F049FB206890
:101E8000016921F4904101612068416921F02A0132
:101E900041612068C16841F40051C160E5632020C0
:101EA00084F8390084F83A00002070BD704710B5FE
:101EB000FFF738F9BDE81040FFF729BD2D4810B5F0
:101EC000016892B041F080510160006800F08050DC
:101ED00011902948016841F48041016000680224A2
:101EE00000F4804011900120009001908005CDE920
:101EF0000640082008904FF4A870CDE90904072097
:101F00000B906846FFF746FB0F20CDE90C0400203C
:101F10000E904FF4A0500F90E002109005210CA8F5
:101F2000FFF792F9FFF7F2F841F20101884204D17C
:101F30001248016841F4807101600E481038016850
:101F400041F480110160006800F480101190FFF7E7
:101F5000A1FA4FF47A71B0FBF1F0FFF7C4FC042052
:101F6000FFF7B4FC00221146501EFFF73BF912B0F8
:101F700010BD00004038024000700040003C0240AC
:101F80001048016841F4700101600F48016841F098
:101F9000010101600C4A00210832116002680B4BFC
:101FA0001A400260031D0A4A1A60026822F4802265
:101FB000026005480C30016002495806803908600B
:101FC0007047000088ED00E000380240FFFFF6FE99
:101FD000103000240348006A002802D0001DFFF7DB
:101FE000AFBD7047F8AE002003480068002802D05B
:101FF000001DFFF7A5BD7047F8AE00200348806ABA
:10200000002802D0001DFFF79BBD7047F8AE0020EE
:1020100010B5074C206810B1001DFFF791FD606AF4
:10202000002804D0BDE81040001DFFF789BD10BD99
:10203000F8AE002003484068002802D0001DFFF7DA
:102040007FBD7047F8AE002003488068002802D0AA
:10205000001DFFF775BD7047F8AE00200348C0684B
:10206000002802D0001DFFF76BBD7047F8AE0020BE
:1020700003480069002802D0001DFFF761BD7047CA
:10208000F8AE002003484069002802D0001DFFF789
:1020900057BD7047F8AE002003488069002802D081
:1020A000001DFFF74DBD7047F8AE00200348C06A21
:1020B000002802D0001DFFF743BD7047F8AE002096
:1020C0000348C069002802D0001DFFF739BD7047E2
:1020D000F8AE00200348406B002802D0001DFFF737
:1020E0002FBD7047F8AE00200348C069002802D019
:1020F000001DFFF725BD7047F8AE0020F0B502685F
:10210000234B244D244E254F254C4FF0804C9842B4
:1021100009D0604507D0A84205D0B04203D0B842EC
:1021200001D0A04204D122F0700E4A6842EA0E02A9
:1021300098421BD0604519D0A84217D0B04215D0A4
:10214000B84213D0A04211D0164DA8420ED0164D61
:10215000A8420BD0154DA84208D0154DA84205D075
:10216000144DA84202D0144DA84203D122F4407568
:10217000CA682A4302608A68C2620A688262984218
:1021800001D0A04201D10969016301214161F0BD83
:10219000000001400004004000080040000C004026
:1021A000000401400040014000440140004801405B
:1021B00000180040001C00400020004010B5012322
:1021C000046A8B409C430462036A8A40134303629F
:1021D00010BD000030B5026A22F010020262026AED
:1021E000436884690D6824F4E64444EA05248D6854
:1021F00022F0200242EA05120D4DA84202D00D4DF8
:10220000A8420ED1CD6822F0800242EA05124D6943
:1022100023F4406343EA85038D6922F0400243EAD8
:1022200085034360846149688163026230BD0000B8
:10223000000001400004014070B5046A24F001046C
:1022400004628469056A164EB04214D0B0F1804F22
:1022500011D0144EB0420ED0134EB0420BD0134EDC
:10226000B04208D0124EB04205D0124EB04202D059
:10227000114EB04203D124F00304144303E024F0D0
:10228000030242F001041A0724F0F00444EA126247
:1022900025F00A0301F00A0119438261016270BD51
:1022A000000001400004004000080040000C004015
:1022B000000401400040014000180040014800F0C7
:1022C00010BE000094AC0020014800F00ABE0000DF
:1022D000D8AC002010B5044800F003FE0248BDE869
:1022E0001040443800F0FDBDC8AB0020014800F0AC
:1022F000F8BD00000CAC0020014800F0F2BD000069
:1023000050AC0020014800F0ECBD00001CAD0020E6
:10231000204810B5016886B041F480510160006822
:1023200000F4805005901B482038016841F480512A
:102330000160016821F4805101600521072006F049
:10234000FFFD0521082006F0FBFD0521062006F013
:10235000F7FD0220019000200290032003900E4C14
:1023600005200490D4F8C8000090D4F8C400694651
:10237000A834FEF7EBFDE06B00906946A06BFEF71A
:10238000E5FD6068009069462068FEF7DFFD06B055
:1023900010BD00004438024094AD0008204810B53C
:1023A000016886B041F480410160006800F480401B
:1023B00005901B482038016841F4804101600168A4
:1023C00021F48041016005211F2006F0B9FD05219F
:1023D000202006F0B5FD05211E2006F0B1FD0220EB
:1023E000019000200290032003900E4C05200490E1
:1023F000D4F868030090D4F86403694604F5527475
:10240000FEF7A4FDE06B00906946A06BFEF79EFD11
:102410006068009069462068FEF798FD06B010BD20
:102420004038024094AD0008204810B5016886B0DD
:1024300041F400410160006800F4004005901B4831
:102440002038016841F400410160016821F4004135
:1024500001600521152006F073FD0521162006F008
:102460006FFD0521142006F06BFD02200190002075
:102470000290032003900E4C06200490D4F85002E2
:102480000090D4F84C02694604F50C74FEF75EFD2A
:10249000E06B00906946A06BFEF758FD6068009005
:1024A00069462068FEF752FD06B010BD4038024074
:1024B00094AD00080EB5124A124900208DE80700BD
:1024C000114B1A1F111F181D06F0FAF90E48001DB6
:1024D00006F092FA0C48001D90F8390040070A48AF
:1024E00000F1040002D506F0D2FA01E006F08AFA03
:1024F000054803B00549001D5DF804EB06F09ABAE3
:102500007978000869790008B4AE0020397A0008AB
:102510002DE9F04104460068016921F44052E16868
:10252000114301612168C86849F20C629043236934
:10253000A268E5691A4363692B431A430243CA60E0
:102540002168486920F44072A06910434861E1693C
:102550006425B1F5004F9748974A21684FF032083B
:102560003FD0914201D081427CD1FEF7C3FF00EB06
:10257000C00101EB001061688900B0FBF1F6FEF7C5
:10258000B9FF00EBC00101EB001061688900B0FBEE
:10259000F1F0B0FBF5F06FF01801484306EB800155
:1025A00008EB0110B0FBF5F000F0F006FEF7A2FF1B
:1025B00000EBC00101EB001061688900B0FBF1F095
:1025C000B0FBF5F006EB0016FEF794FF00EBC00140
:1025D00001EB001061688900B0FBF1F7FEF78AFF9C
:1025E000D2E0914201D081423DD1FEF783FF00EB62
:1025F000C00101EB001061684900B0FBF1F0B0FBD5
:10260000F5F00601FEF776FF00EBC00101EB0010CC
:1026100061684900B0FBF1F7FEF76CFF00EBC00109
:1026200001EB001061684900B0FBF1F0B0FBF5F080
:102630006FF01801484307EB800108EBC100B0FBC5
:10264000F5F000F0F80006EB4006FEF753FF00EB54
:10265000C00101EB001061684900B0FBF1F7FEF723
:1026600049FF3CE055E0FEF72FFF00EBC00101EB16
:10267000001061684900B0FBF1F0B0FBF5F0060115
:10268000FEF722FF00EBC00101EB0010616849007A
:10269000B0FBF1F7FEF718FF00EBC00101EB0010F3
:1026A00061684900B0FBF1F0B0FBF5F06FF0180184
:1026B000484307EB800108EBC100B0FBF5F000F0E8
:1026C000F80006EB4006FEF7FFFE00EBC00101EB51
:1026D000001061684900B0FBF1F7FEF7F5FE00EB72
:1026E000C00101EB001061684900B0FBF1F0B0FBE4
:1026F000F5F06FF01801484307EB800108EBC100CB
:10270000B0FBF5F000F00700216830448860BDE8B8
:10271000F081FEF7D9FE00EBC00101EB001061680B
:102720008900B0FBF1F6FEF7CFFE00EBC00101EB34
:10273000001061688900B0FBF1F0B0FBF5F06FF0BC
:102740001801484306EB800108EB0110B0FBF5F0DF
:1027500000F0F006FEF7B8FE00EBC00101EB001040
:1027600061688900B0FBF1F0B0FBF5F006EB0016F4
:10277000FEF7AAFE00EBC00101EB001061688900C2
:10278000B0FBF1F7FEF7A0FE00EBC00101EB00107B
:1027900061688900B0FBF1F0B0FBF5F06FF0180153
:1027A000484307EB800108EB0110B0FBF5F000F0A7
:1027B0000F00A9E700140140001001402DE9F0418D
:1027C0003B4F80461C46B87815460E46002866D119
:1027D00005F08AFE5FEA080001D005F023F93548CC
:1027E0000022A6B13168F37891FA81FC1E060CF440
:1027F0007F4C46EA0C2691FA81FC0CF47F0C09BA56
:1028000046EA1C26194346EA1161016000E00260B5
:1028100095B12968EB780EBA1D0606F47F4645EAA5
:1028200006250EBA06F47F0609BA45EA16251943AD
:1028300045EA1161816000E0826094B12168E2782C
:102840000CBA130604F47F4443EA04230CBA04F4DC
:102850007F0409BA43EA1423114343EA116141603A
:1028600000E04260FFF726FE682004F0F5F9124907
:1028700001F02EF8012204460023114600F014FF57
:1028800001224FF47A71204600F078FD0B49204672
:1028900000F05BFE204600F0E4FE0120B870054821
:1028A0000C3000F08DF9BDE8F04100F017BA0000DF
:1028B00020010020ACAE002000200040632C000866
:1028C0002DE9F0470446006816468A4640B1BAF141
:1028D000000F05D026B1A18811B10089814202D92B
:1028E0000020BDE8F087002529E080460089401AD5
:1028F0001FFA80F900270CE081B2404606F058FA32
:102900000AF80500A0886D1C401E7F1CADB2A08097
:10291000BFB2B54208D2B8F80A1009EB07008842E6
:1029200002D2A1880029E7D1B54208D2D8F8000028
:10293000206008B106F083FA404600F07DF8B54209
:1029400005D2206818B1A1880029CED101E0A08865
:1029500018B9206800F070F820602846C1E7000030
:102960002DE9F04FDFF8A0800146284A284B294C7A
:10297000294E2A4FDFF8A8C0DFF8A890DFF8A8A0FA
:10298000DFF8A8B0DFF8A8E04FF6FF704FEAB845CF
:10299000414501D1002009E0B1F1804F03D09142BF
:1029A00004D1022006E00120BDE8F08F994201D158
:1029B000032003E0A14201D1042003E0A94201D198
:1029C000052003E0B14201D1062003E0B94201D164
:1029D000072003E0614501D1082003E0494501D10A
:1029E000092003E0514501D10A2003E0594501D1F6
:1029F0000B2003E0714501D10C20D5E70D4A91422F
:102A0000D2D10D20D0E700000000014000040040BA
:102A100000080040000C0040001400400004014089
:102A200000400140004401400048014000180040BF
:102A3000001C00400020004010B5040004D02046D7
:102A400006F08CF90028FAD0002010BD0907090E05
:102A5000002806DA00F00F0000F1E02080F8141DD5
:102A6000704700F1E02080F800147047002805D07E
:102A7000002903D000210160052101737047000087
:102A800030B5026A22F001020262026A4368846978
:102A90000D6824F07304254322F002048A6822435F
:102AA0000B4CA04202D00B4CA0420BD122F00804E8
:102AB000CA6823F4407322434C6922F004021C4389
:102AC0008B6923434360856149684163026230BD7D
:102AD000000001400004014030B5026A22F4807217
:102AE0000262036A4268C46923F4007324F0730528
:102AF0000C682C438D6843EA05230D4DA84202D093
:102B00000C4DA8420ED1CD6823F4006343EA05239F
:102B10004D6922F4405242EA05128D6923F4806324
:102B200042EA05124260C4614968C163036230BD74
:102B3000000001400004014030B5026A22F48052D6
:102B40000262046A4268C3690D6823F4E64343EAFB
:102B500005238D6824F4005444EA0534084DA84246
:102B600002D0084DA84204D14D6922F4804242EAC5
:102B700085124260C36149680164046230BD00008F
:102B8000000001400004014030B5046A24F0100444
:102B900004628469056A24F4407444EA022222F43F
:102BA00070444FF6FF7202EA03322243A02425F05C
:102BB000A00304EA011119438261016230BD0000E3
:102BC00090F83900C00705D103484178012901D1A7
:102BD00005210170704700002001002070B515002C
:102BE0001E460A46044605D04EB1284606F0B6F801
:102BF000304670BD0146104600F00AF90BE0207B1C
:102C000001280AD0042808D02989104607F020F9A5
:102C1000284606F0A3F8002070BD2989104607F069
:102C200017F9606838B1294605F0FDFF20896989E8
:102C300008442081EFE76560F8E720B1006888422A
:102C400001D1002070476FF00F00704710B50423CA
:102C5000046A8B409C430462036A8A401343036204
:102C600010BD00F03BB8000070B5054690F8390083
:102C7000194C40074FF000060ED5207801280DD0E2
:102C8000022816D0052804D0062806D1284604F0CC
:102C900059FA284604F066FB267070BD6E60AE607F
:102CA0000220EE602070284604F022FB01206070B4
:102CB00070BD284604F058FB10B10320207070BD91
:102CC000A86A80790428FAD9042020706670284602
:102CD000BDE8704004F046BB2001002010B50C4850
:102CE00004F05CFEFEF718FA0A4CA168401AB0F531
:102CF000FA7F05D3064804F077FEFEF70DFAA060D0
:102D000006F04AFABDE81040014800F0BFB80000E4
:102D1000B8AE0020200100202DE9F0410F46054605
:102D200014460121384607F0E2F905B134B13846BE
:102D300006F0D0FB6FF00F00BDE8F081102005F029
:102D4000B9FC04004FF0FF362DD004202073002082
:102D5000C4E90070A4F8080055F82010B9B1401C6F
:102D600080B22028F8D3380014D02146384606F027
:102D700063FB0E49384607F050F80D49384606F017
:102D80000AFC0C49384607F0AEF90020D4E745F8B4
:102D90002040EAE72146384600F03AF8204605F0A0
:102DA0002FFC3046C8E70146F5E70000DD2B0008A0
:102DB0006D2A00083B2C000818B50022ADF8002051
:102DC00010F001030CD000290ADD10F8014B8DF83A
:102DD0000140491E04E000BF30F8024B891E224426
:102DE0000129F9DC002902DD00788DF80000BDF82A
:102DF00000001044010C11FA80F0010C11FA80F06F
:102E000023B1C1B2C0F3072040EA012080B218BD4F
:102E100070B50C460546002106F0FFFF002128464C
:102E200007F061F900221146284606F0B5FF00219F
:102E3000284606F0B0FB0021284606F05AFA28463C
:102E400006F048FB002020600520207370BD0000C4
:102E50000A4A82B0106002684268009202684268C2
:102E6000009202684268009202684268009202681A
:102E700040680090084602B0FEF792B96CAE0020A0
:102E8000014804F007B90000B8AE002070B505464F
:102E9000FEF742F9074C6168401AB0F5FA7F07D394
:102EA000FEF73AF960602846BDE87040FFF7DCBEE7
:102EB00070BD00002001002010B5036C446C5A1C4A
:102EC00002F03F02944201D0C154026410BD10B51B
:102ED00004464021FDF7AFF90020206460642046DD
:102EE00010BD10B5044640690168890604D54068E4
:102EF000C1B22069FFF7E0FF94F938106069BDE8BE
:102F00001040FFF7A5BF00002DE9F04796B004463A
:102F10000220019001204FF00308CDE90208AF4ADA
:102F2000D4F83CC0AD4B203AAD4D00268A464FF058
:102F30000709BCF1010F13D0191F101FBCF1020FBC
:102F40003FD0BCF1030F5FD04FF00808BCF1040F75
:102F50007DD0BCF1050F7BD0BCF1060F79D013E119
:102F60001868002740F010001860186800F0100082
:102F70001590106840F010001060106820F01000EC
:102F8000106094F8400060B15FF0000094F84110C8
:102F900049B10021084308D00A2084F840000B20E2
:102FA00052E00120F2E70121F4E714F8400F052177
:102FB00005F0C6FF6078052105F0C2FFCDF810903E
:102FC000C6E00A68012742F400320A60096801F489
:102FD00000311591016841F400310160016821F46C
:102FE0000031016094F8400050B1002094F8411085
:102FF00041B100210843D8D084F84080042023E068
:103000000120F3E70121F5E70A68022742F4802254
:103010000A60096801F480211591016841F480215A
:103020000160016821F48021016094F8400088B1BA
:103030005FF0000094F8411071B100210843B4D052
:103040001B2084F840001C2084F84100ADE705E017
:1030500029E04EE00120EDE70121EFE70A680427AF
:1030600042F400220A60096801F400211591016808
:1030700041F400210160016821F40021016094F80D
:10308000400060B15FF0000094F8411049B10021A8
:10309000084352D02B2084F840002C2022E001204D
:1030A000F2E70121F4E70A68052742F480120A607A
:1030B000096801F480111591016841F480110160E3
:1030C000016821F48011016094F8400068B100208B
:1030D00094F8411059B1002108432ED02D2084F8D6
:1030E0004000332084F8410027E00120F0E701216F
:1030F000F2E71868062740F020001860186800F012
:1031000020001590106840F020001060106820F03A
:103110002000106094F8400058B1002094F841104D
:1031200049B10021084308D0272084F84000282016
:10313000D8E70120F2E70121F4E714F8400F052158
:1031400005F0FEFE6078052105F0FAFECDF810804E
:103150002078C0EBC00005EB80014968009155F86C
:1031600020006946FDF7F2FE6078C0EBC00005EB79
:1031700080014968009155F820006946FDF7E6FE98
:1031800004F8016B04F841696069CDE9050A0C2077
:10319000CDE90A060796099608960C9694F9380028
:1031A0001934FEF708F894F91F003A460621FEF795
:1031B00019F894F91F00FEF709F894F91F00FDF7BC
:1031C000EFFF05A8FEF741FE54F8050CC16841F079
:1031D0002001C16016B0BDE8F0870000443802400D
:1031E00094AD0008426913681B06FCD55160406924
:1031F00001680906FCD501207047000070B5002564
:103200004FF47A76049CC0E90156064E0660C0E988
:10321000044180F83820C36380F8405080F8415062
:1032200070BD0000E4B900080A7802734A7842735E
:103230008A788273CA78C2730A79027449794174B0
:103240007047F0B587B00D460646174611466846EA
:1032500003F0E6FC01208DF80700694604A803F09E
:10326000DFFC0446394602A803F0DAFC0246234696
:103270002946304600F002F807B0F0BD2DE9F041D4
:103280008AB00E4607461C469046114601A803F038
:10329000C7FC01208DF80B0001A907A803F0C0FCB2
:1032A0000546214605A803F0BBFC0446414603A899
:1032B00003F0B6FC0246234631463846009500F03E
:1032C00003F80AB0BDE8F0812DE9F0478CB09946CB
:1032D00080460020149CFF2392460F4600901A4619
:1032E000194602A803F0A4FC02A90AA803F098FC5E
:1032F0000646214608A803F093FC0546494606A861
:1033000003F08EFC0446514604A803F089FCCDE985
:103310000056024623463946404600F003F80CB0FA
:10332000BDE8F0872DE9F04117461D46DDE906238B
:103330000E460446391D3046121D1B1DFFF73EFA8E
:10334000FFF79EFD6868606031462046BDE8F041A9
:10335000FFF76ABF012908D0022908D0032908D045
:10336000042908D04FF0FF30704700207047042038
:103370007047082070470C207047000070B50C465D
:103380000546F2B10126012A02D0022A19D10DE028
:1033900000F0EAF80E492B69B0FBF1F2624306EB4C
:1033A0001240411E9962B2FBF0F40AE000F0DCF832
:1033B000B0FBF4F02B6906EB1042511E9962B0FB92
:1033C000F2F404B1641E2869C462EC6170BD0000AF
:1033D00040420F00084410F8012C4FF0FF3062B15A
:1033E000012906D0022906D0032901D14FF48060BB
:1033F00070470420704740207047012907D00229F8
:1034000007D0032907D00429F6D18802704701208C
:103410007047102070474FF4807070472DE9F041DD
:103420000F460446FFF796FF0646401C01D1FDF704
:103430006BF93946204600F001F90546401C01D1E0
:10344000FDF762F939462046FFF7C4FF401C01D161
:10345000FDF75AF904EB8708D8F8540030B1216918
:10346000E84308612069C1682943C16004EB470053
:10347000E119428804F11000072A49D006DC38D24D
:10348000DFE802F037464646463939000B2A06D0B7
:103490000ADC082A3CD0092A01D00A2A29D131465F
:1034A000BDE8F041FEF73FBB0C2A22D13146FEF7C2
:1034B0003AFB3946204600F08DF805460146204685
:1034C0002369FFF787FF196A01431962D8F854008E
:1034D00000280ED02946204600F0B0F82169C043EC
:1034E00008612946204600F0A9F82169CA681043FE
:1034F000C860BDE8F08111F8011C0029314603D0F5
:10350000BDE8F041FEF71BBABDE8F041FEF77EBC16
:1035100011F8011C0029314603D0BDE8F041FEF747
:10352000FCB9BDE8F041FEF7EBBB10B5040001D1DA
:10353000FDF7EAF8204604F0C9FB0068416D002958
:1035400002D0BDE81040084710BD426D4165002A19
:1035500009D1002907D0911E026911610069C16873
:1035600041F00101C160704770B588B00646142172
:103570006846FCF760FE002004460546079007A950
:103580006846FDF767FF306904F008FB18B10128B1
:103590000DD002280FD0FDF7B7F800BFB5F5A05F3A
:1035A00014D00DDC9DB1B5F5805F10D10EE0039D08
:1035B000FDF78AFF02E0049DFDF79CFF0446EDE75E
:1035C000B5F5C05F02D0B5F5E05F00D1640008B08A
:1035D000204670BD4FF0FF30012907D0022907D0E7
:1035E000032907D0042900D1032070470220704727
:1035F000012070470420704770B5050001D1FDF728
:1036000083F8287E012812D0022812D0042812D074
:10361000082812D10424284604F058FB006800EB67
:103620008401496D002908D0BDE870400847012495
:10363000F1E70224EFE70324EDE770BD012908D08C
:10364000022908D0032908D0042908D04FF0FF3000
:1036500070470220704704207047082070471020F0
:10366000704710B50446406D60B121696FF00100EC
:1036700008612069C16841F00101C16004F11000D6
:10368000FEF7B3F901212046FFF7C8FE02212046CC
:10369000FFF7C4FE03212046FFF7C0FE2046BDE829
:1036A00010400421FFF7BABE2DE9FF4F93B09B46AF
:1036B000914606461499FFF74DFE0546401C01D180
:1036C000FDF722F814994FF6FF7006EB4101A1F8BF
:1036D0000290019025F003013269343151580024E1
:1036E000CDE90214059406940494CDE907404FF007
:1036F000010ACDE909A44FF0020806F110070B9466
:10370000B9F10D0F2ED2DFE809F0070709111315E3
:10371000171F2124264E5100019401E0102016E0CD
:103720002A4601A93846FEF7BEFA1BE020200EE02B
:1037300030200CE0602000E0702001902A4601A9B2
:103740003846FEF7F9FA0DE0502000E040200190E5
:10375000E6E7089401E0CDF820802A4608A938461B
:10376000FEF752F9BBF1000F78D05048CBEBCB01FC
:1037700000EB8107BA8AAA4271D150F82160B8885B
:10378000052185B2584605F0DBFB49493A694948AD
:1037900003238A4222D1CDF840A0016841F0010103
:1037A0000160006831E00A200890D6E72A4608A99F
:1037B00038460894FEF728F930461499FFF70AFFB7
:1037C00006EB40020146A2F80290CDF82080304678
:1037D000CDF82480FFF7BEFD0246BFE73549091F3B
:1037E000B2F1804F0AD0344FBA4211D1CDF84080A7
:1037F000086840F00200086008682CE0CDF840A09E
:10380000086840F001000860086800F001003EE030
:103810002A4FBA4209D1CDF84080086840F0040030
:103820000860086800F0040031E0254FBA4209D171
:10383000CDF84080086840F008000860086800F093
:10384000080024E01F498A420AD11093016841F020
:1038500002010160006800F0020018E020E022E0B0
:1038600019498A4208D11093016841F480310160FE
:10387000006800F480300AE014498A4208D11093AD
:10388000016841F400310160006800F400301190DB
:10389000CDE90E43CDE90C580CA93046FDF756FB97
:1038A00017B0BDE8F08FFCF72FFFF9E794AD0008E3
:1038B000000001404438024000040040000800407D
:1038C000000C004000040140004001400044014061
:1038D0002DE9F04104460F460846FFF741F84FF640
:1038E000FF760546B04201D1FCF70EFF1B4904F1FB
:1038F0000C0041F825000025276184F82850E56276
:1039000025636563A563E5632564656484F84850B1
:1039100084F84950E4600E20C4E9130504F1100056
:10392000074603F05DFD002004EB8001401C4D655F
:103930000528F9DB002004EB40012554401C8D8054
:103940000428F8DB6561C4E90656256238466562DD
:10395000FEF707F82046BDE8F0810000F8AE002031
:1039600008B5006948B1416839B101226946001DB6
:10397000FEF7A6FF9DF8000008BD4FF0FF3008BD20
:1039800070B505460069144698B106688EB181B1DC
:103990007CB1007B042801D001280AD1A2B2012306
:1039A000304606F0D5FD20B92869006806F0B6F863
:1039B00008B1002070BDFFF791F9204670BD13B526
:1039C000016801224B6801A998471CBD00690028C5
:1039D00000D0007B704710B50446FFF77FF92069DF
:1039E000002800D0008910BD10B50146FFF7EEFF9A
:1039F0000446086882680846904708B1052C05D03F
:103A0000012C03D0042C01D0002010BD012010BDDA
:103A100010B50C4602F06EFD01490461016010BD55
:103A200004BA0008006920B1007B052801D00120FC
:103A3000704700207047000070B50446C068002839
:103A400015D106F05FF8E060002810D004F11C01E9
:103A500005F0F2FC0025257622890A49E06805F088
:103A6000EFFC28B10220E16804F0EAFEE56070BDD9
:103A7000FF21E06805F0CDFFE060BDE8704002493D
:103A800005F037BC54B90008192D00082DE9F041A4
:103A900086B0174688460546002600F023F8002425
:103AA00005EB8400C16979B1086868B16846FFF721
:103AB000AFFF6846FFF78AFF042805D13A46414622
:103AC0006846FFF75DFF0444641C202CE8DB06B069
:103AD0003046BDE8F08113B5016801224B6801A9A9
:103AE00098471CBDF0B5002485B006464FEA040790
:103AF00006EB8405E96959B16846FFF789FF684616
:103B0000FFF764FF052803D1E86904F079FDEF6150
:103B1000641C202CECDB05B0F0BD000070B5044641
:103B200086B00E460846FFF7DDFF002506EB850050
:103B3000C169E9B10868D8B16846FFF769FF68460E
:103B4000FFF744FF042813D16846FFF744FF78B11C
:103B50000C482060019860600B4820600298A060CB
:103B60000398E060094820600498206106B070BDA9
:103B70006D1C202DDADB06B02046BDE87040002128
:103B8000FFF746BF6CBA0008B4BA000804BA0008D0
:103B900010B50022064BC0E90032064C0181C0F886
:103BA0009C201ECC00F10C0C8CE81E0010BD000007
:103BB00058BA000868B900082DE9F35FDFF888807B
:103BC000064600EB0611A8F58869002509EB0114EB
:103BD000AA4604F1100B00BF05EB4507404658F814
:103BE000273053B100EB87010A7AB24205D14A6807
:103BF00058460199984748F827A06D1CEDB2042D4E
:103C0000EAD3002104254846B1420DD001EB011250
:103C100000EB0212937A022B06D1D27BE37B9A420D
:103C200002D1E573BDE8FC9F491CC9B20429EBD35E
:103C3000E07B0428F6D2054E56F8200006F0E8FF97
:103C4000E17B46F821A0ECE79C0500204C01002018
:103C50002DE9F0418046284E00EB081006EB0014D9
:103C6000A07A00280DD00025012701280BD00228BA
:103C700021D0032805D1206810B1401E206000D15A
:103C8000A572BDE8F081FCF79DFA81B25FF00000FB
:103C900000EB001206EB0212937A022B02D112897A
:103CA0008A42F0D0401CC0B20428F1D32181022006
:103CB000A072E57218E0207B401E10F0FF00207318
:103CC000DFD1607B401CC0B26073042805D0207334
:103CD0004046BDE8F04100F023B8204600F00EF861
:103CE00028B1E07A401CE07227736573F0E7002189
:103CF0004046FFF761FFC3E75C01002001004FF081
:103D000000000AD0C97A4A1C022A06D2034A02EBF2
:103D100081014968002900D001207047040000207B
:103D20002DE9FF5F444A00EB001102EB0115434906
:103D3000EA7A002651F8221041B305F1100004463A
:103D4000FCF784FA123081B24FF42072362004F06E
:103D5000B7FE5FEA000A64D00096019602962889B1
:103D600004F0C0FBADF8000001208DF802004FF414
:103D7000807BADF804B00C226946504605F07EF811
:103D80000C26641E641C274600220AE00021FFF76F
:103D900013FFAE72002004B0BDE8F09F521CD2B2F7
:103DA000641C20782E2801D00028F7D1E01B1FFAD0
:103DB00080F9B01800F10108B8F5803F35D23146DE
:103DC000504605F001F8761CB3B24A4639465046D3
:103DD00005F07BF820781FFA88F60028D2D100225F
:103DE0003146504604F0F0FF761CADF80CB0B3B28B
:103DF000ADF80EB0042203A9504605F066F8EA7A41
:103E00000E49E87B01EB82020B493523103951F84A
:103E10002000514606F016FF0446504604F09EFF6F
:103E200001E04FF0FF342046B5E7504604F096FF1E
:103E30006FF00500AFE700005C01002004000020E7
:103E400010B590F83910C9070CD0416851B1064A35
:103E500052698A4204D00146104604F011F808B1B4
:103E6000012010BD002010BDCC05002002490988AA
:103E7000401A80B2704700000C0000202DE9F0418C
:103E80000446008800F038F805461A4E4FF42058D2
:103E9000AC4215D0287998B97068854210D0B068C6
:103EA000A84200D1B460288820802888404507D0E7
:103EB0002046FFF7DBFF0746288800F01DF8478003
:103EC000608800F019F8A04212D0017900290FD1C2
:103ED000B168A14200D1B0602188018021884145AC
:103EE00006D0FFF7C3FF0546208800F005F845809F
:103EF000BDE8F0810C0000200149096808447047C2
:103F00000C000020F0B5154D154A00234FF6FF7642
:103F10004FF440474FF4804E9088401C80B2908010
:103F2000B04200D19780B2F80440002055F820102C
:103F300009680AE0B1F816C0A44505D15B1C9BB224
:103F40007345E9D30020F0BDC9680029F2D1401CB7
:103F5000C0B20428EAD3A0B2F0BD000014B9000832
:103F60005000002030B40D4B044600210846DD68A7
:103F70009A6909E0137DA34205D1136AEB1A8B42BB
:103F800001D319461046D268002AF3D1002803D085
:103F900030BC002105F046B930BC7047500000200D
:103FA00010B5084605F0A2F96FF00C0010BD000036
:103FB000FEB504460127007D3D4D002681B304284F
:103FC00001D0072831D1616F21B9218DA1F5885227
:103FD0001C3A2AD0228BE18A201D8DE80700234657
:103FE0001846626A216D05F0FCFF204605F08EFE42
:103FF000A869A04209D1C068A86108E0C168A142CF
:1040000002D1E168C16002E008460028F6D12948E3
:10401000E6602F700068A04203D106F077FA3DE019
:1040200003E0204605F0F2FA38E040B101281AD04A
:10403000022835D02046BDE8FE4000F03FB8E08AB7
:104040000028EED02869A04209D1C068286108E0A4
:10405000C168A14202D1E168C16002E008460028BF
:10406000F6D1E660DDE7144B012100BF53F82100D3
:104070002246006804E0856F954200D18667C068DB
:104080000028F8D1491C0429F0D3094811461430FE
:1040900005F05AFE2146032004F0D2FB0020FEBDAD
:1040A00003482146183005F04FFE2F70B9E7000095
:1040B000500000209000002014B9000870B505469B
:1040C000007D0526032804D0042802D0072816D135
:1040D00006E0284605F0E5FF040006D12E7509E04C
:1040E000284605F0DEFF040002D0601C09D004E081
:1040F00009202875284605F011FD204670BD0020D6
:1041000070BD688B40F008006883F8E770B505461D
:10411000084609E001682A68914204D1C46805F0A4
:10412000E5F8204600E0C0680028F3D170BD70B506
:10413000846A05460821204600F0B6FA002204F100
:104140001C01284603F0F0FAA079FF2801D2401C98
:10415000A0714FF4FA7140F2E730B0FBF1F020812A
:1041600070BD0A54401C80B20B54401C80B2704792
:104170002DE9FC47846A07460421204600F094FAA2
:1041800001AB03222146384600F096FA060041D0E2
:1041900071680223F031894639224D46BDF804008A
:1041A000FFF7DFFFADF804003A8E294600F068FC07
:1041B000ADF80400042337222946FFF7D2FFDFF8C9
:1041C0008C80ADF804000025494618F80520BDF89C
:1041D000040000F01DFB6D1CEDB2ADF80400042DD1
:1041E000F2D33A46494680B200F062FCADF80400D2
:1041F0003246494600F04CFC14480097401E4323C9
:10420000134A3146C06806F03DFD0546304604F0CD
:10421000A5FD01E04FF0FF35A079FF2801D2401C39
:10422000A071C0B20A2804D24FF47A7110FB01F0D9
:1042300001E042F2107080B24FF4FA7100F2F31014
:10424000B0FBF1F020812846BDE8FC87A9000020E2
:1042500058B900082DE9FC47846A07460321204627
:1042600000F022FA01AB03222146384600F024FA7E
:10427000060055D071680223F031894639224D4637
:10428000BDF80400FFF76DFFADF804004FF41072A5
:10429000294600F0F5FBADF804000423322229463C
:1042A000FFF75FFFADF80400E06904F019F902467A
:1042B0002946BDF8040000F0AFFAADF8040004236D
:1042C00037222946FFF74DFFDFF88C80ADF8040058
:1042D000002500BF18F805204946BDF8040000F08D
:1042E00097FA6D1CEDB2ADF80400042DF2D33A46F6
:1042F000494680B200F0DCFBADF804003246494686
:1043000000F0C6FB14480097401E4323134A314671
:10431000C06806F0B7FC0546304604F01FFD01E01A
:104320004FF0FF35A079FF2801D2401CA071C0B228
:104330000A2804D24FF47A7110FB01F001E042F236
:10434000107080B24FF4FA7100F2F310B0FBF1F08C
:1043500020812846BDE8FC87A900002058B9000844
:104360002DE9FE4306007AD0B46A002C7BD00121EF
:10437000204600F099F902AB03222146304600F0B6
:104380009BF9070072D079680223F03189463922FF
:104390004D46BDF80800FFF7E4FEADF80800328E88
:1043A000294600F06DFBADF80800042332222946AF
:1043B000FFF7D7FEADF80800E06904F091F8024677
:1043C0002946BDF8080000F027FAADF808000423DC
:1043D00036222946FFF7C5FEADF80800A06904F0B3
:1043E0007FF802462946BDF8080000F015FAADF83E
:1043F0000800042337222946FFF7B3FEDFF8AC801C
:10440000ADF80800002500BF18F805204946BDF8A2
:10441000080000F0FDF96D1CEDB2ADF80800042DA8
:10442000F2D33246494680B200F042FBADF80800B4
:104430003A46494600F02CFB1D484323CDE9006075
:104440001A481C4A401E3946C06806F039FC054629
:10445000384604F083FC0BE001E004E006E06FF076
:104460000F00BDE8FE836FF00500FAE74FF0FF355F
:10447000A079FF2801D2401CA071C0B2062802D248
:104480000121814000E03C2101EB4100C0EBC11063
:104490004FF6FF7101EAC0004FF4FA7100F2F31019
:1044A000B0FBF1F020812846DBE70000A9000020E6
:1044B00054B9000858B90008FEB5846A06460C21B4
:1044C000204600F0F1F802AB04222146304600F00D
:1044D000F3F8050028D069680423F03132220F4632
:1044E000BDF80800FFF73DFEADF80800E06903F0F5
:1044F000F7FF02463946BDF8080000F08DF9ADF827
:1045000008002A46394600F0C3FA0F484323CDE994
:1045100000600F480D4A2946C06806F0D1FB0646E8
:10452000284604F01BFC01E04FF0FF36A079FF287D
:1045300001D2401CA07142F603104FF4FA71B0FB97
:10454000F1F020813046FEBD54B9000858B900088A
:10455000A800002010B5826A044651790C290BD0BE
:10456000062909D001290BD0082918D0032926D102
:104570009079022820461ED3BDE8104000F020B8F4
:1045800090790528204603D8BDE81040FFF7E8BE23
:1045900002F0DEFD2046BDE8104002F0A9BE907991
:1045A0000128204603D8BDE81040FFF7C0BDBDE894
:1045B000104000F0D9BABDE81040FFF74BBE10BD67
:1045C0002DE9FE4F846A07464FF000090621204678
:1045D000C4F81C9000F068F802AB0122214638466E
:1045E00000F06AF806003BD071680223F0318A4679
:1045F00039225546BDF80800FFF7B3FDADF80800B5
:104600003A8E294600F03CFAADF808000423372220
:104610002946FFF7A6FDDFF88480ADF808000025E5
:10462000514618F80520BDF8080000F0F1F86D1C9F
:10463000EDB2ADF80800042DF2D33246514680B2F7
:1046400000F026FA16484323CDE900701348154AB6
:10465000401E3146C06806F033FB304604F07EFB56
:10466000A079FF2801D2401CA071C1B2062902D254
:104670000120884000E03C2000EB4001C1EBC0106D
:104680004FF6FF7101EAC0004FF4FA7100F2F31027
:10469000B0FBF1F020814846BDE8FE8FA900002064
:1046A00054B9000858B9000842798A4203D04171D0
:1046B00000218171018170472DE9F0479946164626
:1046C0000D4607000ED06DB14FF49A7A4FF4207268
:1046D0005146362004F0F4F9B0F1000803D0032E5F
:1046E00006D102E00020BDE8F0876879032808D1F0
:1046F000A879234C08B1A06802E0FBF763FDA06035
:104700002860D8F8044051462046FBF794FD01206C
:104710002070607097F83800A070286803F0E0FE01
:104720006060082E0AD0042E08D0072E06D0032E73
:1047300006D16879052801D0042801D17868E060A5
:10474000002039182218401C91F8321080B21177DD
:104750000628F6D30B48C4F8EC0004F1F00101235D
:1047600035220C460020FFF7FCFC3246214600F0C3
:104770004FF8B9F1000F01D0A9F800004046B2E7A8
:10478000A800002063825363F8B5846A00201F4D9F
:1047900020626062EA78A5F128060AB1F268A26296
:1047A0002A790AB1326901E0A26A5208E2626A79A2
:1047B0000AB1726903E0A26AC2EBC202D2082263A4
:1047C0000969E161A97921B1B06903F089FE20622C
:1047D0000120E071E87918B1F06903F081FE6062B0
:1047E00000240DE006EB8400006A03F079FE0090DF
:1047F0006946204602F0DAFD641CE4B2022C03D2C2
:104800002819007A0028EDD1F8BD0000506A002078
:104810000A54401C80B27047130E0B54401C80B2E7
:10482000130C0B54401C80B2130A0B54401C80B272
:104830000A54401C80B270472DE9F04F8DB083467A
:10484000002009900A218D48FBF7F5FCBBF80A000F
:104850002C2818D3BBF80800884F4FF0F00A6FF0EF
:1048600005065D4607E000BFAAEB0102401A2D686D
:104870001FFA82FA80B235B1698952465145F3D99F
:1048800014460290CFE06FF001000DB0BDE8F08F4C
:10489000A01C80B24FF0FF390190A042F3D3688989
:1048A000621C904203D905982044407803E02868B0
:1048B00008B1406800783429804636D00BDC0329E3
:1048C0001CD003DC99B101290DD113E006291CD0BD
:1048D000332908D125E035293FD0362941D03A295E
:1048E00043D03B2945D04FF00008A9B324E0002075
:1048F0008046FAE7042872D1062304E04FF004084A
:1049000004286CD307239946EFE7830767D108286B
:1049100001D2434600E00823984640455FD3082370
:10492000F1E704285BD10323EDE701287ED1BAF13A
:10493000F00F7BD14FF000092044801CB0F5803F80
:10494000A1D284B2B8F1000F60D00020CDF82800C9
:1049500017F8090098B159E00FE0012866D101234A
:10496000D1E7042862D10223CDE704285ED10423D5
:10497000C9E704285AD10523C5E794B246E040466A
:10498000B8F1040F00D30420039002460AA9284678
:10499000019B04F0B0F90146039881427FF473AFA4
:1049A000B8F1040F1CD95FEA88703FD1012007F8E5
:1049B00009000A9803F094FD3049283941F829008C
:1049C000A8F1040000F0FF0801980199001D80B2D1
:1049D0008842FFF458AF09F101090190B8E725E0DA
:1049E000B8F1040F03D0B8F1010F1FD103E00A980A
:1049F00003F076FD01E09DF828000A9001211F4890
:104A000007F8091028380A9A40F829206889A04236
:104A10000ED8211A8CB20299081A80B202908442F0
:104A20008ED22D6815B16868059002E030462CE7FB
:104A30003DB10298844204D20598015DFF297FF4BC
:104A400027AF387850B10D480021283800683970F8
:104A500001280ED0022804D0032808D00998002885
:104A6000E5D0002009904FF02C0A6C20F9E60120D7
:104A700009904FF06C0AEC20F3E60000506A002029
:104A8000130A0B54401C80B20A54401C80B2704779
:104A9000FF230B54401C80B2002302E00B54401C47
:104AA00080B24428FAD3F03081B2104604F09BB9AA
:104AB0002DE9F0410546D06A14460E46C8B1FBF711
:104AC000C5FBB0B1E46AC5F14101884200D3084694
:104AD0000746C3B20C2231462846FFF742FB05E0E9
:104AE00014F8012B31462846FFF792FE05467F1E3B
:104AF000F6D22846BDE8F08110B5064C2078401E5D
:104B000010F0FF00207004D1E06806F081F800206A
:104B1000E06010BDA800002010B5104C2078A8B9A6
:104B200006F064F8E060B0B1417A442241F020011F
:104B300041720B4905F004FF43220949E06805F082
:104B40005BFF00220749E06806F05DF82078401C12
:104B50002070002010BD4FF0FF3010BDA8000020D5
:104B600054B90008414C00082DE9FC41050065D00E
:104B7000AC6A002C62D000236382A16A4FF03C072C
:104B8000B1F1FF3F4FF480364FF001024FF6FF7056
:104B90000AD01E31B1FBF7F1B14200D3014609043E
:104BA000090CA18200D1A282E16AB1F1FF3F0CD0D1
:104BB0001E31B1FBF7F1B14200D301460904090CE3
:104BC000618100D162816189E181216BB1F1FF3F97
:104BD0000CD01E31B1FBF7F1B14200D301460904FC
:104BE000090CA18100D1A281A18921826289A189B8
:104BF0008A4201D301B16381E17909B1206A08E0F9
:104C0000217F7F2901D8FF2003E0C02901D36FF065
:104C10007F400090606A019028B9E06900990840DF
:104C200040F0807001900A212046FFF73DFD01AB66
:104C30006A4604F11C01284603F0AEFEBDE8FC8183
:104C40002DE9F0414348516816464468A56A002D95
:104C50007AD02879002877D070892C2874D30878E6
:104C6000022871D1002094F8382008E023180F188A
:104C700093F832303F7FBB4266D1401CC0B28242C3
:104C800001D90628F2D3486803F02AFC2968884233
:104C90005AD129463046FFF7CFFD10BB2E49487840
:104CA000F8B1A1F1280277681079052804D0062808
:104CB00021D0022836D047E06879012806D00328A1
:104CC00014D0042812D0052810D03DE039462046E3
:104CD000FFF75AFD94F83900000703D52046FFF787
:104CE00026FA31E02046FFF73FFF2DE03946204607
:104CF000FFF74AFDF6E76879032805D0012803D0BD
:104D0000042801D005281FD10C21A06AFFF7CCFC94
:104D1000124B20461A46114603F03EFE2046FFF78E
:104D20004FFC11E0687906280ED12546A46A8878E0
:104D300050B100202081906803F0D2FBA061386957
:104D4000E0612846FFF70CFB3046BDE8F04104F077
:104D500005B80000CC050020506A002054B90008B6
:104D60002DE9FF479146884606464FF420722421DC
:104D7000222003F0A5FE050027D06C6877681C226E
:104D800084F8008084F801904FF00008A4F80480B3
:104D9000A4F80680686871680830FBF725FAF8689F
:104DA000039003A803F056FB60B1A4F8028001222F
:104DB000CDF80080CDE90120FF2303AA0021284679
:104DC00003F002FA284603F0C9FFBDE8FF878268B6
:104DD00012680A608068016070478168086800286E
:104DE00001D002680A60704702E0C91A006889B2FF
:104DF00010B143898B42F8D9002A00D01180704746
:104E0000002902DA494204F020B8AFF3008030B53F
:104E100000B3B1F5803F1DD281B104898BB214FA81
:104E200081F5ADB29D4215D3057B2D0608D54268AC
:104E3000511A00F1100291420CD304E0002030BD61
:104E400042B14268511A4160418919444181E118D7
:104E50000181F3E7012030BD70B50024DDE904567F
:104E6000C0E90041028143810573467301218173CA
:104E7000C47370BD0A68C3689A4204D001B90022A5
:104E8000C260012070470020704738B50C460546C7
:104E900009684068814214D000911060694610464C
:104EA00000F031F85CB1206868600121284600F00C
:104EB0000AF8E96909B128468847012038BD002071
:104EC000F2E7002038BD0A4690F839104B070BD5A1
:104ED000CB0709D0D20707D04268002A04D00907BF
:104EE00002D5011D02F092BC70470A6883689A429D
:104EF00004D001B900228260012070470020704771
:104F00006FF00B00704770B50C46054604F0D4FDF9
:104F10002146284605F050FE21462846BDE870404F
:104F200004F020B92DE9FF4F81B09346DDE90F98D9
:104F30001F4600264FF420721C210E20DDF838A0F9
:104F400003F0BEFD05002FD06C68119803F0CAFA7B
:104F5000E0803868A060B888A081D9F80010C4F853
:104F60001210B9F80400E082DAF80000C4F80E006C
:104F7000D8F80000A0614FF4807020800820608085
:104F8000062020710420607140F606000090DDE9E3
:104F900001025B46294602F0C1FC284603F0DEFE12
:104FA000304605B0BDE8F08F4FF0FF30F9E7000064
:104FB0002DE9F74F0A22054682B000208B46DFF824
:104FC000DC9011461446164601908646CDF8000046
:104FD00000EB400A09EBCA030A2C1F7D29D0C7B198
:104FE00075B1D5F800C0D3F80480C44508D1DDF808
:104FF00010C0BCF1000F4ED0D3F80880E0454AD075
:10500000012F1AD0022F04D35B8A734501D30146C6
:105010009E46401C00B20A28DADB5FEA8B734FF031
:10502000FF3038D40A2C18D025DB0A2919DA0C46AF
:105030001EE0002FD4D10446EBE759F83A705B8AA2
:105040002FB1019FBB42E4D306460193E1E7009FE5
:10505000BB42DED302460093DBE75FEACB731AD094
:10506000E3E70A2A01DA144602E00A2E13DA34468C
:10507000204600F015F82DB104EB440209EBC20004
:105080002968416004EB440109EBC100002242821F
:1050900004998160204605B0BDE8F08F5C6A00206D
:1050A00070B5074C00EB4005002654F8350018B1E8
:1050B00003F054FE44F8356004EBC500067570BD7E
:1050C0005C6A00207FB5064D031D0124CDE9003543
:1050D000CDE902142E331946FFF724FF04B070BD4A
:1050E00062B90008F8B51F4616460D00044613D0F5
:1050F000286888B1214602F0C3FE68B92878C0F359
:1051000003100E2808D0224639462846FFF750FFE4
:10511000002804DA40B2F8BD6FF00F00F8BD114965
:1051200000EB400201EBC200022303758460336888
:10513000C360B38803820023438251F8325075B1B3
:1051400041F832304FF400600090334604F13202EF
:105150002946204602F0E2FB284603F0FFFD00202E
:10516000F8BD00005C6A00202DE9F8430646884639
:10517000144802EB420100EBC10404F10C05207D50
:10518000022813D1608A0327B0F58E7F04D9211D30
:10519000304602F03BFB07E0B0F5877F06D32A4696
:1051A000211D3046FFF78EFF00B927754FF40060D0
:1051B00000902B4606F132024146304602F0AEFB2B
:1051C000BDE8F8835C6A00202DE9FE4FD64D044609
:1051D0002878410722D5207D02280FD0606A6969AE
:1051E00088420FD00A1A08D4228D1044081A0028C9
:1051F00003DC608B40F00200608392E1206DA969BE
:105200008842FAD1687840F008006870608B20F01E
:10521000010060836FF00D00BDE8FE8F800704D5AC
:10522000207D022801D00328E3D1A07EC00602D44D
:10523000BE48006820624FF0000884F89F8084F820
:105240009E80204600F048FBB94B227D03F1100000
:105250000421DFF8E0A2B84FB84E921E14334FF08D
:1052600001094FF00A0B082AC7D2DFE802F00475E3
:10527000CFD3F9CFF8F72A78D606BED5920755D501
:10528000626CAE69521CB24250D168690246401C41
:1052900060626664E062E868521EC089A4F860003B
:1052A000A4F8620062652175201D03F0D3F8014661
:1052B000608E221D04F01CF941F21C116086B1EBD6
:1052C000400F01D2420000E00A46B2EB800F01D944
:1052D000810003E0B1EB400F00D24100A4F8481078
:1052E000B4F86600401EA4F86600206FB0B10168F3
:1052F000C4F8701004F09BFE206F98B1A4F83080C1
:1053000084F84280D4F88430002B3FF472AF00223E
:105310002146206998470D3039D06AE7E06E016870
:10532000E166E7E74FF0FF302086EBE7E9680A889F
:1053300049888DE807006989686942182046A9698B
:1053400004F04FFE94F8420006288DD2A4F8308075
:10535000204604F0FEFDE4E02A78D6064BD5626CC8
:10536000AE69B21A012A39D4226DB21A002A35DC8C
:105370002175A06F40B1836933B1002221462069B5
:10538000984738B10D3002D0204603F0AFFF6FF0E0
:105390000C0041E7204600F0D3F8288908B1401EF0
:1053A0002881618E41F21C10B0EB410F01D24A00FE
:1053B00000E00246B2EB810F01D9880003E0B0EBB8
:1053C000410F00D24800A4F848006878800611D543
:1053D000608B40F002006083072055E0E9680A888E
:1053E00049888DE807006989686942183146204676
:1053F00004F0F7FD95E0900707D5606A6969401EE3
:10540000884202D1204604F043FD8AE0204600F0A5
:1054100097F8DAE7204600F093F868788006287855
:105420004FEAC06027D5002805DA206DA9698842B7
:1054300001D1E06E28B1608B40F00200608308204B
:1054400022E0608B40F002006083204604F05EFCA6
:105450003068A0420CD1C068306048E051E02DE0D7
:1054600014E0C168A14202D1E168C1603FE0084692
:105470000028F6D13BE0002853DA206DA969884264
:105480004FD1E06EE0BB062020754AE0204600F0D8
:1054900057F86878800644D5608B40F0020060833E
:1054A000204604F033FC3068A042D4D003E0C16849
:1054B000A142D9D008460028F9D118E0204600F0D2
:1054C0003FF82878C0062CD5206DA969884228D1DC
:1054D000E06EA8B9204604F019FC3068A042BAD0AA
:1054E00003E0C168A142BFD008460028F9D18AF87C
:1054F000009084F814B03868E0603C6004F0DCFF91
:105500000FE0204600F01CF82878C00609D5206D71
:10551000A969884205D1E06E18B9687840F010009A
:105520006870002078E60000700000205C00002019
:10553000CC050020500000206C00002068000020F6
:105540002DE9F047DD4D04464FF000062878C006EF
:105550007ED52846B4F860C0A36D676D6A69C168DE
:1055600080690CEB0309B7EB020808D4974201D11C
:105570001F1A04D483420DD1CB8963450AD9C98946
:10558000A4F86010B4F862308B4201D2A4F8621023
:10559000C4E91520636C4FF6FF72C11A00292EDC96
:1055A000698949BBB4F86070A16D0F444F4523D1A0
:1055B000B4F9301000291FDB83421DD194F8430059
:1055C000411CC9B2814201D984F8431094F84300C8
:1055D00003280CD9B4F84800618E014489B2814295
:1055E00002D3A4F8481003E0A4F8482000E002D356
:1055F000204604F080FC8EE084F843608BE00129B3
:1056000077D4236DC31A002B73DC638B5F0708D537
:1056100023F004036383B4F84A30A4F84830A4F8B4
:105620006A6084F84260E38FB4F93C7089B203EB9E
:10563000E703A4F8403084F843606064207D0428C8
:1056400031D3B4F84800B4F84A30984217D200E099
:1056500081E0638B1B0501D5012300E00223678EE7
:105660005F43BBB28B4200D81946014489B28142E4
:1056700002D3A4F8481016E0A4F8482013E0B4F8C8
:105680006A30194489B2994202D3A4F86A1001E041
:10569000A4F86A20B4F86A10814204D3091AA4F865
:1056A0006A10618EE1E7D4E91B3185A2204600F043
:1056B00019FA2067034684A22046E16E00F012FA30
:1056C000E066216F19B12686267720B105E04FF0FC
:1056D000FF322286F8E7A4F86860B4F864202B89CA
:1056E0001A44A4F86420628B120514D511B1C8685D
:1056F00002E00DE038B1C068406802F0F1FEE16CF4
:10570000081A002807DC608B20F40060608302E048
:10571000204604F0A3FC606BE8B1A16BAA69891A6A
:1057200019D56B490988081AB4F93C10A0EBE100BF
:1057300000B2014409B2A187002801DA404200B258
:10574000B4F93E20A0EBA2001044E08700EBE1009A
:10575000A4F8400066636B89002B7DD0207D07286C
:105760007AD2606A6A695B4F811A01291FD4134497
:10577000C31A5B1C002B1ADC3A8989B27868521A6A
:105780003A810289521A92B204E002814681C91A12
:10579000006889B243898B42F7D303F056FB606AF5
:1057A0006861F9684860616A401A07D572E0101AAA
:1057B00004D5608B40F0020060836BE0218D606A4D
:1057C000421869698A1A521C002A63DC884261D136
:1057D000F868808902F086FE800700D001203989B0
:1057E000084480B26881218D81422DD2F868808979
:1057F00002F078FEC0070ED0F868808902F072FED1
:10580000C0F34400400002F06DFEF9688A8922F47A
:105810007C5210438881208D3881F868808902F09D
:1058200061FE800702D53889401E38813989786841
:1058300003F0D9FAF868808902F054FE800700D09E
:105840000120398908446881696980B20144616234
:10585000218D081A208500E021E0204604F05EFE3C
:105860007868018909B1E8617E60F868808902F092
:1058700039FEC00703D0687840F020006870608B64
:10588000C10702D020F0010014E040F00100608365
:10589000BDE8F0872046BDE8F04704F0DFBB606A52
:1058A00069690A1A05D4228D1044081A401C002880
:1058B000EEDD608B40F00200E9E7000070000020A0
:1058C000756E61636B656400756E73656E74000060
:1058D0005C000020186A00202DE9F0411A4C0646B1
:1058E0006088002818D00020E08040F2B4550FE016
:1058F00000F0E4F800280FD0012809D002280DD0CC
:1059000000F0DCF8022807D3E1880844801EE0801C
:10591000E08861888842EBD3BDE8F08100F0CEF8E2
:105920000428F9D1E0886188801C8842F4D800F00E
:10593000C5F8070200F0C2F83843A84200D800B901
:1059400028467086E4E7000070000020FEB53D4E5A
:1059500005463078410711D4C10610D5F0683A4A9F
:10596000394B018840880092CDE901017189706945
:105970001B1D42182846B16904F033FBFEBD8007A9
:10598000FCD5687D03F0BCFC04004AD02E481038DA
:105990004169216000696060E88AE082F0680088FF
:1059A0002083032020757069401C6062E0622046FD
:1059B00004F0ACF8A06520656064E0657069401E85
:1059C00060652869A5672061687A00F00C00607244
:1059D000287A20721D480168E160046004F06CFDC3
:1059E0001B49012008702046FFF776FFF068C08948
:1059F000A4F86000A4F86200201D02F02BFD01460F
:105A0000608E221D03F074FD60861221204603F093
:105A10007EFD88B103B02046BDE8F040002103F0D0
:105A200001BCAB69002BA9D0286903B04FF0FF324D
:105A3000BDE8F040002118472046BDE8FE4004F0D4
:105A40006DB8000070000020DC0500206800002018
:105A500050000020FEB516490B785A0718D40A46A4
:105A60009C07528915D5446A4B691D1B16D4058DB8
:105A70002C441C1B002C11DCCC680E4E1A442588CB
:105A800064880096CDE90145331D896904F0A9FABF
:105A9000FEBDD90702D0084909680162002AF7D083
:105AA000418B41F002014183BDE8FE4004F036B86D
:105AB00070000020DC0500205C0000200849C88838
:105AC000421CCA800A6912B18B88984203D2C96805
:105AD0001431085C7047C01AC0B2105C70470000F7
