:020000040800F2
:10000000C80700202D0200086F1C0008671C0008AC
:100010006B1C0008E7020008A11E00080000000099
:100020000000000000000000000000003F02000887
:10003000FD0200080000000043020008A91C00089F
:10004000470200084702000847020008470200086C
:1000500047020008470200080103000847020008A1
:10006000470200084702000847020008ED020008A6
:10007000470200084702000847020008470200083C
:10008000470200084702000847020008470200082C
:10009000470200084702000847020008470200081C
:1000A000470200084702000847020008470200080C
:1000B00047020008470200084702000847020008FC
:1000C00047020008470200084702000847020008EC
:1000D000470200086D1D0008991D0008C51D000895
:1000E00047020008470200084702000847020008CC
:1000F00047020008470200084702000847020008BC
:1001000047020008470200084702000847020008AB
:10011000470200084702000847020008470200089B
:10012000470200084702000847020008470200088B
:1001300000F002F800F03AF80AA090E8000C8244BF
:100140008344AAF10107DA4501D100F02FF8AFF29C
:10015000090EBAE80F0013F0010F18BFFB1A43F0A5
:10016000010318471C2700003C270000103A24BF59
:1001700078C878C1FAD8520724BF30C830C144BF0C
:1001800004680C607047000000230024002500264E
:10019000103A28BF78C1FBD8520728BF30C148BFEA
:1001A0000B6070471FB51FBD10B510BD00F061F8A2
:1001B0001146FFF7F7FF01F085FE00F07FF803B46A
:1001C000FFF7F2FF03BC00F087F8000070B50446AB
:1001D00000251448006940F02000124908610846D3
:1001E000006940F0400008614CF2503000F0DAF84D
:1001F0000C48006920F020000A490861084600699F
:1002000040F010000861084804804CF2503000F0C3
:10021000C9F80448006920F0100002490861284626
:1002200070BD00000020024000F8FF1F0948804711
:1002300009480047FEE7FEE7FEE7FEE7FEE7FEE7C8
:10024000FEE7FEE7FEE7FEE704480549054A064BE0
:1002500070470000151D000831010008C80100208A
:10026000C8070020C8030020C8030020704770475B
:100270007047754600F02CF8AE46050069465346B7
:1002800020F00700854618B020B5FFF7DDFFBDE878
:1002900020404FF000064FF000074FF000084FF0ED
:1002A000000B21F00701AC46ACE8C009ACE8C0097E
:1002B000ACE8C009ACE8C0098D46704710B50446EB
:1002C000AFF300802046BDE81040FFF778BF000084
:1002D000004870476801002001491820ABBEFEE7C6
:1002E00026000200704700BFFEE7000010B502487C
:1002F00000F090F810BD00003001002000BFFEE7C4
:1003000010B50B48006800F0010078B101200849E1
:10031000086000F014FA0121064800F09FFB044633
:1003200022464FF40051044800F0A4FB10BD000029
:100330001404014000080140001001401748C06843
:1003400000F0100028B11648C06940F002001449BE
:10035000C8611248C06800F0040028B11048C069A4
:1003600040F001000E49C8610C48C06900F001006E
:1003700068B10B48C06940F004000949C86100BF7A
:100380000648C06920F001000449C86100BF00BFF1
:1003900014200249C86000BF7047000000200240DE
:1003A0003000002070B5044600F06AFB054609E005
:1003B000601C38B124B100F063FB401BA04201D99E
:1003C000032070BD1248C06800F001000028EFD182
:1003D0000F48C06800F0200020B100BF20200C4969
:1003E000C86000BF0A48C06800F0100048B908485B
:1003F000C06900F0010020B90548C06800F00400A1
:1004000018B1FFF79BFF0120DBE70020D9E70000D0
:100410000020024010B50446C1480068C04A0832B6
:100420002168914201D1082127E0BD4A1C32216890
:10043000914201D1802120E0B94A303221689142B5
:1004400001D1C91419E0B64A44322168914202D15F
:100450004FF4004111E0B24A58322168914202D172
:100460004FF4002109E0AE4A6C322168914202D17A
:100470004FF4000101E04FF00061084000284DD02A
:1004800020680068C0F3C00090B32068006820F0C6
:10049000080021680860A24908312068884201D11B
:1004A000082028E09E491C312068884201D1802024
:1004B00021E09B4930312068884201D1C0141AE004
:1004C000974944312068884202D14FF4004012E03D
:1004D000934958312068884202D14FF400200AE045
:1004E0008F496C312068884203D14FF4000002E04C
:1004F00014E04FF000608A494860606B40F00100F2
:100500006063042084F8210000BF002084F82000EC
:1005100000BF206B10B12046216B884780480068DF
:100520007F4A08322168914201D1042127E07C4AA8
:100530001C322168914201D1402120E0784A3032BA
:100540002168914201D1091519E0754A44322168A8
:10055000914202D14FF4804111E0714A5832216832
:10056000914202D14FF4802109E06D4A6C3221683A
:10057000914202D14FF4800101E04FF080610840C8
:10058000A0B320680068C0F3800078B320680068DA
:1005900000F0200028B92068006820F004002168DD
:1005A00008605F4908312068884201D1042028E0B2
:1005B0005B491C312068884201D1402021E0584924
:1005C00030312068884201D100151AE05449443185
:1005D0002068884202D14FF4804012E050495831DF
:1005E0002068884203D14FF480200AE013E04C4990
:1005F0006C312068884202D14FF4800001E04FF056
:10060000806047494860112084F82100E06A10B1F9
:100610002046E16A884742480068414A083221681A
:10062000914201D1022127E03D4A1C3221689142CA
:1006300001D1202120E03A4A30322168914201D193
:10064000491519E0364A44322168914202D14FF4EB
:10065000005111E0324A58322168914202D14FF4E0
:10066000003109E02E4A6C322168914202D14FF4E8
:10067000001101E04FF000710840A0B3206800684D
:10068000C0F3400078B32068006800F0200028B96B
:100690002068006820F002002168086020490831C5
:1006A0002068884201D1022028E01D491C312068C1
:1006B000884201D1202021E0194930312068884248
:1006C00001D140151AE0164944312068884202D110
:1006D0004FF4005012E0124958312068884203D18B
:1006E0004FF400300AE01AE00D496C31206888426E
:1006F00002D14FF4001001E04FF00070084948604B
:10070000606B6063012084F8210000BF002084F842
:10071000200000BFA06A10B12046A16A884710BD22
:100720000000024031B5002400F0AAF9044600BFE1
:1007300000F0A6F9001B00998842F9D338BD704734
:100740002DE9F847034600240020002584460027B1
:1007500000226EE14FF0010808FA02F4D1F800809F
:1007600008EA0400A0427DD1DFF8D0A2D1F80480CD
:10077000A8EB0A09D0453AD014DCB8F1030F50D0E9
:1007800009DCB8F1000F31D0B8F1010F1CD0B8F17D
:10079000020F49D120E0B8F1110F18D0B8F1120FB3
:1007A00042D11EE0B9F5881F25D006DCB9F5803F9F
:1007B00020D0B9F5801F37D11AE0B9F5001F18D045
:1007C000B9F5041F30D117E0D1F80CC02DE0D1F8F5
:1007D0000C8008F1040C28E0D1F80C8008F1080C1A
:1007E00023E0D1F80C8008F10C0C1EE000BF00BF24
:1007F00000BF00BF00BF00BFD1F80880B8F1000FF4
:1008000002D14FF0040C0BE0D1F80880B8F1010FD1
:1008100003D14FF0080C1C6102E04FF0080C5C6142
:1008200003E04FF0000C00E000BF00BFFF2801D83C
:10083000984601E003F104084646FF2802D84FEA33
:10084000820803E0A2F108084FEA88084746D6F874
:1008500000804FF00F0909FA07F928EA09080CFA95
:1008600007F900E088E048EA0908C6F80080D1F8F6
:10087000048008F08058B8F1805F7DD100BFDFF8B8
:10088000C081D8F8188048F00108DFF8B491C9F8A1
:100890001880C846D8F8188008F00108CDF8008004
:1008A00000BF00BF4FEAB9384FEA920958F8295003
:1008B0004FEA82784FEA18794FF00F0808FA09F8E2
:1008C00025EA0805DFF87C81434502D14FF0000896
:1008D00016E0DFF87481434502D14FF001080FE0C4
:1008E000DFF86881434502D14FF0020808E0DFF8E5
:1008F0006081434502D14FF0030801E04FF0040846
:100900004FEA82794FEA197908FA09F848EA0505A9
:10091000DFF840814FEA920948F82950D1F8048065
:1009200008F48038B8F5803F0AD1DFF82C81D8F878
:10093000008048EA0008DFF82091C9F8008009E04B
:10094000DFF81481D8F8008028EA0008DFF8089161
:10095000C9F80080D1F8048008F40038B8F5003FE9
:1009600010D1DFF8F48008F10408D8F8008048EAD4
:100970000008DFF8E49000E05AE009F10409C9F842
:1009800000800DE0DFF8D08008F10408D8F800807E
:1009900028EA0008DFF8C09009F10409C9F80080CE
:1009A000D1F8048008F48018B8F5801F0ED1DFF864
:1009B000A88008F10808D8F8008048EA0008DFF8A5
:1009C000989009F10809C9F800800DE0DFF88880E7
:1009D00008F10808D8F8008028EA0008DFF87890C5
:1009E00009F10809C9F80080D1F8048008F400185A
:1009F000B8F5001F0ED1DFF8608008F10C08D8F8B8
:100A0000008048EA0008DFF8509009F10C09C9F8A5
:100A100000800DE0DFF8408008F10C08D8F8008075
:100A200028EA0008DFF8309009F10C09C9F80080C5
:100A3000521C102AFFF48EAEBDE8F887000011109A
:100A40000010024000080140000C0140001001406D
:100A50000014014008000140000401400246936870
:100A60000B400BB1012000E000207047C2684A40F3
:100A7000C26070470AB1016101E00B040361704775
:100A8000014800687047000000000020024800682C
:100A9000401C0149086070470000002010B508485C
:100AA000006840F0100006490860032000F09AF842
:100AB000002000F007F800F017F8002010BD00003B
:100AC0000020024070B5044600F074FB4FF47A71C8
:100AD000B0FBF1F5284601F0A8F800222146501E8F
:100AE00000F042F8002070BD08B500BF16488069CC
:100AF00040F00100144988610846806900F0010057
:100B0000009000BF00BF032000F06CF800221146E7
:100B10006FF00B0000F028F8002211466FF00A0079
:100B200000F022F8002211466FF0090000F01CF8D6
:100B300000221146101F00F017F800221146501E27
:100B400000F012F808BD00000010024000BF00F0E5
:100B50001F0201219140034A430942F8231000BFBC
:100B60007047000080E200E02DE9F05F80460D460E
:100B70001646002701F07CF8074639462A463346D8
:100B800001F00700C0F1070ABAF1040F02D94FF0D3
:100B9000040A01E0C0F1070AD14600F1040ABAF1E3
:100BA000070F02D24FF0000A01E0A0F1030AD44679
:100BB0004FF0010A0AFA09FAAAF1010A0AEA020A3E
:100BC0000AFA0CFA4FF0010B0BFA0CFBABF1010B1C
:100BD0000BEA030B4AEA0B042146404601F050F8A9
:100BE000BDE8F09F00BF00F00702064B19684FF602
:100BF000FF031940044B0B4343EA0221014B1960E8
:100C000000BF70470CED00E00000FA05F8B504469F
:100C100000250026207800F00100002874D000BFD5
:100C20005448C06940F080505249C8610846C069C4
:100C300000F08050009000BF00BF4F48006840F4B3
:100C400080704D490860FFF71BFF054606E0FFF77F
:100C500017FF401B642801D90320F8BD46480068EF
:100C600000F480700028F2D04248006A00F440701E
:100C7000A18801F44071884260D03E48006A20F4A7
:100C800040760121080490FAA0F0B0FA80F03B4AC7
:100C900002EB8000C0F800140020090491FAA1F1D1
:100CA000B1FA81F102EB8101C1F80004314806621A
:100CB00006F0020048B3FFF7E3FE054608E0FFF741
:100CC000DFFE401B41F28831884201D90320C4E78E
:100CD0004020022191FAA1F1B1FA81F108430121EA
:100CE000B1EB601F02D12348006811E040200221CF
:100CF00091FAA1F1B1FA81F108430221B1EB601F31
:100D000004D11C48006A03E018E00FE01948406A6B
:100D10004021022292FAA2F2B2FA82F2114301F0C9
:100D20001F020121914008400028C8D01148006AE4
:100D300020F44070616808430E490862207800F092
:100D40000200022807D10B48406820F44040A16807
:100D5000084308494860207800F01000102807D1A7
:100D60000448406820F48000E16808430149486075
:100D7000002072E700100240007000400000424274
:100D800070B504460D460026F748006800F00700DD
:100D9000A84270D2F448006820F007002843F249C6
:100DA00008600846006800F00700A84201D0012052
:100DB00070BD207800F00200022807D1EB4840689F
:100DC00020F0F000A1680843E8494860207800F06E
:100DD000010000286FD0606801282DD12020010378
:100DE00091FAA1F1B1FA81F108430121B1EB601F41
:100DF00002D1DE4800680FE02020010391FAA1F142
:100E0000B1FA81F108430221B1EB601F02D1D7484A
:100E1000006A01E0D548406A20210A0392FAA2F252
:100E2000B2FA82F2114301F01F0201219140084001
:100E3000002861D10120BBE7606802282DD1202065
:100E4000010591FAA1F1B1FA81F108430121B1EB59
:100E5000601F02D1C548006810E02020010591FA0A
:100E6000A1F1B1FA81F108430221B1EB601F03D176
:100E7000BE48006A02E083E0BC48406A20210A05BF
:100E800092FAA2F2B2FA82F2114301F01F0201219A
:100E90009140084078BB01208AE72020022191FA86
:100EA000A1F1B1FA81F108430121B1EB601F03D137
:100EB000AE48006810E05BE12020022191FAA1F128
:100EC000B1FA81F108430221B1EB601F02D1A748BA
:100ED000006A01E0A548406A2021022292FAA2F2AB
:100EE000B2FA82F2114301F01F0201219140084041
:100EF00008B901205CE7FFE79C48406820F0030048
:100F00006168084399494860FFF7BAFD0646606882
:100F1000012810D108E0FFF7B3FD801B41F28831B2
:100F2000884201D9032043E79048406800F00C0054
:100F30000428F0D11CE16068022810D108E0FFF716
:100F40009FFD801B41F28831884201D903202FE7A1
:100F50008648406800F00C000828F0D108E108E05D
:100F6000FFF78EFD801B41F28831884201D90320B2
:100F70001EE77E48406800F00C000028F0D1F7E042
:100F8000207800F00200022807D17848406820F05D
:100F9000F000A168084375494860207800F001001E
:100FA00000286ED0606801282CD12020010391FA1E
:100FB000A1F1B1FA81F108430121B1EB601F02D127
:100FC0006A4800680FE02020010391FAA1F1B1FA0C
:100FD00081F108430221B1EB601F02D16348006A2E
:100FE00001E06248406A20210A0392FAA2F2B2FAB2
:100FF00082F2114301F01F0201219140084088BB99
:101000000120D5E6606802282DD12020010591FA43
:10101000A1F1B1FA81F108430121B1EB601F02D1C6
:10102000524800680FE02020010591FAA1F1B1FAC1
:1010300081F108430221B1EB601F02D14B48006AE5
:1010400001E04A48406A20210A0592FAA2F2B2FA67
:1010500082F2114301F01F0201219140084008B9BA
:101060000120A5E62DE02020022191FAA1F1B1FA9C
:1010700081F108430121B1EB601F03D13B480068B7
:1010800010E061E02020022191FAA1F1B1FA81F192
:1010900008430221B1EB601F02D13448006A01E02D
:1010A0003248406A2021022292FAA2F2B2FA82F277
:1010B000114301F01F0201219140084008B90120AD
:1010C00076E62A48406820F0030061680843274913
:1010D0004860FFF7D5FC06466068012810D108E09B
:1010E000FFF7CEFC801B41F28831884201D90320F2
:1010F0005EE61E48406800F00C000428F0D123E0B2
:101100006068022810D108E0FFF7BAFC801B41F2AA
:101110008831884201D903204AE61448406800F02B
:101120000C000828F0D10FE008E0FFF7A9FC801BB5
:1011300041F28831884201D9032039E60B484068E2
:1011400000F00C000028F0D10748006820F00700EC
:101150002843054908600846006800F00700A842D7
:1011600006D0012024E600000020024000100240CA
:10117000207800F00400042807D10D48406820F4CE
:10118000E060E16808430A494860207800F0080000
:10119000082808D10648406820F46050216940EAD8
:1011A000C100034948600020FFF78CFC0020FFE5E8
:1011B0000010024000B500F019F80949496801F033
:1011C000F001F02292FAA2F2B2FA82F2D140054A7C
:1011D000515CC840044908600846006800BD000032
:1011E00000100240EE2000082C000020F0B585B071
:1011F0000FF28C0C9CE8E01001A8A0E8E01024A5F8
:101200002D68009500210024002200230020214D9C
:10121000696801F00C056DB3042D02D0082D28D1AA
:1012200001E01D4828E001F470154FF4701696FA9D
:10123000A6F6B6FA86F6F54001AE735D01F4803588
:1012400095B1144D6D6805F400354FF4003696FAEB
:10125000A6F6B6FA86F6F5401DF805400E4DB5FB2C
:10126000F4F505FB03F202E00C4D03FB05F210461A
:1012700002E000BF084800BF00BF05B0F0BD00009D
:1012800002030405060708090A0B0C0D0E0F1010C7
:10129000010200000010024000127A0000093D0027
:1012A00038B504460025207800F00100002877D0EA
:1012B000FC48406800F00C0004280CD0F948406855
:1012C00000F00C00082837D1F648406800F4803060
:1012D000B0F5803F30D12020010391FAA1F1B1FA9D
:1012E00081F108430121B1EB601F02D1ED48006894
:1012F0000FE02020010391FAA1F1B1FA81F1084336
:101300000221B1EB601F02D1E648006A01E0E54826
:10131000406A20210A0392FAA2F2B2FA82F2114341
:1013200001F01F020121914008400028BFD06068F1
:10133000002835D1012038BD00BFDA48006820F40C
:101340008030D84908600846006820F48020086092
:1013500000BFFFF795FB054606E0FFF791FB401B3A
:10136000642801D90320E6E72020010391FAA1F1C6
:10137000B1FA81F108430121B1EB601F02D1C948E4
:10138000006810E02020010391FAA1F1B1FA81F187
:1013900008430221B1EB601F03D1C248006A02E09A
:1013A000B7E0C048406A20210A0392FAA2F2B2FADA
:1013B00082F2114301F01F020121914008400028F0
:1013C000CBD100BF6068B0F5803F06D1B54800685A
:1013D00040F48030B349086028E0606858B9B148EB
:1013E000006820F48030AF4908600846006820F4A7
:1013F000802008601AE06068B0F5A02F0BD1A948E2
:10140000006840F48020A74908600846006840F45E
:10141000803008600AE0A348006820F48030A149C9
:1014200008600846006820F48020086000BF6068FB
:10143000B8B3FFF725FB054606E0FFF721FB401B8D
:10144000642801D9032076E72020010391FAA1F155
:10145000B1FA81F108430121B1EB601F02D191483B
:1014600000680FE02020010391FAA1F1B1FA81F1A7
:1014700008430221B1EB601F02D18A48006A01E0F3
:101480008848406A20210A0392FAA2F2B2FA82F254
:10149000114301F01F020121914008400028CCD0E7
:1014A00037E0FFE7FFF7ECFA054606E0FFF7E8FA5A
:1014B000401B642801D903203DE72020010391FA55
:1014C000A1F1B1FA81F108430121B1EB601F02D112
:1014D000744800680FE02020010391FAA1F1B1FAED
:1014E00081F108430221B1EB601F02D16D48006A0F
:1014F00001E06C48406A20210A0392FAA2F2B2FA93
:1015000082F2114301F01F0201219140084000289E
:10151000CCD1207800F0020002284ED1614840680A
:1015200000F00C0050B15F48406800F00C00082843
:1015300044D15C48406800F4803078BB2020022110
:1015400091FAA1F1B1FA81F108430121B1EB601FD9
:1015500002D1544800680FE02020022191FAA1F145
:10156000B1FA81F108430221B1EB601F02D14D486D
:10157000006A01E04B48406A2021022292FAA2F25E
:10158000B2FA82F2114301F01F020121914008409A
:1015900028B12069012802D00120CCE60EE04148A4
:1015A000006820F0F800F82292FAA2F2B2FA82F271
:1015B0006169914008433B49086095E0206970B338
:1015C000012090FAA0F1B1FA81F1374A42F82100E6
:1015D000FFF756FA054606E0FFF752FA401B0228CD
:1015E00001D90320A7E62020022191FAA1F1B1FA46
:1015F00081F108430121B1EB601F02D12948006845
:1016000010E02020022191FAA1F1B1FA81F1084302
:101610000221B1EB601F03D12248006A02E01EE004
:101620002048406A2021022292FAA2F2B2FA82F203
:10163000114301F01F020121914008400028CBD046
:101640001848006820F0F800F82292FAA2F2B2FAE4
:1016500082F26169914008431249086044E0002029
:10166000012191FAA1F1B1FA81F10F4A42F821006A
:10167000FFF706FA054606E0FFF702FA401B0228CC
:1016800001D9032057E62020022191FAA1F1B1FAF5
:1016900081F108430121B1EB601F07D101480068C7
:1016A00014E000000010024000004242202002210D
:1016B00091FAA1F1B1FA81F108430221B1EB601F67
:1016C00002D1FC48006A01E0FA48406A2021022267
:1016D00092FAA2F2B2FA82F2114301F01F02012142
:1016E000914008400028C7D1207800F00800082861
:1016F00046D1A06980B3012090FAA0F1B1FA81F13E
:10170000ED4A02EB8101C1F88004FFF7B9F9054603
:1017100006E0FFF7B5F9401B022801D903200AE6CD
:101720006020022191FAA1F1B1FA81F1084301216F
:10173000B1EB601F02D1DF48006810E06020022199
:1017400091FAA1F1B1FA81F108430221B1EB601FD6
:1017500003D1D848006A02E013E0D648406A60210D
:10176000022292FAA2F2B2FA82F2114301F01F02AF
:101770000121914008400028CBD00120FEF7D2FF84
:1017800041E00020012191FAA1F1B1FA81F1CA4AA8
:1017900002EB8101C1F88004FFF772F9054606E00B
:1017A000FFF76EF9401B022801D90320C3E5602032
:1017B000022191FAA1F1B1FA81F108430121B1EBC3
:1017C000601F02D1BB4800680FE06020022191FA3F
:1017D000A1F1B1FA81F108430221B1EB601F02D1FE
:1017E000B448006A01E0B348406A6021022292FADC
:1017F000A2F2B2FA82F2114301F01F0201219140DC
:1018000008400028CCD1207800F00400042875D1CD
:1018100000BFA848C06940F08050A649C86108468A
:10182000C06900F08050009000BF00BFA34800686E
:1018300040F48070A1490860FFF722F9054606E0F0
:10184000FFF71EF9401B642801D9032073E59B486C
:10185000006800F480700028F2D000BF9548006A4C
:1018600020F00100934908620846006A20F0040055
:10187000086200BFFFF704F9054608E0FFF700F92A
:10188000401B41F28831884201D9032053E54020B2
:10189000022191FAA1F1B1FA81F108430121B1EBE2
:1018A000601F02D1834800680FE04020022191FAB6
:1018B000A1F1B1FA81F108430221B1EB601F02D11D
:1018C0007C48006A01E07B48406A4021022292FA8B
:1018D000A2F2B2FA82F2114301F01F0201219140FB
:1018E00008400028CAD100BFE068012807D171482C
:1018F000006A40F001006F49086228E09EE0E0685D
:1019000058B96C48006A20F001006A49086208462C
:10191000006A20F00400086219E0E06805280BD195
:101920006448006A40F00400624908620846006AA0
:1019300040F0010008620AE05E48006A20F0010001
:101940005C4908620846006A20F00400086200BF93
:10195000E068C8B3FFF794F8054608E0FFF790F891
:10196000401B41F28831884201D90320E3E4402042
:10197000022191FAA1F1B1FA81F108430121B1EB01
:10198000601F02D14B4800680FE04020022191FA0D
:10199000A1F1B1FA81F108430221B1EB601F02D13C
:1019A0004448006A01E04348406A4021022292FA1A
:1019B000A2F2B2FA82F2114301F01F02012191401A
:1019C00008400028CAD039E0FFE7FFF759F805467C
:1019D00008E0FFF755F8401B41F28831884201D9F1
:1019E0000320A8E44020022191FAA1F1B1FA81F18B
:1019F00008430121B1EB601F02D12E4800680FE0BF
:101A00004020022191FAA1F1B1FA81F108430221AB
:101A1000B1EB601F02D12748006A01E02548406A07
:101A20004021022292FAA2F2B2FA82F2114301F0AC
:101A30001F020121914008400028CAD1E069002816
:101A400071D01C48406800F00C0008286CD0E06998
:101A500002286AD10021C00590FAA0F0B0FA80F007
:101A6000154A42F82010FFF70BF8054606E0FFF78D
:101A700007F8401B022801D903205CE4202001055F
:101A800091FAA1F1B1FA81F108430121B1EB601F94
:101A900002D10848006815E02020010591FAA1F163
:101AA000B1FA81F108430221B1EB601F08D101486E
:101AB000006A07E00010024000004242007000404F
:101AC0005748406A20210A0592FAA2F2B2FA82F23D
:101AD000114301F01F020121914008400028C6D1A6
:101AE000206AB0F5803F07D14D48406820F40030AF
:101AF000A16808434A494860D4E9080108434849B5
:101B0000496821F4741108434549486001200106E1
:101B100091FAA1F1B1FA81F1424A42F82100FEF7AF
:101B2000AFFF054609E079E076E033E0FEF7A8FF75
:101B3000401B022801D9032015E42020010591FA59
:101B4000A1F1B1FA81F108430121B1EB601F02D18B
:101B5000334800680FE02020010591FAA1F1B1FAA5
:101B600081F108430221B1EB601F02D12C48006AC9
:101B700001E02B48406A20210A0592FAA2F2B2FA4B
:101B800082F2114301F01F02012191400840002818
:101B9000CCD043E000214FF0807090FAA0F0B0FA72
:101BA00080F0204A42F82010FEF76AFF054606E062
:101BB000FEF766FF401B022801D9032043E42020E2
:101BC000010591FAA1F1B1FA81F108430121B1EBCC
:101BD000601F02D1124800680FE02020010591FA31
:101BE000A1F1B1FA81F108430221B1EB601F02D1EA
:101BF0000B48006A01E00A48406A20210A0592FA6F
:101C0000A2F2B2FA82F2114301F01F0201219140C7
:101C100008400028CCD101E0012014E4002012E4A7
:101C20000010024000004242704770B5044625464D
:101C3000681EB0F1807F01D301200FE0681E4FF0D5
:101C4000E02148610F214FF0FF3000F019F800202B
:101C50004FF0E021886107200861002070BD10B5B9
:101C6000FFF7E2FF10BD00BFFEE700BFFEE77047D1
:101C700002480068C0F30220704700000CED00E04D
:101C800010B5002807DA0A07140E054A00F00F0302
:101C90001B1FD45403E00A07130E024A135410BD4D
:101CA00018ED00E000E400E010B5FEF7EFFEFFF7EE
:101CB000D6FF10BD00B593B00120099000040A9032
:101CC00000200B9001200D9002201090C103119173
:101CD0004FF4E011129109A8FFF7E2FA0F200490E7
:101CE00002200590002006904FF4806007900020AD
:101CF0000890022104A8FFF743F8122000904FF447
:101D000000400290002003906846FEF77FFF13B06A
:101D100000BD00001148006840F001000F49086054
:101D2000084640680E4908400C494860084600686B
:101D30000C490840094908600846006820F48020E2
:101D400008600846406820F4FE0048604FF41F0019
:101D50008860C80304490860704700000010024012
:101D60000000FFF8FFFFF6FE08ED00E010B50848A0
:101D7000006800F0200030B10548001D0068C1B2C5
:101D8000044800F077F82521014800F031F810BD33
:101D9000003801400400002010B50848006800F039
:101DA000200030B10548001D0068C1B2044800F0B1
:101DB00061F82621014800F01BF810BD00440040E6
:101DC0001000002010B50848006800F0200030B175
:101DD0000548001D0068C1B2044800F04BF82721F7
:101DE000014800F005F810BD004800401C0000202C
:101DF00038B505460C461E48056000BF00680068FF
:101E000000901B4800684068009000BF00BF00BF02
:101E10001748006800680090154800684068009006
:101E200000BF00BF00BF1248006800680090104863
:101E300000684068009000BF00BF00BF0C48006809
:101E4000006800900A4800684068009000BF00BF2A
:101E500000BF0748006800680090054800684068B7
:101E6000009000BF00BF2046FEF770FE38BD0000A6
:101E7000B000002010B5C28883889A420FDA028928
:101E800083889A4201D1002202814AB20489036800
:101E90001A550289521C0281C288521CC28010BD90
:101EA00000BFFEE770B504465CB100F057F8054688
:101EB00000BF00F01BF900F051F8401BA042F8D31E
:101EC00000BF70BDFEF7EAFDFFF7F4FE01212D20F3
:101ED00000F048F81B481C4948601C4848601948F5
:101EE00088601A4888601DE000BF00BF00BF00BFC7
:101EF00000BFBFF34F8F00BF00BF00BF1448006892
:101F000000F4E06013490843001D1149086000BF58
:101F100000BF00BFBFF34F8F00BF00BF00BF00BFB7
:101F200000BFFDE70020FEF751F90028DCD108E0F2
:101F30004FF400510848FEF799FD4FF4FA70FFF78F
:101F4000B1FFF5E72301674500200240AB89EFCDE3
:101F50000CED00E00000FA050010014010B5FEF79E
:101F60008FFD10BD2DE9F04186B006460C4606EB0C
:101F70004600594951F8307006EB460001EBC000AD
:101F800080881FFA80F806EB460001EBC0008568E8
:101F90006DB900BF5148806940F004004F49886125
:101FA0000846806900F00400019000BF40E0012D68
:101FB0000DD100BF4948806940F008004749886159
:101FC0000846806900F00800019000BF30E0022D53
:101FD0000DD100BF4148806940F010003F49886141
:101FE0000846806900F01000019000BF20E0032D3A
:101FF0000DD100BF3948806940F020003749886121
:102000000846806900F02000019000BF10E0042D18
:102010000DD100BF3148806940F040002F498861F0
:102020000846806900F04000019000BF00E000BF5A
:10203000CDF808801CB900200390049044E0022CE5
:1020400004D100200390012004903DE0032C04D132
:10205000002003900220049036E0012C04D10120DE
:102060000390032005902FE0072C04D1112003904A
:102070000320059028E0042C04D1122003900320B3
:10208000059021E0052C04D1022003900320059047
:102090001AE0062C04D1032003900220049013E0E0
:1020A0000C2C04D10E480390002004900CE00D2C61
:1020B00004D10C4803900120049005E00E2C03D1BC
:1020C000094803900220049002A93846FEF738FB25
:1020D00006B0BDE8F08100000021000800100240B9
:1020E00000003110000021100000111070470000A6
:1020F00000000102030401020304060708090000AE
:102100000008014001000000000000000000000085
:102110000000000000000000000801400200000074
:10212000000000000100000000000040040000006A
:102130000008014004000000000000000200000050
:1021400000000040080000000008014008000000F6
:102150000000000003000000000000400C00000030
:102160000008014010000000000000000400000012
:1021700000000000000000000008014020000000F6
:10218000000000000500000000000000000000004A
:1021900000080140400000000000000006000000B0
:1021A0000004004000000000000801408000000022
:1021B00000000000070000000004004004000000D0
:1021C00000080140000100000000000000000000C5
:1021D000002C014000000000000801400002000047
:1021E0000000000000000000002C0140040000007E
:1021F0000008014000040000000000000000000092
:10220000002C014008000000000801400008000008
:102210000000000000000000002C01400C00000045
:102220000008014000100000000000000000000055
:102230000000000000000000000801400020000035
:10224000000000000000000000000000000000008E
:1022500000080140004000000000000000000000F5
:1022600000000000000000000008014000800000A5
:10227000000000000000000000000000000000005E
:10228000000C0140010000000100000008000000F7
:102290000004004008000000000C014002000000A3
:1022A0000100000009000000000400400C000000D4
:1022B000000C0140040000000100000000000000CC
:1022C0000000000000000000000C014008000000B9
:1022D00001000000000000000000004004000000B9
:1022E000000C014010000000010000000000000090
:1022F0000004004000000000000C0140200000002D
:102300000100000000000000000400400400000084
:10231000000C01404000000001000000000000002F
:102320000008004000000000000C01408000000098
:102330000100000000000000000800400400000050
:10234000000C01400001000001000000000000003E
:102350000000000000000000000C0140000200002E
:10236000010000000000000000000000000000006C
:10237000000C01400004000001000000000000000B
:102380000000004008000000000C014000080000B0
:102390000100000000000000000000400C000000F0
:1023A000000C0140001000000100000000000000CF
:1023B0000000000000000000000C014000200000B0
:1023C000010000000000000000000000000000000C
:1023D000000C01400040000001000000000000006F
:1023E0000000000000000000000C01400080000020
:1023F00001000000000000000000000004000000D8
:102400000010014001000000020000000A0000006E
:102410000000000000000000001001400200000069
:10242000020000000B00000000000000000000009F
:102430000010014004000000020000000C00000039
:102440000000000000000000001001400800000033
:10245000020000000D00000000000000000000006D
:102460000010014010000000020000000E000000FB
:1024700000000000000000000010014020000000EB
:10248000020000000E00000000000000000000003C
:1024900000100140400000000200000000000000A9
:1024A000000000000000000000100140800000005B
:1024B0000200000000000000000000000400000016
:1024C00000100140000100000200000000000000B8
:1024D00000000000080000000010014000020000A1
:1024E0000200000000000000000000000C000000DE
:1024F0000010014000040000020000000000000085
:102500000000000000000000001001400008000072
:1025100002000000000000000000000000000000B9
:102520000010014000100000020000000000000048
:10253000000000000000000000100140002000002A
:102540000200000000000000000000000000000089
:1025500000100140004000000200000000000000E8
:10256000000000000000000000100140008000009A
:102570000200000000000000000000000000000059
:1025800000140140010000000300000000000000F2
:1025900000000000000000000014014002000000E4
:1025A0000300000000000000000000000000000028
:1025B00000140140040000000300000000000000BF
:1025C00000000000000000000014014008000000AE
:1025D00003000000000000000000000000000000F8
:1025E0000014014010000000030000000000000083
:1025F0000000000000000000001401402000000066
:1026000003000000000000000000000000000000C7
:102610000014014040000000030000000000000022
:1026200000000000000000000014014080000000D5
:102630000300000000000000000000000000000097
:102640000014014000010000030000000000000031
:102650000000000000000000001401400002000023
:102660000300000000000000000000000000000067
:1026700000140140000400000300000000000000FE
:1026800000000000000000000014014000080000ED
:102690000300000000000000000000000000000037
:1026A00000140140001000000300000000000000C2
:1026B000000800400000000000140140002000005D
:1026C00003000000000000000008004004000000BB
:1026D0000014014000400000030000000000000062
:1026E00000080040080000000014014000800000C5
:1026F0000300000000000000000800400C00000083
:10270000001801400100000004000000000000006B
:10271000000000000000000000180140020000005E
:1027200004000000000000000000000000000000A5
:102730000018014004000000040000000000000038
:102740000000000000000000001801400800000028
:102750000400000000000000000000000000000075
:1027600000180140100000000400000000000000FC
:1027700000000000000000000018014020000000E0
:102780000400000000000000000000000000000045
:10279000001801404000000004000000000000009C
:1027A000000000000400000000180140800000004C
:1027B0000400000000000000000000000000000015
:1027C00000180140000100000400000000000000AB
:1027D000000000000000000000180140000200009E
:1027E0000400000000000000002C01400000000078
:1027F0000018014000040000040000000000000078
:102800000000000000000000001801400008000067
:102810000400000000000000002C01400400000043
:10282000001801400010000004000000000000003B
:10283000000000000000000000180140002000001F
:102840000400000000000000002C0140080000000F
:1028500000180140004000000400000000000000DB
:10286000002C01400C000000001801400080000016
:102870000400000000000000000000000000000054
:10288000A028000800000020300000006C010008B3
:10289000D0280008300000209807000088010008B8
:1028A0000000000050000020200000000000000098
:1028B00070000020200000000000000090000020B8
:1028C00020000000000000000000000000A24A04F8
:0400000508000131BD
:00000001FF
