:020000040800F2
:10000000D85A0024B1020008FF390008033800085C
:10001000FB39000883050008694E00080000000055
:10002000000000000000000000000000033A00088B
:10003000E906000800000000013A0008053A00083F
:10004000CB020008CB020008CB020008CB0200085C
:10005000CB020008CB020008610700084108000835
:1000600071080008A1080008D108000889050008E7
:100070009D050008B1050008C5050008D905000860
:10008000ED05000801060008CB020008CB020008BD
:10009000CB020008CB020008CB02000801090008CF
:1000A000CB020008593D0008CB020008453D00087E
:1000B0006D3D0008813D0008953D0008CB02000819
:1000C000CB020008CB020008CB020008CB020008DC
:1000D000CB0200082D4E0008454E0008514E000886
:1000E00091070008CB02000800000000E53D000871
:1000F000213E00080D3E0008F93D000815060008E5
:10010000CB020008CB020008A93D0008CB02000882
:100110002D40000839400008BD3D0008D13D0008D1
:100120002906000841060008590600087106000863
:1001300089060008ED060008CB020008CB02000883
:1001400000000000000000000000000000000000AF
:10015000A1060008B9060008D10600085D4E000897
:10016000CB020008CB020008CB020008CB0200083B
:10017000CB020008CB020008CB020008CB0200082B
:10018000CB020008CB02000845400008CB02000863
:10019000CB020008CB020008CB020008CB0200080B
:1001A000CB020008CB020008CB020008CB020008FB
:1001B000CB020008CB020008CB020008CB020008EB
:1001C000CB020008CB020008CB020008CB020008DB
:1001D000CB020008CB020008CB020008CB020008CB
:1001E000CB020008CB020008CB020008CB020008BB
:1001F000CB020008CB020008CB020008CB020008AB
:10020000CB020008CB020008CB020008CB0200089A
:10021000093D00081D3D0008313D0008CB020008E3
:10022000CB020008CB020008CB020008000000004F
:10023000CB020008CB02000800000000CB0200083F
:10024000CB020008CB020008CB020008CB0200085A
:10025000CB020008CB020008CB020008CB0200084A
:10026000CB020008CB020008CB020008CB0200083A
:10027000CB020008CB020008CB02000800000000FF
:10028000CB02000800000000CB02000800000000C4
:1002900000000000CB020008DFF810D000F016F9D3
:1002A00000F0A2F800480047F5CB0008D85A002417
:1002B0000648804706480047FEE7FEE7FEE7FEE700
:1002C000FEE7FEE7FEE7FEE7FEE7FEE7613C00082B
:1002D000990200082DE9F05F0546002092469B46F2
:1002E00088460646814640241BE02846414647464C
:1002F000224600F09AF853465A46C01A914110D34C
:1003000011461846224600F081F82D1A67EB0108C5
:100310004F4622460120002100F078F817EB000933
:100320004E41201EA4F10104DFDC484631462A4636
:100330004346BDE8F09F00000649074A086850435D
:1003400043F23902104408604008704701490860D0
:1003500070470000C00100246D4EC64110B5431A1D
:10036000934209D28318881803E010F8011D03F89E
:10037000011D521EF9D210BD40EA01039B0703D0B4
:1003800009E008C9121F08C0042AFAD203E011F8D4
:10039000013B00F8013B521EF9D210BDD2B201E080
:1003A00000F8012B491EFBD270470022F6E710B57A
:1003B00013460A4604461946FFF7F0FF204610BDD3
:1003C000421C10F8011B0029FBD1801A704730B580
:1003D00004460020034600E05B1C934203D2E05C2D
:1003E000CD5C401BF8D030BD70B5054C054D03E029
:1003F000206820448047241DAC42F9D170BD000024
:10040000D40E0108FC0E010800F02BB8202A04DBF2
:10041000203A00FA02F1002070479140C2F1200317
:1004200020FA03F3194390407047202A04DB203A56
:1004300021FA02F00021704721FA02F3D040C2F104
:100440002002914008431946704700000348704756
:100450000248001D011F8860001D7047CC01002468
:10046000704710B500F00DF8016919B10022026162
:10047000884701E080688047AFF3008010B5AFF394
:10048000008070B5FFF7E4FF04680546A4B920209A
:100490000AF0AAFD040011D0094900202C60C4E92B
:1004A00000010849A1602073206160610649A061D4
:1004B00009B100F01DF8E061204670BDAFF3008087
:1004C000000000007D04000800000000064C074DFD
:1004D00006E0E06840F0010394E807009847103414
:1004E000AC42F6D3FFF7DCFEB40E0108D40E0108CF
:1004F00010B588200AF078FD002801D00021017095
:1005000010BD802902D808B1017809B100207047D8
:10051000012100F8081B704718B100F10802914250
:1005200001D00020704700210170704770B58C1811
:1005300010F8015B15F0070301D110F8013B2A11F7
:1005400006D110F8012B03E010F8016B01F8016BE4
:100550005B1EF9D12B0705D40023521E0DD401F8E0
:10056000013BFAE710F8013BCB1A921C03E013F8A9
:10057000015B01F8015B521EF9D5A142D8D30020DE
:1005800070BD00BFFEE7000003480168890601D581
:10059000202181607047000000000240034801688C
:1005A000090501D5C11481607047000000000240B8
:1005B00003480168890201D501018160704700008C
:1005C0000000024003480168090101D581028160F1
:1005D000704700000000024003484168890601D5C9
:1005E0002021C160704700000000024003484168BC
:1005F000090501D5C114C160704700000000024028
:1006000003484168890201D50101C16070470000BB
:100610000000024003484168090101D58102C16020
:10062000704700000000024004480068800603D5BF
:100630000249202008310860704700000004024091
:1006400004480068000504D502494FF400600831F1
:10065000086070470004024004480068000104D5A7
:1006600002494FF000600831086070470004024002
:1006700004480068000104D502494FF000600831C9
:10068000086070470004024004480068800603D5F3
:10069000024920200831086070470000040402402D
:1006A00004480068000504D502494FF40060083191
:1006B000086070470404024004480068800204D5C2
:1006C00002494FF4001008310860704704040240EA
:1006D00004480068000104D502494FF00060083169
:1006E00008607047040402407047000010B50248DB
:1006F00000F030FB10BD000038440024002070479B
:1007000010B501F06BF810BD10B5024800F0EEFD19
:10071000002010BD3844002470B504460D4616462E
:1007200033462A462146044800F089FD10B14FF0B7
:10073000FF3070BD0020FCE73844002470B504464B
:100740000D46164633462A462146044800F0F8FE78
:1007500010B14FF0FF3070BD0020FCE7384400249A
:100760004FF0B04010B5D0F88810C9070CD0012167
:10077000C0F88810084600F02BFF044800680028E5
:1007800002D0BDE81040004710BD0000344F0024E7
:1007900070B54FF0B045294CD5F88800400508D514
:1007A0004FF48060C5F8880000F012FFA06A00B125
:1007B0008047D5F88800000508D54FF40060C5F8DB
:1007C000880000F005FFE06A00B18047D5F8880096
:1007D000C00408D54FF48050C5F8880000F0F8FE3A
:1007E000206B00B18047D5F88800800408D54FF40D
:1007F0000050C5F8880000F0EBFE606B00B1804748
:10080000D5F88800400408D54FF48040C5F888002A
:1008100000F0DEFEA06B00B18047D5F88800000430
:100820000BD54FF40040C5F8880000F0D1FEE06B16
:10083000002802D0BDE87040004770BD344F00244E
:100840004FF0B04010B5D0F8881089070CD50221C0
:10085000C0F88810084600F0BBFE04484068002835
:1008600002D0BDE81040004710BD0000344F002406
:100870004FF0B04010B5D0F8881049070CD50421CE
:10088000C0F88810084600F0A3FE044880680028DD
:1008900002D0BDE81040004710BD0000344F0024D6
:1008A0004FF0B04010B5D0F8881009070CD50821DA
:1008B000C0F88810084600F08BFE0448C068002885
:1008C00002D0BDE81040004710BD0000344F0024A6
:1008D0004FF0B04010B5D0F88810C9060CD51021E3
:1008E000C0F88810084600F073FE0448006900282C
:1008F00002D0BDE81040004710BD0000344F002476
:1009000070B54FF0B045214CD5F88800800607D56A
:100910002020C5F8880000F05BFE606900B18047C8
:10092000D5F88800400607D54020C5F8880000F0BB
:100930004FFEA06900B18047D5F88800000607D5B2
:100940008020C5F8880000F043FEE06900B18047D0
:10095000D5F88800C00508D54FF48070C5F8880028
:1009600000F036FE206A00B18047D5F88800800587
:100970000BD54FF40070C5F8880000F029FE606ABE
:10098000002802D0BDE87040004770BD344F0024FD
:1009900000BFFEE770B5044600F020FF0546601C6E
:1009A00002D004480078044400F018FF401BA04225
:1009B000FAD370BD7C01002470B5054605F12C0208
:1009C000536952F823109669906908B9012070BDE7
:1009D000D06900B1761C002423E0086908604FF05C
:1009E0008070C860486928B148698860C86840F06C
:1009F0000070C860C86840F00040C860106A18B154
:100A0000C86840F08040C8609069401EA04207D985
:100A100000BF5B1C042B00D31B1F00BF52F8231028
:100A2000641CB442D9D3286800F58050C0F828115E
:100A30000020906100BFCAE7704730B504460D46FC
:100A400004F12C0050F825100AB1042D02D3012026
:100A5000E06530BD0A600A61C86840F08070C86017
:100A60002BB18B604B61C86840F00070C860C868EB
:100A700040F00040C8600020EBE77047024609B92B
:100A8000012070471068006800F00C00C862106810
:100A90000068C0F3001081F828001068006800F0BA
:100AA0006000486210680068C0F3002080F0010018
:100AB00081F8200010680068C0F34020C8771068F3
:100AC0000068C0F3802080F001008877106800681B
:100AD000C0F3C020487710680068C0F30030087782
:100AE0001068006800F4005088611068006800F425
:100AF0008040486110680068C0F300408874106846
:100B00000068C0F3404080F001004874106800683D
:100B1000C0F3C04080F00100087410680068C0F3A2
:100B20000050C87310680068C0F3405088731068A4
:100B30000068C0F38050487310680068C0F3C0506C
:100B400008731068006800F0E06088601068006852
:100B5000C0F3C06008711068006800F0E0400860F1
:100B600010684068C0F30D00486310684068C0F327
:100B7000004080F0010081F8320010684068C0F346
:100B8000404081F8310010684068C0F3804081F82F
:100B9000300010684068C0F3006081F838001068C9
:100BA0004068C0F34460C8631068C068C0F30020A8
:100BB00081F840001068C06800F00F0048641068B9
:100BC000006FC0F3400081F854001068006FC0F35C
:100BD000C01080F0010081F84C001068006F00F038
:100BE000700008651068006F000C88641068D0F809
:100BF000900000F0010081F856001068D0F89000D5
:100C0000C0F3400081F855001068D0F8000D00F0E6
:100C1000720088651068D0F8300D00F02300C865B8
:100C20001068D0F8300DC0F3C00081F86200106881
:100C3000D0F8300DC0F3001081F861001068D0F8D2
:100C4000300DC0F3801080F0010081F860000020BA
:100C500017E72DE9F84F05468A4605F12C07D7F826
:100C600014800020009057F8286054461CB90120D9
:100C7000E865BDE8F88FB86948B9284600F0DCF9A6
:100C800008B90120F5E7D7F8148057F828604FF02D
:100C9000000B1CE03069206068696060706920B1F9
:100CA000A4687069206068696060F068C0F30E0035
:100CB000009000BF08F10108B8F1040F01D3A8F1BA
:100CC000040800BF57F82860A4680BF1010BB8694D
:100CD000401E5845DED8F068C0F30E010098A1EB25
:100CE0000009306920606869484502D3C4F804905F
:100CF0000DE0706948B168696060A468706920603F
:100D00006869A9EB0000606001E00120B1E7002004
:100D1000AFE72DE9F04180460E4608F12C046569E5
:100D2000A06930B9404600F087F910B90120BDE84C
:100D3000F08100BFA069401E0544042D00D32D1F83
:100D400000BF54F82570F868C0F30E003060002032
:100D5000EDE7000010B50446206800F58050D0F89B
:100D6000600100F04000402812D1206800F580505A
:100D7000D0F8340100F04000402809D1204600F0AE
:100D80009BFA48F24001206800F58050C0F86011DD
:100D9000206800F58050D0F8600100F0010088B1B3
:100DA000206800F58050D0F8340100F0010048B10F
:100DB000204600F0C2FB48F20101206800F5805097
:100DC000C0F86011206800F58050D0F8600100F490
:100DD0008040B0F5804F41D1206800F58050D0F8B8
:100DE000340100F48040B0F5804F37D1E06D40F021
:100DF0000800E065206800F58050D0F8600100F43C
:100E00008050B0F5805F17D1206800F58050D0F891
:100E1000600141F2021108402066206800F5805010
:100E2000D0F8340120F44041206800F58050C0F82B
:100E30003411E02060650EE0206800F58050D0F8A5
:100E4000600100F4CD4020664FF4CD41206800F5EC
:100E50008050C0F860112046FFF7EEFD2068D0F802
:100E6000B00000F4C040B0F5C04F0AD12068D0F8FF
:100E7000B8006066E0206065204600F05CF9002064
:100E800060662068D0F8B00000F0100010280AD189
:100E90002068D0F8C00000F06000A066204600F096
:100EA000CDF90020A0662068D0F8B00000F0200046
:100EB00020280AD12068D0F8C00000F00F00E066BA
:100EC0002046FFF7DAFD0020E0660648006800F4DF
:100ED000800030B14FF4800002490860204600F0E5
:100EE0002DFB10BDA800005838B504460CB90120F0
:100EF00038BD606D10B9204600F01EF923206065F2
:100F000000BF4B48006840F00200494908600846AD
:100F1000006800F00200009000BF00BF207A18B9FE
:100F2000002002F0D3F803E04FF4000002F0CEF806
:100F3000206800F58050006840F00101206800F54D
:100F40008050016000F04AFC05460BE000F046FCD2
:100F5000401BB0F5FA7F05D90420E065E02060650C
:100F60000120C5E7206800F58050006800F001000E
:100F70000028EBD1204609F097FA01F063FD2D49D6
:100F8000B0FBF1F0401E2168C1F8DC00204609F0FA
:100F900085F8206800F58050D0F8000120F4E010BA
:100FA00040F40021206800F58050C0F80011207D39
:100FB00000F0030028B10120E065E0206065012019
:100FC00096E7206800F58050D0F8080147F6FE71DA
:100FD0008843616940EA4101206800F58050C0F80B
:100FE0000811204609F037FA204609F003FA606834
:100FF00000796168497940EA01202168C1F800035D
:101000006068C07800066168897840EA01406168DC
:10101000497840EA01206168097808432168C1F8ED
:1010200004030020E06510206065A06500205FE7F4
:10103000F444025840420F00F0B5074607F12C0374
:10104000196953F82120002500240026986908B169
:101050000020F0BD3DE06D1CD06800F0805000B372
:10106000641C012C00D10E4600BF491C042900D38A
:10107000091F00BF53F82120D06800F0004058B984
:10108000D06800F0804038B10120D86100BF491C11
:10109000042900D3091F00BF19615E619C61012012
:1010A000D7E7D06800F0005050B10E46012400BFD1
:1010B000491C042900D3091F00BF53F8212008E070
:1010C000641C00BF491C042900D3091F00BF53F84A
:1010D0002120D06800F0004008B9042DBBD334B300
:1010E000314653F8212000251FE0106910604FF0B1
:1010F0008070D060506928B150699060D06840F02D
:101100000070D060D06840F00040D060186A18B11C
:10111000D06840F08040D06000BF491C042900D353
:10112000091F00BF53F821206D1CA542DDD300200C
:10113000986100BF8DE7704710B586B0044600BFC8
:101140003A48006840F001003849086008460068E5
:1011500000F00100009000BF00BF00BF084600681B
:1011600040F0020008600846006800F002000090AD
:1011700000BF00BF00BF0846006840F004000860E0
:101180000846006800F00400009000BF00BF022085
:1011900004900290002003900B200590862001907F
:1011A00001A9234800F016FA4FF46050019001A9FC
:1011B000204800F00FFA3220019001A91E4800F0EB
:1011C00009FA002207213D2000F0E6FB3D2000F057
:1011D000D5FB00BF15480838006840F400401349AB
:1011E000083908600846006800F40040009000BF1D
:1011F00000BF00BF0846006840F480300860084621
:10120000006800F48030009000BF00BF00BF0846B7
:10121000006840F4003008600846006800F40030C0
:10122000009000BF00BF06B010BD0000E0440258AF
:1012300000000258000402580008025870472DE9C7
:10124000F04704460F46904699462068D0F80002C1
:1012500000F0010010B10120BDE8F0872068D0F84F
:10126000005225F0787040EA475525F4F81040EA1E
:10127000084545F00C0545F001052068C0F800520E
:1012800000F0ACFA064607E000F0A8FA801BB0F5C3
:101290007A7F01D90120DFE72068D0F8000200F052
:1012A00001000028F0D12068D0F8040280B2C9F80B
:1012B00000000020D0E7000010B5044601480AF005
:1012C00051FE10BD5C50002470B504460D460DB9AA
:1012D000012070BDA06D102805D12946204608F0D8
:1012E000BFFF0020F5E70120F3E7000070B50646D8
:1012F0003068D0F8004224F4706401F0A3FB054686
:101300001348854205D31348854202D244F4007441
:101310001AE01048854205D30F48854202D244F4B2
:10132000407411E00C48854203D30C48854200D23A
:101330000AE00A48854205D30948854202D244F4AE
:10134000807401E044F480643068C0F8004270BDED
:10135000002D3101C00E16020087930300E1F50550
:1013600080D1F0080146486D10283FD12320486500
:101370000868006840F002000A68106008680068A9
:1013800040F001000A6810600868D0F8000D40F0D5
:1013900001000A68C2F8000D086800F58050D0F816
:1013A000040140F00102086800F58050C0F80421F3
:1013B000086800F58050D0F8080140F00102086884
:1013C00000F58050C0F80821086800F58050D0F87A
:1013D000600140F48172086800F58050C0F8602117
:1013E0001020486522208865002070470120FCE716
:1013F0000146486D90B323204865086800F5805089
:10140000D0F8040120F00102086800F58050C0F80F
:101410000421086800F58050D0F8080120F001028E
:10142000086800F58050C0F808210868006820F0BE
:1014300001000A6810600868D0F8000D40F0010053
:101440000A68C2F8000D0868006820F002000A6807
:10145000106010204865886500207047FFE7012074
:10146000FBE72DE9F04104460F46154637B9E06D1C
:1014700040F00100E0650120BDE8F081606D1028BA
:1014800059D100223946204609F04AF828B1E06DCA
:1014900040F00200E0650120EEE704F11800A16AC7
:1014A00050F8218000BFA06A401CA062A06A0428F6
:1014B00002D3A06A001FA06200BF04F11800A16A55
:1014C00050F82110206800F58050C0F8201100F07D
:1014D00085F9064625E0206800F58050D0F86001C7
:1014E00000F4805068B1E06D40F00800E0652068CD
:1014F00000F58050D0F860012066E0206065012092
:10150000BAE7681C68B100F069F9801BA84200D8EE
:101510003DB9E06D40F00400E065102060650120F9
:10152000AAE7D8F80C0000F000400028D3D1102022
:1015300060650020A0E701209EE77047704700002B
:101540002DE9F04705460F46904699462868D0F8A1
:10155000000200F0010010B10120BDE8F08728680A
:10156000D0F8004224F0787040EA475424F4F81090
:1015700040EA084424F00C00041D44F001041FFA62
:1015800089F00D4908600D48C0F8004200F026F9C6
:10159000064607E000F022F9801BB0F57A7F01D9FA
:1015A0000120DAE72868D0F8000200F001000028E6
:1015B000F0D100BFD1E70000048202400080024069
:1015C0000248016841F001010160704720040058A1
:1015D000704700002DE9F84F714C00234FF0B04EDA
:1015E0004FF001094FF0030B4FF00F0AD0E000BF9E
:1015F00009FA03F812EA080274D04D68022D01D0EE
:10160000122D0FD1DD085F0700EB850500950E69EF
:101610002D6AFF0E0AFA07FCBE4025EA0C052E4390
:10162000009D2E625D000F7906680BFA05FC07F03D
:10163000030726EA0C06AF40374307604E68012EC9
:1016400005D0022E03D0112E01D0122E0FD18668A4
:10165000CF6826EA0C06AF403743876046680F79AB
:1016600026EA0806C7F300179F4037434760C6685D
:101670008F6826EA0C06AF403743C7604D68ED001F
:1016800030D5484D2E6846F002062E602D6823F0B6
:10169000030606F1B04605F0020500959D072F0FE1
:1016A000D6F80854DFF800810AFA07FC404525EA1D
:1016B0000C0502D14FF0000C41E0DFF8F0C06045AE
:1016C00002D14FF0010C3AE0DFF8E4C0604502D1EE
:1016D0004FF0020C33E0DFF8DCC0604503D14FF07F
:1016E000030C2CE053E0DFF8D0C0604502D14FF08E
:1016F000040C24E0DFF8C4C0604502D14FF0050CB3
:101700001DE0DFF8BCC0604502D14FF0060C16E0CA
:10171000DFF8B0C0604502D14FF0070C0FE0DFF8F2
:10172000A8C0604502D14FF0080C08E0DFF89CC06B
:10173000604502D14FF0090C01E04FF00A0C0CFAA1
:1017400007FC4CEA050CC6F808C425684E6825EA73
:101750000205F60300D51543256065684E6825EA45
:101760000205B60300D5154365604F687546DEF87F
:101770000060FF0226EA020600D516432E604F687D
:101780006E68BF0226EA020600D516436E605B1C37
:101790000A6832FA03F57FF42BAFBDE8F88F00003A
:1017A00080000058F4440258000002580004025817
:1017B00000080258000C0258001002580014025889
:1017C00000180258001C0258002002580024025839
:1017D00001480068000C70470010005C01488068F8
:1017E000704700007C01002402488168027811449F
:1017F000816070477C010024032010B500F0ECF8F4
:1018000001F05AF90E490F4A0F4B0C68C4F3032438
:10181000145D04F01F04E0401860096801F00F0136
:10182000515C01F01F01C84008490860002000F029
:101830000FF808B1012010BD00F078F8002010BDAD
:1018400018440258100D0108740100247801002486
:1018500070B50D4D04462878A0B14FF47A71B1FBF4
:10186000F0F00A490968B1FBF0F001F03AFC48B920
:10187000102C07D200222146501E00F08DF80020C7
:101880006C6070BD012070BD7C01002474010024D7
:10189000F0B5154C4378211D0A1D23600378F3B180
:1018A00043680B60057BC67A817A437B2D07847B76
:1018B00045EA0665C77B90F809C0067A90F800E013
:1018C00045EAC14040EA834040EA444040EA0740DC
:1018D00040EA0C2040EA460040EA0E0001E0002009
:1018E00008601060F0BD000098ED00E0BFF35F8F6E
:1018F000044800210368034A23F4803303607032F4
:101900001160704724ED00E0074A40F001000649ED
:1019100070321060086840F480300860BFF34F8F69
:10192000BFF36F8F7047000024ED00E010B5032077
:1019300000F052F800221146501E00F02DF810BDA4
:10194000002809DB410900F01F028900012001F194
:10195000E0219040C1F88002704700280DDB41096A
:1019600000F01F028900012001F1E0219040C1F840
:101970008001BFF34F8FBFF36F8F7047002809DBE3
:10198000410900F01F028900012001F1E02190408F
:10199000C1F80001704700000E4BF0B41B680D4603
:1019A000C3F30223C3F10706042E00D90426191D30
:1019B000072901D2002300E0DB1E012404FA06F10E
:1019C0009C40491E2940641E994014402143F0BCAC
:1019D00009F0A3B80CED00E0064900F0070210B5CD
:1019E0004FF6FF040868044B204040EA02201843E9
:1019F000086010BD0CED00E00000FA050248016827
:101A000041F48071016070470048025870B5044687
:101A10001748016841F002010160016821F00201EC
:101A20000160FFF7D5FE41F20301884203D86068E8
:101A3000B0F1405F17D094E80700084310430D4908
:101A4000258AE2680B1D024342EA054018600868D7
:101A5000626920F47C5040EA02200860086840F087
:101A60006000086070BDA16820680843E7E70000D7
:101A7000944402580084004010B501F01DF8064A55
:101A800006491268064BC2F303229A5C02F01F0259
:101A9000D040086010BD00001844025874010024B2
:101AA000100D010810B500F0CDFF05490968054A81
:101AB000C1F30211515C01F01F01C84010BD0000CC
:101AC00020440258100D0108494930B5484C0B1DFF
:101AD0000A68143409681D68246802F00303C5F31A
:101AE0000012C1F30531C4F3CC04002914FB02F247
:101AF00000EE102AF8EE400A75D03F4A9FED3D1ADD
:101B0000B7EE000A6BB1DFED3D1A012B01D0022BBD
:101B100064D002EE101A1168F8EE422A81EEA22A71
:101B200021E0334C283C23689B0612D5344B2468B3
:101B300001EE901A1168C4F3C104F8EE612AE34083
:101B400001EE903AC1F30801F8EE611A81EEA22A83
:101B50000BE001EE901ADFED2B2A00BFF8EE611AC0
:101B6000116882EEA12AC1F3080101EE901A1168F2
:101B7000F8EE611A40EE811A71EE800A62EE200AD8
:101B8000C1F3462101EE101AB8EE411A31EE001AE7
:101B9000C0EE811ABCEEE11A80ED001A1168C1F3A3
:101BA000064101EE101AB8EE411A31EE001AC0EEED
:101BB000811ABCEEE11A80ED011A1168C1F30661C9
:101BC00001EE101AB8EE411A31EE000A80EE801ACA
:101BD000BCEEC10A80ED020A30BD04E001EE901AAD
:101BE000DFED092ABAE70021016041608160F3E777
:101BF0002844025800000039384402580024744A2E
:101C00000090D0030024744C20BCBE4B494930B531
:101C1000484C0B1D0A681C3409681D68246802F0D2
:101C20000303C5F30022C1F30551C4F3CC0400291A
:101C300014FB02F200EE102AF8EE400A75D03F4A7B
:101C40009FED3D1AB7EE000A6BB1DFED3D1A012B97
:101C500001D0022B64D002EE101A1168F8EE422A6D
:101C600081EEA22A21E0334C283C23689B0612D542
:101C7000344B246801EE901A1168C4F3C104F8EEE5
:101C8000612AE34001EE903AC1F30801F8EE611ACF
:101C900081EEA22A0BE001EE901ADFED2B2A00BFA5
:101CA000F8EE611A116882EEA12AC1F3080101EE73
:101CB000901A1168F8EE611A40EE811A71EE800AEE
:101CC00062EE200AC1F3462101EE101AB8EE411A65
:101CD00031EE001AC0EE811ABCEEE11A80ED001A56
:101CE0001168C1F3064101EE101AB8EE411A31EE47
:101CF000001AC0EE811ABCEEE11A80ED011A1168DB
:101D0000C1F3066101EE101AB8EE411A31EE000A75
:101D100080EE801ABCEEC10A80ED020A30BD04E0FC
:101D200001EE901ADFED092ABAE700210160416057
:101D30008160F3E72844025800000039404402580B
:101D40000024744A0090D0030024744C20BCBE4B85
:101D50006C4B6FF0A05170B56A4A01601C68183274
:101D6000191DC4F3055444621568664C1034C5F35C
:101D700008056D1C85621568C5F306656D1C456315
:101D80001568C5F346256D1CC5621268C2F306428C
:101D9000521C02630A68C2F381228263594A0D68A9
:101DA0002C32C5F34025C5631B68C3F3053343607C
:101DB0002368C3F308035B1C83602568131DC5F308
:101DC00006656D1C45612568C5F346256D1CC5601B
:101DD0002468C4F30644641C04610C68C4F38114D1
:101DE00084610968C1F34011C161116801F03801D3
:101DF00081671468111F04F0070444671C6804F02D
:101E00000704C0F89040146804F44054C0F88040BF
:101E1000146804F0E044C0F88C401C68394E04F4A7
:101E2000E054C0F898401C68483604F46044C0F898
:101E30009C400C6804F0070444650D680C1F05F411
:101E4000E07585651D6805F46005C0F8A4501D683F
:101E500005F0E065C0F8A8502A4D3668183D06F434
:101E60004076C0F8B060166806F44016C0F884608A
:101E7000266806F48036C664166806F44076C6679F
:101E80002E6806F48046C0F8B4601E6806F440363A
:101E9000C0F8A0600E6806F0004606670E6806F0FF
:101EA000807686660E6806F4401646660E6806F46E
:101EB000E046C6650E6806F4E02606661B6803F079
:101EC000E043C0F8AC30096801F04051C1661168C8
:101ED00001F44001C0F88810216801F00301416459
:101EE000216801F030018164216801F040510165F1
:101EF0002968090401D4002101E04FF40041C0F831
:101F0000B81070BD284402582DE9FC5F044650F813
:101F1000241B002500902E460801FE4FDFF8F883B1
:101F20001DD5606E50B1B0F5801F0CD0B0F5001F0C
:101F30000ED0B0F5401F1DD001250FE0386840F4E9
:101F40000030386016E00221201D08F0F7FD03E0A4
:101F50000098022108F082FE05000BD02E46208852
:101F6000C00523D5606D05281ED2DFE800F00C11F6
:101F7000161B1B00626ED8F8001021F440111143AB
:101F8000C8F80010EBE7386840F40030386009E02A
:101F90000021201D08F0D2FD03E00098002108F088
:101FA0005DFE05466DB100E001252E4620888005C6
:101FB00028D5A06D80281ED00CDC90B140280ED111
:101FC00014E0626DD8F8001021F007011143C8F841
:101FD0000010EBE7C02813D0B0F5807F10D00125AA
:101FE0000FE0386840F40030386009E00021201D1F
:101FF00008F0A4FD03E00098002108F02FFE05463C
:1020000095B12E462088DFF81093400509F10809A4
:102010002CD5D4F8A400B0F5800F20D00DDCA0B1F1
:10202000B0F5001F0FD115E0A26DD8F8001021F413
:10203000E0711143C8F80010E4E7B0F5C00F13D009
:10204000B0F5000F10D001250FE0386840F40030E3
:10205000386009E00021201D08F070FD03E00098C1
:10206000002108F0FBFD054675B12E4620880005CD
:102070002DD5D4F8A800B0F1007F21D00EDCA8B196
:10208000B0F1807F10D116E0D4F8A420D9F8001068
:1020900021F460011143C9F80010E7E7B0F1407F77
:1020A00013D0B0F1806F10D001250FE0386840F4F4
:1020B0000030386009E00021201D08F03FFD03E0FA
:1020C0000098002108F0CAFD05468DB12E46206813
:1020D000DFF844B28001ABF1040B1FD5A06CD8B17E
:1020E00010280FD0202812D0302815D0012514E058
:1020F000D4F8A820D9F8001021F0E0611143C9F804
:102100000010E4E7386840F40030386004E0022151
:10211000201D08F013FD05466DB12E462088C00431
:102120002BD5E06DB0F5005F20D00DDCA0B1B0F58F
:10213000805F0FD115E0A26CDBF8001021F03001B8
:102140001143CBF80010E9E7B0F5405F13D0B0F5CC
:10215000804F10D001250FE0386840F4003038601F
:1021600009E00021201D08F0E9FC03E000980021AF
:1021700008F074FD054685B12E462088800429D5D7
:10218000206EB0F5403F23D010DC08B3B0F5803F9F
:1021900014D0B0F5003F0FD115E0E26DD8F8001073
:1021A00021F4E0411143C8F80010E6E7B0F5802FB4
:1021B0000ED0B0F5A02F0BD001250AE00121201D83
:1021C00008F0BCFC03E00098012108F047FD05463B
:1021D0008DB12E46208840042AD5D4F8AC00B0F149
:1021E000405F23D010DC08B3B0F1805F14D0B0F1B1
:1021F000005F0FD115E0226ED8F8001021F4E02125
:102200001143C8F80010E5E7B0F1804F0ED0B0F1EF
:10221000A04F0BD001250AE00121201D08F08EFC03
:1022200003E00098012108F019FD05466DB12E4626
:10223000208800041FD5E06ED8B1B0F1805F0ED0C9
:10224000B0F1005F10D0012514E0D4F8AC20D9F82B
:10225000001021F0E0411143C9F80010E8E73868A8
:1022600040F40030386004E00121201D08F066FCD5
:1022700005466DB12E462068C0011ED5606CD0B1F8
:1022800001280ED0022811D0032814D0012513E014
:10229000E26ED8F8001021F040511143C8F8001048
:1022A000E9E7386840F40030386004E00221201D7E
:1022B00008F044FC054665B12E462068400257D51B
:1022C0001648016841F480710160FFF787FA824681
:1022D0000EE0626CDBF8001021F003011143CBF833
:1022E0000010EAE7FFF77AFAA0EB0A0064283DD86D
:1022F0000A480068C005F5D57DBBDFF81CA0B4F81E
:10230000B0100AF1200ADAF8000001F4407100F47C
:10231000407005E02C4402585044025800480258CE
:10232000884211D0DAF80010DAF8002021F4407168
:1023300042F48032CAF80020DAF8002022F4803219
:10234000CAF80020CAF80010D4F8B000B0F5807FB9
:1023500021D1FFF743FA019019E008E0FFF73EFAB8
:102360000199411A41F28830814210D903252E4645
:102370002078DFF80CA4C0073DD0A06F182838D013
:1023800026DC80B3082829D0102825D12CE0DAF8E3
:1023900000008007E2D5D4F8B010C1F30120032873
:1023A000F8480DD0016821F47C510160B4F8B020E8
:1023B000DAF80010C2F30B021143CAF80010D7E795
:1023C000F14A036802EA111223F47C511143ECE74D
:1023D00020280ED028280CD001250BE00121201D3B
:1023E00008F0ACFB04E004E00098012108F036FCA2
:1023F00005465DB12E46207880071ED5606F062801
:1024000019D2DFE800F0160C11161616A26FDAF8D2
:10241000001021F038011143CAF80010EBE7012148
:10242000201D08F08BFB03E00098012108F016FC4A
:10243000054675B100E001252E46207840071FD5DE
:10244000D4F89000062819D2DFE800F0160C111617
:102450001616626FDAF8001021F007011143CAF86E
:102460000010EAE70121201D08F068FB03E0009856
:10247000012108F0F3FB05469DB100E001252E4641
:10248000207880062BD5D4F88C00B0F1405F24D0A2
:1024900011DC10B3B0F1805F15D0B0F1005F10D146
:1024A00016E0D4F89020D9F8001021F0070111436C
:1024B000C9F80010E4E7B0F1804F0ED0B0F1A04FA2
:1024C0000BD001250AE00021201D08F037FB03E0B6
:1024D0000098022108F0C2FB05468DB12E462078F7
:1024E00040062BD5D4F89800B0F5406F24D011DC0D
:1024F00010B3B0F5806F15D0B0F5006F10D116E0B5
:10250000D4F88C20DAF8001021F0E0411143CAF829
:102510000010E4E7B0F5805F0ED0B0F5A05F0BD0FF
:1025200001250AE00021201D08F008FB03E00098C7
:10253000022108F093FB05468DB12E462078000657
:102540002BD5D4F89C00B0F5C04F24D011DC10B3CB
:10255000B0F5005F15D0B0F5804F10D116E0D4F87B
:102560009820D9F8001021F4E0511143C9F8001067
:10257000E4E7B0F5004F0ED0B0F5204F0BD00125A9
:102580000AE00021201D08F0D9FA03E0009802219A
:1025900008F064FB05464DB12E46207800071ED595
:1025A000D4F88000B0F5805F0AD00FE0D4F89C200A
:1025B000D9F8001021F460411143C9F80010ECE78C
:1025C0000098022108F04AFB00B10126D4F88020CF
:1025D000DAF8001021F440511143CAF800102078B5
:1025E000C00613D5D4F89400B0F5807F05D10098CB
:1025F000022108F033FB00B10126D4F89420D9F869
:10260000001021F440711143C9F800102068000344
:1026100016D5D4F8A00038B1B0F5803F09D0B0F598
:10262000003F0BD001250AE00021201D08F086FAAA
:1026300003E00098022108F011FB054685B12E4603
:102640002068400322D5D4F88400B0F5801F11D053
:10265000B0F5001F13D0B0F5401F15D0012514E0D0
:10266000D4F8A020D9F8001021F440311143C9F862
:102670000010E5E7386840F40030386004E0009866
:10268000012108F0EBFA054655B12E462068C0033B
:102690001CD5E06C70B1B0F5803F10D0012514E07E
:1026A000D4F88420DAF8001021F440111143CAF85C
:1026B0000010EBE7386840F40030386004E0022195
:1026C000201D08F03BFA0546CDB12E46206880005B
:1026D00005D50098022108F0C1FA00B10126206852
:1026E00080031BD5E06FB8B1B0F5807F10D0B0F596
:1026F000007F11D0B0F5407F0ED001250DE0E26CD7
:10270000DBF8001021F480311143CBF80010DDE735
:10271000386840F400303860C5B32E462068C002E7
:1027200007D5226FD8F8001021F000411143C8F8F6
:1027300000102068800207D5A26ED8F8001021F0A2
:1027400080711143C8F800102068400009D50D4879
:10275000016821F4004101600168D4F8B8201143F8
:1027600001602068002807DA226DDBF8001021F0F4
:1027700040511143CBF8001096B10120BDE8FC9FF9
:102780005444025810440258CFFFFF00FFE7E26FA5
:10279000DAF8001021F440711143CAF80010BDE7C7
:1027A0000020EBE72DE9F05F04000F467ED0DFF854
:1027B0002482D8F8000000F00F00B8420CD2D8F8FC
:1027C000001021F00F013943C8F80010D8F80000BC
:1027D00000F00F00B84269D120787F4D40070AD53C
:1027E0002069296801F07001884204D9296821F024
:1027F0007001014329602078774E361D00070AD505
:102800006069316801F07001884204D9316821F0B3
:102810007001014331602078C0060AD5A069316893
:1028200001F4E061884204D9316821F4E061014398
:1028300031602078DFF8A0B180060BF1080B0CD5D1
:10284000E1695846DBF8002002F07002914204D999
:10285000026822F070020A430260207880070AD5DD
:10286000E068296801F00F01884204D9296821F045
:102870000F01014329602078C0073ED05649A26865
:102880002868183920F470601043286060680228B6
:1028900018D0032819D00968012819D04907002940
:1028A0004ADADFF834A1AAF1080A00E044E0DAF8D5
:1028B000002022F007020243CAF80020FEF78EFF34
:1028C000814612E009688903E9E709688901E6E7BA
:1028D000C905E4E7FEF782FFA0EB090141F2883069
:1028E000814202D90320BDE8F09F6168DAF8000058
:1028F00000F03800B0EBC10FECD1207880070AD58A
:10290000E068296801F00F01884204D2296821F0AB
:102910000F0101432960D8F80010404601F00F0173
:10292000B9420BD9016821F00F01394301600068F9
:1029300000F00F00B84201D00120D4E72078400712
:102940000AD52069296801F07001884204D22968FB
:1029500021F0700101432960207800070AD56069E1
:10296000316801F07001884204D2316821F07001B1
:10297000014331602078C0060AD5A069316801F4AE
:10298000E061884204D2316821F4E06101433160A2
:10299000207880060CD5E1695846DBF8002002F06B
:1029A0007002914204D2026822F070020A4302606F
:1029B00000F082F82968094AC1F30321515C01F053
:1029C0001F01C8400649086006480068BDE8F05F7E
:1029D000FEF73EBF0020005218440258100D0108B7
:1029E000740100248001002470B5144C3F22026061
:1029F000124A24680832131D114D04F00704446084
:102A000016681C1D06F470668660166806F00F06D0
:102A1000C660126802F0700202611A6802F0700269
:102A200042611A6802F4E0628261226802F0700278
:102A3000C261286800F00F00086070BD10440258A1
:102A40000020005210B5FFF717F8064A0649126831
:102A5000064B02F00F029A5C02F01F02D0400860A1
:102A600010BD00001844025878010024100D010820
:102A700010B5FFF7E7FF05490968054AC1F30211E0
:102A8000515C01F01F01C84010BD00001C440258F9
:102A9000100D010810B5FFF7D5FF05490968054A73
:102AA000C1F30221515C01F01F01C84010BD0000BC
:102AB0001C440258100D0108454970B54548096885
:102AC000434B103B11F0380208D00111082A03D003
:102AD000102A0BD0182A0BD0084670BD1968890639
:102AE000FBD51968C1F3C101C84070BD3A4870BD3B
:102AF0003749374D18310C1D24350A680968266896
:102B00002D6802F0030406F00102C1F30511C5F3BC
:102B1000CC0515FB02F200EE102AB8EE400AE9B32C
:102B20002F4ADFED2E0AB7EE001A6CB1DFED2D1A39
:102B3000012C01D0022C43D002EE101A1068F8EEDE
:102B4000422A81EEA22A1EE01C68A40611D51B6849
:102B500001EE901A1168C3F3C103F8EE612AD84060
:102B600001EE900AC1F30800F8EE611A81EEA22A84
:102B70000BE001EE901ADFED1C2A00BFF8EE611A9F
:102B8000106882EEA12AC0F3080001EE900AF8EE68
:102B9000611A40EE201A31EE810A00E015E022EEC3
:102BA000000A1068C0F34620401C00EE900AF8EEC0
:102BB000600A80EE201ABCEEC10A10EE100A70BD49
:102BC00001EE901ADFED092AD8E7002070BD000061
:102BD000104402580090D00340787D010000003975
:102BE000304402580024744A0024744C20BCBE4B6C
:102BF0002DE9F05F04006FD0FF4F41F28838207854
:102C0000FD4D1837DFF8F0A3103DC00748D0DAF8C3
:102C10000000396800F03800102815D0182803D1BA
:102C200001F0030002280FD06068B0F5803F12D099
:102C300010B1B0F5A02F18D0286820F4803028609B
:102C4000286820F4802009E02868800328D560687F
:102C50000028D0D024E0286840F4803028606068E4
:102C600088B1FEF7BBFD064609E0286840F48020E5
:102C70002860F0E7FEF7B2FD811B41457ED8286849
:102C80008003F7D50CE0FEF7A9FD064605E000BF7E
:102C9000FEF7A4FD811B4145F0D828688003F7D4D6
:102CA000207841F20309D44E0C3E80074BD5DAF868
:102CB0000000396810F038000FD0182801D18807BB
:102CC0000BD0E06868B3296821F01901014329603D
:102CD000FEF784FD834619E0CFE02868400702D55F
:102CE000E068002887D0FEF773FD484512D82069B8
:102CF000316821F47C3141EA0030306023E000BFCC
:102D0000FEF76CFDA0EB0B000228B7D8286840073F
:102D1000F6D5E8E7207C316821F0FE4141EA006009
:102D2000EBE7286820F001002860FEF757FD834696
:102D300006E000BFFEF752FDA0EB0B0002289DD875
:102D400028684007F6D42078C00651D5DAF800008C
:102D5000396800F03800082811D0182803D101F094
:102D6000030001280BD0E0690028286830D040F02B
:102D700080002860FEF732FD834621E0D4E0286819
:102D8000C00520D5E069802877D11CE094F82000A8
:102D9000316821F0F84141EA8060306028E09648CF
:102DA00094F82010001F026822F07C5242EA016170
:102DB00001601DE0FEF712FDA0EB0B000228A4D875
:102DC0002868C005F6D5FEF703FD4845E7D8DDE7DE
:102DD00020F080002860FEF701FD064605E000BFF8
:102DE000FEF7FCFC801B02288FD82868C005F7D4AA
:102DF0002078000729D58048616964300029814620
:102E0000016811D041F001010160FEF7E7FC0646C0
:102E100005E000BFFEF7E2FC801B02288FD8D9F83E
:102E200000008007F6D510E021F001010160FEF7F7
:102E3000D5FC064605E000BFFEF7D0FC801B02284B
:102E400072D8D9F800008007F6D42078800625D5FE
:102E5000A0690028286811D040F480502860FEF74F
:102E6000BDFC064605E000BFFEF7B8FC801B02284B
:102E70005AD828688004F7D510E022E120F4805069
:102E80002860FEF7ABFC064605E000BFFEF7A6FC97
:102E9000801B022848D828688004F7D4207840078F
:102EA0004DD5DFF85891D9F8001041F48071C9F878
:102EB0000010FEF793FC064605E000BFFEF78EFC0F
:102EC000801B642830D8D9F80000C005F6D54A4EDA
:102ED000A068603601280AD008B1052811D03068F2
:102EE00020F001003060306820F0040002E030681B
:102EF00040F001003060A06890B1FEF76FFC8146A1
:102F00000AE0306840F004003060F0E7FEF766FC4D
:102F1000A0EB0901414507D830688007F6D50EE0DF
:102F2000FEF75CFC814607E065E000BFFEF756FC5B
:102F3000A0EB090141455ED830688007F6D4606A8D
:102F4000F0B3DFF8B480DAF8001008F12008C1F31C
:102F5000C201032977D00228286820F080702860F9
:102F600003D0FEF73BFC044680E0FEF737FC064644
:102F700005E000BFFEF732FC801B022873D82868EA
:102F80008001F7D4E26A40F2F331386854F8283F00
:102F9000884340EA021018433860217B4FF4FE0C4E
:102FA00022894FF0FE47208A4902267D521E401E8C
:102FB000A1F5007189B20CEA0040C2F3080200E0FA
:102FC00081E01143761E01430B4807EA0662114374
:102FD000094A1C30C8F800102432016821F00101B0
:102FE000016011684FF6F876236AB14341EAC301E4
:102FF0001160016804E036E01044025800480258AD
:10300000A26921F00C01114301600168E26921F01D
:10301000020111430160016841F4803101600168DF
:1030200041F400310160016841F4802101600168D0
:1030300041F001010160286840F080702860FEF7CF
:10304000CDFB044605E015E0FEF7C8FB001B022897
:1030500009D828688001F7D535E000BFFEF7BEFB30
:10306000001B022802D90320BDE8F09F28688001D8
:10307000F4D428E039680128D8F8000021D0A26AE9
:1030800001F0030393421CD1E26AC1F305118A42A5
:1030900017D1216BC0F30802491E8A4211D1616B1E
:1030A000C0F34622491E91420BD1A16BC0F30642E8
:1030B000491E914205D1E16BC0F30660491E814271
:1030C00001D00120D0E70020CEE7000003490A68C4
:1030D00022F4600202430A607047000004040058B2
:1030E0007047401EB0F1807F10B501D3012010BDA4
:1030F0004FF0E02460610F21601707F00EFD002003
:10310000A0610721216110BD10B5FFF7E9FF10BDD7
:10311000704770477047000010B5042204460068ED
:1031200007F02CFE2068094A416C41F400414164DB
:10313000206881681140062906D0B1F5803F03D090
:10314000016841F001010160002010BD070001008D
:1031500010B504220446006807F010FE2068094AF2
:10316000416C41F4004141642068816811400629A6
:1031700006D0B1F5803F03D0016841F00101016044
:10318000002010BD0700010010B5040003D094F822
:103190003D0010B107E0012010BD002084F83C0084
:1031A000204600F00CF8022084F83D002068211D24
:1031B00000F040FE012084F83D00002010BD70B5F5
:1031C000051F044608F0B4FA206808F087FFD5E927
:1031D0001112FEF7E1FB206808F080FFFEF7CEFB3E
:1031E000206808F0DDFE0646206808F077FF86427A
:1031F0000DD0206808F0D4FED5E91112FEF7CCFB03
:10320000206808F0CDFEBDE87040FEF7B7BB70BD8A
:103210000A4B022180F83D1001688A681A40062A8C
:1032200006D0B2F5803F03D00A6842F001020A607E
:10323000012180F83D1000207047000007000100C8
:1032400002F010BD2DE9F041044690F83C000D4617
:1032500001283DD0012684F83C60022084F83D001E
:10326000AAB3042A46D02068082A55D0D5E90032EE
:10327000E968076A4FF6FF7C4FF4204E27F4805729
:1032800007620CEA0131C769D0F820C00EEA0333A7
:1032900027F4407747EA02222CF4204C22F47042B3
:1032A0001143C16143EA0C0303622068C16921F440
:1032B0004061C1612068A968C26942EA0121C16117
:1032C000002084F83D6084F83C00BDE8F08101E016
:1032D0000220FAE7EB682068D5E9001200F066FEEC
:1032E0002068816921F00C01816120688169AA68E8
:1032F00011430FE0EB682068D5E9001207F0F2FBFC
:103300002068816921F44061816120688169AA682F
:1033100041EA02218161D3E7D5E90023297B076ACD
:103320004FF4206C0CEA0222090727F48077076229
:10333000C769D0F820C027F003071F432CF4206C86
:1033400027F0F00342EA0C0243EA1161C161026214
:103350002068C16921F00C01C1612068AA68C169B7
:103360001143ACE710B501220446006800F0C4FD2B
:103370002068074A81681140062906D0B1F5803FD0
:1033800003D0016841F001010160002010BD000080
:103390000700010070B50446006800250169C943B3
:1033A000890715D4C168C943890711D4EA1E02618F
:1033B00001212177206880698007204602D0FFF72D
:1033C0003FFF04E000F0E0F8204600F0A9F925777F
:1033D00020680169C943490717D4C168C94349072F
:1033E00013D402216FF00402026121772068806902
:1033F00010F4407F204602D0FFF722FF04E000F0E7
:10340000C3F8204600F08CF9257720680169C9438C
:10341000090716D4C168C943090712D404216FF003
:103420000802026121772068C0698007204602D027
:10343000FFF706FF04E000F0A7F8204600F070F95F
:10344000257720680169C943C90617D4C168C943F3
:10345000C90613D408216FF0100202612177206899
:10346000C06910F4407F204602D0FFF7E9FE04E077
:1034700000F08AF8204600F053F9257720680169AA
:10348000C943C90708D1C168C943C90704D1891E06
:103490000161204600F07CF920680169C9430906F2
:1034A00009D4C168C943090605D46FF080010161E0
:1034B0002046FFF72EFE20680169C943C90509D4DB
:1034C000C168C943090605D46FF4807101612046C3
:1034D000FFF71EFE20680169C943490609D4C16887
:1034E000C943490605D46FF040010161204600F050
:1034F00051F920680169C94389060BD4C168C943E1
:10350000890607D46FF0200101612046BDE87040B4
:10351000FFF700BE70BD70B5044690F83C0001286E
:103520000ED0012584F83C50022084F83D000C2A7E
:1035300019D007DC5AB1042A0DD0082A1ED10EE09A
:10354000022070BD102A12D0142A17D113E020686F
:1035500007F08CF912E0206800F0DCFC0EE0206837
:1035600007F0D8F90AE0206807F01AFA06E02068A8
:1035700007F04CFA02E0206807F07EFA002084F899
:103580003D5084F83C0070BD02F06CBB10B50122C8
:103590000446006800F0B0FC1148216881420BD05D
:1035A0001048814208D01048814205D00F4881421E
:1035B00002D00F48814203D1486C40F40040486477
:1035C00020680C4A81681140062906D0B1F5803F79
:1035D00003D0016841F001010160002010BD00002E
:1035E000000001400004014000400140004401404F
:1035F000004801400700010070B5044690F83C0007
:103600000D4601280ED0012684F83C60022084F883
:103610003D000C2A45D007DC5AB1042A1BD0082AE9
:1036200078D12CE0022070BD102A4ED0142A71D11E
:103630005DE0206807F01AF92068816941F008010F
:1036400081612068816921F00401816120682A6913
:103650008169114311E0206800F05CFC20688169F9
:1036600041F4006181612068816921F48061816198
:1036700020682969826942EA012181614AE0206863
:1036800007F048F92068C16941F00801C16120686C
:10369000C16921F00401C16120682A69C16911432F
:1036A00011E0206807F07CF92068C16941F40061ED
:1036B000C1612068C16921F48061C1612068296904
:1036C000C26942EA0121C16124E0206807F09EF945
:1036D0002068416D41F0080141652068416D21F08D
:1036E0000401416520682A69416D114311E0206899
:1036F00007F0C2F92068416D41F40061416520681E
:10370000416D21F48061416520682969426D42EA7A
:1037100001214165002084F83D6084F83C0070BDC3
:103720007047000010B501220446006800F0E4FB79
:103730001148216881420BD01048814208D01048BE
:10374000814205D00F48814202D00F48814203D107
:10375000486C40F40040486420680C4A816811407D
:10376000062906D0B1F5803F03D0016841F0010180
:103770000160002010BD0000000001400004014075
:1037800000400140004401400048014007000100A2
:1037900002F0D3B9704710B5040003D0D4F880000C
:1037A00010B107E0012010BD002084F87C00204605
:1037B00000F026F82420C4F880002068016821F079
:1037C00001010160204600F0D7FC0128EBD0A06A7F
:1037D00010B1204600F03CFC2068416821F4904183
:1037E00041602068816821F02A01816020680168B9
:1037F00041F0010101602046BDE8104000F08CBCA2
:10380000704700BFFEE738B50446002000906A46C6
:103810000121636920689847002802DA6FF00400EC
:1038200038BD6A460121636920689847002802DA9A
:103830006FF00400F4E7009800F0040008B90120DC
:10384000EEE76A460021636920689847002802DA9B
:103850006FF00400E4E7009800F48050B0F5805F5A
:103860001FD0009800F40050B0F5005F07D1009819
:1038700000F48070B0F5807F01D10220D0E700987D
:1038800000F40050B0F5005F01D10320C8E70098B4
:1038900000F48070B0F5807F01D10420C0E70520DE
:1038A000BEE76A461F21636920689847002802DA4C
:1038B0006FF00400B4E7009800F4805008B90620C7
:1038C000AEE7009800F01C00182801D10220A7E7FD
:1038D000009800F01C00082801D10320A0E7009800
:1038E00000F01C00142801D1042099E7052097E777
:1038F000F8B50446002700200090002500266068E7
:10390000002854D1A06808B1A0688047202020601A
:10391000002513E06A46122128466369984700286B
:1039200002DA6FF0040608E0009800F01F00A842D9
:1039300002D12560002603E000BF6D1C1F2DE9D9D0
:1039400000BF20681F2801D96FF002064EBB4FF45C
:1039500000420021236920689847002825DB6A4639
:10396000002163692068984700281BDBA069804715
:10397000074611E0A0698047C01BB0F5FA7F09D85F
:103980006A460021636920689847002804DA6FF0CE
:10399000040606E06FF00106009800F400400028DD
:1039A000E8D104E06FF0040601E06FF003065EB9B1
:1039B000A0698047074600BFA0698047C01BB0F5DB
:1039C000FA6FF9D9012060603046F8BD02462AB18D
:1039D000C86818B1886808B1086910B94FF0FF309D
:1039E0007047086890604B68D360CB6853618B6800
:1039F00013610B6993610020F2E700BFFEE7704797
:103A00007047704710B5FDF7EFFEFFF77DFB10BD67
:103A100030B5D1B04C213EA8FCF7C7FC202136A818
:103A2000FCF7C3FCBC2107A8FCF7BFFC182101A8C8
:103A3000FCF7BBFC8348006820F004008149086063
:103A400000BF002000908048006820F001007E49FF
:103A500008600846006800F00100009079480C30CA
:103A6000006840F4404077490C310860084600681F
:103A700000F44040009000BF00BF00BF71480C3010
:103A8000006800F40050B0F5005FF7D100BF6F4848
:103A9000006840F000406D4908600846006800F08A
:103AA0000040009000BF00BFFDF7A8FF00BFFDF77A
:103AB0008FFE41F20301884200D800BF63486C3892
:103AC000006820F0180061496C39086000BF2120AF
:103AD0003E904FF480303F9000204190459001206F
:103AE00044900220479002213EA881620521C162D4
:103AF000A021016302214163C16381630821016444
:103B0000002141648164FFF773F808B1FCF740FFBE
:103B10003F203690032037900020389008203990BD
:103B200040203A903B9000013C9040203D90042181
:103B300036A8FEF737FE08B1FCF72AFF4448079085
:103B4000022008900C21099105210A9102210B9174
:103B50000C91C0210D9120210E9100210F91002088
:103B60002F9025904FF4401028904FF40070339020
:103B700007A8FEF7C9F908B1FCF70AFF00BF3348F0
:103B80001030006840F002003049103108600846EB
:103B9000006800F00200009000BF00BF002001900C
:103BA0004FF0805002900020039040F2B7500490F4
:103BB000222005902020069001A8FDF727FF23482A
:103BC000DC38006840F080002049DC39086000BF24
:103BD0001E481830006840F002001C491831086087
:103BE0000846006800F00200009000BF00BFFDF72B
:103BF000E7FC184800684FF47A72B0FBF2F1481EF7
:103C0000B0F1807F00D31BE0481E4FF0E0225061EE
:103C100050170F22002804DB13071C0E0E4B1C54F8
:103C200006E013071D0E0D4B00F00F04241F1D5559
:103C300000BF00204FF0E02290610720106100BF1C
:103C400051B030BD0C4802582C040058DC440258D6
:103C500001004C007401002400E400E018ED00E0D5
:103C60002448006840F47000224908602248006837
:103C700040F001002049086000201F491031086011
:103C80001D4800681D4908401B49086000201A496A
:103C900018310860091D0860091D0860164928319F
:103CA0000860091D0860091D0860091D0860091DDC
:103CB0000860091D0860091D0860091D08600E489C
:103CC000006820F480200C49086000200A49603117
:103CD00008600B4800686FF30F00B0F1005F02D27C
:103CE0000120084908604FF00060024980390860EF
:103CF0007047000088ED00E0004402587FEDF6EACE
:103D00000010005C088100510348C06A002802D0FE
:103D1000001DFFF73FBB70479C5000240348006B19
:103D2000002802D0001DFFF735BB70479C500024CF
:103D30000348406B002802D0001DFFF72BBB7047E3
:103D40009C50002403480068002802D0001DFFF7A3
:103D500021BB70479C50002403480068002802D013
:103D6000001DFFF717BB70479C50002403484068B4
:103D7000002802D0001DFFF70DBB70479C500024A7
:103D800003488068002802D0001DFFF703BB70477E
:103D90009C5000240348C068002802D0001DFFF793
:103DA000F9BA70479C50002403480069002802D0EB
:103DB000001DFFF7EFBA70479C500024034840698C
:103DC000002802D0001DFFF7E5BA70479C50002480
:103DD00003488069002802D0001DFFF7DBBA704756
:103DE0009C5000240348006A002802D0001DFFF701
:103DF000D1BA70479C5000240348C069002802D003
:103E0000001DFFF7C7BA70479C5000240348806A22
:103E1000002802D0001DFFF7BDBA70479C50002457
:103E20000348C069002802D0001DFFF7B3BA7047ED
:103E30009C5000242DE9F047274B4FF0804A274D36
:103E400002689842264E274F274C09D0504507D08C
:103E5000A84205D0B04203D0B84201D0A04205D15B
:103E6000D1F804C022F070024CEA0202DFF87CC0F4
:103E7000DFF87C809842DFF87C900FD050450DD061
:103E8000A8420BD0B04209D0B84207D0A04205D01A
:103E9000604503D0404501D0484503D1CD6822F4A8
:103EA00040722A434D6922F080022A430260984200
:103EB0008A68C2620A68826207D0A04205D0604563
:103EC00003D0404501D0484501D109690163012172
:103ED0004161BDE8F087000000000140000400409F
:103EE00000080040000C0040000401400040014078
:103EF000004401400048014010B5046A012301F06C
:103F00001F018B409C4304628A40016A1143016295
:103F100010BD0000F0B5026A1E4E1F4C22F01002C8
:103F2000DFF878E00262056A4368826925F02005BF
:103F3000D1F808C0A0420F6802EA060222F44072DB
:103F400045EA0C1542EA072201D0704506D1CE6839
:103F500025F0800545EA061525F04005A0420AD067
:103F6000704508D00E4CA04205D00E4CA04202D0A5
:103F70000D4CA04207D1D1E9054623F4406343EA42
:103F8000840343EA86034360826149688163056272
:103F9000F0BD0000FF8FFFFE000001400004014063
:103FA00000400140004401400048014070B5046AEF
:103FB000174D24F001040462A8428469056A14D0F4
:103FC000B0F1804F11D0134EB0420ED0124EB0421D
:103FD0000BD0124EB04208D0114EB04205D0114E57
:103FE000B04202D0104EB04203D124F00304144377
:103FF00001E044F001041A0724F0F00325F00A045C
:1040000001F00A01214343EA12628261016270BD3C
:10401000000001400004004000080040000C004087
:10402000000401400018004000400140014801F038
:1040300029BA0000844B0024014801F023BA000093
:104040001C4C0024014801F01DBA00004C4D002416
:1040500090F82810C90706D00168C36A4A6822F49C
:1040600000321A434A6090F82810890706D5016883
:10407000036B4A6822F480321A434A6090F8281091
:10408000490706D50168436B4A6822F480221A4327
:104090004A6090F82810090706D50168836B4A68C2
:1040A00022F400421A434A6090F82810C90606D547
:1040B0000168C36B8A6822F480521A438A6090F8C0
:1040C0002810890606D50168036C8A6822F400521C
:1040D0001A438A6090F82810490611D50168436C8C
:1040E0004A6822F480121A434A60416CB1F5801F7D
:1040F00006D10168836C4A6822F4C0021A434A6000
:1041000090F82810090606D50168C26C486820F4AA
:104110000020104348607047F8B500260446C0F8F8
:104120008860FDF75BFB054620686FF07E470068FE
:10413000000708D500222B464FF4001120460097B7
:1041400000F022FE60B92068006840070AD500220E
:104150002B464FF480012046009700F015FE08B171
:104160000320F8BD2020C4F8800084F87C60C4F8E7
:1041700084000020F8BD00002DE9F04F044680685F
:10418000F94E87B02168D4E90457E269636E284389
:104190000D6817433843F54A03434FF00008354094
:1041A0001D430D602068E368416821F440511943C4
:1041B00041602368A069934201D0216A08439D6849
:1041C000EB4FEC4EEC493D4005439D602068656A2D
:1041D000C36A23F00F032B43C3622068B0420ED1A1
:1041E000096801F03801182973D047DCB9B30829F0
:1041F00079D010296FD178E028297ED17BE0DF4B80
:10420000984209D1096801F00701062975D2DFE853
:1042100001F0546A6C6E7072D94B984209D10968EA
:1042200001F00701062968D2DFE801F0475D5F6110
:104230006365D44B984209D1096801F0070106294A
:104240005BD2DFE801F03A5052545658CE4B9842B8
:104250000BD1096801F0070106294ED200E010E0F9
:10426000DFE801F02B4143454749C84B98420AD14A
:10427000096801F03801182939D0B7DD2029BBD1F0
:1042800037E001273AE0C24B984209D1096801F0B2
:104290000701062931D2DFE801F01026282A2C2E4A
:1042A000BC4B98420BD1096801F00701062924D2C2
:1042B000DFE801F003191B1D1F2100271EE09042BB
:1042C0001BD1AD49091D096801F00701062914D267
:1042D00002E00CE007E010E0DFE801F00305070969
:1042E0000B0D02270AE0042708E0082706E0102744
:1042F00004E0202702E0402700E08027DFF898A2B2
:10430000DFF898B290424FF480754FF000097AD1EF
:10431000102F51D006DC022F09D0042F27D0082FF0
:1043200072D12DE0202F70D0402F6DD1F0E0FDF73D
:10433000B9FB0146606A1FE0012827D0022827D078
:10434000032827D0042827D0052827D0062827D0DF
:10435000072827D0082827D0092827D00A2827D0BF
:104360000B2827D00AE000BFB1FBF0F07EE06846E2
:10437000FDF7AAFB606A01990028DDD10120F3E76F
:1043800003A8FDF743FC606A0499F5E70220EBE718
:104390000420E9E70620E7E70820E5E70A20E3E74D
:1043A0000C20E1E71020DFE72020DDE74020DBE7FD
:1043B0008020D9E72846D7E7DBF800005946800679
:1043C000606A39D50968C1F3C1012AFA01F2A8B1BE
:1043D00001281BD002281BD003281BD004281BD087
:1043E00005281BD006281BD007281BD008281BD067
:1043F00009281BD00A281BD00B281BD05FF0010016
:10440000B2FBF0F032E033E2A2E050E00220F7E746
:104410000420F5E70620F3E70820F1E70A20EFE79C
:104420000C20EDE71020EBE72020E9E74020E7E74C
:104430008020E5E72846E3E7A8B1012821D002283B
:1044400021D0032821D0042821D0052821D00628F6
:1044500021D0072821D0082821D0092821D00A28D6
:1044600021D00B2821D00120BAFBF0F000286ED01B
:10447000666806EB460181426AD8B0EB063F67D812
:104480009DE00220F0E70420EEE70620ECE708209C
:10449000EAE70A20E8E70C20E6E71020E4E720201E
:1044A000E2E74020E0E78020DEE72846DCE7606ABC
:1044B000A8B1012816D0022816D0032816D0042847
:1044C00016D0052816D0062816D0072816D008289A
:1044D00016D0092816D00A2816D00B2816D001208D
:1044E0002F4941E70220FBE70420F9E70620F7E720
:1044F0000820F5E70A20F3E70C20F1E71020EFE7AA
:104500002020EDE74020EBE78020E9E72846E7E7B9
:10451000606AA8B1012818D002281AD003281AD03E
:1045200004281AD005281AD006281AD0072839D00E
:10453000082839D0092839D00A2839D00B2839D091
:104540005FF001004FF400410EE70220FAE77CE241
:1045500032E00420F6E70620F4E70820F2E70A201C
:10456000F0E70C20EEE70000F369FFCF000C0058E5
:10457000FFF4FF1100100140544402580044004071
:1045800000480040004C0040005000400014014032
:1045900000780040007C00400090D00300440258A6
:1045A00000093D001020CDE72020CBE74020C9E7DF
:1045B0008020C7E72846C5E74FF0010845E2102FE5
:1045C0007FD023DC022F4ED0042F75D0082FF3D1DB
:1045D00003A8FDF71BFB0499606AA8B1012846D027
:1045E000022846D0032846D0042846D0052846D0C5
:1045F000062846D0072846D0082846D0092846D0A5
:104600000A2846D00B2845D0012543E0202F7DD035
:10461000402FD1D1606AA8B1012878D0022877D084
:10462000032876D0042875D0052874D0062873D0C6
:10463000072872D0082871D0092870D00A286FD0B6
:104640000B2800D001254F4600232A464FF4004096
:104650000021FBF73FFE02467008130E12021018ED
:1046600043EA01216AE0FDF71DFA0146B4E702259D
:1046700010E004250EE006250CE008250AE00A25D6
:1046800008E00C2506E0102504E0202502E0402586
:1046900000E080254E4600232A4608461946FBF7CF
:1046A00019FE62680902030241EA106150081818F5
:1046B000714145E005E0FFE76846FDF705FA01991D
:1046C0008AE7DBF800105846890656D50068C0F323
:1046D000C1002AFA00F1606AA8B1012839D0022885
:1046E00039D0032839D0042839D0052839D00628F4
:1046F00039D0072839D0082839D0092839D00A28D4
:1047000039D00B2800D001252A460AE067E099E05D
:104710009AE09BE09CE09DE09EE09FE0A0E0A1E0AD
:10472000A2E000234F4608461946FBF7D3FD0902D5
:10473000034672080002801841EA1361324679414B
:104740000023FBF7C7FDFA49A0F540728A426ED9F3
:1047500032E70225D8E70425D6E70625D4E7082561
:10476000D2E70A25D0E70C25CEE71025CCE7202597
:10477000CAE74025C8E78025C6E7606AA8B10128D6
:1047800019D0022819D0032819D0042819D00528D7
:1047900019D0062819D0072819D0082819D00928B7
:1047A00019D00A2819D00B2800D001254F46002324
:1047B0002A4650464CE70225F8E70425F6E7062589
:1047C000F4E70825F2E70A25F0E70C25EEE71025C7
:1047D000ECE72025EAE74025E8E78025E6E7606A80
:1047E000A8B1012819D0022819D0032819D004280B
:1047F00019D0052819D006281AD007281AD0082859
:104800001AD009281AD00A281AD00B2800D001255E
:10481000C84800234F462A461AE70225F8E7042530
:10482000F6E70625F4E70825F2E70A25F0E71DE09C
:104830000C25EDE71025EBE72025E9E74025E7E724
:104840008025E5E70225FEE60425FCE60625FAE6D6
:104850000825F8E60A25F6E60C25F4E61025F2E62A
:104860002025F0E64025EEE68025ECE62168EBE029
:10487000E0694FF400414FF6EF7688426FD1082F80
:1048800065D00BDC6FB3012F5CD0042F7FF460AFD9
:104890006846FDF719F9606A01995DE0102F5FD055
:1048A000202F7DD0402FF1D1606AA8B1012878D0A7
:1048B000022877D0032876D0042875D0052874D034
:1048C000062873D0072872D0082871D0092870D024
:1048D0000A286FD00B2800D001256068B1FBF5F1E4
:1048E000A0E0FEF7C5F82FE0012815D0022815D06A
:1048F000032815D0042815D0052815D0062815D072
:10490000072815D0082815D0092815D00A2815D051
:104910000B2814D0012512E0022510E004250EE03A
:1049200006250CE008250AE00A2508E00C2506E02B
:10493000102504E0202502E0402500E08025B1FBA1
:10494000F5F13EE0FEF7A6F80146606A04E003A830
:10495000FDF75CF9606A04990028DBD0C4E7D8E071
:10496000DBF8000059468006606A40D50968C1F34B
:10497000C1012AFA01F208B3012824D0022824D068
:10498000032824D0042824D0052824D0062824D0A5
:10499000072824D0082824D0092824D00A280AE08F
:1049A00074E0A2E0A3E0A4E0A5E0A6E0A7E0A8E010
:1049B000A9E0AAE0ABE018D00B2800D00125B2FB9B
:1049C000F5F160682EE00225F9E70425F7E70625F2
:1049D000F5E70825F3E70A25F1E70C25EFE71025B1
:1049E000EDE72025EBE74025E9E78025E7E7A8B1DB
:1049F000012837D0022837D0032837D0042837D0F1
:104A0000052837D0062837D0072837D0082837D0D0
:104A1000092837D00A2837D00B2800D00125606834
:104A2000BAFBF5F1490001EB5001B1FBF0F080B2A7
:104A3000A0F11001B1423FF68BAE4FF6F073216842
:104A4000C0F3420218401043C8600121A4F86A1064
:104A50004046A4F86810C4F86C90C4F8709007B091
:104A6000BDE8F08F0225DAE70425D8E70625D6E76A
:104A70000825D4E70A25D2E70C25D0E71025CEE794
:104A80002025CCE74025CAE78025C8E7606AA8B1A1
:104A9000012816D0022816D0032816D0042816D0D4
:104AA000052816D0062816D0072816D0082816D0B4
:104AB000092816D00A2816D00B2800D001251D4938
:104AC0000BE70225FBE70425F9E70625F7E70825AC
:104AD000F5E70A25F3E70C25F1E71025EFE7202598
:104AE000EDE74025EBE78025E9E70225F5E604251B
:104AF000F3E60625F1E60825EFE60A25EDE60C25A6
:104B0000EBE61025E9E62025E7E64025E5E68025E9
:104B1000E3E6082F6AD00FDC8FB3012F61D0042F9A
:104B20007FF416AE6846FCF7CFFF606A019962E039
:104B3000FFFC0F0000093D00102F5FD0202F7DD01B
:104B4000402FEDD1606AA8B1012878D0022877D033
:104B5000032876D0042875D0052874D0062873D091
:104B6000072872D0082871D0092870D00A286FD081
:104B70000B2800D001256068B1FBF5F1A0E0FFE74C
:104B8000FDF776FF2FE0012815D0022815D0032865
:104B900015D0042815D0052815D0062815D00728CB
:104BA00015D0082815D0092815D00A2815D00B28AB
:104BB00014D0012512E0022510E004250EE00625A0
:104BC0000CE008250AE00A2508E00C2506E010257F
:104BD00004E0202502E0402500E08025B1FBF5F14E
:104BE0003DE0FDF757FF0146606A04E003A8FDF7CA
:104BF0000DF8606A04990028DBD0C4E7DBF80000F8
:104C000059468006606A40D50968C1F3C1012AFA95
:104C100001F208B3012824D0022824D0032824D08C
:104C2000042824D0052824D0062824D0072824D0FE
:104C3000082824D0092824D00A280AE05FE08DE063
:104C40008EE08FE090E091E092E093E094E095E0D8
:104C500096E018D00B2800D00125B2FBF5F1606872
:104C60002EE00225F9E70425F7E70625F5E70825F4
:104C7000F3E70A25F1E70C25EFE71025EDE72025FE
:104C8000EBE74025E9E78025E7E7A8B1012822D036
:104C9000022822D0032822D0042822D0052822D09E
:104CA000062822D0072822D0082822D0092822D07E
:104CB0000A2822D00B2800D001256068BAFBF5F144
:104CC00001EB5001B1FBF0F080B2A0F11001B14254
:104CD0007FF6CCAD70E40225EFE70425EDE706256D
:104CE000EBE70825E9E70A25E7E70C25E5E71025C6
:104CF000E3E72025E1E74025DFE78025DDE7606A7F
:104D0000A8B1012816D0022816D0032816D00428EE
:104D100016D0052816D0062816D0072816D0082841
:104D200016D0092816D00A2816D00B2800D0012545
:104D3000144920E70225FBE70425F9E70625F7E7F4
:104D40000825F5E70A25F3E70C25F1E71025EFE73D
:104D50002025EDE74025EBE78025E9E702250AE776
:104D6000042508E7062506E7082504E70A2502E7E3
:104D70000C2500E71025FEE62025FCE64025FAE696
:104D80008025F8E600093D002DE9F0479A461746D0
:104D90000E460446089D4FF000094FF0200839E008
:104DA000681C37D0FCF71AFDA0EB0A00A84222D8F5
:104DB0000DB32068016849072CD5C069C0430005C0
:104DC00028D423684FF40061196221680B6823F42A
:104DD000D0730B6021688B6823F001038B60C4F8EB
:104DE0008080C4F88480C4F8888000BF032084F8E1
:104DF0007C90BDE8F08721680B6823F4D0730B60CA
:104E000021688B6823F001038B60C4F88080C4F8AC
:104E10008480EBE72068C06936EA000004D00020F7
:104E2000B842BDD00020E4E70120F9E7044810B5FE
:104E300000F028FB0248BDE81040983800F022BB83
:104E4000BC490024014800F01DBB0000544A002466
:104E5000014800F017BB0000EC4A0024014800F0B4
:104E600011BB0000B44C002400BFFEE72DE9F04167
:104E700007460C4615461E4666480078002877D13E
:104E800007F0A7FE17B1384607F080F8ACB32078DA
:104E90000006617840EA0140A17840EA0120E1780B
:104EA0000843020620780006617840EA0140A178B4
:104EB00040EA0120E178084300F47F4042EA002202
:104EC00020780006617840EA0141A07841EA00209C
:104ED000E178084300F47F0042EA102220780106BE
:104EE000607841EA0041A07841EA0020E178084377
:104EF00042EA10604849086003E0FFE700204649A5
:104F00000860B5B328780006697840EA0140A978BE
:104F100040EA0120E978084302062878000669780B
:104F200040EA0140A97840EA0120E978084300F40A
:104F30007F4042EA002228780006697840EA014171
:104F4000A87841EA0020E978084300F47F0042EAAB
:104F5000102228780106687841EA0041A87841EAE1
:104F60000020E978084342EA10602B49886004E099
:104F700048E0FFE7002028498860AEB3307800069B
:104F8000717840EA0140B17840EA0120F1780843A5
:104F9000020630780006717840EA0140B17840EAB4
:104FA0000120F178084300F47F4042EA0022307883
:104FB0000006717840EA0141B07841EA0020F178BA
:104FC000084300F47F0042EA10223078010670782E
:104FD00041EA0041B07841EA0020F178084342EA12
:104FE00010600D49486003E0FFE700200A4948606F
:104FF00004F08CFE04F004FF012006490870002034
:1050000006490870064800F0DDF800F023F9BDE815
:10501000F0810000BC01002450500024B4010024A1
:105020005C5000242DE9F047044688461646206867
:1050300050B1B8F1000F07D036B1A08820B1A088D8
:1050400021680989884202DD0020BDE8F08700253B
:1050500030E027683889A188401A1FFA80FA4FF09B
:10506000000910E00AEB090081B2384608F00EFC96
:1050700008F80500681C85B2A088401EA08009F1D0
:1050800001001FFA80F9B54207D20AEB09007989BD
:10509000884202DAA0880028E4DCB5420AD23868E7
:1050A0002060206810B1206808F056FC384600F0F7
:1050B0007DF80746B54204D2206810B1A0880028C8
:1050C000C7DCA08818B9206800F070F82060284676
:1050D000BBE700002DE9F04F01462748274A284B3F
:1050E0008142284C4FF6FF70274D284E284FDFF89D
:1050F000A4C0DFF8A480DFF8A490DFF8A4A0DFF854
:10510000A4B0DFF8A4E001D1002009E0B1F1804FA4
:1051100003D0914204D1022006E00120BDE8F08FC7
:10512000994201D1032003E0A14201D1042003E010
:10513000A94201D1052003E0B14201D1062003E0DC
:10514000B94201D1072003E0614501D1082003E005
:10515000414501D1092003E0494501D10A2003E07E
:10516000514501D10B2003E0594501D10C20D5E771
:105170007145D3D10D20D1E700000140000400406B
:1051800000080040000C00400010004000140040E7
:105190000004014000180040001C004000200040B6
:1051A00000400140004401400048014070B5054600
:1051B00035B100BF284608F01FFB0446002CF9D08B
:1051C000002070BD90F8391001F0010131B9044997
:1051D0000978012902D10521024A117070470000A7
:1051E000B5010024B401002470B5044618480078C5
:1051F000012804D002280DD0052825D11DE000206B
:105200006060A060E060204606F000FA02201049CD
:1052100008701AE0204606F04CFA18B103200C4939
:10522000087009E0A56AA879042805DD042008496A
:105230000870204606F037FA07E0204606F033FAF9
:1052400000200349087000E000BF00BF70BD0000EF
:10525000B401002410B50C4806F084FE08F05CFD93
:10526000FCF7BCFA09490968401AB0F5FA7F06D381
:10527000054806F0CFFDFCF7B1FA04490860024882
:1052800000F0C6F810BD00005C500024B8010024F6
:105290002DE9F04706460F469146B04601213846B3
:1052A00009F003FFB8F1000F46D0B9F1000F43D168
:1052B000102007F043FE0446002C33D00420207356
:1052C0002760002060600021218100BF09E058F8BC
:1052D000201021B948F820404FF0010A03E0411C9A
:1052E00088B22028F3DBBAF1000F11D021463846EE
:1052F00008F054FE1449384609F0FCFC13493846BE
:1053000008F04BFF1249384609F0CCFE002512E0A8
:105310002146384600F054F8204607F0ADFD4FF026
:10532000FF3508E02146384600F04AF8204607F0ED
:10533000A3FD4FF0FF3504E0384608F08BFE6FF018
:105340000F052846BDE8F0876B9D0008599D0008B1
:10535000DB9D0008F8B505460A462B460020009064
:10536000002103F0010636B1002A04DD13F8010B19
:105370008DF80100521E1C4603E034F8027B3944CC
:10538000921E012AF9DC002A02DD20788DF8000047
:10539000BDF80000014488B200EB114188B200EB77
:1053A000114126B1C8B2C1F3072747EA002188B2EC
:1053B000F8BD000001484068704700005C500024C0
:1053C00070B505460C460021284609F093FC0021E3
:1053D000284609F067FE00221146284609F030FCF5
:1053E0000021284608F0D9FE0021284608F067FD74
:1053F000284608F02FFE002020600520207370BD95
:1054000010B5024805F0AEFF10BD00005C5000244E
:1054100010B50446FCF7E2F906490968401AB0F5F0
:10542000FA7F06D3FCF7DAF9024908602046FFF755
:10543000DBFE10BDB001002490F83910C1F38001EB
:1054400019B10121034A117002E00521014A1170CE
:1054500070470000B401002410B5D0E910345A1C84
:1054600002F03F02944201D0C154026410BD10B555
:1054700040210446FAF799FF00202064606420462A
:1054800010BD00002DE9F0410446406940F225526C
:10549000C169114204D0406AC1B22069FFF7DCFF44
:1054A000094A012361690225B4F93C000426082752
:1054B000116010240B620D620E620F620C62BDE877
:1054C000F041FCF73DBA0000B44F00242DE9F04351
:1054D000A9B0894601AB06460220DFF8B4C201211B
:1054E000AC4C032283E80700A94B0727326C583BDA
:1054F000012A10D0A849022AA84832D0032A54D041
:10550000042A4FF008087CD0052A77D0062A76D0E6
:10551000072A75D012E1DCF80000002540F01000E9
:10552000CCF80000DCF8000000F0100028901868AB
:1055300040F010001860186820F010001860052175
:10554000172008F0CBFA0521182008F0C7FA0497B5
:105550006946D4F888020090D4F8840204F52174D6
:1055600045E00A68012542F400320A60096801F446
:1055700000312891016841F400310160016821F493
:10558000003101600521032008F0A8FA052104205C
:1055900008F0A4FA04976946A06D0090606DFCF7CE
:1055A00019F8606F0090206FC5E00A68022542F488
:1055B00080220A60096801F480212891016841F481
:1055C00080210160016821F48021016005211B20F8
:1055D00008F084FA05211C2008F080FA0497694637
:1055E000D4F8F8020090D4F8F40204F53D74FBF707
:1055F000F1FF206A0090E0699DE002E025E04DE0C7
:1056000072E00A68042542F400220A60096801F485
:1056100000212891016841F400210160016821F412
:105620000021016005212B2008F058FA05212C20CB
:1056300008F054FACDF810806946D4F8B804009008
:10564000D4F8B40404F2B444D1E70A68052542F45E
:1056500080120A60096801F480112891016841F400
:1056600080110160016821F4801101602D2029461C
:1056700008F034FA0521332008F030FACDF8108014
:105680006946D4F8F0040090D4F8EC04FBF7A2FFCC
:10569000D4F898050090D4F894054CE0DCF80000AC
:1056A000062540F02000CCF80000DCF8000000F0F7
:1056B00020002890186840F020001860186820F03A
:1056C000200018600521272008F008FA052128206D
:1056D00008F004FA04976946D4F848040090D4F816
:1056E000440404F2444482E70A68072542F08042F9
:1056F0000A60096801F080412891016841F0804109
:105700000160016821F0804101600521102008F04E
:10571000E5F90521092008F0E1F90B200490D4F8FF
:10572000C40169460090D4F8C001FC34FBF752FF75
:105730006068009020686946FBF74CFF72690020A2
:105740000C2105920890CDE90690CDE909010B9056
:105750000C900D900F90B6F93C00FCF7FEF8B6F9EE
:105760003C0006212A46FCF717F9B6F93C00FCF785
:1057700005F9B6F93C00FCF7E3F805A8FEF70BF8CD
:105780007069016841F02001016029B0BDE8F08333
:10579000F0440258BC000108E84402589044025802
:1057A0004269D3691B06FCD591624069C16909064B
:1057B000FCD501207047000030B50025039C4560F2
:1057C0004FF47A758560034D0560C0E90441828716
:1057D000036430BD280D010801460A7B487B024462
:1057E000887B0244C87B0244087C0244487C104405
:1057F00068B9084A106800220A7380234B73E123BA
:105800008B73030CCB73030A0B74487400BF01F154
:105810000C00704700E8F11FF0B587B004460D4654
:105820000020FF231A461946009001A805F084FBCA
:1058300001A903A805F076FB0646294605A805F050
:1058400071FB074632463946204600F002F807B0A1
:10585000F0BD2DE9F04389B005460E4614463146A9
:1058600001A805F05FFB032101A805F082FB0121DF
:10587000017001A903A805F055FB0746214605A8BC
:1058800005F050FB8046314607A805F04BFB8146EA
:105890003B4642464946284600F003F809B0BDE8B9
:1058A000F0832DE9F04F8BB006460F4614461D4697
:1058B000394601A805F036FB032101A805F059FB84
:1058C0000121017001A903A805F02CFB804629469F
:1058D00005A805F027FB8146214607A805F022FB15
:1058E0008246394609A805F01DFB83464B465246C1
:1058F00059463046CDF8008000F003F80BB0BDE803
:10590000F08F2DE9F84F07460C4615461E46DDF888
:105910002880284605F002FB8146304605F0FEFA55
:105920008246204605F0FAFA83463846FFF754FFD0
:105930004B46524659460090FFF798FAFFF760FD34
:105940004146384605F012FBBDE8F88F70B50446B5
:105950000E46FFF72FFD05462946204605F0F8FACA
:10596000044670BD012908D0022908D0032908D0B7
:10597000042908D04FF0FF30704700207047042002
:105980007047082070470C207047000070B50C4627
:105990000546F2B10126012A02D0022A19D10DE0F2
:1059A00000F0EBF80E492B69B0FBF1F1614306EB17
:1059B0001142501E9862B1FBF2F40AE000F0DDF8EB
:1059C000B0FBF4F02B6906EB10414A1E9A62B0FB63
:1059D000F1F404B1641E2869C462EC6170BD00007A
:1059E00040420F0042184FF0FF3012F8012C62B114
:1059F000012906D0022906D0032901D14FF4806085
:105A000070470420704740207047012907D00229C1
:105A100007D0032907D00429F6D188027047012056
:105A20007047102070474FF4807070472DE9F041A7
:105A30000F460446FFF796FF0646401C01D1FAF7D1
:105A4000A7FF3946204600F02FF90546401C01D13A
:105A5000FAF79EFF39462046FFF7C4FF401C01D1EC
:105A6000FAF796FF04EB8708D8F8580030B12069A0
:105A7000E94301612069C1682943C16004EB470023
:105A8000E119428804F11000072A49D006DC38D217
:105A9000DFE802F037464646463939000B2A06D081
:105AA0000ADC082A3CD0092A01D00A2A29D1314629
:105AB000BDE8F041FDF756BC0C2A22D13146FDF776
:105AC00051FC3946204600F0BBF8236905460146E3
:105AD0002046FFF787FF196A01431962D8F858007A
