:020000040800F2
:10000000080F002049010008C3160008BF160008A9
:10001000C1160008ED0700082919000800000000BB
:100020000000000000000000000000005B0100086C
:10003000DD080008000000005F010008C516000888
:100040006301000863010008630100086301000800
:100050006301000863010008E1080008A90900081D
:10006000D1090008F9090008210A0008F107000871
:1000700005080008190800082D08000841080008B4
:1000800055080008690800086301000863010008BA
:10009000630100086301000863010008490A0008C1
:1000A00095170008D1170008BD170008A917000808
:1000B000F5170008091800081D180008630100085A
:1000C0006301000863010008630100086301000880
:1000D00063010008E5180008011900081519000857
:1000E0000909000863010008630100086D18000891
:1000F000A918000895180008811800086301000875
:10010000630100086301000831180008630100085A
:10011000BD180008D1180008451800085918000833
:100120007D08000895080008AD080008C50800080B
:10013000DFF810D000F048FB00F032F8004800472C
:100140007D510008080F00200648804706480047F8
:10015000FEE7FEE7FEE7FEE7FEE7FEE7FEE7FEE777
:10016000FEE7FEE74D17000831010008D2B201E0BA
:1001700000F8012B491EFBD270470022F6E710B5AC
:1001800013460A4604461946FFF7F0FF204610BD05
:10019000421C10F8011B0029FBD1801A7047000097
:1001A00070B5054C054D03E0206820448047241DB0
:1001B000AC42F9D170BD0000286C0008346C000816
:1001C0002DE9FE4F804681EA0300C00F0C460090E7
:1001D00021F0004123F00045B8EB0200A94105D20F
:1001E0004046214690461C460B46024623F00040FE
:1001F000104347D0270DC7F30A00C3F30A510290FA
:10020000401A019040286BDAC3F3130040F4801BBE
:100210000098924620B10023D2EB030A63EB0B0B4C
:1002200001985946C0F14002504600F007FA0646D0
:100230000D4650465946019A00F01FFA10EB08008F
:100240006141002487EA115284EAE7731A4340D0DF
:10025000009A62B3019A012A4FEA075215DC001B8B
:1002600061EB02014FF0004202EA0752CDE9004281
:10027000001C41F5801132462B4600F057FA03B0BE
:10028000BDE8F08F40462146F9E7001B61EB020113
:10029000001C41F5801300185B412018A2F50017DF
:1002A00047EB030140EAD570B6196D4111E06D08C6
:1002B0004FEA360645EAC0754FEA0752001B61EB6C
:1002C0000201001C41F5801149084FEA3000001975
:1002D000514132462B4603B0BDE8F04F00F017BA4B
:1002E0000098012240000023D0EB020263EBE07390
:1002F000009821464FEAE074B8EB000061EB04017E
:10030000E9E783F000435BE781F0004158E72DE91E
:10031000FE4F81EA030404F0004421F00041009400
:100320004FF0000B23F0004350EA01045ED052EA84
:1003300003045BD0C3F30A54C1F30A552C44A4F25E
:10034000F3340194A0FB0254C1F3130141F4801172
:10035000C3F3130343F4801301FB024400FB034E79
:10036000840A970A44EA815447EA8357A4FB076842
:1003700002958D0A05FB07854FEA932C04FB0C546C
:100380002705029D4FEA065847EA1637B5EB0805E0
:100390006EEB070C870E920E47EA811742EA831232
:1003A000A7FB0201B6EB0B0164EB00042B0D43EA43
:1003B0000C335E1844EB1C50DA465146E7FB020151
:1003C000C5F313044FEA0B3343EA14534FEA0432E4
:1003D000019C43EA0603A4F10C040294009CCDE9BD
:1003E00000B400F0A3F903B0BDE8F08F002001468F
:1003F000F9E72DE9F04D81EA030404F0004B21F008
:10040000004514464FF0000A23F0004150EA05026F
:1004100020D054EA01021DD0C5F30A570246C5F3A5
:100420001303C1F31300C1F30A5640F4801543F4DB
:100430008013A7EB0608101BD64608F2FD3873EBB5
:10044000050002D308F1010801E092185B41B8F100
:10045000000F03DA00200146BDE8F08D00204FF4C4
:100460008011064684460EE0171B73EB050705D383
:10047000121B63EB050306434CEA010C49084FEAE3
:10048000300092185B4150EA0107EDD152EA0300B7
:1004900012D082EA040083EA0501084305D0101B4C
:1004A000AB4106D20122002306E000224FF00043B8
:1004B00002E06FF0010253101AEB06004CEB0851FA
:1004C00010EB0A0041EB0B01BDE8F04D00F01FB945
:1004D00070B521F0004303430CD0C1F30A5500244A
:1004E000D5EB040564EB0403D617AD1AB34102DB68
:1004F0000020014670BD201841EB025170BD9623CB
:100500000022114600F0D5B80EB5C10F80EAE070A8
:100510000844CA07002140F233438DE80E000A4622
:100520000B4600F003F903B000BD0EB540F23341B5
:1005300002910021CDE900110A460B4600F0F6F8C1
:1005400003B000BD70B5C1F30A5201F000450024AC
:10055000C1F3130140F2FF3341F480119A4201DAF2
:10056000002070BD40F233439A42A2F2334203DCD2
:10057000524200F072F800E090402C43F1D040422B
:1005800070BDC1F30A5210B5C1F3130140F2FF333D
:1005900041F480119A4201DA002010BD40F2334349
:1005A0009A42A2F2334203DC524200F056F810BDE8
:1005B000904010BD00F0004230F000400AD0C10D64
:1005C00001F56071C0F3160042EA0151C20840070C
:1005D00011437047002001467047000030B5041EEB
:1005E00071F1000404DB4FF00044404264EB010170
:1005F000141E73F1000405DB1C464FF00043524209
:1006000063EB04038B4208BF824230BD30B5041E49
:1006100071F1000404DB4FF00044404264EB01013F
:10062000141E73F1000405DB1C464FF000435242D8
:1006300063EB0403994208BF904230BD202A04DBDB
:10064000203A00FA02F1002070479140C2F12003E5
:1006500020FA03F3194390407047202A04DB203A24
:1006600021FA02F00021704721FA02F3D040C2F1D2
:1006700020029140084319467047202A06DBCB1719
:10068000203A41FA02F043EAE07306E041FA02F34D
:10069000D040C2F12002914008431946704770478C
:1006A0000029A8BF7047401C490008BF20F0010086
:1006B000704710B4B0FA80FC00FA0CF050EA010464
:1006C00004BF10BC704749B1CCF1200421FA04F4F6
:1006D00011FA0CF118BF012121430843A3EB0C01CF
:1006E000CB1D4FEA00614FEA102042BF002010BC32
:1006F000704700EBC35010440029A4BF10BC7047E2
:10070000401C490008BF20F0010010BC704710B524
:10071000141E73F1000408DA401C41F10001921824
:100720005B411A4301D120F0010010BD2DE9F04DCD
:1007300092469B4611B1B1FA81F202E0B0FA80F222
:1007400020329046FFF77AFF04460F4640EA0A003F
:1007500041EA0B0153465A46084313D0114653EA67
:10076000010019D0C8F140025046FFF776FF054658
:100770000E46504659464246FFF760FF084305D0F3
:10078000012004E020463946BDE8F08D00200543F5
:1007900046EAE0762C4337430A986305E40AA0EB67
:1007A00008000022FD0A44EA47540A3002D500201E
:1007B0000146E9E7010510196941DDE9084500191D
:1007C0006941BDE8F04DA2E7064C074D06E0E06840
:1007D00040F0010394E8070098471034AC42F6D388
:1007E000FFF7AAFC086C0008286C0008FEE7000070
:1007F00003480168890701D5022141607047000064
:100800000000024003480168890601D520214160AB
:10081000704700000000024003480168890501D5C7
:100820004115416070470000000002400348016824
:10083000890402D54FF40051416070470000024026
:1008400003480168890302D54FF4003141607047C5
:100850000000024003480168890201D5010141609E
:10086000704700000000024003480168890101D57B
:100870000102416070470000000002400448006827
:10088000800703D502490220091D08607047000057
:100890000004024004480068800603D50249202075
:1008A000091D086070470000000402400448006809
:1008B000800504D502494FF40070091D0860704797
:1008C0000004024004480068800404D502494FF443
:1008D0000050091D0860704700040240FEE7000058
:1008E00010B5074C2068C00708D0012000F0EFF8D1
:1008F0000448006800B180470120206010BD00005E
:10090000140401404C0C002070B5254D2868254C7E
:10091000400507D52E15304600F0D9F8A06A00B181
:1009200080472E602868000508D54FF400663046E1
:1009300000F0CDF8E06A00B180472E602868C0045E
:1009400008D54FF48056304600F0C1F8206B00B156
:1009500080472E602868800408D54FF40056304642
:1009600000F0B5F8606B00B180472E602868400445
:1009700008D54FF48046304600F0A9F8A06B00B1CE
:1009800080472E602868000408D54FF400463046A2
:1009900000F09DF8E06B00B180472E6070BD000054
:1009A000140401404C0C002010B5074C206880074F
:1009B00008D5022000F08BF80448406800B1804759
:1009C0000220206010BD0000140401404C0C0020E7
:1009D00010B5074C2068400708D5042000F077F8D0
:1009E0000448806800B180470420206010BD0000EA
:1009F000140401404C0C002010B5074C206800077F
:100A000008D5082000F063F80448C06800B18047AA
:100A10000820206010BD0000140401404C0C002090
:100A200010B5074C2068C00608D5102000F04FF81C
:100A30000448006900B180471020206010BD00000C
:100A4000140401404C0C002070B51E4D28681E4C4B
:100A5000800607D5202000F03AF8606900B1804791
:100A6000202028602868400607D5402000F02FF895
:100A7000A06900B18047402028602868000607D59B
:100A8000802000F024F8E06900B1804780202860D1
:100A90002868C00508D54FF48076304600F017F876
:100AA000206A00B180472E602868800508D54FF481
:100AB0000076304600F00BF8606A00B180472E6087
:100AC00070BD0000140401404C0C0020FEE770478C
:100AD0002DE9F84FDFF8C891002409F1040A0AF162
:100AE000040B23460F270BF1040ED1E00125A5408E
:100AF00006EA0502AA4276D1DFF8A8C14E68A6EB45
:100B00000C0866452BD00DDC032E34D005DC36B343
:100B1000012E19D0022E2FD11BE0112E16D0122E2D
:100B20002AD119E0B8F5881F19D006DCB8F5803F46
:100B300015D0B8F5801F1FD111E0B8F5001F0ED0F9
:100B4000B8F5041F18D10AE0CB6815E0CB681B1D6F
:100B500012E0CB6808330FE0CB680C330CE08B68F5
:100B60002BB1012B4FF0080303D0456104E00423AF
:100B700002E0056100E00023FF2A01D8064601E0FB
:100B800000F104064FEA840501D9A5F12005D6F845
:100B9000008007FA05FC28EA0C0803FA05F548EA84
:100BA0000508C6F800804D68ED0070D53E4DAE6971
:100BB00046F00106AE61AD6924F0030605F00105BB
:100BC00000953A4D06EB050CDCF80850A607360FE9
:100BD00007FA06F825EA0805DFF8D480404503D176
:100BE0004FF0000825E052E0DFF8C880404502D110
:100BF0004FF001081DE0DFF8C080404502D14FF002
:100C0000020816E0DFF8B480404502D14FF0030837
:100C10000FE0DFF8AC80404502D14FF0040808E057
:100C2000DFF8A080404502D14FF0050801E04FF009
:100C3000060808FA06F848EA0508CCF808804D6866
:100C4000D9F80060ED034D4601D5164300E0964308
:100C50002E604D68DAF80060AD03554601D51643A5
:100C600000E096432E604D68DBF80060ED025D46C3
:100C700001D5164300E096432E604D68DEF8006013
:100C8000AD02754601D5164300E096432E60641C04
:100C90000A681646E2407FF429AFBDE8F88F0000ED
:100CA000000401400000111000100240000001404B
:100CB00000080140000C01400010014000140140F8
:100CC00000180140001C0140014880687047000086
:100CD0001C0000200248816802781144816070473E
:100CE0001C000020074810B5016841F010010160A8
:100CF000032000F099F8002000F006F800F024F836
:100D0000002010BD0020024070B50D4D04464FF488
:100D10007A712878B1FBF0F00A490968B1FBF0F06C
:100D200000F0C6FB48B9102C07D200222146501E05
:100D300000F05AF800206C6070BD012070BD00000A
:100D40001C00002018000020154808B5816941F0FA
:100D500001018161806900F001000090032000F032
:100D600063F8002211466FF00B0000F03DF80022FE
:100D700011466FF00A0000F037F8002211466FF0BC
:100D8000090000F031F800221146101F00F02CF885
:100D90000022BDE808401146501E00F025B80000B2
:100DA0000010024000F01F02012191404009800024
:100DB00000F1E020C0F88012704700F01F0201210E
:100DC00091404009800000F1E020C0F88011704798
:100DD00000F01F02012191404009800000F1E02055
:100DE000C0F8001170470000F0B40E4B1B680C46B1
:100DF000C3F30223C3F10705042D00D90425191DEF
:100E0000072901D2002300E0DB1E012606FA05F1C6
:100E1000491E214099409E40761E16403143F0BC49
:100E200000F0C8BF0CED00E0064900F007020868BA
:100E30004FF6FF03184040EA0220034A10430860BF
:100E4000704700000CED00E00000FA052DE9F843C2
:100E500005460078354CC00754D0E0690026C00034
:100E600008D4E06940F08050E061E069012600F0BC
:100E7000805000902E480168C90512D40168804650
:100E800041F480710160FFF71FFF074605E000BFD6
:100E9000FFF71AFFC01B642823D8D8F80000C0054C
:100EA000F6D5206A10F4407021D0A98801F4407171
:100EB00081421CD0206A1F49012220F440700A6040
:100EC00000220A602062C00711D0FFF7FDFE07462E
:100ED00041F2883808E000BFFFF7F6FEC11B41452C
:100EE00002D90320BDE8F883206A8007F4D5206A80
:100EF000696820F44070084320621EB1E06920F068
:100F00008050E0612878800705D56068A96820F4E2
:100F10004040084360602878C00605D5606869696C
:100F200020F48000084360600020DBE700100240EE
:100F300000700040400442422DE9F0470F46050092
:100F400061D0434E306800F00700B84209D23068E3
:100F500020F0070038433060306800F00700B842E6
:100F600051D128683B4C810712D5400703D56068F2
:100F700040F4E06060602878000703D5606840F4C2
:100F8000605060606068A96820F0F000084360600D
:100F90002878C00728D06868012810D02168022866
:100FA00010D0890700292EDA616821F0030101437E
:100FB0006160FFF789FE804641F288390DE02168C3
:100FC0008903EFE78901EDE7FFF77EFEA0EB08015B
:100FD000494502D90320BDE8F0876068696800F0E0
:100FE0000C00B0EB810FEFD1306800F00700B84281
:100FF0000BD9306820F0070038433060306800F0CB
:101000000700B84201D00120E5E72878400705D560
:101010006068E96820F4E0600843606028780007B1
:1010200006D56068296920F4605040EAC10060601C
:1010300000F038F86168084AC1F30311515CC840F8
:101040000649086006480068FFF75EFE0020C2E718
:101050000020024000100240236A0008180000200F
:10106000200000200448054900684968044AC1F38B
:101070000221515CC8407047180000200010024057
:10108000336A00080448054900684968044AC1F306
:10109000C221515CC8407047180000200010024077
:1010A000336A000812A185B00FC98DE80F0014A0A3
:1010B000144A006804905168134811F00C0312D0D0
:1010C000042B10D0082B0ED1C1F38343C9031DF8A4
:1010D00003000AD5516804AAC1F34041515C0A4A91
:1010E0005043B0FBF1F005B0704708494843FAE7B8
:1010F00002030405060708090A0B0C0D0E0F101059
:10110000010200000010024000127A0000093D00B8
:101110002DE9F84F040070D02078C04DC00749D0A9
:101120006868C0F38100012807D06868C0F38100B7
:10113000022809D16868C00306D52868800339D51C
:1011400060680028E7D035E06068B0F5803F0BD0DC
:1011500010B1B0F5A02F11D0286820F4803028609D
:10116000286820F4802002E0286840F4803028605D
:10117000606890B1FFF7A8FD06460AE0286840F4D1
:1011800080202860F0E700BFFFF79EFD801B6428E9
:1011900073D828688003F7D50CE0FFF795FD064665
:1011A00005E000BFFFF790FD801B6428F0D8286899
:1011B0008003F7D420789A4E80074FF001094FF052
:1011C000000839D5686810F00C0F07D06868C0F3C4
:1011D0008100022809D16868C00306D42868800706
:1011E00014D52069012808D110E02069B0B1C6F8F3
:1011F0000090FFF769FD074605E00AE1FFF764FD8F
:10120000C01B0228C4D828688007F7D52868616900
:1012100020F0F80040EAC10028600DE0C6F8008028
:10122000FFF752FD074604E0FFF74EFDC01B022802
:1012300023D828688007F7D4207800072CD5794870
:10124000A169D9B1C0F80090FFF73EFD074604E060
:10125000FFF73AFDC01B02280FD8686A8007F7D550
:1012600071484FF4FA510068B0FBF1F0009000BFF4
:101270000098411E0091FAD20EE080E0C0F8008094
:10128000FFF722FD074604E0FFF71EFDC01B022802
:1012900075D8686A8007F7D42078400760D5E86978
:1012A0000027C00008D4E86940F08050E861E86990
:1012B000012700F0805000905C480168C90513D4F4
:1012C0000168834641F480710160FFF7FDFC8246AE
:1012D00006E000BFFFF7F8FCA0EB0A0064284ED838
:1012E000DBF80000C005F5D5E06801280AD008B198
:1012F000052813D0286A20F001002862286A20F00F
:10130000040002E0286A40F001002862E06841F22F
:10131000883B98B1FFF7D8FC82460BE0286A40F082
:1013200004002862EEE700BFFFF7CEFCA0EB0A0145
:1013300059455AD8286A8007F6D50CE0FFF7C4FC57
:10134000824605E0FFF7C0FCA0EB0A0159454CD8E6
:10135000286A8007F6D41FB1E86920F08050E86160
:10136000E06988B36968C1F38101022944D0022889
:10137000C6F8608004D0FFF7A7FC044638E034E0EC
:10138000FFF7A2FC074604E0FFF79EFCC01B022803
:101390002BD828688001F7D4206AB0F5803F05D1AA
:1013A0006868A16820F4003008436860D4E9080147
:1013B0000843696821F4741108436860C6F86090B6
:1013C000FFF782FC044606E025E000BFFFF77CFC47
:1013D000001B022809D828688001F7D51BE000BF50
:1013E000FFF772FC001B022802D90320BDE8F88F2A
:1013F00028688001F4D40EE00128F7D06868226ADA
:1014000000F48031914204D1616A00F47010884286
:1014100001D00120EAE70020E8E7000000100240C8
:101420000000424280044242180000200070004048
:1014300070B5040005D00025A56294F8510010B1E4
:1014400006E0012070BD84F85050204600F02EF8D0
:10145000022084F851002068016821F040010160F9
:10146000D4E901010843D4E9031211430843616937
:101470000843218B01F400710843E1690843216AA4
:101480000843A16A084321680860A069042101EAB1
:101490001040216848602068C16921F40061C16181
:1014A0006565012084F85100002070BD70477047C9
:1014B00010B5401EB0F1807F01D3012010BD4FF068
:1014C000E02460610F21601700F074FC0020A0612F
:1014D00007202061002010BD10B5FFF7E8FF10BD08
:1014E0007047704701F056BE70B504460068016948
:1014F0004FF00005C943890715D4C168C94389075E
:1015000011D4E91E016101202077206880698007DD
:10151000204602D0FFF7E6FF04E000F098F82046EE
:1015200000F097F8257720680169C943490717D467
:10153000C168C943490713D46FF004010161022057
:1015400020772068806910F4407F204602D0FFF7A2
:10155000C9FF04E000F07BF8204600F07AF8257718
:1015600020680169C943090716D4C168C94309073E
:1015700012D46FF008010161042020772068C0694F
:101580008007204602D0FFF7ADFF04E000F05FF8CF
:10159000204600F05EF8257720680169C943C90636
:1015A00017D4C168C943C90613D46FF01001016193
:1015B000082020772068C06910F4407F204602D0C0
:1015C000FFF790FF04E000F042F8204600F041F8F9
:1015D000257720680169C943C90708D1C168C94393
:1015E000C90704D1891E0161204600F033F8206844
:1015F0000169C943090609D4C168C943090605D46C
:101600006FF0800101612046FFF76AFF20680169E1
:10161000C943490609D4C168C943490605D46FF0D6
:1016200040010161204600F017F820680169C943B4
:1016300089060BD4C168C943890607D46FF020011D
:1016400001612046BDE87040FFF74BBF70BD01F05F
:10165000A1BD704701F08EBD704770B5040004D085
:1016600094F83900002510B106E0012070BD84F81F
:101670003850204600F022F8242084F839002068F1
:10168000C16821F40051C160204600F06FFA206863
:10169000016921F4904101612068416921F02A012A
:1016A00041612068C16841F40051C160E5632020B8
:1016B00084F8390084F83A00002070BD7047FEE7D6
:1016C000FEE7704710B5FFF705FBBDE81040FFF7D8
:1016D00003BF30B595B028216846FEF74EFD1421B2
:1016E0000AA8FEF74AFD18210FA8FEF746FD0121C2
:1016F0000804CDE900100024029402250491CDE9EC
:1017000007504FF4E01009906846FFF701FD00B163
:10171000FEE70F20CDE90A054FF48060CDE90C40CB
:1017200002210AA80E94FFF707FC00B1FEE7122081
:101730000F904FF40040119014940FA8FFF786FB10
:10174000002800D0FEE715B030BD00000D4801684C
:1017500041F00101016041680B4A1140416001689C
:101760000A4A11400160016821F48021016041684A
:1017700021F4FE0141604FF41F0181600449C00360
:1017800008607047001002400000FFF8FFFFF6FEFF
:1017900008ED00E00348006A002802D0001DFFF7B2
:1017A000A3BE7047CC0C002003480068002802D07C
:1017B000001DFFF799BE7047CC0C00200348806ADB
:1017C000002802D0001DFFF78FBE7047CC0C002010
:1017D00010B5074C206810B1001DFFF785FE606A48
:1017E000002804D0BDE81040001DFFF77DBE10BDED
:1017F000CC0C002003484068002802D0001DFFF7F1
:1018000073BE7047CC0C002003488068002802D0CB
:10181000001DFFF769BE7047CC0C00200348C0686C
:10182000002802D0001DFFF75FBE7047CC0C0020DF
:1018300003480069002802D0001DFFF755BE70471D
:10184000CC0C002003484069002802D0001DFFF79F
:101850004BBE7047CC0C002003488069002802D0A2
:10186000001DFFF741BE7047CC0C00200348C06A42
:10187000002802D0001DFFF737BE7047CC0C0020B7
:101880000348C069002802D0001DFFF72DBE704735
:10189000CC0C00200348406B002802D0001DFFF74D
:1018A00023BE7047CC0C00200348C069002802D03A
:1018B000001DFFF719BE7047CC0C002010B503487F
:1018C00000F01FFE00F0D9F810BD0000500A002003
:1018D00010B5034800F015FE00F0D0F810BD000070
:1018E000C40A002010B5054800F00BFE0348743808
:1018F00000F007FE00F0BEF810BD0000F408002064
:1019000010B5034800F0FDFD00F0B5F810BD000073
:101910006809002010B5034800F0F3FD00F0ACF8B2
:1019200010BD0000DC090020FEE70000134808B5E8
:10193000816941F480518161816901F48051009194
:10194000C16841F48051C160C16821F48051C16017
:10195000816941F0010181618069052100F0010088
:101960000090072003F0E0FF0521082003F0DCFFD2
:101970000521BDE80840062003F0D6BF0010024054
:10198000134808B5C16941F48041C161C16901F4DE
:1019900080410091016941F480410161016921F4B4
:1019A00080410161816941F0010181618069052106
:1019B00000F0010000901F2003F0B6FF0521202059
:1019C00003F0B2FF0521BDE808401E2003F0ACBFC4
:1019D000001002400F4808B5C16941F40041C161DF
:1019E000C16901F400410091016941F400410161C4
:1019F000016921F4004101610521002003F094FFF9
:101A00000521002003F090FF0521BDE808400020DB
:101A100003F08ABF001002402DE9F34F06464FEA5B
:101A2000400881B0124801F044FA00EB0609104862
:101A300001F075FA871903F053FF834600250FE084
:101A400000240FFA85FA08E002980090334622B28B
:101A50005146074800F0B6FE4444BC42F4DB45441E
:101A60004D45EDDB03F03CFFA0EB0B00BDE8FE8F26
:101A700010030020704770477047704770470000A0
:101A80002DE9F84380468946164801F012FA0546CA
:101A9000144801F044FA04460021124801F0A4FB66
:101AA00003F01EFF0746002608E02B4632B2002155
:101AB0000C48CDF8008001F0DFFB761DA642F4DB78
:101AC000002608E02346002231B20648CDF80090F7
:101AD00001F014FC761DAE42F4DB03F001FFC01BE5
:101AE000BDE8F883100300202DE9FF411E4801F0F6
:101AF000E0F900EBD0704FF0FF3404EB60051A48BA
:101B000001F00DFA00EBD07004EB600600211648DE
:101B100001F06AFBB54201DA2F4600E0374603F0D8
:101B2000DFFE8046002416E00022E3B211460E4894
:101B300001F016FE311909B2CDE902102A1912B2CC
:101B4000CDE90012281B03B2301B02B229B20648AD
:101B500000F0FAFE641DBC42E6DB03F0C1FE04B0F7
:101B6000A0EB0800BDE8F081100300202DE9F04152
:101B7000044600680169E26821F4405111430161A3
:101B80002169A0680843616908432168CA6841F275
:101B90000C639A430243CA6020684169A26921F438
:101BA0004071114341611E492068642532268842F4
:101BB00002D1FFF767FA01E0FFF754FA00EBC0012A
:101BC00001EB001160686FF018078000B1FBF0F2C4
:101BD000B2FBF5F2B1FBF0F37A4303EB8202B1FB07
:101BE000F0F306EB0212B2FBF5F2B3FBF5F302F0F1
:101BF000F00202EB0312B1FBF0F3B1FBF0F0B0FB2B
:101C0000F5F0784303EB800006EB0010B0FBF5F035
:101C1000216800F00F0010448860BDE8F0810000EA
:101C20000038014010B503F05BFE044600210C486B
:101C300001F0DAFA4FF47841094801F0D5FA4FF48F
:101C4000FC61074801F0D0FA1F21054801F0CCFAE9
:101C50000021034801F0C8FA03F042FE001B10BD4A
:101C6000100300202DE9FE43264801F022F900EB85
:101C7000D0704FF0FF3404EB6009224801F04FF9B7
:101C800000EBD07004EB600800211E4801F0ACFAB4
:101C90001C4801F00EF904461A4801F040F984424C
:101CA000184802DA01F005F901E001F038F90546BB
:101CB00003F016FE074600241CE000BF04EBD470BE
:101CC00046100023E1B21A460E4801F049FDE11723
:101CD00004EB517123B241F3CF010093CDE9011020
:101CE000A8EB060002B2A9EB060001B2054800F01D
:101CF00029FFA41DAC42E1DB03F0F2FDC01BBDE8EF
:101D0000FE830000100300202DE9F34F83B000276D
:101D1000274801F0CEF800EBD0707C1E04EB600980
:101D2000234801F0FCF800EBD07004EB600A0021BE
:101D30001F4801F059FA1E4801F0BBF804461C4840
:101D400001F0EDF884421A4802DA01F0B2F801E03D
:101D500001F0E5F8044624E004EBD470461003F0EB
:101D6000BFFD834625B203982B46CDE90050AAEB70
:101D7000060002B2A9EB060001B290460E460C48DE
:101D800001F000FE03F0ACFDA0EB0B00074404984B
:101D90004246CDE9005031462B46054801F088F90E
:101DA000A41F002CD8DC05B03846BDE8F08F000039
:101DB000100300200907090E002806DA00F00F00C2
:101DC00000F1E02080F8141D704700F1E02080F859
:101DD000001470472DE9F34F044681B0144801F018
:101DE00068F88346124801F09AF88046670000219F
:101DF0000F4801F0F9F903F073FD824626460FE023
:101E000025460FFA86F908E00298009023462AB288
:101E10004946074800F074FD3D444545F4DB3E4427
:101E20005E45EDDB03F05CFDA0EB0A00BDE8FE8F34
:101E30001003002010B50F4A0C460146904202D113
:101E4000FFF720F907E00C4A914202D00B4A90427A
:101E500001D1FFF707F94208002003E05208401CB7
:101E6000072801D29442F9D3054931F8200080B205
:101E700010BD00000030014000380040003C004030
:101E80003C6A00082DE9F04F87B04FF000082B485E
:101E900001F00FF800EBD0704FF0FF3404EB600658
:101EA000264801F03CF800EBD07004EB60070021FD
:101EB000224801F099F903F013FDBE4201DA3446DD
:101EC00035E03C4633E000BF03F00AFD0590E3B285
:101ED000E2B20021194801F043FC39190DB2CDE9F5
:101EE00002503119301B0FFA81FB03B2381BCDE9C8
:101EF000005B02B231B29A4691461048049100F05C
:101F000049FD03F0EDFC0599E2B2411A8844E1B2C3
:101F100000230A4801F024FCCDE90250CDE9005B22
:101F200053464A460548049900F00EFD641F0A2CEA
:101F3000CADC07B04046BDE8F08F00001003002067
:101F40002DE9FE43244800F0B4FF00EBD0704FF0C1
:101F5000FF3404EB6007204800F0E1FF00EBD07095
:101F600004EB600600211C4801F03EF903F0B8FCC8
:101F70008046194800F09DFF0446174800F0CFFF47
:101F80008442154802DA00F094FF01E000F0C7FF38
:101F9000044619E004EBD47045100023E2B2194660
:101FA0000D4801F0DDFBE11704EB517123B241F361
:101FB000CF010093CDE90110701B02B2781B01B272
:101FC000054800F031FEA41F142CE3DC03F088FC6C
:101FD000A0EB0800BDE8FE83100300200A4A82B08F
:101FE00010600268426800920268426800920268CB
:101FF000426800920268426800920268406800905D
:10200000084602B0FEF7CEBE8C0C0020FF2101482E
:1020100002F0DABD940B00200146014802F0D4BD65
:10202000940B002038B50246304B31489A42426941
:1020300006D142F001024261406900F0010005E072
:1020400042F002024261406900F00200009027481D
:102050000830814201D10B243DE024481C308142EC
:1020600001D10C2437E021483030814201D10D24C8
:1020700031E01E484430814201D10E242BE01B4840
:102080005830814201D10F2425E018486C3081423C
:1020900001D110241FE015488030814201D1112464
:1020A00019E01448814201D1382414E01148143059
:1020B000814201D139240EE00E482830814201D1FD
:1020C0003A2408E00B483C30814203D009485030A4
:1020D000814200D13B24002211462046FEF784FEB7
:1020E0002046BDE83840FEF773BE00000000024005
:1020F000001002400804024038B50021384801F0C1
:1021000073F803F0EDFB044600221146344801F059
:1021100016F84FF6FF71324800F0FAFC0121304802
:1021200000F00EFC2FA12E4801F0FAFD4FF6E071F1
:102130002B4800F0EDFC0221294800F001FC0220B0
:1021400000902C4A2C4B264801F0F4FD4FF47841C6
:10215000234800F0DDFC0321214800F0F1FB1022B0
:1021600026491F4801F0FDFD1D4801F00EFE4FF409
:10217000FC611B4800F0CCFC0521194800F0E0FB95
:102180001FA1174801F0CCFD0221154800F0D8FB33
:102190001DA1134801F0C4FD0121114800F0D0FB3E
:1021A0001DA10F4801F0BCFD22A10D4801F0B8FDB2
:1021B00027A10B4801F0B4FD2CA1094801F0B0FDA6
:1021C0002FA1074801F0ACFD32A1054801F0A8FDA0
:1021D00037A1034801F0A4FD03F082FB001B38BDCA
:1021E0001003002048656C6C6F20576F726C64217F
:1021F000000000000AD7A3703D4A9340EFBEADDE59
:1022000047726F6F700000004920696D706C6F72CB
:102210006520746865652C006D7920666F6F6E743B
:10222000696E67207475726C696E6764726F6D6534
:10223000732E0000416E6420686F6F7074696F7553
:10224000736C79206472616E676C65206D65000047
:1022500077697468206372696E6B6C792062696E4D
:10226000646C65777572646C65732C004F722049DD
:102270002077696C6C2072656E64207468656500F7
:10228000696E2074686520676F626265727761723B
:102290007473000077697468206D7920626C7572C0
:1022A000676C656372756E6368656F6E2C00000005
:1022B000736565206966204920646F6E277421006C
:1022C0002DE9FC5F0646624800F0F3FD05466048D4
:1022D00000F025FE044600215D4800F085FF4FF028
:1022E0000008A4F1010903F0FBFA00270FFA89F9AD
:1022F00008E0CDE9009642463BB21146544801F051
:1023000039FABF1DAF42F4DB681E00270FFA80F9CF
:1023100009E038B2CDE9000642464B4611464C482A
:1023200001F028FABF1DA742F3DB03F0D9FA002120
:10233000474800F059FFA5F1010B4FF00008A4F148
:10234000010903F0CDFA0FFA89FA00270FFA8BF989
:1023500008E0CDE900A63BB2424649463C4801F0C0
:1023600009FABF1DAF42F4DB00200746824609E0B0
:1023700038B2CDE90006534642464946344801F09A
:10238000F9F9BF1DA742F3DB03F0AAFA0021304898
:1023900000F02AFF4FF0000BA4F10108DA4603F029
:1023A0009FFA0FFA88F90027D84608E0CDE900A681
:1023B0003BB24A464146264801F0DCF9BF1DAF4218
:1023C000F4DB681E00270FFA80FA09E038B2CDE985
:1023D000000653464A4641461D4801F0CBF9BF1D51
:1023E000A742F3DB03F07CFA0021194800F0FCFE61
:1023F000681EA4F101084FF0000B009003F070FA82
:10240000824600980FFA88F900270FFA80F808E052
:10241000CDE900B63BB24A4641460D4801F0AAF963
:10242000BF1DAF42F4DB00252F4609E038B2CDE9ED
:1024300000062B464A464146054801F09BF9BF1D60
:10244000A742F3DB03F04CFAA0EB0A00BDE8FC9FC7
:10245000100300202DE9FC4781461E4800F029FDAD
:1024600000EBD0704FEA60081A4800F058FD00EB0E
:10247000D07047100021174800F0B6FE154800F054
:1024800018FD0446134800F04AFD8442114802DA60
:1024900000F00FFD01E000F042FD054603F020FAD8
:1024A000064602240FE000BF04EBD4704010391A36
:1024B00023B20AB2A8EB0000CDE9003901B2054809
:1024C00000F0F6FDA41DAC42EEDB03F009FA801B20
:1024D000BDE8FC871003002010B5036C446C5A1C47
:1024E00002F03F02944201D0C154026410BD10B505
:1024F00004464021FDF741FE002020646064204630
:1025000010BD10B5044640690168890604D54068CD
:10251000C1B22069FFF7E0FF94F938106069BDE8A7
:102520001040FFF75BBD0000F0B50F460446C16BDD
:102530009248002591B0012908D0022933D00329FF
:102540005FD004297ED005297DD0EFE08169002687
:1025500041F480418161816901F480411091C16839
:1025600041F48041C160C16821F48041C16081694A
:1025700041F001018161806900F00100109094F840
:10258000400060B15FF0000094F8411049B10021B3
:10259000084331D00A2084F840000B202AE00120B3
:1025A000F2E70121F4E7C169012641F40031C1617C
:1025B000C16901F400311091016941F400310161F8
:1025C000016921F400310161816941F001018161FA
:1025D000806900F00100109094F8400068B100207C
:1025E00094F8411059B10021084305D0032084F824
:1025F0004000042084F841008BE00120F0E7012135
:10260000F2E7C169022641F48021C161C16901F488
:1026100080211091016941F480210161016921F457
:1026200080210161816941F001018161806900F0CF
:102630000100109094F8400070B1002094F841100F
:1026400061B101E00CE038E00021084361D01B20BB
:1026500084F840001C20CDE70120EFE70121F4E7DA
:10266000C169042641F40021C161C16901F400215E
:102670001091016941F400210161016921F40021F7
:102680000161816941F001018161806900F001000F
:10269000109094F8400060B15FF0000094F8411091
:1026A00049B10021084334D02B2084F840002C206D
:1026B000A0E70120F2E70121F4E7C169052641F412
:1026C0008011C161C16901F480111091016941F467
:1026D00080110161016921F480110161816941F07A
:1026E00001018161806900F00100109094F84000C0
:1026F00058B1002094F8411049B10021084308D096
:102700002D2084F84000332074E70120F2E70121F6
:10271000F4E714F8400F052103F006F96078002172
:1027200003F002F904F8015B04F841596069CDE94E
:1027300000070C20CDE90505029504950395079542
:1027400094F938001934FEF738FB94F91F0032462B
:102750000621FEF749FB94F91F00FEF739FB94F9B7
:102760001F00FEF71FFB6846FEF777FF54F8050CC5
:10277000C16841F02001C16011B0F0BD00100240FD
:10278000426913681B06FCD551604069016809065F
:10279000FCD501207047000070B500254FF47A7613
:1027A000049CC0E90156064E0660C0E9044180F869
:1027B0003820C36380F8405080F8415070BD00005D
:1027C000746A00082DE9FF5F0546C3F101001C464D
:1027D0000FFA80FAC3EBC430400000B2002602902A
:1027E0009046101902B2286889464FF0010B87689D
:1027F00028460E9BB847A8EB040002B22868494659
:102800000E9B87682846B84709EB040001B2286888
:1028100042460E9B87682846B847A9EB040001B2E0
:10282000286842460E9B876864E000BFBAF1000F3B
:1028300008DB641E029824B2801C00B2029050444F
:102840000FFA80FA0BF102000FFA80FB0AEB0B0083
:102850000FFA80FA08EB0400761C02B236B209EBDC
:10286000060001B20092039128680E9B87682846F3
:10287000B847A9EB060001B201912868009A0E9BA7
:1028800087682846B847A8EB040002B2009228687F
:1028900003990E9B87682846B8472868DDE9002120
:1028A000876828460E9BB84708EB060002B209EB82
:1028B000040001B20092039128680E9B87682846A5
:1028C000B847A9EB040001B201912868009A0E9B59
:1028D00087682846B847A8EB060002B2009228682D
:1028E00003990E9B87682846B8472868DDE90021D0
:1028F00087680E9B2846B847A64297DBBDE8FF9F36
:102900002DE9FE4307461C46012000EB440003B2BC
:1029100016460A9D101B02B2009538688846D0F80A
:1029200010C03846E04700200321CDE900102346BF
:10293000324602954146384600F046FABDE8FE832D
:1029400001B90121017670472DE9FC5F0446DDE9FC
:102950000E65DDE90C78CDE9007500689B4691466F
:10296000D0F80CC08A462046E047CDE900652068D3
:1029700043463A46D0F80CC059462046E047CDE9D8
:102980000095206853463246C56841462046A84710
:10299000BDE8FC9F2DE9FF4F89B01C46DDE91660BC
:1029A000DDF8609015468846B24203DD3546444660
:1029B000164698464E4505DD4946B1460E46014647
:1029C00020460C46B54205DD294635460E464146B1
:1029D000A0460C464D451CD1414642468C4201DA88
:1029E000214601E000DD2246884201DA014602E08C
:1029F000904200DD024619980090501A401C03B224
:102A000009982A46006844690998A0470DB0BDE8B6
:102A1000F08FA4EB080109B20791711B09B206916E
:102A2000A0EB080109B20191001BA9EB050109B255
:102A300000B2CDE90201A9EB060000B24FF0000B95
:102A4000DA4604904E4501D1059602E0701E00B2B0
:102A500005902F4628E00699039A9BFBF1F19AFB1B
:102A6000F2F201EB080001B202EB0800079B00B292
:102A70000BEB0302019B0FFA82FB0AEB03020FFA36
:102A800082FA814202DD0A4601461046401A401C85
:102A900003B20998199A009200683A46D0F814C017
:102AA0000998E0477F1C3FB205988742D3DD029921
:102AB000B81B48430FFA80FA0199781B484305B2C6
:102AC00023E004989AFBF0F0204401B2039895FBB0
:102AD000F0F202EB0800029A00B252440FFA82FAB6
:102AE000019A81422A4415B202DD0A460146104687
:102AF000401A401C03B20998199A009200683A469D
:102B000046690998B0477F1C3FB24F45D9DD7DE744
:102B10008182C18270471CB50B44049C5B1ECDE9C9
:102B2000002404681BB2E468A0471CBD1CB5134414
:102B30005B1E049C1BB2CDE900340368DC680B46C5
:102B4000A0471CBD2DE9FF4F83B00746DDE91165A5
:102B50007042CDE900509B4603EB400003B204985D
:102B60009246304401B238689946884644693846EE
:102B7000A047109900950AEB01000290401E02B296
:102B800038684B46414644693846A0471099019839
:102B9000009501EB400003B20AEB060004B238686E
:102BA00099462246D0F810C038460499E047049868
:102BB0004B4600EB0B09A9F10100009501B2386802
:102BC0002246D0F810C03846E0470120CDE9000584
:102BD000224641463346384600F062F80220CDE9ED
:102BE0000005A9EB0600401E01B222468946334685
:102BF000384600F055F80420CDE900050298494612
:102C0000801B401E04B233462246384600F048F886
:102C10000820CDE90005224641463346384600F0FB
:102C20003FF807B0BDE8F08F2DE9FF4F83B099461C
:102C3000DDE91147C4F1000803EB480003B20819AD
:102C4000DDF840B006B2CDE900B703988A463146B8
:102C50000068059AC5690398A8470BEB4800401E19
:102C60000FFA80F80121CDE9001805980297204459
:102C700002B20AEB0900001B401E01B215462346B2
:102C8000039800F0A1F80221CDE900182A46029726
:102C900031462346039800F097F807B0BDE8F08F5F
:102CA0002DE9F84F8046C3F101000FFA80F9C3EB1C
:102CB000C330400000B2DDF828B016460F464FF092
:102CC000010A00251C4600907AE000BFB9F1000F10
:102CD00008DB641E009824B2801C00B200904844B7
:102CE0000FFA80F90AF102000FFA80FA6D1C09EB65
:102CF0000A000FFA80F92DB25FEA4B7015D5301932
:102D000002B2781901B2D8F800000B9BD0F808C0C5
:102D10004046E047701902B2381901B2D8F80000F5
:102D20000B9BD0F808C04046E0475FEA8B7015D592
:102D3000301B02B2781901B2D8F800000B9BD0F812
:102D400008C04046E047701B02B2381901B2D8F8FB
:102D500000000B9BD0F808C04046E0475FEA0B70CC
:102D600015D5701902B2381B01B2D8F800000B9BC0
:102D7000D0F808C04046E047301902B2781B01B2D3
:102D8000D8F800000B9BD0F808C04046E0475FEA47
:102D9000CB7015D0701B02B2381B01B2D8F80000FE
:102DA0000B9BD0F808C04046E047301B02B2781BAE
:102DB00001B2D8F800000B9BD0F808C04046E047AD
:102DC000A54283DBBDE8F88F2DE9FC5F8246C3F1A5
:102DD000010006B2C3EBC3304000012700B29046A9
:102DE0008946DDF834B000251C4601905DE0002ED8
:102DF00007DB641E019824B2801C00B201903044AD
:102E000006B2BF1C6D1C3FB2F01906B20C982DB271
:102E1000C00723D00E9800900BEB4400401C03B277
:102E2000A8EB040002B209EB050001B2DAF80000D9
:102E3000D0F810C05046E0470E9800900BEB4500CC
:102E4000401C03B2A8EB050002B209EB040001B27A
:102E5000DAF80000D0F810C05046E0470C98800720
:102E600023D50E9800900BEB4400401C03B2A8EB56
:102E7000040002B2A9EB050001B2DAF80000D0F8B4
:102E800010C05046E0470E9800900BEB4500401CE8
:102E900003B2A8EB050002B2A9EB040001B2DAF814
:102EA0000000D0F810C05046E047A5429FDBBDE8C7
:102EB000FC9FB0F90C0070473EB5002504460A2976
:102EC00028D00D2924D0A08A237EE28A8DE80D0027
:102ED000B4F910000B460146B4F91220204600F068
:102EE00021F8207E218A00EB400201EB420109B269
:102EF0002182A27E62B1B4F90C20A0EB800302EB28
:102F000043028A4204DA618A01EBC00060822582B2
:102F100001203EBD608A217E00EBC100F6E7B0F9DA
:102F20000E0070472DE9FE4F8946B0F90C10DDF810
:102F300030B00E9D90468246494551DDBAF90E10DB
:102F400041454DDD05EB450109EB4100012847D422
:102F500008EBC500012843D4294903EB830008444A
:102F60000024029002E0052C0FD00298075D002695
:102F7000F80718D0012D0AD006FB058002B204FB29
:102F80000590CDE9005B01B21AE00027EFE708EBFE
:102F9000060002B209EB040001B2DAF800005B4659
:102FA000D0F808C029E00D98584510D0012D19D04F
:102FB000CDE9005006FB058002B204FB059001B28A
:102FC000DAF800002B46D0F81CC05046E047761CCB
:102FD0007F0876B2082ECBDB641C64B2062CC2DB01
:102FE000BDE8FE8F08EB060002B209EB040001B257
:102FF000DAF800000D9BD0F808C05046E047E6E73D
:10300000286500082DE9FF5F14460E980E461D4600
:10301000021BA3EB060100D55242002900DA494207
:103020008A4207DD3146264605464FF001080C4628
:10303000184601E04FF00008AE4205DD31462E464D
:103040000D46214604460846A91B0FFA81F9011BCB
:1030500000D549420FFA81FB09EBD9714F10844228
:1030600001DA012001E04FF0FF3082461CE000BF92
:1030700000980F9BB8F1000F0068D0F808C002D08C
:103080003246214601E0224631460098E047A7EB50
:103090000B0007B2002F05DA04EB0A0004B207EBBD
:1030A000090007B2761C36B2AE42E1DDBDE8FF9FF3
:1030B0002DE9F8430446DDE9086500950068994666
:1030C0001746D0F814C088462046E047B819401E7D
:1030D00002B2009520684B464146D0F814C0204605
:1030E000E0470095206833463A46D0F810C0414684
:1030F0002046E04708EB0900401E01B20095206819
:1031000033463A4605692046A847BDE8F8832DE9CD
:10311000F8439146DDE9088605460C46CF180AE0DB
:103120000096286843464A46D0F810C021462846F3
:10313000E047641C24B2A742F2DCBDE8F8830182B8
:103140004282704710B50023094CC0E90043018159
:10315000428189B2818191B2C181437603824382E7
:10316000012101764FF6FF72C2828282817610BD04
:10317000946A000810B5040001D1FDF7A7FC2046B1
:1031800001F0FAFF0068816D002902D0BDE810400F
:10319000084710BD70B5050001D1FDF797FC287FE9
:1031A000012812D0022812D0042812D0082812D1E7
:1031B0000424284601F0E0FF006800EB8401896DDB
:1031C000002908D0BDE8704008470124F1E7022437
:1031D000EFE70324EDE770BD10B5FFF7B3FF01493A
:1031E000016010BDC86A00081CB5B0F90E20CDE919
:1031F000002101680022B0F90C30CC691146A047CB
:103200001CBD000070B50C46054600210B4801F0BE
:103210009FFB2146284600F013F8284600F09AFA52
:10322000044695F93400012101F094FF4FF4006148
:10323000024801F08DFB204670BD0000380B0020D5
:1032400070B504460D4690F935000021343401F084
:1032500081FF94F90000002101F07CFF2946054818
:1032600001F0EEFB94F90100BDE87040012101F08E
:1032700071BF0000380B0020F8B50546B0F90C000E
:10328000069E1C46884236DDB5F90E30934232DD8B
:10329000012C30DB0B195B1E834201DB401A04B2A8
:1032A000022C08DA28683346846801B02846A44610
:1032B000BDE8F04060470819401E92B283B289B25F
:1032C0002846009200F060F8E62C08DDAE87A2B236
:1032D000002305F13C01084801F0D6FB04E022463A
:1032E0003146054801F0BCFB95F93400BDE8F840D3
:1032F000012101F02FBFF8BD380B002038B505467D
:10330000B0F90C001C4688423ADDB5F90E00904237
:1033100036DD012C34DB13195B1E834201DB801A7E
:1033200004B2022C09DA2868BDF81030846801B0B4
:103330002846A446BDE8304060471019401E80B2C0
:103340008BB2009092B289B2284600F01DF8E62CAC
:1033500009DDBDF81000A887A2B2002304A909481E
:1033600001F092FB05E02246BDF81010054801F07F
:1033700077FB95F93400BDE83840012101F0EABE41
:1033800038BD0000380B00202DE9F0410F461C46E7
:10339000154680462A21069EFFF752FF39460C4803
:1033A00001F0C2FB21460A4801F0BEFB2B2140463A
:1033B000FFF746FF2946064801F0B6FB31460448B0
:1033C00001F0B2FB4046BDE8F0412C21FFF738BFC9
:1033D000380B002010B5044690F935000121343433
:1033E00002F0A2FA94F90000012102F09DFA94F98A
:1033F0000100002101F0AEFE94F90000012101F06E
:10340000A9FED24801F004FB0021D04801F0B8FA2F
:103410000021CE4801F058FA0221CC4801F06CFAA4
:10342000CB49CB4A3039C94801F08EFB94F90200F0
:10343000343C00281ADD012102F076FA14F9360F27
:10344000012101F087FE052001F070FE94F90000D3
:10345000002101F07FFE142001F068FE14F9360906
:10346000012101F077FE962001F060FEEF21204659
:10347000FFF7E6FE0321B54801F0E2FA8021B348E8
:1034800001F0DEFA0221B14801F0DAFACF2120463C
:10349000FFF7D6FE0021AD4801F0D2FAC121AB48BA
:1034A00001F0CEFA3021A94801F0CAFAED212046F8
:1034B000FFF7C6FE6421A54801F0C2FA0321A34824
:1034C00001F0BEFA1221A14801F0BAFA81219F4809
:1034D00001F0B6FAE8212046FFF7B2FE85219B48AD
:1034E00001F0AEFA0021994801F0AAFA7821974834
:1034F00001F0A6FACB212046FFF7A2FE392193481E
:1035000001F09EFA2C21914801F09AFA00218F488F
:1035100001F096FA34218D4801F092FA02218B488D
:1035200001F08EFAF7212046FFF78AFE2021874816
:1035300001F086FAEA212046FFF782FE0021834847
:1035400001F07EFA0021814801F07AFAC02120467C
:10355000FFF776FE23217D4801F072FAC121204653
:10356000FFF76EFE1021794801F06AFAC521204666
:10357000FFF766FE3E21754801F062FA2821734884
:1035800001F05EFAC7212046FFF75AFE86216F48F8
:1035900001F056FA36212046FFF752FE48216B48CB
:1035A00001F04EFA3A212046FFF74AFE55216748BE
:1035B00001F046FAB1212046FFF742FE00216348A0
:1035C00001F03EFA1821614801F03AFAB62120468E
:1035D000FFF736FE08215D4801F032FA82215B4890
:1035E00001F02EFA2721594801F02AFAF22120464B
:1035F000FFF726FE0021554801F022FA2621204639
:10360000FFF71EFE0121514801F01AFAE021204681
:10361000FFF716FE0F214D4801F012FA31214B48F9
:1036200001F00EFA2B21494801F00AFA0C21474813
:1036300001F006FA0E21454801F002FA082143483C
:1036400001F0FEF94E21414801F0FAF9F1213F481D
:1036500001F0F6F937213D4801F0F2F907213B4826
:1036600001F0EEF91021394801F0EAF90321374859
:1036700001F0E6F90E21354801F0E2F9092133485D
:1036800001F0DEF90021314801F0DAF9E1212046AC
:10369000FFF7D6FD00212D4801F0D2F90E212B486D
:1036A00001F0CEF91421294801F0CAF90321274875
:1036B00001F0C6F91121254801F0C2F9072123487C
:1036C00001F0BEF93121214801F0BAF9C1211F48AA
:1036D00001F0B6F948211D4801F0B2F908211B4854
:1036E00001F0AEF90F21194801F0AAF90C21174891
:1036F00001F0A6F93121154801F0A2F9362113484D
:1037000001F09EF90F21114801F09AF9112120468C
:10371000FFF796FD782001F009FD29212046FFF7EB
:103720008FFD782001F002FD94F93400012101F0B1
:1037300011FDF020A0814FF4A070E081BDE81040A1
:103740004FF40061014801F003B90000380B00207C
:10375000300002400021014801F036BA380B002049
:1037600001F0F800000202F0FC0140EAC10040EA6A
:10377000D30070472DE9FC5F1500DDE90C291E46DA
:103780000C46074601D5002A52DBB7F90E00A842C5
:1037900001DA90424CDB002C01DA002E48DBB7F94D
:1037A0000C00A04201DAB04242DB002C00DA002417
:1037B000002E00DA0026002D00DA0025002A00DAAB
:1037C0000022954225D1A64209DDA6EB040000F1B6
:1037D000010003B2CDF800903868466924E00BDAA6
:1037E000A4EB060000F1010003B2CDF800903868A8
:1037F0002A4631464469C2E038684B462A46866804
:1038000002B021463846B446BDE8F04F5DF804EBFF
:103810006047B44217D1AA42CDF800900ADD501B90
:10382000401C03B2386806692A4621463846B0472C
:10383000BDE8FC9FA81A401C03B238682146056900
:103840003846A847F4E7511BA6EB040000D54942CF
:10385000002800DA4042814207DD20462C4605461A
:10386000304616460123024600E00023B44205DD3F
:10387000204634460646284615460246301B0FFAB7
:1038800080FA501B00D5404200B201900AEBDA707A
:103890004FEA6008954201DA012001E04FF0FF3065
:1038A000834621464BBB5EE00198A8EB000000B2C6
:1038B0005FEA00081FD5601A00B258B1CDF8009039
:1038C0003A68401C03B2D2F810C00A46294638466E
:1038D000E04707E038684B462246D0F808C0294642
:1038E0003846E047601C01B205EB0B0005B208EB5F
:1038F0000A000FFA80F8641C24B2B442D4DD481CDC
:10390000844295DD601A03B2CDF8009038680A460B
:103910002946046933E0019AA8EB020000B25FEA8D
:1039200000081ED5601A00B250B1CDF800903A6878
:10393000401C03B2D2F814C02A463846E04707E0DC
:1039400038684B462A46D0F808C021463846E0473A
:10395000601C01B205EB0B0005B208EB0A000FFA80
:1039600080F8641C24B2B442D5DD481C8442C8DD12
:10397000601A03B2CDF8009038682A464469384688
:10398000A04755E7F8B51C46DDE906568687B0F92D
:103990000C708F4234DDB0F90E30934230DD012DD2
:1039A0002EDB012C2CDB01EB040CACF1010CBC4533
:1039B00001DB7C1A24B257197F1E9F4201DB9B1A40
:1039C0001DB2012C01D1012D12D053195B1E9BB2E7
:1039D00000930B195B1E9BB292B289B2FFF7D4FC25
:1039E00004FB05F23146BDE8F840064801F038B85E
:1039F00003689C6801B03346A446BDE8F0406047C8
:103A0000F8BD0000380B002038B51D4604460029DB
:103A10001EDBB4F90C0088421ADD002A18DBB4F969
:103A20000E00904214DD501C80B20090481C83B2FE
:103A300092B289B22046FFF7A7FC2946054801F05B
:103A400073F894F93400BDE83840012101F082BBDD
:103A500038BD0000380B002070B515460E461C46D8
:103A60004FF4A072F021FFF7B7FB0449016080F822
:103A7000346080F8355080F8364070BDFC6A00082C
:103A800010B50446006A48B10023436092B2206A30
:103A900000F0CCFB216A4968002902D00120606057
:103AA000002010BD13B5016801224B6801A9984799
:103AB0001CBD000010B500F01FFD0349016000218E
:103AC0000162017410BD0000306B00082DE9F04761
:103AD0001500089E1C4681464FF0000801D00120C9
:103AE00000E0002020433F4920F00040081AC00FAA
:103AF00001D03DA114E03D480702B0EB440F00D1D6
:103B00009DB13A463A4B28462146FCF77FFD06D345
:103B10003A46384B28462146FCF760FD07D236A1CD
:103B20004846BDE8F04700F0CBB834A1F8E70022E2
:103B3000134628462146FCF751FD06D22D21484662
:103B400000F085F8804684F0004400202C490746A8
:103B5000DFF8B0A005E000225346FCF74AFC7F1CCA
:103B6000FFB2B742F7D32A462346FCF729FB0F469C
:103B70000546FCF706FD0446FCF7D7FC2A463B4603
:103B8000FCF7C2FB05460F460A222146484600F0D4
:103B90008FF800EB0804FEB11BA1484600F055F871
:103BA000044419E00022534628463946FCF7AFFB8F
:103BB0000F460546FCF7C6FC804601460A224846E9
:103BC00000F051F804444046FCF79EFC2A463B4670
:103BD000FCF79AFB05460F46761EF6B2E2D2204667
:103BE000BDE8F0870000F07F6E616E000000E0FF2E
:103BF000FFFFEF41FFFFEFC16F766600696E660061
:103C00000000E03F000024402E00000010B58AB004
:103C100000248DF8204008AB022A00D20A220C466C
:103C2000B1FBF2F102FB1144E4B20A2C01D23034B0
:103C300000E0373403F8014D0029F0D1194600F0B7
:103C40003FF80AB010BD00F03BB800F039B8026888
:103C50001268104708B50299C9B20091FFF736FF04
:103C600008BD00F025B800F002B800F021B870B52A
:103C70000C4605461AB10A2A08D0D2B214E02868C8
:103C8000C9B202682846BDE870401047002C0ADA25
:103C90002D21FFF7DCFF064661420A222846FFF786
:103CA000B5FF304470BD0A22BDE87040FFF7AEBFDB
:103CB00012B1D2B2FFF7AABF0268C9B212681047A8
:103CC00070B505460C000AD00846FCF761FA0246BA
:103CD0002868214643682846BDE870401847002000
:103CE00070BD00002DE9F04114460E460746002540
:103CF00007E000BF386816F8011B02683846904795
:103D00000544641EF6D22846BDE8F08170B505462C
:103D1000FFF799FF0446284600F037F8204470BDAD
:103D200070B50546FFF791FF0446284600F02DF8D0
:103D3000204470BD38B50546049800902846FFF72A
:103D400089FF0446284600F020F8204438BD70B5AD
:103D50000546FFF786FF0446284600F016F8204483
:103D600070BD70B50546FFF780FF0446284600F099
:103D70000CF8204470BD70B50546FFF799FF044666
:103D8000284600F002F8204470BD70B505460D21AC
:103D9000FFF75DFF04460A212846FFF758FF20443D
:103DA00070BD10B50446406A04F10C02012100F018
:103DB00069FF002808D0206A28B9E0682062207ACC
:103DC00040F080002072012010BD00002DE9F0417C
:103DD00000240F4606462546705D20280DD0082D8C
:103DE00005D12E210F48FFF732FF641CE4B2715D4C
:103DF0000C48FEF7C5FC641CE4B26D1CEDB20B2D43
:103E0000EAD3F07AC0F3C100022807D12F2100E0E5
:103E100020210448FFF71BFF641CE4B2BC42F7D327
:103E2000BDE8F0818008002010B5410A04460A224E
:103E30000B4801F2BC71FFF716FF2D210848FFF770
:103E400006FFC4F3431000F053F82D210448FFF798
:103E5000FEFE04F01F00BDE8104000F049B800006D
:103E60008008002010B50446C00A00F041F83A214D
:103E70000848FFF7ECFEC4F3451000F039F83A218A
:103E80000448FFF7E4FEE006BDE81040800E00F0B5
:103E90002FB800008008002038B50446407A022878
:103EA0000DD3208A0122C0F343152046694600F055
:103EB0001BF9012803D19DF80000002801DA002039
:103EC00038BD20691F302061014800EB451038BD26
:103ED0008C00002010B50446406900F0AFFE0028B9
:103EE00003D0207E014901EB401010BD8C00002062
:103EF0000A21B0FBF1F208B530328DF80020B0FB9A
:103F0000F1F201FB120030308DF8010000208DF835
:103F1000020069460148FFF798FE08BD80080020AE
:103F200070B504461D48154600EB4110C27A12F0E8
:103F3000110F02D015F0420F11D1217618490968EE
:103F40006161818A09042162428B11432162C27A34
:103F500012F0180F05D0C2F3C100022805D00020CE
:103F600070BDC069E061012007E004F11C02606AD5
:103F700001F000F80028F3D00420607205F00F0073
:103F800020720020E0602061680605D52046BDE86B
:103F90007040002100F057BA012070BD8C00002055
:103FA000080000202DE9F04106468AB00020F060AC
:103FB00017468846306162E02078002864D0E52802
:103FC0005DD02E285BD0E07A40F3C000401C56D074
:103FD000002505E020212E48FFF739FE6D1C6DB24B
:103FE000BD42F7DB5FEA887001D00E2100E00021BE
:103FF0002046FFF7EBFE5FEAC87009D0208BFFF781
:1040000013FF20212248FFF722FEE08AFFF72AFF54
:10401000E07AC0F3C10002280BD05FEA887008D5AF
:1040200020211B48FFF713FEE1690A221848FFF719
:104030001CFE1748FFF7A9FE5FEA48701FD5E07A1B
:10404000C0F3C10002281AD130694FF0FF3101EBF3
:10405000501084B2684600F047FA012322463146E8
:10406000684600F017F828B1B81CC2B2414668464D
:10407000FFF798FF61013046203100F08BF93046A0
:10408000FFF70AFF040097D10AB0BDE8F0810000F5
:10409000800800202DE9F0410546407A1E4614466E
:1040A0000F46F0B9C6F3011003281AD0786A686287
:1040B0006101384600F06EF9002813D03846FFF74A
:1040C000EBFE00280ED0007858B1E52809D02E2844
:1040D00007D004F00F0132462846BDE8F041FFF753
:1040E0001FBF0020BDE8F0812DE9F84F0546407A5A
:1040F00090460E464FF0FF3AD0B3287AC00753D00F
:10410000E9692869081A404501D21FFA80F8474634
:1041100059E02869697AC0F30809022909D06B6A55
:104120001979491E01EA5021CCB259EA040105D09F
:104130000CE0696A496A01EB50200CE0C8B105F156
:104140000C021846E96800F0E3FE88B1E968686A85
:1041500000F0C8FE20443C46C9F50071A14200DAD7
:104160000C46297A490607D4B4F5007F04D012E042
:104170001AE0286AE860E9E71549096888420AD028
:104180000146144800964A462346006800F01AFB90
:1041900050B1264412E0002100F050FD20B10E493C
:1041A00001EB0900011907E05046BDE8F88F00BF98
:1041B00010F8012B06F8012B8842F9D12869204418
:1041C0002861381B87B2002FA3D10FFA88F0ECE7E3
:1041D00008000020100000208C00002010B50446CC
:1041E000407A00281FD0207A000618D501212046E9
:1041F000FFF770FE002816D0617A022901D2E1692A
:10420000C161218C4183216A090C818206490968B8
:1042100009B1018B4182207A20F080002072BDE834
:10422000104000F0EFBC10BD000000202DE9F84F59
:104230000446407A92460D461746012864D1207AFA
:10424000810761D5DFF830B1400774D5E169206995
:10425000884270D0204600F09DF8002854D06AE0D3
:10426000636A21691879C1F30808401E00EA5120E9
:1042700000F0FF0959EA080015D1E16879B16A46F2
:10428000184600F045FE00286FD0606A009900F0E3
:104290002FFEC8B12046FFF784FDA8B303E0206AD3
:1042A0000028F7D0E060C8F50076BE4200D93E464F
:1042B000E168606A00F016FE8144B6F5007F05D023
:1042C000B8F1000F14D020E00098EBE7DBF80020F5
:1042D0004A4503D14FF0FF31CBF80010274849463B
:1042E0002A46006800F012F970B105F500751DE06E
:1042F000E1692069884208D300F084FC20B1CBF842
:10430000009000F0B7FC05E031E00121484600F0E4
:1043100095FC60B31A4901EB0800811904E000BF65
:1043200015F8012B00F8012B8842F9D1B81B87B290
:10433000206930442061002F92D1E16920698842D0
:1043400001D9E06105E00F48006830B1BAF1000F13
:1043500003D0207A40F080002072207A000703D535
:104360002046FFF73BFF10B15046BDE8F88F012013
:1043700060600020F9E70000080000201000002025
:104380008C0000200000002013B5012201A9FFF7D6
:104390004DFF1CBD2DE9F0410446407A0E4610B198
:1043A000E169B14202D20020BDE8F08102280DD0BF
:1043B00076B1616A2069097C421E0931CA40751EC6
:1043C000CD40954209D340B1AD1A08E0266102E024
:1043D0000020E06020610120E6E7206AE06004F14F
:1043E0000C076D1EF2D33A46E168606A00F090FD5A
:1043F0000028F6D1D8E770B50446407A0D4630B9AA
:1044000095F820000026102803D0202808D000208E
:1044100070BD022060722662688C4001E0610AE093
:1044200003206072696A04F11C022846216200F0D0
:10443000A1FD0028ECD0012065622072E6602661B3
:104440006661267670BDF8B50446407A0D460128AF
:1044500005D1207A800702D5E069A84201D2002068
:10446000F8BDB8B12669AE4200D90E4629462046AD
:10447000FFF790FF0028F3D075B16A46E168606AE3
:1044800000F046FD0028EBD0606A009900F030FD96
:1044900058B118E00120F8BDD4E9081000F006FD7D
:1044A0000028F8D0002020620DE0606A009900F03A
:1044B000FDFC0028EFD06FF07042E168606A00F008
:1044C000B5FC0028E7D0E561207A40F0800020723A
:1044D0002046FFF783FE0028DDD031462046BDE8A8
:1044E000F840FFF757BF00000021024AC0E9002151
:1044F00041727047506B0008002141600249016021
:104500004FF47A7181607047606B000870B5154692
:10451000044659B1207B032800D049020A461821DD
:10452000204600F029F818B104201AE0122018E003
:104530002A46FE21204600F09EF998B14FF41671EC
:10454000204600F04DF830B100220D21204600F049
:1045500013F828B901E0152003E0FDF757FD30B14D
:1045600014206071204600F053F8002070BD2046F2
:1045700000F04EF8012070BD2DE9F04117460D46C0
:10458000064600F0FBF8304600F03EF84FF4967116
:10459000304600F025F845F04000FDF73DFD1824B9
:1045A00027FA04F0C0B2FDF737FD083C64B2002CD6
:1045B000F6DAFF2015B1082D02D002E0952000E0C8
:1045C0008720FDF729FD002401E0641CE4B2FDF71B
:1045D0001DFDF072010601D5FF2CF6D1BDE8F0817A
:1045E00070B50D4601F09EF91FFA80F4FDF70EFD3F
:1045F000FF2807D001F096F980B2001BA842F5DB36
:10460000002070BD012070BD0079002100F0A2BD26
:104610000079012100F09EBD70B5044601F082F9D9
:1046200085B24FF4967607E001F07CF980B2401B2A
:10463000B04201DD0F2008E0FDF7E8FCE072FF2842
:10464000F2D0C0B2FE2806D00D2060712046FFF7E0
:10465000DFFF002070BD012070BD00002DE9F0419A
:10466000044600202073A072A0716071227101F0D5
:1046700059F986B22079012101F056F92046FFF759
:10468000C7FF3C4800F0C4F93B493A4800F07AFAC9
:104690000025FF20FDF7C0FC6D1CEDB20A2DF8D3FC
:1046A0002046FFF7B1FF4FF4FA6707E001F03AF94F
:1046B00080B2801BB84201DD01203FE0002211469C
:1046C0002046FFF759FFE0720128EFD14FF4D57271
:1046D00008212046FFF750FF400703D50120207333
:1046E000002519E05FF00005FDF790FC6D1CEDB2B0
:1046F000E072042DF8D3C0B2AA284FF002001DD1F9
:104700002073450708E000BF01F00CF980B2801B60
:10471000B84201DD082011E02A462921204600F098
:1047200042F8E0720028EFD1207B02281CD1002241
:104730003A212046FFF720FF38B10620607120465D
:10474000FFF766FF0020BDE8F081FDF75FFC032165
:10475000B1EB901F01D1032020730025FDF756FC1B
:104760006D1CEDB2032DF9D32046FFF751FF012058
:10477000E9E70000940B002090D0030070B50446D8
:10478000807900280ED040F202252089411C218129
:10479000A84202D2FDF73AFCF7E72046FFF738FFC0
:1047A0000020A07170BD70B514460D46064600226B
:1047B0003721FFF7E1FE224629463046BDE870402A
:1047C000FFF7DABE2DE9F0411E00DDF8188015462E
:1047D000044640D070194FF40077B8423ED8A07913
:1047E00028B12068884202D12089A8421BD92160C3
:1047F000207B032800D049020A4611212046FFF7FA
:10480000BBFE10B10320607128E02046FFF704FFD3
:1048100020B3002020810120A07104E0FDF7F6FB09
:104820002089401C20812089A842F7D3002505E07B
:10483000FDF7ECFB08F805006D1CADB2B542F7D3EF
:104840002089304480B22081A17A09B1B84202D3D4
:104850002046FFF793FF0120BDE8F0812046FFF7D7
:10486000D7FE0020F8E708B54FF40073009200224D
:10487000FFF7A8FF08BD2DE9F0410546164608469A
:10488000FDF7CAFB00244FF40077305DFDF7C4FB51
:10489000641CA4B2BC42F8D3FF20FDF7BDFBFF208F
:1048A000FDF7BAFBFDF7B2FBE87200F01F00052828
:1048B00007D0112068712846FFF7AAFE0020BDE846
:1048C000F0810120FBE7000010B58269136823F036
:1048D00040031360074C2162C1832046FCF7A8FD0A
:1048E00008B1FCF7F3F82068016841F0400101606D
:1048F00010BD00000406002010B541628069026806
:1049000022F0400202600020104C022907D0012250
:1049100041B10223032908D0012909D00AE06061CE
:10492000206107E0C4E9040204E0C4E9043001E0C6
:10493000C4E904320548FCF77BFD08B1FCF7C6F872
:104940002068016841F04001016010BD04060020AC
:1049500010B58269136823F040031360074CE160CF
:1049600081832046FCF764FD08B1FCF7AFF82068AE
:10497000016841F04001016010BD00000406002004
:1049800010B58269136823F040031360074CE1619E
:1049900001622046FCF74CFD08B1FCF797F820684F
:1049A000016841F04001016010BD000004060020D4
:1049B00070B5054690F82C00002825D1A86A8047DC
:1049C000124CA96900202160A060AA8B206260625D
:1049D000E260A0620720E0624FF40070A0614FF433
:1049E00082706060086820F0400008602046FCF794
:1049F0001FFD08B1FCF76AF82068016841F040012A
:104A00000160012085F82C0070BD00000406002024
:104A100010B50446FFF7CCFF00212046FFF798FFB2
:104A200094F820102046FFF7ABFF94F8241020469E
:104A3000FFF762FFE18B2046BDE81040FFF744BF5F
:104A4000826993689B07FCD593681B06F9D4D160F3
:104A500080698168C907FCD081680906F9D470476C
:104A600010B50EE083699C68A407FCD59C682406F9
:104A7000F9D4D96083699C68E407FCD09C6824065B
:104A8000F9D4521EEED210BDF0B5224E8569B54262
:104A900001D1046808E0204EB54201D1846803E0EA
:104AA0001E4EB54200D104696E6846F002066E6083
:104AB0001B4D6E681B4F3E436E60858BB5F5006FD6
:104AC00025D0002586690C360BB143F220032768F8
:104AD00043F0920327F0010727602768FF07FCD106
:104AE000A660E1602B4323606260216841F0010110
:104AF0002160806981688907FCD581680906F9D43D
:104B00008168C907FCD081680906F9D4F0BD4FF46B
:104B1000A065D7E70030014000380040003C00406D
:104B20000000024022222202826993689B07FCD582
:104B300093681B06F9D4D16080698168C907FCD0ED
:104B400081680906F9D4704770B515460A460446CF
:104B500029461046FDF766FA0749A069884201D147
:104B6000256070BD0549884201D1A56070BD04492A
:104B70008842FBD1256170BD003001400038004003
:104B8000003C004070B5044680690E46016821F083
:104B9000400101603146A069FDF74CF9094D3146ED
:104BA000E861A069FDF746F920622846FCF740FC61
:104BB00008B1FBF78BFF2868016841F040010160F4
:104BC00070BD000004060020826993689B07FCD535
:104BD00093681B06F9D4D16080698168C907FCD04D
:104BE00081680906F9D4C068C0B2704781610021AC
:104BF000C183202303620223C0E9093280F82C100C
:104C00007047000070B50B4C207888B10A4A616883
:104C1000E068FFF77BFC00280BD0A168002531B1CC
:104C2000054AE068FFF772FC002802D0A5602570F5
:104C3000012070BD040000208C00002070B50B4CDA
:104C400005460E466068A8420BD0FFF7DBFF002840
:104C50000BD0074A2946E068FFF705FE002804D07C
:104C60006560207830432070012070BD0400002072
:104C70008C0000200248017841F00101017070476A
:104C8000040000202DE9F84F1568904606468B4633
:104C90001DB14FF000096D1C05E03568084601297B
:104CA00000D000208146F0682C4600F1010A002760
:104CB000F068B84202D80020BDE8F88F544501D909
:104CC000022425466A462146304600F021F9002894
:104CD000F2D0009808B1651C03E0601B401C5845E9
:104CE00002D0641C7F1CE3E7304621466FF070421F
:104CF00000F09CF80028DFD007E02246611E304615
:104D000000F094F80028D7D0641EAC42F5D8D8F84B
:104D1000001029B12A46304600F088F80028CBD090
:104D2000C8F80050B9F1000F01D06D1C35600120AA
:104D3000C2E7000070B504463A4816004FF000057F
:104D4000C16015D0042E31D800212846FFF776FF28
:104D500000282CD0344800EB061090F8AE1100F576
:104D6000D770490622D1C16864291FD38568EDB187
:104D700000212846FFF762FF002818D02A4830F8A3
:104D80000B1FB1F5007F11D1417979B1B0F8032043
:104D900062B1827852B12176827800212271217429
:104DA000012305E04E1C2674072901D9002070BD9F
:104DB000217C03FA01F6B242F4D1B0F80B1009B924
:104DC000D0F81910A160B0F803202A44E261C3882A
:104DD0006384437903FB01216162C28840F2FF13BF
:104DE00003EB421201EB52226261018909B9D0F84A
:104DF0001510521B891A227CD14040F6F572E160F1
:104E0000914201D20C2009E04FF6F572914201D295
:104E1000102003E0D0F821006062202084F82000F8
:104E2000012070BD040000208C0000202DE9F0411D
:104E300017460C460546022903D3E868401CA042E9
:104E400002D20020BDE8F08195F82000E969102821
:104E500021D0E009DFF84C804618D8F804008642DB
:104E600005D000213046FFF7E9FE0028EAD095F88A
:104E700020100D48102910D004F07F0140F8217057
:104E8000FFF7F8FE287E012803D9A8688119C8F821
:104E900008100120D6E7200ADCE7E1B220F8117003
:104EA000EEE70000040000208C00002038B5044626
:104EB00002200D4620606A462946204600F028F868
:104EC00000280ED0002229462046FFF7AFFF002819
:104ED00007D0009D2046294600F00AF80028EAD0B5
:104EE000012038BD4269007C891E814050187047FE
:104EF00090F82000102804D00448884204D80120EB
:104F000070474FF6F870F8E700207047F8FFFF0F82
:104F100070B50546C0680C46401C1646A04201D23A
:104F2000002070BD95F82000E969102818D0E0092C
:104F300008440E494968884204D00021FFF77EFEEC
:104F40000028EED095F82010094810290AD004F066
:104F50007F0150F8210020F070403060012070BDCA
:104F6000200AE5E7E1B230F81100F6E7040000207E
:104F70008C000020F7B51546064600244FF4007754
:104F800001AA30460199FFF7C3FF00280BD0307CFF
:104F9000019907FA00F004443046FFF7A9FF002802
:104FA000EED001202C60FEBD0020FBF778BB02E0B4
:104FB00008C8121F08C1002AFAD1704770470020A4
:104FC00001E001C1121F002AFBD1704738B53148FA
:104FD000FDF78DFA2F484830FDF789FA2D489030BB
:104FE000FDF785FA2B48D830FDF781FA2A48FDF7FE
:104FF0007EFA29484830FDF77AFA264C274D0123DE
:105000002522294604F5D8700094FDF7C5FB01233D
:105010002522294604F509700094FDF7BDFB04F133
:1050200048000090022326221D4900F51470FDF768
:10503000B3FB04F19000009003232722194900F5E7
:105040001F70FDF7A9FB04F1D8000090042334225F
:10505000154900F52A70FDF79FFB0F4800900523C6
:105060003522124900F53570FDF796FB104A1149BB
:1050700004F58D60FFF7BAFD0F4A104904F2C440F1
:10508000FFF7B4FD04F5A460BDE838400C4A0D49B3
:10509000FFF7ACBDD0060020F0070020003801402B
:1050A0000044004000480040004C004000500040D8
:1050B0002D19000800300140811900080038004017
:1050C000D5190008003C0040064800220223427126
:1050D000827182720273036180F830203830FFF7EA
:1050E00003BA0000280000200E4910B500204871C6
:1050F000887188720873103102220A6081F82000DA
:105100002831094AC1E90020487201F12800FEF760
:10511000D1FC0448032304220521BDE8104084305B
:10512000FEF79ABC8C020020506B000810B50446B4
:10513000FBF7B8FF41F66231B0FBF1F0002104E06B
:105140000022521C8242FCD9491CA142F8D310BD56
:10515000FFF7ECBF61B100220649C0EBC00001EBD4
:10516000800351F820005B6812019340036170478F
:105170000122F1E78C5A0008001F704708B5FBF7C1
:10518000B1FDFCF7A6FA01213E2000F0CDFB4FF463
:10519000E131ED48FDF7C8F9EC48FEF71BF90022B4
:1051A0000A21EA48FEF72EF80446E9A1E648FEF790
:1051B0004CFD10222146E448FEF7C9FD00220B21D8
:1051C000E248FEF71FF80446E7A1DF48FEF73DFD81
:1051D00010222146DC48FEF7BAFD00220C21DB48F4
:1051E000FEF710F80446E4A1D748FEF72EFD102282
:1051F0002146D548FEF7ABFD00220A21D348FEF731
:1052000001F80446E1A1D048FEF71FFD1022214617
:10521000CD48FEF79CFD00220F21CC48FDF7F2FFA0
:105220000446DFA1C848FEF710FD10222146C648FB
:10523000FEF78DFDDFA1C448FEF768FDE9A1C24875
:10524000FEF701FDFCF7EEFC01460A22BE48FEF720
:1052500092FD4FF4FA763046FFF768FFE8A1BA48AE
:10526000FEF7F1FCFCF748FF01460A22B648FEF7BC
:1052700082FD74002046FFF759FF2046FFF756FFD6
:105280002046FFF753FFE5A1AF48FEF7DCFC40F2F4
:10529000FF70FDF715F801460A22AB48FEF76BFDDB
:1052A0003046FFF743FFE4A1A748FEF7CCFC1F21DF
:1052B000C802FCF7E5FB01460A22A348FEF75BFDA6
:1052C0003046FFF733FFE3A19F48FEF7BCFC4FF4E5
:1052D000FC60FDF7BFF801460A229B48FEF74BFD34
:1052E0003046FFF723FFE2A19748FEF7ACFC4FF6EC
:1052F0001F0529464FF6E070FCF706FD01460A221D
:105300009148FEF738FD3046FFF710FFDFA18E48C9
:10531000FEF799FC29460A20FCF75CFD01460A22AB
:105320008948FEF728FDE0A18748FEF78CFC4FF680
:10533000FF710A20FCF770FB01460A228248FEF743
:105340001AFD3046FFF7F2FEDEA17F48FEF77BFC38
:10535000FCF7CAFB01460A227B48FEF70CFD3046EB
:10536000FFF7E4FEDEA17848FEF76DFCFCF78AFD4E
:1053700001460A227448FEF7FEFC3046FFF7D6FECF
:10538000DEA17148FEF75FFCFCF76CFC01460A22C7
:105390006D48FEF7F0FC3046FFF7C8FEDEA16A4814
:1053A000FEF751FCFCF7CCFD01460A226648FEF7E9
:1053B000E2FC3046FFF7BAFEDEA16348FEF7A6FC2A
:1053C0002046FFF7B3FEDD48012102785F488438AC
:1053D000FFF744F9A8B1DAA15B48FEF7A1FC5A48EF
:1053E000FEF7D3FCE1A15848FEF72FFC574884385C
:1053F000007B012816D0022816D0032823D0E0A174
:1054000013E0E1A15048FEF78BFCE9A14E48FEF7FE
:1054100087FCEDA14C48FEF783FCF2494A48FEF7B1
:105420007FFCFEE7F0A100E0F0A14748FEF778FC22
:10543000464D0122743DA5F1100421462846FFF790
:1054400079FC48B901E0EAA1EFE7002221462846AD
:10545000FFF770FC002872D0E7A13B48FEF7F5FB90
:105460003A4C0A22743C3848E168FEF77AFCE7A11E
:105470003548FEF7EAFB21790A223348FEF767FC3C
:10548000E7A13148FEF7E1FB2179E0680A224143B8
:105490002D48FEF766FC2C48FEF777FCE5A12A486C
:1054A000FEF7D3FB94F820100A222748FEF74FFCA2
:1054B0002179E06848434408E4A12348FEF7C5FB8E
:1054C0000A2221462048FEF74CFCE5A11E48FEF7C3
:1054D000BCFBA40A0A2221461B48FEF742FCE5A1B8
:1054E0001948FEF7B2FB2046FBF709F8FBF762F814
:1054F0006FF00902FAF7ECFF0222009202460B4617
:105500001148FEF717FCE0A10F48FEF709FC0F4811
:105510004C38A0F12801FEF76EFF0C48002207214D
:105520004C38FEF73FFDE7A10748FEF78EFB3E2013
:1055300000F09EFA3046FFF70BFEF8E7FFE7E74979
:105540000148FEF7EDFBFEE7800800201003002075
:10555000446973706C617920506F776572204D6F6C
:1055600064653A20307800004D414443544C204D4E
:105570006F64653A20307800506978656C20466F1A
:10558000726D61743A20307800000000496D6167E7
:105590006520466F726D61743A203078000000001B
:1055A00053656C6620446961676E6F737469633A12
:1055B0002030780042656E63686D61726B20202038
:1055C0002020202020202020202020202054696D11
:1055D0006520286D6963726F7365636F6E647329EC
:1055E0000000000053637265656E2066696C6C2074
:1055F000202020202020202020202020200000000B
:105600005465787420202020202020202020202075
:105610002020202020202020200000004C696E65E2
:105620007320202020202020202020202020202027
:105630002020202020000000486F72697A2F5665D4
:105640007274204C696E6573202020202020202059
:105650002000000052656374616E676C65732028DA
:105660006F75746C696E6529202020202000000071
:1056700052656374616E676C6573202866696C6C33
:1056800065642920202020202000000043697263E7
:105690006C6573202866696C6C6564292020202065
:1056A0002020202020000000436972636C65732075
:1056B000286F75746C696E652920202020202020B9
:1056C00020000000547269616E676C657320286F5A
:1056D00075746C696E652920202020202000000050
:1056E000547269616E676C6573202866696C6C65BD
:1056F000642920202020202020000000526F756E99
:1057000064656420726563747320286F75746C69B6
:105710006E65292020000000526F756E646564205C
:105720007265637473202866696C6C656429202037
:1057300020000000446F6E6521000000140000206E
:10574000576972696E6720697320636F727265634F
:105750007420616E6420612063617264206973202B
:1057600070726573656E742E000000004361726490
:1057700020747970653A20202020202020202000ED
:10578000556E6B6E6F776E00696E697469616C69D6
:105790007A6174696F6E206661696C65642E20544D
:1057A00068696E677320746F20636865636B3A0085
:1057B0002A2069732061206361726420696E7365B9
:1057C000727465643F0000002A20697320796F7548
:1057D0007220776972696E6720636F727265637495
:1057E0003F000000786B00085344310053443200FE
:1057F0005344484300000000436C75737465727332
:105800003A2020202020202020202000426C6F639E
:105810006B73207820436C75737465723A20200096
:10582000546F74616C20426C6F636B733A2020205C
:1058300020202000566F6C756D652074797065208E
:1058400069733A202020204641540000566F6C7541
:105850006D652073697A6520284B62293A20200003
:10586000566F6C756D652073697A6520284D6229C5
:105870003A202000566F6C756D652073697A65203B
:10588000284762293A2020000A46696C6573206621
:105890006F756E64206F6E2074686520636172643A
:1058A00020286E616D652C206461746520616E64D2
:1058B0002073697A6520696E206279746573293A6C
:1058C00020000000496E697469616C697A696E67CD
:1058D00020534420636172642E2E2E00BC6B00089E
:1058E00038B54FF0E0242069FBF7EEF96569A1694E
:1058F0006D1C691A00912169C1F3004181B1FBF768
:10590000E3F9A169691A00914FF47A725143B1FB2E
:10591000F5F100EB4002C2EBC01001EBC00038BD56
:105920000099F1E7FBF7D0B930B54C4AC0EBC003A2
:1059300085B052F8230002EB830293889CB29368EF
:10594000474A012B0CD0022B12D0032B18D0042B6A
:105950001ED0052B24D0062B2AD0072B30D037E0C1
:10596000936943F004039361926902F004022EE00C
:10597000936943F008039361926902F0080226E0FC
:10598000936943F010039361926902F010021EE0E4
:10599000936943F020039361926902F0200216E0BC
:1059A000936943F040039361926902F040020EE074
:1059B000936943F080039361926902F0800206E0EC
:1059C000936943F480739361926902F48072049244
:1059D00000220094B9B10125022917D0022403291D
:1059E00017D00323012917D0072917D0042919D06C
:1059F00005291CD006291ED00C291FD00D2921D025
:105A00000E2923D025E00192029222E0CDE9012562
:105A10001FE0CDE901241CE0019501E01121019175
:105A2000039316E001AC122184E80E0011E001940A
:105A3000CDE902230DE0CDE901340AE00949CDE9C1
:105A4000011206E00849CDE9011502E00749CDE958
:105A500001146946FBF73CF805B030BD8C5A0008CC
:105A60000010024000003110000021100000111051
:105A70000549C0EBC00051F82020D36801EB80003D
:105A800040684340D36070478C5A00080000000013
:105A90000000000000000000000000000000000006
:105AA00000000000000000000008014001000000AC
:105AB00001000000000000000000000000000000E5
:105AC000000000000008014002000000010000008A
:105AD0000100000000000040040000000000000081
