:020000040800F2
:10000000C005002045010008F5080008CD080008DB
:10001000F1080008A7060008C1140008000000004D
:100020000000000000000000000000006D1100084A
:10003000AB06000800000000610E0008591200081D
:100040005F0100085F0100085F0100085F01000810
:100050005F0100085F0100085F0100085F01000800
:100060005F0100085F0100085F0100085F010008F0
:100070005F0100085F0100085F0100085F010008E0
:100080005F0100085F0100085F0100085F010008D0
:100090005F0100085F0100085F0100085F010008C0
:1000A0005F0100085F0100085F0100085F010008B0
:1000B0005F0100085F0100085F0100085F010008A0
:1000C0005F0100085F0100085F0100085F01000890
:1000D0005F010008C91200085F0100085F01000805
:1000E0005F0100085F0100085F0100085F01000870
:1000F0005F0100085F0100085F0100085F01000860
:100100005F0100085F0100085F0100085F0100084F
:100110005F0100085F0100085F0100085F0100083F
:100120005F0100085F0100085F0100085F0100082F
:10013000DFF80CD000F084FA00480047491E0008A0
:10014000C00500200648804706480047FEE7FEE756
:10015000FEE7FEE7FEE7FEE7FEE7FEE7FEE7FEE777
:1001600069120008310100082DE9FE4F81EA0304FD
:1001700004F0004421F0004100944FF0000B23F004
:10018000004350EA01045ED052EA03045BD0C3F39B
:100190000A54C1F30A552C44A4F2F3340194A0FB91
:1001A0000254C1F3130141F48011C3F3130343F468
:1001B000801301FB024400FB034E840A970A44EAC1
:1001C000815447EA8357A4FB076802958D0A05FB13
:1001D00007854FEA932C04FB0C542705029D4FEA38
:1001E000065847EA1637B5EB08056EEB070C870E85
:1001F000920E47EA811742EA8312A7FB0201B6EB8F
:100200000B0164EB00042B0D43EA0C335E1844EB46
:100210001C50DA465146E7FB0201C5F313044FEACE
:100220000B3343EA14534FEA0432019C43EA0603BA
:10023000A4F10C040294009CCDE900B400F06CF829
:1002400003B0BDE8F08F00200146F9E730B50B465A
:10025000014600202022012409E021FA02F59D42F6
:1002600005D303FA02F5491B04FA02F52844151ECA
:10027000A2F10102F1DC30BD2DE9F05F054600205E
:1002800092469B4688460646814640241BE0284607
:1002900041464746224600F020F853465A46C01AC7
:1002A000914110D311461846224600F0DBF92D1A71
:1002B00067EB01084F4622460120002100F0D2F9E9
:1002C00017EB00094E41201EA4F10104DFDC484673
:1002D00031462A464346BDE8F09F202A04DB203AF7
:1002E00021FA02F00021704721FA02F3D040C2F156
:1002F0002002914008431946704710B5141E73F14F
:10030000000408DA401C41F1000192185B411A43D5
:1003100001D120F0010010BD2DE9F04D92469B4621
:1003200011B1B1FA81F202E0B0FA80F220329046C7
:1003300000F098F904460F4640EA0A0041EA0B0132
:1003400053465A46084313D0114653EA010019D0C8
:10035000C8F140025046FFF7C0FF05460E46504622
:100360005946424600F07EF9084305D0012004E0DA
:1003700020463946BDE8F08D0020054346EAE07688
:100380002C4337430A986305E40AA0EB08000022D7
:10039000FD0A44EA47540A3002D500200146E9E745
:1003A000010510196941DDE9084500196941BDE8F9
:1003B000F04DA2E72DE9FE4F804681EA0300C00F11
:1003C0000C46009021F0004123F00045B8EB0200FC
:1003D000A94105D24046214690461C460B4602469E
:1003E00023F00040104347D0270DC7F30A00C3F3A2
:1003F0000A510290401A019040286BDAC3F31300AF
:1004000040F4801B0098924620B10023D2EB030AEF
:1004100063EB0B0B01985946C0F14002504600F0C7
:1004200021F906460D4650465946019A00F029F931
:1004300010EB08006141002487EA115284EAE77357
:100440001A4340D0009A62B3019A012A4FEA075238
:1004500015DC001B61EB02014FF0004202EA07527B
:10046000CDE90042001C41F5801132462B46FFF7D2
:1004700053FF03B0BDE8F08F40462146F9E7001B6B
:1004800061EB0201001C41F5801300185B4120184C
:10049000A2F5001747EB030140EAD570B6196D418C
:1004A00011E06D084FEA360645EAC0754FEA07527B
:1004B000001B61EB0201001C41F5801149084FEA65
:1004C00030000019514132462B4603B0BDE8F04FD1
:1004D000FFF713BF0098012240000023D0EB020277
:1004E00063EBE073009821464FEAE074B8EB00003C
:1004F00061EB0401E9E783F000435BE781F0004131
:1005000058E72DE9F04D81EA030404F0004B21F097
:10051000004514464FF0000A23F0004150EA05025E
:1005200020D054EA01021DD0C5F30A570246C5F394
:100530001303C1F31300C1F30A5640F4801543F4CA
:100540008013A7EB0608101BD64608F2FD3873EBA4
:10055000050002D308F1010801E092185B41B8F1EF
:10056000000F03DA00200146BDE8F08D00204FF4B3
:100570008011064684460EE0171B73EB050705D372
:10058000121B63EB050306434CEA010C49084FEAD2
:10059000300092185B4150EA0107EDD152EA0300A6
:1005A00012D082EA040083EA0501084305D0101B3B
:1005B000AB4106D20122002306E000224FF00043A7
:1005C00002E06FF0010253101AEB06004CEB0851E9
:1005D00010EB0A0041EB0B01BDE8F04DFFF78DBEBB
:1005E000C1F30A52C1F3130140F2FF3341F4801109
:1005F0009A4202DA00200146704740F233439A42A1
:10060000A2F2334202DC5242FFF767BE00F02AB882
:1006100030B5041E71F1000404DB4FF00044404289
:1006200064EB0101141E73F1000405DB1C464FF05E
:100630000043524263EB0403994208BF904230BD2D
:10064000064C074D06E0E06840F0010394E807001F
:1006500098471034AC42F6D3FFF76EFD88200008AF
:10066000A8200008202A04DB203A00FA02F100202A
:1006700070479140C2F1200320FA03F319439040E0
:100680007047202A06DBCB17203A41FA02F043EAF2
:10069000E07306E041FA02F3D040C2F1200291403B
:1006A00008431946704700BFFEE770472DE9F04147
:1006B000024600250026002000230024002791F890
:1006C00003C00CF00F0591F803C00CF0100CBCF146
:1006D000000F03D091F802C04CEA050591F800C064
:1006E000BCF1000F31D0146800202BE04FF0010C5A
:1006F0000CFA00F3B1F800C00CEA03069E4220D1C8
:1007000083004FF00F0C0CFA03F7BC4305FA03FC0F
:100710004CEA040491F803C0BCF1280F06D14FF055
:10072000010C0CFA00FCC2F814C00AE091F803C0F6
:10073000BCF1480F05D14FF0010C0CFA00FCC2F8D7
:1007400010C0401C0828D1D31460B1F800C0BCF11F
:10075000FF0F34DD546800202EE000F1080C4FF04C
:10076000010808FA0CF3B1F800C00CEA03069E4237
:1007700021D183004FF00F0C0CFA03F7BC4305FAAC
:1007800003FC4CEA040491F803C0BCF1280F05D126
:1007900000F1080C08FA0CF8C2F8148091F803C0B4
:1007A000BCF1480F07D100F1080C4FF0010808FA1E
:1007B0000CF8C2F81080401C0828CED35460BDE865
:1007C000F0810000F8B504460D4616461F46114854
:1007D000844204D10121042000F054FB0EE00E48B5
:1007E000844204D10121082000F04CFB06E00B48B4
:1007F000844203D10121102000F044FBADF80050E9
:100800008DF803608DF8027069462046FFF74EFFB1
:10081000F8BD000000080140000C0140001001403C
:10082000F8B504460D4616461F462148844204D1B9
:100830000121042000F026FB2EE01E48844204D152
:100840000121082000F01EFB26E01B48844204D151
:100850000121102000F016FB1EE01848844204D14C
:100860000121202000F00EFB16E01548844204D13F
:100870000121402000F006FB0EE01248844204D122
:100880000121802000F0FEFA06E00F48844203D1E7
:100890000121801500F0F6FAADF800508DF80360E4
:1008A0008DF8027069462046FFF700FFF8BD000092
:1008B00000080140000C01400010014000140140FC
:1008C00000180140001C01400020014000BFFEE76D
:1008D00010B50323102251020348FFF773FF0120D4
:1008E0000249086010BD000000100140B40122421E
:1008F00000BFFEE77047000010B54FF48050074975
:100900000860FF21064800F076FB04464FF4805053
:100910000249091F0860204610BD0000140C014068
:100920000038004010B5FFF7E7FF044604F0200050
:1009300008B1012010BD04F0100008B10020F9E753
:10094000FF20F7E770B505460C4638224FF4827158
:100950003A4800F07DFB202C00DD2024384845700B
:100960000470012036498870C87000F026F93449B7
:10097000487800F0CBF832480178112000F0F4F903
:100980002F480178122000F0EFF92D48017813204C
:1009900000F0EAF92A480178142000F0E5F9284827
:1009A0000178152000F0E0F925480178162000F0C4
:1009B000DBF9234A9178D07800F0CEF808210020A6
:1009C00000F0D2F93F21012000F0CEF93F210220B2
:1009D00000F0CAF94F21042000F0C6F900211C20C4
:1009E00000F0C2F94FF4805016490860E121134825
:1009F00000F001FB4FF480501249091F0860091DE7
:100A00000860E2210D4800F0F6FA4FF480500D49DD
:100A1000091F086001220421072000F08DF901223E
:100A20000521072000F088F901220621072000F0A7
:100A300083F900F009F8012070BD00000038004083
:100A400018000020140C014010B54FF480501449D8
:100A50000860E221134800F0CEFA4FF480501049AC
:100A6000091F086001220421072000F065F9012216
:100A70000521072000F060F901220621072000F07F
:100A80005BF94FF40060064908600B21002000F07C
:100A90006BF94FF400600249091F086010BD0000A7
:100AA000140C01400038004010B501220421072039
:100AB00000F042F901220521072000F03DF9012252
:100AC0000621072000F038F90A21002000F04CF937
:100AD00010BD000070B504464FF48050094908600D
:100AE00004F01F01084800F086FAFF21064800F0D4
:100AF00082FA05464FF480500249091F08602846D3
:100B000070BD0000140C01400038004010B50446D0
:100B10007D2C09DC05484078A04205D0034844708C
:100B20002146052000F020F910BD0000180000202B
:100B300010B504464FF400600649086005222146BE
:100B40000B2000F02DF94FF400600249091F0860E6
:100B500010BD0000140C014070B506460D4600247F
:100B60000E48C670857016B944F0080403E0022EE2
:100B700001D144F02004032D02D144F0060408E022
:100B8000022D02D144F0040403E0012D01D144F010
:100B900002042146062000F0E7F870BD180000208E
:100BA00010B50446052221460A2000F0F9F8052276
:100BB0002146102000F0F4F810BD1CB508210020DB
:100BC00000F0D2F83F21012000F0CEF803210220EE
:100BD00000F0CAF80321084600F0C6F803210420FB
:100BE00000F0C2F80221052000F0BEF80E21062018
:100BF00000F0BAF80E21072000F0B6F80021082016
:100C000000F0B2F80021092000F0AEF8E7208DF8DE
:100C100000008DF801008DF802008DF803008DF8BA
:100C20000400052269460A2000F0BAF8C2208DF8B7
:100C300000008DF801008DF802008DF803008DF89A
:100C40000400052269460B2000F0AAF8C3210C20FD
:100C500000F08AF8C4210D2000F086F8C5210E208E
:100C600000F082F8C6210F2000F07EF8E7208DF812
:100C700000008DF801008DF802008DF803008DF85A
:100C8000040005226946102000F08AF80021112096
:100C900000F06AF80021122000F066F8002113200D
:100CA00000F062F80021142000F05EF80021152009
:100CB00000F05AF80021162000F056F811211720F4
:100CC00000F052F800211C2000F04EF800211D20F9
:100CD00000F04AF81CBD000070B5044613480578C2
:100CE0004FF4006012490860FFF7DEFE4FF48050B9
:100CF0000F490860E1210F4800F07DF94FF4805062
:100D00000B49091F0860091D0860A021094800F06F
:100D100072F92A462146074800F089F94FF48050BD
:100D20000349091F08604010086070BD18000020CA
:100D3000140C0140003800402DE9F04107460C46F4
:100D400016463846FFF7C6FE054626B10120A040EC
:100D50002843C5B202E00120A04085432946384619
:100D600000F002F8BDE8F08170B504460D464FF47E
:100D700080500949086004F01F0040F02001074836
:100D800000F039F92946054800F035F94FF4805054
:100D90000149091F086070BD140C01400038004073
:100DA00070B504460D4616464FF480500949086058
:100DB00004F01F0040F02001074800F01CF9324603
:100DC0002946054800F033F94FF480500149091FC6
:100DD000086070BD140C01400038004070B500215F
:100DE00000230F22C47804B3154C246804F4E06493
:100DF000C4F5E064210AC1F10403CA40447804FA4E
:100E000003F184781440214309010E4C0678A15562
:100E1000047804F01F050124AC4005786D11AD0085
:100E200005F1E025C5F8004109E0047804F01F054C
:100E30000124AC40044D0678761145F8264070BD7B
:100E40000CED00E000E400E080E100E00249014335
:100E5000024A1160704700000000FA050CED00E046
:100E60007047000029B1064AD2690243044BDA6197
:100E700004E0034AD2698243014BDA617047000003
:100E80000010024029B1064A92690243044B9A615C
:100E900004E0034A92698243014B9A617047000063
:100EA0000010024030B500210022002400232D4D07
:100EB0006D6805F00C0121B1042905D0082923D162
:100EC00005E0294D056022E0274D05601FE0254D16
:100ED0006D6805F47012234D6D6805F480340225A9
:100EE00005EB92421CB9214D554305600BE01D4DA9
:100EF0006D6805F400351DB11C4D5543056002E0D9
:100F0000194D5543056002E0174D056000BF00BF55
:100F1000144D6D6805F0F0010909154D6B5C05680D
:100F2000DD4045600F4D6D6805F4E061090A104D24
:100F30006B5C4568DD4085600A4D6D6805F4605165
:100F4000C90A0B4D6B5C4568DD40C560054D6D6899
:100F500005F44041890B074D6B5CC568B5FBF3F5A3
:100F6000056130BD0010024000127A0000093D000A
:100F7000200000203000002021B1028842F40052FD
:100F8000028004E002884DF6FF731A400280704729
:100F900021B1028842F04002028004E002884FF64C
:100FA000BF731A40028070470246002013890B402D
:100FB0000BB1012000E00020704710B5002202882C
:100FC00002F441520B884C8823438C882343CC88FD
:100FD00023430C8923434C8923438C892343CC89A5
:100FE00023431A430280838B4FF2FF742340838391
:100FF0000B8A038210BD70B504460D46A58100BF63
:1010000002212046FFF7D0FF0028F9D000BF0121C0
:101010002046FFF7C9FF0028F9D000BF80212046F5
:10102000FFF7C2FF0028F9D1A089C0B270BD2DE939
:10103000F04107460D461646002405E0295D384676
:10104000FFF7D9FF601C84B2B442F7DBBDE8F08142
:1010500070B586B005460C4616464048854213D109
:10106000B4F5827F10D101218014FFF70BFF032319
:101070001822A0213A48FFF7A5FB032304224021B0
:101080003748FFF79FFB41E03448854211D184B9CE
:1010900001218014FFF7F6FE03230422A02130482B
:1010A000FFF790FB0323182240212D48FFF78AFB0E
:1010B0002CE02C48854214D1B4F5827F11D1012156
:1010C0000014FFF7CFFE032318224FF420412648D7
:1010D000FFF778FB0323042211032348FFF772FB79
:1010E00014E02048854211D184B901210014FFF792
:1010F000B9FE032304224FF420411B48FFF762FB93
:101100000323182229141848FFF75CFB0020ADF8D0
:101110000400ADF806404FF40060ADF80800002070
:10112000ADF80A000120ADF80C004002ADF80E0049
:10113000ADF810600020ADF812000720ADF81400E3
:1011400001A92846FFF739FF01212846FFF714FFC0
:1011500001212846FFF71CFF06B070BD003001409A
:101160000008014000380040000C0140704710B5F5
:1011700000F002F810BD00000CB5002001900090B6
:101180003348006840F480303149086000BF30487F
:10119000006800F4003000900198401C0190009815
:1011A00018B90198B0F5A06FF1D12948006800F492
:1011B000003010B10120009001E000200090009864
:1011C000012843D12348006840F0100021490860FD
:1011D0000846006820F0030008600846006840F0F8
:1011E000020008601A48406819494860084640688B
:1011F00048600846406840F480604860084640689F
:1012000020F47C1048600846406840F4E8104860CC
:101210000846006840F08070086000BF0C48006815
:1012200000F000700028F9D00948406820F0030061
:10123000074948600846406840F00200486000BF27
:101240000348406800F00C000828F9D10CBD0000EC
:10125000001002400020024002480068401C014982
:10126000086070471C00002010B51348006840F06B
:1012700001001149086008464068104908400E49BD
:101280004860084600680E4908400B490860084657
:10129000006820F4802008600846406820F4FE00C2
:1012A00048604FF41F008860FFF761FF4FF0006057
:1012B0000449086010BD0000001002400000FFF863
:1012C000FFFFF6FE08ED00E010B540F2255106489C
:1012D00000F027F830B10448001D0088C1B203486F
:1012E00000F0DEF810BD00000038014000000020D2
:1012F00021B1828942F40052828104E082894DF654
:10130000FF731A408281704702460020B1F5007FCA
:1013100000D100BF13880B400BB1012000E000207A
:10132000704770B50246002400230025002040F6D7
:101330006A16B14200D100BFC1F3421501F01F038C
:10134000012606FA03F3012D02D19689334006E007
:10135000022D02D1168A334001E0968A33400C12E6
:10136000012606FA04F41688344013B10CB10120AA
:1013700000E0002070BDF0B50346002400260025E3
:10138000002040F66A17B94200D100BF1846C1F3E9
:10139000421401F01F06012707FA06F5012C01D1BE
:1013A0000C3004E0022C01D1103000E014301AB1EE
:1013B00007682F43076002E00768AF430760F0BD8E
:1013C0002DE9F04786B005460E460024A24600BF30
:1013D000A1460027B08900B100BF2F462C8A4CF6E9
:1013E000FF700440F08804432C82AC894EF6F31061
:1013F0000440B08831890843718908430443AC81B3
:10140000AC8A4FF6FF400440B0890443AC8201A887
:10141000FFF748FD1F48874202D1DDF810A001E028
:10142000DDF80CA0A88900F4004040B10AEBCA0026
:1014300000EB0A1031684900B0FBF1F807E00AEB55
:10144000CA0000EB0A1031688900B0FBF1F8642093
:10145000B8FBF0F004012009642101FB1089A88980
:1014600000F4004040B1322000EBC900B0FBF1F0C5
:1014700000F00700044308E0322000EB091064216B
:10148000B0FBF1F000F00F0004432C8106B0BDE882
:10149000F087000000380140C1F3080282807047E5
:1014A000427903799A4201D100224271437902685C
:1014B000D1544279521C4271C279521CC271704798
:1014C00000BFFEE70FB4084B10B504A902AA0398A9
:1014D00000F0DEF8044602A9002000F070FC20466F
:1014E00010BC5DF814FB0000BF1D000802E008C836
:1014F000121F08C1002AFAD170477047002001E08E
:1015000001C1121F002AFBD1704700002DE9FF5FC7
:1015100082B00021DDE90430020DDDF840B0034364
:1015200018D044F61050A2F2FF324243151411981D
:1015300001281FD0A5EB0B00401C5FEA000A4FF00A
:1015400000064E4FDFF83891B046504615D5CAF127
:10155000000413E0119801244AA3012801D16FEA85
:101560000B010298119AC0E90031C0E9024206B0AD
:10157000BDE8F09FCBF10000DFE704460021404AC0
:10158000491842EB0450CDE9001012E0E00707D003
:1015900032463B4640464946FEF7E6FD80468946D0
:1015A00032463B4610461946FEF7DEFD06460F461C
:1015B0006410002CEAD1DDE90401DDE90023BAF171
:1015C000000F06DAFEF7D0FD42464B46FEF7CCFD93
:1015D00005E0FEF796FF42464B46FEF792FF0446B3
:1015E0000E460022284BFFF713F803D84FF0FF30C8
:1015F000014607E00022254B20463146FEF7DAFE81
:10160000FEF7EEFF102409E0002C0ADB0A2200237B
:10161000FEF732FE039B30321A55641E50EA010277
:10162000F2D1641C039AC4F111031444119A012AE3
:1016300003D0012208430DD10AE0084304D0002062
:101640004FF0110B119072E7A3EB0B056D1E0DE02F
:101650005B4504DD4FF0000205F1010504E003DA0B
:101660004FF00002A5F10105002AECD00298119973
:10167000C0E90231C0E9004579E7000000001440EC
:101680000000F03F300000000000F0430000E03FA9
:101690002DE9FF4F95B09B468946064600250FE28F
:1016A000252877D100242746F84A0121059400E037
:1016B000044316F8013F203B01FA03F01042F7D132
:1016C00030782A2811D06FF02F033078A0F1300243
:1016D000092A16D8059A44F0020402EB820203EBB1
:1016E00042021044761C0590EFE759F8042B05924E
:1016F000002A03DA504244F40054059044F00204F6
:10170000761C30782E2816D116F8010F44F0040408
:101710002A280DD06FF02F023078A0F13003092B6A
:1017200009D807EB870302EB4303C718761CF3E7DE
:1017300059F8047B761C30786C280FD006DC4C28D6
:1017400017D068280DD06A2814D104E0742810D06E
:101750007A280FD10DE044F400140AE044F4801418
:1017600001E044F440147278824202D104F58014FE
:10177000761C761C307866280BD013DC582877D07E
:1017800009DC002875D04528F6D04628F4D0472833
:101790001AD19DE118E0632835D0642879D06528F6
:1017A00012D195E1702873D008DC6728F1D0692840
:1017B0006FD06E280DD06F2806D1B5E073282CD0DD
:1017C000752875D0782874D05A46179990476D1CA3
:1017D00075E1C4F30250022809D003280DD0D9F8CE
:1017E000001004280DD00D6009F1040967E1D9F853
:1017F0000010EA17C1E90052F6E7D9F800100D8091
:10180000F2E70D70F0E719F8041B8DF800100020C6
:101810008DF80100EA46012003E059F804AB4FF0CF
:10182000FF3061074FF0000102D40DE008F1010123
:101830008846B9420FDA8045F8DB1AF8081000290B
:10184000F4D108E008F1010188468142FADB1AF878
:1018500008100029F6D105985B46A0EB0807214641
:101860003846179A00F094FA284400EB080507E080
:101870004DE029E10DE01AF8010B5A4617999047FF
:10188000B8F10108F7D25B4621463846179A13E1B2
:1018900042E00A220092C4F302524FF0000A022AE8
:1018A00008D059F804CB032A4FEAEC710AD00DE0B6
:1018B00029E02AE009F1070121F00702F2E802C15C
:1018C000914609E00FFA8CFC4FEAEC71042A03D12F
:1018D0004FFA8CFC4FEAEC71002907DA0A46002126
:1018E000DCF1000C61EB02012D2202E0220504D59F
:1018F0002B228DF80420012203E0E20701D02022F0
:10190000F7E7904659E00A2102E010220DE010218D
:101910004FF0000A00910BE010224FF0000A44F053
:1019200004040827009203E008224FF0000A009206
:10193000C4F30252022A05D059F804CB0021032A2D
:1019400008D009E009F1070121F00702F2E802C11D
:10195000914605E01FFA8CFC042A01D10CF0FF0C23
:101960004FF00008220728D5702806D0009B83F08E
:10197000100353EA0A0305D00EE040228DF804203C
:10198000012208E05CEA010206D030228DF8042032
:101990008DF8050002229046009B83F0080353EA6D
:1019A0000A030AD15CEA010201D1620705D530229F
:1019B0008DF804204FF001087F1E582804D034A071
:1019C00003900EA802900DE036A0F9E7534660465A
:1019D000009AFEF751FC84460398825C0298401EF0
:1019E000029002705CEA0100F0D1029806A9081A80
:1019F00000F1200A600702D524F4803400E00127BA
:101A0000574502DDA7EB0A0000E0002000EB0A01C9
:101A1000009005984144401A0590E00306D45B46C7
:101A20002146179A059800F0B3F90544002706E00F
:101A300001A85A46C05D179990476D1C7F1C474509
:101A4000F6DBE0030CD55B462146179A059800F0BB
:101A50009FF9054404E030205A46179990476D1CC1
:101A60000099481E00900029F5DC08E002980299D0
:101A70005A460078491C0291179990476D1CBAF19B
:101A80000001AAF1010AF1DC65E10000092801006A
:101A900030313233343536373839616263646566E4
:101AA00000000000303132333435363738394142A6
:101AB000434445460000000000F058F90544761CF8
:101AC000307800287FF4ECAD19B02846BDE8F08FDF
:101AD000620700D4062709F1070222F0070CFCE890
:101AE0000223E14603F000485FEA080C02D00FF23F
:101AF000702C0DE05FEA045C02D50FF2682C07E061
:101B00005FEAC47C02D00FF2602C01E0AFF2700CEF
:101B10004FF0FF3823F00043CDF850C065280CD0BB
:101B200006DC452809D046281DD047283DD13DE098
:101B3000662818D067287ED138E00021112F01DBFC
:101B4000112000E0781CCDE9000106A90EA8FFF7DE
:101B5000DDFCDDE90F010E9A03910021009207F1EF
:101B6000010A04914DE04FF000400097CDE90110CB
:101B700006A90EA8FFF7CAFCDDE90F0203920E9B2F
:101B800011990022DDF80CA00093049211B9791C80
:101B900000EB010AB7EB0A0004D4C0F1FF3007F1F3
:101BA000010A0490AAEB0700019044E0012F00DA3B
:101BB00001270021112F01DD112000E03846CDE979
:101BC000000106A90EA8FFF7A1FCDDE90F010E9A9E
:101BD0000391002104910092BA4621070CD4039985
:101BE000514500DA8A46BAF1010F05DD009AAAF1E3
:101BF0000101515C302908D0B84202DA10F1040F1B
:101C000006DA0121CDE9011015E0AAF10101E9E7A9
:101C1000002805DC049901440491AAEB000102E0CC
:101C2000411C514500DD8A460499401A401C019030
:101C30004FF000400290200704D40198504501DB8A
:101C4000CDF8048000208DF84F0002980DF14F0769
:101C5000B0F1004F25D02B200E9002984FF00208D3
:101C600000280CDA404202902D200E9007E00A2155
:101C70000298FEF7EBFA3031029007F8011DB8F137
:101C80000001A8F10108F2DC02980028EFD1791ECA
:101C90000E980870307800F0200040F0450007F8FA
:101CA000020D12A8C01B00F107081498007800B1BB
:101CB000012000EB0A01019801EBE0710598414415
:101CC000401A401E0590E00306D45B462146179A51
:101CD000059800F05DF805441498007818B15A464C
:101CE000179990476D1CE00324D55B462146179A4F
:101CF000059800F04DF805441CE00498002807DB27
:101D0000DDE90301884203DD0098405C179901E09A
:101D1000179930205A469047049805F10105401C58
:101D200004900198401E019004D12E205A46179924
:101D300090476D1CBAF10001AAF1010ADDDC05E053
:101D400017F8010B5A46179990476D1CB8F100011E
:101D5000A8F10108F4DC5B462146179A0598ABE62A
:101D60002D0000002B000000200000002DE9F041B4
:101D7000044600251E461746880404D405E039466B
:101D80002020B0476D1C641EF9D52846BDE8F081BF
:101D90002DE9F041044600251E469046C80301D5B2
:101DA000302700E02027880404D505E04146384666
:101DB000B0476D1C641EF9D52846BDE8F0810A685D
:101DC000531C0B601070704770B54FF44070FFF7F4
:101DD0003DF8144800684FF47A72B0FBF2F1B1F1AB
:101DE000807F00D31DE021F07F40401E4FF0E022B5
:101DF000506150170F22002807DA13071D0E0A4BF7
:101E000000F00F04241F1D5503E013071C0E074BA1
:101E10001C5400BF00204FF0E022906107201061A9
:101E200000BF70BD4000002018ED00E000E400E0BD
:101E3000044A1268111800BF024A12688A42FBD392
:101E4000704700001C000020FFF7BEFFFEF740FDBA
:101E50004FF416520021224800F092F8032310227A
:101E600051022048FEF7DCFCFFF7AEFF20210F20D7
:101E7000FEF768FD01210846FEF76EFE1A48FEF7E0
:101E800057FE1A48FEF78CFE01201949087026E01B
:101E900017480078012822D120E016A11D48FFF73D
:101EA00011FB1C48FEF718FF01201B49086000BF0A
:101EB000FEF738FD04462146094800F03FF8FF2CA4
:101EC000F6D00020144908601249054800F04AF88D
:101ED000FEF7BAFD4FF4FA60FFF7AAFFDDE7D7E798
:101EE000003801400010014034000020390000207B
:101EF0003F0000206162636465666768696A6B6CB5
:101F00006D6E6F737A784142434445464342444183
:101F10000A00000080010020B401224270B504468E
:101F20000D4629462046FFF7B7FA00BF802120461C
:101F3000FFF7EAF90028F9D070BD000030B599B07C
:101F400005460C46224605A16846FFF7BBFA6946DE
:101F5000034800F007F819B030BD000025640A00FE
:101F60000038014070B505460C4604E014F8011B2A
:101F70002846FFF7D3FF20780028F7D170BD000076
:101F8000F0B585B004460D46174601210846FEF718
:101F900079FF3848844205D101218803FEF772FF9A
:101FA000252610E03448844205D101214804FEF77B
:101FB00059FF262607E03148844204D101218804D4
:101FC000FEF750FF27266DB9032318224FF4007146
:101FD0002B48FEF7F7FB0323042211022848FEF7E3
:101FE000F1FB1CE0012D0CD103231822042124480D
:101FF000FEF7E8FB0323042208212148FEF7E2FB59
:102000000DE0022D0BD10323182269021D48FEF7B3
:10201000D9FB0323042251021A48FEF7D3FB019790
:102020000020ADF80800ADF80A00ADF80C00ADF8DE
:1020300010000C20ADF80E008DF8006000208DF827
:1020400001008DF8020001208DF803006846FEF7BC
:10205000C5FE01A92046FFF7B3F9012240F2255140
:102060002046FFF788F901212046FFF741F905B026
:10207000F0BD00000038014000440040004800402E
:1020800000080140000C0140A820000800000020CA
:1020900054000000EC140008FC200008540000204C
:1020A0006C050000FC1400085400002064000000CF
:1020B000B8000020640000001C0100206400000043
:1020C0000000000000000000000000000102030406
:1020D000010203040607080902040608E7E7E7E728
:1020E000E77E7E7E7E7E000000A24A0400000000A3
:0C20F000000000000102030406070809BC
:0400000508000131BD
:00000001FF
